:020000040800F2
:10000000005B00209502000815600008654F00089D
:100010001160000805170008D97F000800000000E3
:1000200000000000000000000000000091740008C3
:10003000A918000800000000C16100083D75000813
:10004000AF020008AF020008AF020008AF020008CC
:10005000AF020008AF020008AF020008AF020008BC
:10006000AF020008AF020008AF020008AF020008AC
:10007000AF020008AF020008AF020008AF0200089C
:10008000AF020008AF020008AF020008AF0200088C
:1000900009170008AF020008AF020008AF0200080D
:1000A000AF020008AF020008AF020008AF0200086C
:1000B0004D760008AF020008AF020008AF0200084A
:1000C000AF020008AF020008AF020008AF0200084C
:1000D000AF020008B97F0008AF020008AF020008B5
:1000E000AF020008AF020008AF020008AF0200082C
:1000F000AF020008AF020008AF020008AF0200081C
:10010000AF020008AF020008AF020008AF0200080B
:10011000AF020008AF020008AF020008AF020008FB
:10012000AF020008AF02000841170008AF02000844
:10013000AF020008AF020008AF020008AF020008DB
:1001400025170008AF020008AF020008AF02000840
:10015000AF02000851170008AF020008C97F00086D
:10016000AF020008AF020008AF020008AF020008AB
:10017000AF020008AF020008AF0200080000000054
:10018000AF020008AF02000800F002F800F072F8B9
:1001900014A696E8000CB244B344DA4501D100F04D
:1001A00069F8BAE80F000FA696E83000A5EB040541
:1001B00004EB0607AAEB0704A7F101074FEA1515A0
:1001C0004FEA3414A4F10104AC4201D300F052F818
:1001D00013F0010F18BFFB1A43F0010300F001F800
:1001E000DBE71847D89F0000F89F00000A444FF053
:1001F000000C10F8013B13F0070408BF10F8014B86
:100200001D1108BF10F8015B641E05D010F8016BCA
:10021000641E01F8016BF9D113F0080F1EBF10F82E
:10022000014BAD1C0C1B09D16D1E58BF01F801CB51
:10023000FAD505E014F8016B01F8016B6D1EF9D5D4
:100240009142D6D37047000070470000002300247D
:1002500000250026103A28BF78C1FBD8520728BFD6
:1002600030C148BF0B6070471FB509F064FF1FBD68
:1002700010B510BD00F0EAFD1146FFF7F5FF08F0DC
:10028000AFF800F008FE03B4FFF7F2FF03BC00F084
:100290000BFE00000948804709480047FEE7FEE7DB
:1002A000FEE7FEE7FEE7FEE7FEE7FEE7FEE7FEE726
:1002B00004480549054A064B704700003976000896
:1002C0008901000800550020005B00200059002033
:1002D0000059002070B405880E884468D1F804C025
:1002E0005368B54208D140884988884201BF1188C7
:1002F0008D425188884203D070BC6FF00200704775
:1003000005FB00F1880827D094ED001ADCED000A07
:1003100094ED010ADCED011A31EE201AD4ED020A47
:1003200070EE211A9CED020A83ED001AC3ED011A4A
:1003300094ED031ADCED031A30EE800A401E71EED4
:10034000210A83ED020A04F11004C3ED030A03F14C
:1003500010030CF1100CD7D111F0030030D0B0F124
:10036000004F30D200282BDD211F1B1FACF10402EF
:1003700010F0010F0AD091ED010AD2ED010A091D1A
:10038000121D30EE200A83ED010A1B1D400817D014
:1003900091ED010AD2ED010A401E30EE200A83EDF4
:1003A000010A91ED020AD2ED020A01F1080102F1FF
:1003B000080230EE200A83ED020A03F10803E7D1B8
:1003C00070BC00207047B4EC010A401EFCEC010A2E
:1003D00030EE200AA3EC010AF5D1F1E7018042805A
:1003E000436070472DE9F34F84B004984068009053
:1003F000486801900498B0F800E04588DFEDFE0AF7
:1004000000200290B0EE600AAE4506D10888498807
:10041000884204BF7146864504D06FF0020006B0E2
:10042000BDE8F08F01985FEA010C18BFB7EE001A23
:100430003DD000BFBEEB0C0117D0B1F1004F80F0F2
:100440001F82002911DD021F11F0010F1CBFC2ED38
:10045000010A121D4B1006D0C2ED010AC2ED020ABC
:1004600008325B1EF8D100EB8100BCF10102A0EC68
:10047000011A19D0B2F1004F80F00882002A13DD72
:10048000031F12F0010F1CBFC3ED010A1B1D511009
:1004900008D000BFC3ED010AC3ED020A491E03F1F3
:1004A0000803F7D100EB8200BCF1010CC2D14FF080
:1004B00000080395002D14BFB0EE602A002000F064
:1004C000BF8100BF009908FB05F001EB800B01998B
:1004D000DBED002A01EB80000346F0EE421AC64530
:1004E00052D9AEEB0802ABEB850112F0010F17D029
:1004F00001EB850191ED000AB5EEC00AF1EE10FAAC
:1005000007DDB4EEE10AF1EE10FA09DDF0EE401A73
:1005100006E0B1EE400AF4EEC01AF1EE10FAF5D39F
:10052000521031D001EB850C9CED000AB5EEC00AEB
:10053000F1EE10FA05DDB4EEE10AF1EE10FA09DD94
:1005400006E0B1EE400AF4EEC01AF1EE10FA01D264
:10055000F0EE401A01EBC50191ED000AB5EEC00ABC
:10056000F1EE10FA05DDB4EEE10AF1EE10FA09DD64
:1005700006E0B1EE400AF4EEC01AF1EE10FA01D234
:10058000F0EE401A521ECDD1F5EEC01AF1EE10FA7F
:1005900000F07381F5EEC02A0126F1EE10FA009901
:1005A000D4BFB1EE620AB0EE620AB4EE610AF1EEB7
:1005B00010FA1CBFAEEB0802B2F1010C47D005FBEC
:1005C00008F201EB820292ED001A00BFB0EE410A80
:1005D00005FB06F4B5EEC00A00EB8404F1EE10FA58
:1005E000CCBFF0EE400AF1EE400AF4EE610AF1EE03
:1005F00010FA28D1B5EB080C11D0BCF1004F7DD218
:10060000BCF1000F0BDD00BF92ED000AD1ED000A36
:10061000BCF1010CE2EC010AA1EC010AF4D12900C1
:100620000ED0B1F1004F6AD2002909DD94ED000A25
:10063000D0ED000A491EE4EC010AA0EC010AF5D154
:10064000012002900BE0761CBCF1010CBED1029897
:10065000012804D0F5EEC02AF1EE10FA7ED09BED11
:10066000000AB5EB08009A465946064622D0B0F17A
:10067000004F74D200281DDD091F10F0010F06D0B5
:10068000F0EE400A80EEA01A81ED011A091D40101B
:1006900010D000BFD1ED010A401E80EE801A81ED1E
:1006A000011A91ED021AC1EE000AC1ED020A01F130
:1006B0000801EFD1280026D0B0F1004F7ED20028EB
:1006C00021DDAAF1040110F0010F06D0D1ED010ADD
:1006D00080EE801A81ED011A091D401013D000BF71
:1006E000D1ED010A401E80EE801A81ED011AD1ED94
:1006F000020A80EE801A81ED021A01E0CBE0D6E01A
:1007000001F10801ECD1DDE900124FF000095FEAC8
:100710000E0773D0C14504BF01EB860102EB8502D1
:1007200074D091ED000ADC465046331E35D01C468D
:10073000B6F1004F7ED2002C2FDD0B1FABF1040C65
:1007400016F0010F0FD0F0EE400ADCED011AB0EE0A
:10075000601A00EEE11A83ED011A01E08DE0B1E0CC
:100760001B1D0CF1040C741015D000BFD3ED010A51
:100770009CED011A40EE410AC3ED010AD3ED020AD5
:100780009CED021A0CF1080C40EE410AC3ED020A7E
:100790000833641EEAD101EB86012B0036D0B3F199
:1007A000004F72D2002B31DDA2F1040CAAF104003B
:1007B00013F0010F0CD0DCED010A00E08BE090EDAE
:1007C000011A001D40EE410ACCED010A0CF1040CA7
:1007D0005C1019D0DCED010A90ED011A40EE410ADF
:1007E000CCED010ADCED020A90ED021A083040EE71
:1007F000410ACCED020A03E0000000000DE005E034
:10080000641E0CF1080CE5D102EB830201EB8801B8
:100810007F1E09F101097FF47DAF009808F10108FE
:10082000001D00900398401E03907FF44BAE029988
:10083000012900E058E004BF06B0BDE8F08F00BF1A
:10084000B5EEC00AF1EE10FA7FF4E9AD04990EFBA3
:1008500005F3002B4A684FF000010BD902EB810C25
:100860009CED000AB5EEC00AF1EE10FA02D1491C67
:100870008B42F3D88B427FF4D2AD6FF00400CEE50B
:10088000E0EC010A491EFBD1EFE538E0E0EC010A9B
:10089000521EFBD108E692ED000AD1ED000ABCF130
:1008A000010CE2EC010AA1EC010AF4D1B7E694EDE7
:1008B000000AD0ED000A491EE4EC010AA0EC010A8E
:1008C000F5D1BDE6D1ED000A401E80EE801AA1EC04
:1008D000011AF7D1EEE6D3ED000A401E80EE801A31
:1008E000A3EC011AF7D10EE7BCEC011AD1ED000A16
:1008F0005B1E40EE410AE1EC010AF5D14DE7B0EC98
:10090000011AD2ED000A5B1E40EE410AE2EC010A38
:10091000F5D17BE72DE9F04F82B04668536801932B
:10092000058847884B88002000900888874201BFCF
:10093000B2F800C06545528893421EBF6FF00200B6
:1009400002B0BDE8F08F9FED412A4FEA970EC7F342
:10095000400B00BFDDE9000202EB800A4A689846BE
:100960004FF00009B0EE420AB4465FEA0E0025D00F
:1009700092ED001ADCED001A02EB8302DCED010AB5
:1009800001EE810A92ED001A02EB8302401ED2EDC5
:10099000001A02EB830200EE810A9CED021ADCEDE4
:1009A000030A00040CF1100C000C01EE210A92ED78
:1009B000001A02EB830200EE810AD9D117F003007E
:1009C00026D0ACF10404A2EB830210F0010F08D092
:1009D00002EB8302D4ED010A92ED001A241D00EE11
:1009E000810A5FEA0B0013D002EB830CD4ED010AFD
:1009F0009CED001A02EBC302401E00EE810AD4ED0A
:100A0000020A92ED001A04F1080400EE810AEBD10B
:100A100009F10100AAEC010A1FFA80F9486800EB0D
:100A20008902A8F101001FFA80F8B8F1000F99D1EE
:100A3000009806EB8706184480B20090681E0504F3
:100A40002D0C87D102B00020BDE8F08F000000001F
:100A500070B405880E884468D1F804C05368B54264
:100A600008D140884988884201BF11888D42518849
:100A7000884203D070BC6FF00200704705FB00F1A4
:100A8000880827D094ED001ADCED000A94ED010AE5
:100A9000DCED011A31EE601AD4ED020A70EE611A33
:100AA0009CED020A83ED001AC3ED011A94ED031ABE
:100AB000DCED031A30EEC00A401E71EE610A83EDD0
:100AC000020A04F11004C3ED030A03F110030CF150
:100AD000100CD7D111F0030030D0B0F1004F30D25C
:100AE00000282BDD211F1B1FACF1040210F0010FA9
:100AF0000AD091ED010AD2ED010A091D121D30EE56
:100B0000600A83ED010A1B1D400817D091ED010A10
:100B1000D2ED010A401E30EE600A83ED010A91ED2C
:100B2000020AD2ED020A01F1080102F1080230EED8
:100B3000600A83ED020A03F10803E7D170BC0020CC
:100B40007047B4EC010A401EFCEC010A30EE600A6A
:100B5000A3EC010AF5D1F1E72DE9F04F02884768CF
:100B6000B0F802804888D1F8049082B04FF0000AB3
:100B70001646824207BF098888456FF0020002B01E
:100B800018BFBDE8F08F4FEA980B02EB42000190CE
:100B9000C8F34000CDF8000009EB8A01BBF1000F5B
:100BA00033D0019801EB820C01EB80043B46E64612
:100BB00001EBC2054FEA0B0093ED000A401E81EDE8
:100BC000000A93ED010A01EB02118CED000A93ED8E
:100BD000020A0CEB021C85ED000A93ED030A05EBFB
:100BE000021584ED000A04EB021403F11003E3D1B3
:100BF0000EEB820000EB820000EB8201ABF1010002
:100C0000504307EB0B1701EB001118F0030C21D038
:100C10003B1FA1EB82011CF0010F06D093ED010AEE
:100C200001EB82011B1D81ED000A009880B100BF1D
:100C300093ED010A01EB820401EBC20184ED000A8D
:100C400093ED020A401E81ED000A03F10803EFD183
:100C500007EB8C070AF101001FFA80FA701E0604E8
:100C6000360C99D102B00020BDE8F08F53EA020C97
:100C700000F069802DE9F04B4FF00006002B1FBFFC
:100C8000B3FA83F503FA05F424FA05F65E4012BFC1
:100C90001643B2FA82F502FA05F4C5F120051EBF2B
:100CA00022FA05FC44EA0C04203556EA044C4FEACB
:100CB000144418BF641C4FF000084FF00009904224
:100CC00071EB030C39D3002919BFB1FA81F701FA8E
:100CD00007F6B0FA80F700FA07F6C7F120071EBF43
:100CE00020FA07FC46EA0C062037B6FBF4FCA7EB1B
:100CF0000507103F07F01F0BCBF120062CFA06F674
:100D00000CFA0BFB44BFB3460026202FA4BF5E465F
:100D10004FF0000B5BEA060C08BF4FF0010B19EB1C
:100D20000B0948EB0608ABFB027C06FB02CC0BFB75
:100D300003CCC01B71EB0C01C1E70B4602464146D8
:100D40004846BDE8F08B13B5084318BF4FF0FF309D
:100D50000146AFF30080BDE81C40704710B5203A53
:100D6000C0F00B80B1E81850A0E81850B1E8185056
:100D7000A0E81850203ABFF4F5AF5FEA027C24BF28
:100D8000B1E81850A0E8185044BF18C918C0BDE811
:100D900010405FEA827C24BF51F8043B40F8043BDA
:100DA00008BF7047D20728BF31F8023B48BF11F88F
:100DB000012B28BF20F8023B48BF00F8012B7047E9
:100DC00002F0FF0343EA032242EA024200F002B8C3
:100DD0004FF0000200B5134694469646203922BFD4
:100DE000A0E80C50A0E80C50B1F12001BFF4F7AF1F
:100DF000090728BFA0E80C5048BF0CC05DF804EB01
:100E0000890028BF40F8042B08BF704748BF20F86E
:100E1000022B11F0804F18BF00F8012B704770476C
:100E20007047704710B500F009F8006810BD10B5A4
:100E3000044600F003F8046010BD0000004870474D
:100E40008801002000487047880100207546FFF7A0
:100E5000F9FFAE4605006946534620F00700854677
:100E600018B020B5FFF724FABDE820404FF0000687
:100E70004FF000074FF000084FF0000BAC46ACE815
:100E8000C009ACE8C009ACE8C009ACE8C00921F071
:100E900007018D46704710B50446AFF30080204629
:100EA000BDE81040FFF7EFB901491820ABBEFEE7DF
:100EB000260002007047000080B50020C4F2020046
:100EC0001021012201F01EFF80BD000080B500202E
:100ED000C4F202001021002201F014FF80BD0000C6
:100EE00080B588B000208DF81E00FFF7EFFF80204E
:100EF000049000F0D3FB5520059000F0CFFB05983F
:100F000000F0CCFB8DF81E00FFF7D6FF9620069070
:100F100000F0DEFCFFF7DAFF049800F0BFFB059855
:100F200000F0BCFB059800F0B9FB8DF81E00FFF740
:100F3000C3FF069800F0CCFCFFF7C8FF7E20B62167
:100F400000F0C6FBFFF7B8FF502000F0AFFCFFF742
:100F5000BDFF049800F0A2FB059800F09FFB0598E8
:100F600000F09CFB8DF81E00FFF7A6FF069800F02E
:100F7000AFFCFFF7ABFF049800F090FB059800F082
:100F80008DFB059800F08AFB8DF81E00FFF794FF9B
:100F9000069800F09DFC9DF81E001E2804D0FFE777
:100FA000FF208DF81F005CE000208DF81D00FFE79A
:100FB0009DF81D00052850DCFFE7FFF787FF9DF82F
:100FC0001D0000EB400240F20000C2F2000003905E
:100FD0008118805C497800F07BFBFFF76DFF96205D
:100FE000029000F075FCFFF771FF03989DF81D104B
:100FF00001EB4101405C40F0800000F04FFB5520C8
:10100000019000F04BFB019800F048FB8DF81E00AA
:10101000FFF752FF029800F05BFC03999DF81E0059
:101020009DF81D2002EB42021144497888420DD000
:10103000FFE79DF81D0000EB400140F20000C2F206
:101040000000084480788DF81F000AE0FFE79DF853
:101050001D0001308DF81D00AAE700208DF81F004B
:10106000FFE79DF81F0008B080BD000080B540F28A
:101070000040C4F202000122114601F043FE80BD8F
:1010800080B540F20040C4F202000121002201F0CC
:1010900039FE80BD80B586B0002002908DF8160024
:1010A000FFF7EEFF02980DF11601039100F0E4FA4C
:1010B000FFF7DCFF9620049000F00AFCFFF7E0FF4A
:1010C0000298039900F0D8FAFFF7D0FF049800F0D7
:1010D000FFFBFFF7D5FF1420B62100F0F9FAFFF768
:1010E000C5FF502000F0E2FBFFF7CAFF029803990A
:1010F00000F0C2FAFFF7BAFF049800F0E9FBFFF72F
:10110000BFFF0298039900F0B7FAFFF7AFFF04980A
:1011100000F0DEFB9DF816000F2804D0FFE7FF204B
:101120008DF8170053E000208DF81500FFE79DF8BB
:101130001500052847DCFFE7FFF7A2FF9DF8150023
:1011400000EB400240F22800C2F20000019081183A
:10115000805C497800F0BCFAFFF788FF9620009089
:1011600000F0B6FBFFF78CFF01989DF8151001EB1E
:101170004101405C0DF1160100F07EFAFFF776FFA9
:10118000009800F0A5FB01999DF816009DF8152028
:1011900002EB42021144497888420DD0FFE79DF8E6
:1011A000150000EB400140F22800C2F200000844A4
:1011B00080788DF817000AE0FFE79DF815000130F0
:1011C0008DF81500B3E700208DF81700FFE79DF8B4
:1011D000170006B080BD000080B582B08DED010A19
:1011E000DDED010A40F26820C2F200009FED200A06
:1011F00006F09CFFFFE740F26820C2F2000090ED8D
:10120000110A9FED1C1AB4EE410AF1EE10FA0ADD44
:10121000FFE740F26821C2F2000144F20000C4F28C
:101220001C60486414E040F26820C2F2000090EDB7
:10123000110AB5EE400AF1EE10FA07DAFFE740F2C4
:101240006821C2F200010020486400E0FFE7FFE7E8
:10125000FFE740F26820C2F2000090ED110ABDEEF7
:10126000C00A10EE100A03F07FFE02B080BD00BF7E
:101270000000204200401C4680B584B0039000204E
:101280000290019003980078C00720B9FFE7039807
:1012900000F010F9FFE7FFF719FE922000F0FEF9C9
:1012A000122001A90091062200F0C4F9FFF704FE04
:1012B0009DF804009DF8051040EA01200399088478
:1012C0009DF806009DF8071040EA01200399488424
:1012D0009DF808009DF8091040EA012003998884D0
:1012E00040F22000C2F2000090ED000A0399B1F92B
:1012F000201001EE101AB8EEC11A20EE010A03996F
:1013000081ED010A90ED000A0399B1F9221001EE76
:10131000101AB8EEC11A20EE010A039981ED020AF3
:1013200090ED000A0398B0F9240001EE100AB8EE1F
:10133000C11A20EE010A039880ED030AFFF7C6FDEB
:10134000A22000F0ABF900992220022200F072F9ED
:10135000FFF7B2FD9DF804009DF80510C00040EABB
:101360005110039988850398B0F92C00B0F5806F6F
:1013700006DBFFE70399888DA0F500608885FFE70D
:101380000398B0F92C0000EE100AB8EEC00AB4EED3
:10139000001A20EE010AB3EE071A30EE010A039894
:1013A00080ED070AFFF76CFE002001A9082200F07B
:1013B00041F9FFF75BFE9DF804000F2819D1FFE704
:1013C0009DF806009DF8071040EA01200399C884A3
:1013D0009DF808009DF8091040EA0120039908854E
:1013E0009DF80A009DF80B1040EA012003994885FA
:1013F000FFE740F22400C2F2000090ED000A0399DA
:10140000B1F9261001EE101AB8EEC12A039991ED38
:101410000C1A20EE020A30EE410A81ED040A90ED2A
:10142000000A0399B1F9281001EE101AB8EEC12A8A
:10143000039991ED0D1A20EE020A30EE410A81ED7A
:10144000050A90ED000A0398B0F92A0001EE100A8F
:10145000B8EEC12A039890ED0E1A20EE020A30EE83
:10146000410A80ED060A04B080BD000080B582B05C
:1014700000208DF80700FFE700208DF80700FFF738
:101480002FFD01469DF8070008438DF80700FFF780
:1014900001FE01469DF8070008438DF80700022071
:1014A00000F004FAFFE79DF807000028E4D1FFE709
:1014B00002B080BD80B586B00590002004900390F6
:1014C000ADF80A00FFE7BDF80A0041F28731884213
:1014D00000F39180FFE7FFF7F9FC922000F0DEF8BF
:1014E000122003A90191062200F0A4F8FFF7E4FC02
:1014F0009DF80C009DF80D1040EA01200599088424
:101500009DF80E009DF80F1040EA012005994884CF
:101510009DF810009DF8111040EA0120059988847B
:10152000FFF7AEFD01990020082200F083F8FFF7D5
:101530009DFD9DF80C000F2853D1FFE79DF80E008C
:101540009DF80F1040EA01200599C8849DF810000D
:101550009DF8111040EA0120059908859DF81200B8
:101560009DF8131040EA01200599488540F22400B7
:10157000C2F2000090ED000A0599B1F9261001EEC3
:10158000101AB8EEC12A059991ED0C1A20EE020A44
:1015900030EE010A81ED0C0A90ED000A0599B1F9CF
:1015A000281001EE101AB8EEC12A059991ED0D1A16
:1015B00020EE020A30EE010A81ED0D0A90ED000ADC
:1015C0000598B0F92A0001EE100AB8EEC12A059874
:1015D00090ED0E1A20EE020A30EE010A80ED0E0A9E
:1015E000FFE7012000F062F9FFE7BDF80A000130D3
:1015F000ADF80A0067E7059890ED0C0A9FED0C1A0C
:1016000080EE010A80ED0C0A059890ED0D0A80EE3F
:10161000010A80ED0D0A059890ED0E0A80EE010A90
:1016200080ED0E0A05990120087006B080BD00BF4C
:1016300000409C4580B584B08DF80F0002918DF874
:1016400007209DF80F0040F0800000F027F8FFE72A
:101650009DF8070070B1FFE7552000F01FF80299D0
:1016600008700298013002909DF8070001388DF84B
:101670000700EDE704B080BD80B582B08DF80700AB
:1016800000919DF8070040F0800000F007F8552019
:1016900000F004F80099087002B080BD80B582B0F7
:1016A0008DF8070000208DF8060069464FF47A7027
:1016B000086040F2E450C2F200000DF107010DF1A4
:1016C0000602012302F09CFA9DF8060002B080BDDC
:1016D00080B582B08DF807008DF806109DF80700E0
:1016E000FFF7DCFF9DF80600FFF7D8FF02B080BDD2
:1016F00080B540F23C60C2F20000002102F09AFF87
:1017000080BD0000FFE7FEE780B540F2D440C2F2A2
:10171000000000F029FA80BD82B00190009102B073
:101720007047000080B540F2FC40C2F2000000F0BB
:101730001BFA80BD82B00190009102B0704700009A
:1017400080B540F22450C2F2000000F0B7FE80BD28
:1017500080B540F28450C2F2000000F0AFFE80BDC0
:1017600082B001900198007810384AF6AB21CAF691
:10177000AA21A0FB01100009009000994AF29C10D8
:10178000C0F60000405C0199C8650098042807D3A2
:10179000FFE701990868042262F30900886506E002
:1017A0000199086840F2FF3290438865FFE701988D
:1017B000806D02B07047000086B0059000208DF863
:1017C00013000598806A03900598806910BBFFE7B5
:1017D0000398029003281BD80299DFE801F0020D5C
:1017E0000218059890F82F00C00720B1FFE70120EC
:1017F0008DF81300FFE70CE00598C06AB0F1C07FD8
:1018000004D1FFE701208DF81300FFE701E000E0BD
:10181000FFE745E005988069B0F5005F25D1FFE757
:101820000398019003281ED80199DFE801F0020611
:10183000021101208DF8130016E0059890F82F0092
:10184000C00720B1FFE701208DF81300FFE70BE090
:101850000598C06AB0F1C07F04D1FFE701208DF880
:101860001300FFE700E0FFE719E00398009003286A
:1018700004D3FFE70098032804D00EE001208DF880
:1018800013000BE0059890F82F00C00720B1FFE788
:1018900001208DF81300FFE700E0FFE7FFE7FFE717
:1018A0009DF8130006B070477047000080B582B005
:1018B000019001F03FFA0090FFE701F03BFA009938
:1018C000401A0199884201D2FFE7F6E702B080BDD5
:1018D00080B582B0019003F02DFB0090FFE703F08C
:1018E00029FB0099401A0199884201D2FFE7F6E7E7
:1018F00002B080BD80B582B00190FFE7012006F004
:10190000A5FDFBE781B0EFF3108072B60090FFE712
:10191000FEE7000084B08DED030A9DED030AB6EEEC
:10192000001A20EE010A8DED020A03980190019839
:101930000090009945F68620C5F63770A0EB61004F
:101940000090009801909DED010A9DED021A21EE94
:10195000001A21EE002AB7EE081A31EE421A20EEE4
:10196000010A8DED010A9DED010A04B070470000E7
:1019700081B0009001B0704786B00490039102924C
:101980000193049890F820008DF803009DF803005F
:10199000012806D0FFE79DF80300022840F0D78019
:1019A000FFE7039880B9FFE704980068C0688007E4
:1019B00048B9FFE70499486A40F4001048620120E2
:1019C0008DF81700CCE00FE00498006800698007EC
:1019D00048B9FFE70499486A40F4001048620120C2
:1019E0008DF81700BCE0FFE704980068039900EB4E
:1019F0000110D0F8B00100F004000299886002984C
:101A0000806858B9FFE704980068039900EB01105B
:101A1000D0F8B001400D029908600AE0049800680F
:101A2000039900EB0110D0F8B001C008029948609A
:101A3000FFE704980068039900EB0110D0F8B001AB
:101A400000F002000299C86004980068039900EB56
:101A50000110D0F8B40100F00F0002990861049859
:101A60000068039900EB0110D0F8B40180B2000ABD
:101A70000299886104980068039900EB0110D0F87E
:101A8000B401000C0299486104980068039900EBC6
:101A90000110D0F8B8010199087004980068039902
:101AA00000EB0110D0F8B801000A019948700498C1
:101AB0000068039900EB0110D0F8B801000C0199FF
:101AC000887004980068039900EB0110D0F8B80101
:101AD000000E0199C87004980068039900EB01108A
:101AE000D0F8BC010199087104980068039900EBD3
:101AF0000110D0F8BC01000A0199487104980068EF
:101B0000039900EB0110D0F8BC01000C0199887119
:101B100004980068039900EB0110D0F8BC01000E96
:101B20000199C871039838B9FFE704980168C8683B
:101B300040F02000C86006E004980168086940F0A1
:101B400020000861FFE700208DF8170008E00499E5
:101B5000486A40F48020486201208DF81700FFE7B2
:101B60009DF8170006B0704780B58AB00990002034
:101B700008900998006840690790099800684068D3
:101B80000690099800688068059009980068C06808
:101B900004900998006800690390099800688069BA
:101BA00002909DF81C00C007002800F09480FFE719
:101BB0009DF81400C00758B3FFE709980168012099
:101BC00088609DF814008007002804D5FFE7099875
:101BD00000F0C4FB1BE09DF814004007002805D569
:101BE000FFE7089840F4006008900FE09DF81400AB
:101BF0000007002805D5FFE7089840F480500890BA
:101C000003E0099800F0A6FBFFE7FFE7FFE7FFE727
:101C10009DF81500C00760B3FFE7099801684FF40D
:101C2000807088609DF815008007002804D5FFE7C4
:101C3000099800F09BFB1BE09DF815004007002869
:101C400005D5FFE7089840F4005008900FE09DF894
:101C500015000007002805D5FFE7089840F48040EC
:101C6000089003E0099800F07DFBFFE7FFE7FFE73E
:101C7000FFE79DF81600C00760B3FFE70998016809
:101C80004FF4803088609DF816008007002804D546
:101C9000FFE7099800F072FB1BE09DF81600400773
:101CA000002805D5FFE7089840F4004008900FE0B1
:101CB0009DF816000007002805D5FFE7089840F4B6
:101CC0008030089003E0099800F054FBFFE7FFE73D
:101CD000FFE7FFE7FFE79DF81C000007002810D58D
:101CE000FFE79DF81000C006002809D5FFE7089817
:101CF00040F400700890099801681020C860FFE760
:101D0000FFE79DF81C00400700280FD5FFE79DF86E
:101D100010000007002808D5FFE70998016808208F
:101D2000C860099800F0CCFAFFE7FFE79DF81C00B7
:101D3000800700280BD5FFE709980068C068800776
:101D400020B1FFE7099800F0BFFAFFE7FFE79DF831
:101D50001C004006002810D5FFE79DF80C00C006C7
:101D6000002809D5FFE7089840F48060089009989A
:101D7000016810200861FFE7FFE79DF81C0080065E
:101D800000280FD5FFE79DF80C000007002808D5B4
:101D9000FFE70998016808200861099800F0CEFA69
:101DA000FFE7FFE79DF81C00C00600280BD5FFE702
:101DB000099800680069800720B1FFE7099800F0E2
:101DC000C1FAFFE7FFE79DF81E00800700280FD546
:101DD000FFE79DF81800C006002808D5FFE709981E
:101DE000016810204860099800F0B0FAFFE7FFE7AB
:101DF0009DF81E00C00778B1FFE79DF818000007A6
:101E0000002808D5FFE7099801680820486009986C
:101E100000F0B8FAFFE7FFE79DF81D000006002874
:101E200040F18D80FFE79DF818004007002840F141
:101E30008180FFE79DF81D00C00750B1FFE79DF8C6
:101E40000800C00728B1FFE7089840F0010008909B
:101E5000FFE79DF81D00800700280BD5FFE79DF8E0
:101E600008008007002805D5FFE7089840F0020029
:101E70000890FFE79DF81D00400700280BD5FFE7FD
:101E80009DF808004007002805D5FFE7089840F0B6
:101E900004000890FFE79DF81D000007002848D5C2
:101EA000FFE79DF8080010F0700F42D0FFE702989E
:101EB00000F0700001460191102814D0FFE701984E
:101EC000202815D0FFE70198302816D0FFE70198A9
:101ED000402817D0FFE70198502818D0FFE7019855
:101EE000602819D01DE0089840F00800089019E01B
:101EF000089840F01000089014E0089840F0200086
:101F000008900FE0089840F0400008900AE0089818
:101F100040F08000089005E0089840F48070089038
:101F200000E0FFE709980168886920F07000886187
:101F3000FFE7FFE70998016804204860FFE7089879
:101F400048B1FFE7089A0999486A1043486209981E
:101F5000FFF70EFDFFE70AB080BD000080B584B03A
:101F60000290029820B9FFE701208DF80F00E0E011
:101F7000029890F8200020B9FFE7029800F0DEF800
:101F8000FFE702980168086840F00100086000F06F
:101F9000D1FE0190FFE7029800684068C007A8B929
:101FA000FFE700F0C7FE0199401A0B280DD3FFE7A9
:101FB0000299486A40F4003048620299052081F88D
:101FC000200001208DF80F00B3E0E4E702980168DB
:101FD000086820F00200086000F0ACFE0190FFE706
:101FE0000298006840688007002815D5FFE700F0D8
:101FF000A1FE0199401A0B280DD3FFE70299486A08
:1020000040F4003048620299052081F82000012048
:102010008DF80F008DE0E3E70298007E012807D1DC
:10202000FFE702980168086840F08000086006E059
:1020300002980168086820F080000860FFE70298B5
:10204000407E012807D1FFE702980168086840F048
:102050004000086006E002980168086820F040002F
:102060000860FFE70298807E012807D1FFE7029809
:102070000168086840F02000086006E002980168E6
:10208000086820F020000860FFE70298C07E012861
:1020900007D1FFE702980168086820F01000086087
:1020A00006E002980168086840F010000860FFE749
:1020B0000298007F012807D1FFE7029801680868AD
:1020C00040F00800086006E002980168086820F007
:1020D00008000860FFE70298407F012807D1FFE76A
:1020E00002980168086840F00400086006E0029861
:1020F0000168086820F004000860FFE7029B196887
:102100005A689868D3F80CC040EA0C00D3F810C0A5
:1021100040EA0C005B691843013A1043C861029918
:1021200000204862029A012182F820108DF80F00E9
:10213000FFE79DF80F0004B080BD000080B590B0AF
:102140000F9000200E900D900C900B900A900F981D
:10215000006846F20041C4F20001884249D1FFE71D
:1021600040F26420C2F200000168013101600068A1
:10217000012812D1FFE7FFE70020099043F6400055
:10218000C4F20200016841F000710160006800F0D3
:10219000007009900998FFE7FFE7FFE7002008902B
:1021A00043F63000C4F20200016841F0080101600A
:1021B000006800F0080008900898FFE703200A90E4
:1021C00002210B91002103910C910D9009200E909A
:1021D00040F60040C4F202000AA900F0B7FB039ADF
:1021E00014200490052100F081FE049800F074FE94
:1021F00064E00F98006846F60001C4F200018842CE
:102200005BD1FFE7FFE70020079043F64000C4F2F0
:102210000200016841F080610160006800F08060A8
:1022200007900798FFE740F26420C2F200000168BF
:10223000013101600068012812D1FFE7FFE70020AB
:10224000069043F64000C4F20200016841F00071BC
:102250000160006800F0007006900698FFE7FFE755
:10226000FFE70020059043F63000C4F20200016849
:1022700041F002010160006800F00200059005983D
:10228000FFE760200A9002200B90002001900C9044
:1022900003200D9009200E9040F20040C4F202008D
:1022A0000AA900F053FB019A40200290052100F09A
:1022B0001DFE029800F010FEFFE7FFE710B080BDA2
:1022C00081B0009001B0704780B582B00190019854
:1022D00040F2B842C2F2000240F2B043C2F2000340
:1022E0000021FFF749FB0198006846F20041C4F263
:1022F000000188420BD1FFE740F2B840C2F2000073
:1023000040F2B041C2F20001FFF706FA14E0019872
:10231000006846F60001C4F2000188420BD1FFE7D5
:1023200040F2B840C2F2000040F2B041C2F20001F7
:10233000FFF700FAFFE7FFE702B080BD81B0009031
:1023400001B0704781B0009001B0704781B000903B
:1023500001B0704781B0009001B0704781B000902B
:1023600001B0704781B0009001B0704781B000901B
:1023700001B0704781B0009001B0704781B000900B
:1023800001B0704781B0009001B0704780B584B053
:1023900002900298806D019000F0CCFC00900298B1
:1023A00090F8350002280DD0FFE70299802048659B
:1023B000FFE70299002081F83400FFE701208DF843
:1023C0000F0055E002980168086820F016000860C8
:1023D00002980168486920F0800048610298006C0A
:1023E00020B9FFE70298806C38B1FFE702980168D6
:1023F000086820F008000860FFE702980168086894
:1024000020F001000860FFE7029800680068C0073C
:10241000C8B1FFE700F08EFC0099401A062811D3DE
:10242000FFE70299202048650299032081F83500D2
:10243000FFE70299002081F83400FFE703208DF8C0
:102440000F0015E0E0E70298C16D3F208840019938
:1024500088600299012081F83500FFE70299002089
:1024600081F83400FFE7FFE700208DF80F00FFE759
:102470009DF80F0004B080BD82B00090009890F8E5
:102480003500022807D0FFE7009980204865012029
:102490008DF807000EE00099052081F835000098BE
:1024A0000168086820F001000860FFE700208DF84F
:1024B0000700FFE79DF8070002B0704780B586B0BF
:1024C00005900020039040F27410C2F200000068F2
:1024D00048F2B511C1F64E31A0FB0110800A0290FE
:1024E0000598806D01900198006804900498059902
:1024F000C96DC840000700281AD5FFE70598006895
:1025000000684007002812D5FFE7059801680868B1
:1025100020F0040008600598C16D082088400199EA
:1025200088600599486D40F001004865FFE7FFE7C6
:1025300004980599C96DC840C007A0B1FFE7059888
:1025400000684069000600280CD5FFE70598C16DBA
:1025500001208840019988600599486D40F002008B
:102560004865FFE7FFE704980599C96DC840400733
:10257000002814D5FFE70598006800688007002848
:102580000CD5FFE70598C16D04208840019988604B
:102590000599486D40F004004865FFE7FFE704989F
:1025A0000599C96DC840C006002847D5FFE70598C2
:1025B00000680068000700283FD5FFE70598C16D57
:1025C00010208840019988600598006800684003E1
:1025D00000281AD5FFE70598006800680003002866
:1025E00009D4FFE70598006C20B1FFE70598016C5E
:1025F0008847FFE708E00598806C20B1FFE7059861
:10260000816C8847FFE7FFE716E0059800680068DF
:10261000C005002807D4FFE705980168086820F086
:1026200008000860FFE70598006C20B1FFE70598F7
:10263000016C8847FFE7FFE7FFE7FFE7049805998C
:10264000C96DC8408006002840F18D80FFE70598DD
:1026500000680068C006002840F18480FFE7059804
:10266000C16D2020884001998860059890F8350058
:10267000052834D1FFE705980168086820F01600A6
:10268000086005980168486920F080004861059855
:10269000006C20B9FFE70598806C38B1FFE705981A
:1026A0000168086820F008000860FFE70598C16D20
:1026B0003F208840019988600599012081F8350004
:1026C000FFE70599002081F83400FFE70598006DC9
:1026D00020B1FFE70598016D8847FFE77BE005988B
:1026E00000680068400300281AD5FFE705980068D5
:1026F00000680003002809D4FFE70598406C20B16A
:10270000FFE70598416C8847FFE708E00598C06B34
:1027100020B1FFE70598C16B8847FFE7FFE720E09E
:10272000059800680068C005002811D4FFE70598E7
:102730000168086820F0100008600599012081F800
:102740003500FFE70599002081F83400FFE7FFE737
:102750000598C06B20B1FFE70598C16B8847FFE77C
:10276000FFE7FFE7FFE70598406DA0B3FFE7059897
:10277000406DC00730B3FFE70599052081F83500AB
:1027800005980168086820F001000860FFE70398D9
:10279000013003900299884201D9FFE707E0FFE783
:1027A000059800680068C0070028F0D1FFE7059988
:1027B000012081F83500FFE70599002081F83400F9
:1027C000FFE7FFE70598C06C20B1FFE70598C16CF3
:1027D0008847FFE7FFE706B080BD000080B586B000
:1027E00004900020039000F0A5FA0290049820B90C
:1027F000FFE701208DF81700A3E00498406A08B1B4
:10280000FFE7FFE70499022081F83500FFE704990C
:10281000002081F83400FFE704980168086820F080
:1028200001000860FFE7049800680068C00790B1E5
:10283000FFE700F07FFA0299401A06280AD3FFE763
:102840000499202048650499032081F835008DF80B
:10285000170076E0E7E704980068006803900398A3
:1028600048F23F01CFF21001084003900499009113
:102870004868D1F808C0CB680A6940EA0C001843E0
:1028800010434A6910438A691043CA691043096AB0
:1028900001430398084303900498406A042808D130
:1028A000FFE70499C86A096B014303980843039042
:1028B000FFE7039804990968086004980068406974
:1028C0000390039820F0070003900498416A03984E
:1028D000084303900498406A04281AD1FFE704983B
:1028E000816A0398084303900498C06A80B1FFE7A7
:1028F0000498FEF761FF50B1FFE704994020486556
:102900000499012081F835008DF8170019E0FFE7E0
:10291000FFE703980499096848610498FEF720FFCF
:1029200001900498C16D3F20884001998860049906
:1029300000204865049A012182F835108DF81700AF
:10294000FFE79DF8170006B080BD00008EB00D9027
:102950000C9100200A90099008900B90FFE70B98CB
:102960000F2800F2CC81FFE70B99012088400A90E4
:102970000C9800680A990840099009980A998842B9
:1029800040F0B881FFE70C98406800F00300012890
:1029900007D0FFE70C98406800F0030002282FD111
:1029A000FFE70D98806808900B984100032000FA1B
:1029B00001F10898884308900C98C0680B99490069
:1029C00000FA01F108980843089008980D9988606A
:1029D0000D98406808900B99012000FA01F10898C1
:1029E000884308900C984068C0F300100B9900FAD7
:1029F00001F108980843089008980D994860FFE78E
:102A00000C98406800F00300032818D0FFE70D98E9
:102A1000C06808900B984100032000FA01F1089863
:102A2000884308900C9880680B99490000FA01F1DE
:102A300008980843089008980D99C860FFE70C981B
:102A4000406800F00300022826D1FFE70D980B999B
:102A50006FF0030202EA51010844006A08900B98E3
:102A600000F0070081000F2000FA01F10898884368
:102A700008900C9800690B9901F00701890000FA91
:102A800001F108980843089008980D990B9B02EAF9
:102A9000530211440862FFE70D98006808900B98F4
:102AA0004100032000FA01F10898884308900C982F
:102AB000406800F003000B99490000FA01F1089802
:102AC0000843089008980D9908600C988079800751
:102AD000002800F00E81FFE7FFE70020079043F693
:102AE0004400C4F20200016841F4804101600068C2
:102AF00000F4804007900798FFE70B9820F0030050
:102B000043F60801C4F20101405808900B9800F008
:102B1000030081000F2000FA01F108988843089013
:102B20000D980021C4F20201884203D1FFE7002082
:102B300006905EE00D9840F20041C4F20201884226
:102B400003D1FFE70120059050E00D9840F6000109
:102B5000C4F20201884203D1FFE70220049042E060
:102B60000D9840F60041C4F20201884203D1FFE70C
:102B70000320039034E00D9841F20001C4F20201F9
:102B8000884203D1FFE70420029026E00D9841F22D
:102B90000041C4F20201884203D1FFE70520019001
:102BA00018E00D9841F60001C4F20201884203D1F9
:102BB000FFE7062000900AE00D9941F60042C4F2BA
:102BC00002020820914208BF07200090FFE700980A
:102BD0000190FFE701980290FFE702980390FFE75A
:102BE00003980490FFE704980590FFE70598069086
:102BF000FFE70698C0B20B9901F00301890000FAC3
:102C000001F108980843089008980B9921F00301F6
:102C100043F60802C4F20102885043F60840C4F2A9
:102C200001000068089009990898884308900C985A
:102C30008079C006002805D5FFE709990898084360
:102C40000890FFE7089843F60841C4F201010860C4
:102C500043F60C40C4F201000068089009990898F6
:102C6000884308900C9880798006002805D5FFE7F6
:102C70000999089808430890FFE7089843F60C4123
:102C8000C4F20101086043F60440C4F20100006888
:102C9000089009990898884308900C9880798007D3
:102CA000002805D5FFE70999089808430890FFE731
:102CB000089843F60441C4F20101086043F600405D
:102CC000C4F20100006808900999089888430890A8
:102CD0000C988079C00728B1FFE709990898084344
:102CE0000890FFE7089843F60041C4F2010108602C
:102CF000FFE7FFE7FFE70B9801300B902FE60EB0E0
:102D00007047000082B00190ADF802108DF80120EC
:102D10009DF8010028B1FFE7BDF802000199886124
:102D200005E0BDF80200000401998861FFE702B0E8
:102D30007047000044F2F830C2F2000000687047AB
:102D400040F27810C2F20000027844F2F831C2F288
:102D500000010868104408607047000080B543F621
:102D60000041C4F20201086840F40070086008687D
:102D700040F480600860086840F4807008600320B8
:102D800000F0CEF80F2000F005F800F079F80020F0
:102D900080BD000080B58CB00B90002004900390A3
:102DA000FFE70020009043F64000C4F202000168F3
:102DB00041F001010160006800F0010000900098FE
:102DC000FFE706A802A900F0EDF90998049004981D
:102DD00020B9FFE700F016FA059004E000F012FABF
:102DE00040000590FFE705984DF68361C4F21B3162
:102DF000A0FB01014FF0FF3000EB9140039040F247
:102E00008460C2F200004FF08041016040F2E7317F
:102E1000C16003994160002101618160816101F01D
:102E2000ABF88DF807009DF8070028BBFFE740F2DC
:102E30008460C2F2000001F00DF98DF807009DF8E2
:102E40000700C0B9FFE71C2000F046F80B980F28D8
:102E50000CD8FFE70B991C20002200F047F80B98D4
:102E600040F27C11C2F20001086003E001208DF8FD
:102E70000700FFE7FFE7FFE79DF807000CB080BD04
:102E800080B582B0FFE70020019043F64400C4F211
:102E90000200016841F480410160006800F4804054
:102EA00001900198FFE7FFE70020009043F6400003
:102EB000C4F20200016841F080510160006800F036
:102EC000805000900098FFE76FF001000F21002272
:102ED00000F00CF802B080BD80B582B08DF807001C
:102EE0009DF9070005F0C2F802B080BD80B586B03C
:102EF0008DF81700049103920020029005F0CEF89F
:102F000002909DF91700019002980499039A03F02A
:102F100087F80146019805F0C9F806B080BD0000A9
:102F200080B582B00190019805F0E2F802B080BD52
:102F30007047000080B584B002900191029820B9DA
:102F4000FFE701208DF80F0021E1019843F60041D1
:102F5000C4F20201096801F00701884212D9FFE7B3
:102F6000019943F60040C4F202000170006800F0CD
:102F700007000199884204D0FFE701208DF80F0077
:102F800005E1FFE702980078800700282AD5FFE7CF
:102F9000029800784007002809D5FFE743F60801AA
:102FA000C4F20201086840F4E0500860FFE70298AC
:102FB00000780007002809D5FFE743F60801C4F2AE
:102FC0000201086840F460400860FFE743F608012A
:102FD000C4F20201086820F0F000029A92681043DF
:102FE0000860FFE702980078C00700286ED0FFE76E
:102FF00002984068012811D1FFE743F60000C4F2AF
:103000000200006800F400310020B0EB514F04D101
:10301000FFE701208DF80F00B9E02CE0029840682E
:10302000022805D0FFE702984068032811D1FFE786
:1030300043F60000C4F20200006800F000710020B6
:10304000B0EB516F04D1FFE701208DF80F009EE037
:1030500010E043F60000C4F20200006800F0020134
:103060000020B0EB510F04D1FFE701208DF80F00D5
:103070008DE0FFE7FFE743F60801C4F202010868AC
:1030800020F00300029A526810430860FFF752FED6
:103090000090FFE743F60800C4F20200006800F069
:1030A0000C0002994968B0EB810F0ED0FFE7FFF7E3
:1030B00041FE0099401A41F28931884204D3FFE76A
:1030C00003208DF80F0062E0E4E7FFE7019843F684
:1030D0000041C4F20201096801F00701884212D2DE
:1030E000FFE7019943F60040C4F202000170006856
:1030F00000F007000199884204D0FFE701208DF815
:103100000F0044E0FFE702980078400700280CD544
:10311000FFE743F60801C4F20201086820F4E0501A
:10312000029AD26810430860FFE70298007800070F
:1031300000280DD5FFE743F60801C4F20201086834
:1031400020F46040029A126940EAC2000860FFE77A
:1031500000F07CF843F60801C4F202010968C9B224
:103160000A094AF28411C0F60001895CC84040F2A5
:103170007411C2F20001086040F27C10C2F200003B
:103180000068FFF707FE00208DF80F00FFE79DF8AD
:103190000F0004B080BD00004C21C4F24721012083
:1031A0000860704782B00190009101990F2008607B
:1031B00043F60800C4F20200016801F00301019A1D
:1031C0005160016801F0F001019A9160016801F419
:1031D000E051019AD160006800F46040C008019994
:1031E000086143F60040C4F20200006800F00700E6
:1031F0000099086002B0704740F27410C2F20000FB
:103200000068704780B5FFF7F7FF43F60801C4F286
:1032100002010968C1F382224AF29411C0F600014A
:10322000895CC84080BD000080B5FFF7E5FF43F62C
:103230000801C4F20201096889B24A0B4AF29411EA
:10324000C0F60001895CC84080BD000080B586B032
:103250000020059004900390029043F60800C4F209
:103260000200006800F00C000146019140B1FFE748
:10327000019804280AD0FFE7019808280CD04FE0F5
:1032800042F20040C0F2F40002904FE041F60030FC
:10329000C0F2B700029049E043F60400C4F2020015
:1032A000016801F03F01059100684002002813D534
:1032B000FFE743F60400C4F202000068C0F3881080
:1032C00041F60031C0F2B701A0FB0101059A0023CD
:1032D000FDF7CCFC049012E043F60400C4F20200B7
:1032E0000068C0F3881042F20041C0F2F401A0FB74
:1032F0000101059A0023FDF7B9FC0490FFE743F6AE
:103300000400C4F20200006800F44031022000EB27
:10331000D130039004980399B0FBF1F0029005E0DE
:1033200042F20040C0F2F4000290FFE7029806B0BB
:1033300080BD000080B543F60C00C4F202000068B6
:103340000006002809D5FFE7FFF7F2FD43F60E015E
:10335000C4F2020180200870FFE780BD80B586B00E
:103360000490049820B9FFE701208DF8170050E37E
:1033700004980078C007002800F0A580FFE743F616
:103380000800C4F20200006800F00C00042813D00A
:10339000FFE743F60800C4F20200006800F00C00EA
:1033A00008281ED1FFE743F60400C4F202000068BB
:1033B0004002002815D5FFE743F60000C4F20200E2
:1033C000006800F400310020B0EB514F08D0FFE757
:1033D0000498406820B9FFE701208DF8170018E332
:1033E00070E0FFE704984068B0F5803F09D1FFE73F
:1033F00043F60001C4F20201086840F4803008601E
:1034000020E004984068B0F5A02F0DD1FFE743F607
:103410000001C4F20201086840F4802008600868D6
:1034200040F4803008600CE043F60001C4F2020171
:10343000086820F480300860086820F48020086064
:10344000FFE7FFE7FFE704984068E8B1FFE7FFF711
:1034500071FC0390FFE743F60000C4F2020000682D
:1034600000F400310020B0EB514F0CD1FFE7FFF723
:1034700061FC0399401A652804D3FFE703208DF807
:103480001700C6E2E7E71CE0FFF754FC0390FFE7F4
:1034900043F60000C4F20200006800F4003100208E
:1034A000B0EB514F0CD0FFE7FFF744FC0399401AF3
:1034B000652804D3FFE703208DF81700A9E2E7E7AA
:1034C000FFE7FFE7FFE7049800788007002840F156
:1034D0009680FFE743F60800C4F20200006810F08F
:1034E0000C0F13D0FFE743F60800C4F20200006897
:1034F00000F00C0008282CD1FFE743F60400C4F2CA
:10350000020000684002002823D4FFE743F60000D1
:10351000C4F20200006800F002010020B0EB510F7D
:1035200009D0FFE70498C068012804D0FFE7012014
:103530008DF817006DE243F60001C4F2020108683D
:1035400020F0F800049A126940EAC2000860FFE720
:1035500054E00498C06870B3FFE70021C4F247212B
:1035600001200860FFF7E6FB0390FFE743F6000049
:10357000C4F20200006800F002010020B0EB510F1D
:103580000CD1FFE7FFF7D6FB0399401A032804D3B9
:10359000FFE703208DF817003BE2E7E743F6000161
:1035A000C4F20201086820F0F800049A126940EAA7
:1035B000C200086021E00021C4F247210020086019
:1035C000FFF7B8FB0390FFE743F60000C4F20200E8
:1035D000006800F002010020B0EB510F0CD0FFE7B3
:1035E000FFF7A8FB0399401A032804D3FFE7032041
:1035F0008DF817000DE2E7E7FFE7FFE7FFE7049824
:103600000078000700284BD5FFE70498406918B3FD
:10361000FFE740F68061C4F2472101200860FFF710
:1036200089FB0390FFE743F67400C4F202000068D0
:1036300000F002010020B0EB510F0CD1FFE7FFF7C3
:1036400079FB0399401A032804D3FFE703208DF880
:103650001700DEE1E7E722E040F68061C4F247218F
:1036600000200860FFF766FB0390FFE743F6740055
:10367000C4F20200006800F002010020B0EB510F1C
:103680000CD0FFE7FFF756FB0399401A032804D339
:10369000FFE703208DF81700BBE1E7E7FFE7FFE74F
:1036A000049800784007002840F1CE80FFE7002012
:1036B0008DF8070043F64000C4F202000068C00025
:1036C000002815D4FFE7FFE70020009043F64000F4
:1036D000C4F20200016841F080510160006800F00E
:1036E000805000900098FFE701208DF80700FFE769
:1036F00047F20000C4F200000068C005002822D490
:10370000FFE747F20001C4F20001086840F480704E
:103710000860FFF70FFB0390FFE747F20000C4F2D9
:1037200000000068C00500280CD4FFE7FFF702FB8B
:103730000399401A032804D3FFE703208DF81700EC
:1037400067E1EAE7FFE7FFE704988068012809D10D
:10375000FFE743F67001C4F20201086840F001007F
:1037600008601FE00498806805280DD1FFE743F644
:103770007001C4F20201086840F0040008600868A3
:1037800040F0010008600CE043F67001C4F2020151
:10379000086820F001000860086820F00400086054
:1037A000FFE7FFE7FFE704988068F8B1FFE7FFF75E
:1037B000C1FA0390FFE743F67000C4F2020000680C
:1037C00000F002010020B0EB510F0ED1FFE7FFF730
:1037D000B1FA0399401A41F28931884204D3FFE7D4
:1037E00003208DF8170014E1E5E71EE0FFF7A2FAC9
:1037F0000390FFE743F67000C4F20200006800F097
:1038000002010020B0EB510F0ED0FFE7FFF792FA54
:103810000399401A41F28931884204D3FFE703201B
:103820008DF81700F5E0E5E7FFE79DF807000128B0
:1038300009D1FFE743F64001C4F20201086820F015
:1038400080500860FFE7FFE704988069002800F0D7
:10385000DC80FFE743F60800C4F20200006800F0D5
:103860000C00082800F08580FFE704988069022892
:103870005CD1FFE76021C4F2472100200860FFF718
:1038800059FA0390FFE743F60000C4F20200006813
:1038900000F000710020B0EB516F0CD0FFE7FFF794
:1038A00049FA0399401A032804D3FFE703208DF84F
:1038B0001700AEE0E7E70499C869D1F820C04B6A69
:1038C0008A6A40EA0C0040EA8310D2034FF6FF7385
:1038D0009A43A2F580321043C96A40EA016043F678
:1038E0000401C4F2020108606021C4F247210120F2
:1038F0000860FFF71FFA0390FFE743F60000C4F2E9
:103900000200006800F000710020B0EB516F0CD194
:10391000FFE7FFF70FFA0399401A032804D3FFE7E4
:1039200003208DF8170074E0E7E721E06021C4F27E
:10393000472100200860FFF7FDF90390FFE743F6F9
:103940000000C4F20200006800F000710020B0EB3B
:10395000516F0CD0FFE7FFF7EDF90399401A0328E8
:1039600004D3FFE703208DF8170052E0E7E7FFE7F5
:103970004AE004988069012804D1FFE701208DF80E
:10398000170046E043F60400C4F20200006802900B
:1039900004988069012831D0FFE7029800F4800084
:1039A0000499C969884229D1FFE7029800F03F00D5
:1039B0000499096A884221D1FFE7029847F6C0714D
:1039C00008400499496AB0EB811F17D1FFE70298BC
:1039D00000F440300499896AC9034FF6FF7291439D
:1039E000A1F58031884209D1FFE7029800F07060AC
:1039F0000499C96AB0EB016F04D0FFE701208DF88C
:103A0000170006E0FFE7FFE7FFE700208DF817004B
:103A1000FFE79DF8170006B080BD000080B584B0B8
:103A20000290029820B9FFE701208DF80F0071E0A5
:103A30000298406A60B9FFE702984068B0F5827F5B
:103A400001D1FFE703E002990020C861FFE705E02C
:103A500002990020086102994861FFE7029900205D
:103A60008862029890F8510040B9FFE7029900205F
:103A700081F85000029800F051F8FFE70299022007
:103A800081F8510002980168086820F04000086041
:103A9000029A019211685068D2F808C0D36800F405
:103AA00082700CF4044C604403F4006318441369FE
:103AB00003F002031844536903F0010318449369A7
:103AC00003F400731844D36903F038031844136AED
:103AD00003F080031843926A02F400521043086016
:103AE000029A508B00F004001168526A02F0100232
:103AF0001044486002980168C86920F40060C861F9
:103B0000029900204865029A012182F851108DF82F
:103B10000F00FFE79DF80F0004B080BD80B58EB0A8
:103B20000D9000200C900B900A90099008900D9831
:103B3000006843F20001C4F2010188425ED1FFE750
:103B4000FFE70020079043F64400C4F2020001683A
:103B500041F480510160006800F48050079007989C
:103B6000FFE7FFE70020069043F63000C4F20200B2
:103B7000016841F002010160006800F00200069057
:103B80000698FFE7FFE70020059043F63000C4F2F7
:103B90000200016841F001010160006800F00100CD
:103BA00005900598FFE718200890022000900990E2
:103BB000002001900A90032002900B9005200390B2
:103BC0000C9040F20040C4F2020008A90491FEF7F4
:103BD000BDFEDDF800C0019B029A039804994FF0E6
:103BE000800ECDF820E0CDF824C00A930B920C9003
:103BF0000020C4F20200FEF7A9FEFFE70EB080BD70
:103C000080B58EB0DDF840C00C900B910A92ADF8F3
:103C100026300120059000208DF81300FFE70C9856
:103C200090F85000012804D1FFE702208DF83700FA
:103C300095E10C99012081F85000FFE7FFE7FFF7BD
:103C400079F806900C9890F851008DF81F000C98A8
:103C500040680890BDF82600ADF824009DF81F00CC
:103C6000012812D0FFE70898B0F5827F09D1FFE75D
:103C70000C98806828B9FFE79DF81F00042804D03D
:103C8000FFE702208DF813005AE10B9838B1FFE7E7
:103C90000A9820B1FFE7BDF8260020B9FFE7012010
:103CA0008DF813004CE10C9890F85100042805D0D1
:103CB000FFE70C99052081F85100FFE70C990020DF
:103CC00048650A990C9A9163BDF826100C9AD18721
:103CD000BDF826100C9A91870B990C9A1163BDF8C8
:103CE00026100C9AD186BDF826100C9A91860C9954
:103CF00008640C9948640C980068006800F0400063
:103D0000402807D0FFE70C980168086840F04000A1
:103D10000860FFE70C98C068B0F5006F76D1FFE748
:103D20000C98406828B1FFE7BDF8240001280ED1A7
:103D3000FFE70C980168006B0088C8600C99086B5D
:103D4000023008630C99C88E0138C886FFE7FFE788
:103D50000C98C18E0120029039B9FFE70C98C08FF2
:103D6000002818BF01200290FFE70298C007002832
:103D70004BD0FFE70C98006880688007002818D5B2
:103D8000FFE70C98C08EA0B1FFE70598012810D17D
:103D9000FFE70C980168006B0088C8600C99086BFD
:103DA000023008630C99C88E0138C886002005903F
:103DB000FFE70C9800688068C007A8B1FFE70C987F
:103DC000C08F88B1FFE70C980068C0680C99896BB8
:103DD00008800C99886B023088630C99C88F013871
:103DE000C88701200590FFE7FEF7A4FF0699401A57
:103DF0001099884208D3FFE71098013020B1FFE7FF
:103E000003208DF813009BE0A2E778E00C9840684F
:103E100028B1FFE7BDF8240001280ED1FFE70C9878
:103E20000168006B007808730C99086B0130086317
:103E30000C99C88E0138C886FFE7FFE70C98C18E41
:103E40000120019039B9FFE70C98C08F002818BFF6
:103E500001200190FFE70198C00700284ED0FFE73E
:103E60000C98006880688007002818D5FFE70C9838
:103E7000C08EA0B1FFE70598012810D1FFE70C988C
:103E80000168006B007808730C99086B01300863B7
:103E90000C99C88E0138C88600200590FFE70C9861
:103EA00000688068C007A8B1FFE70C98C08F88B190
:103EB000FFE70C980068C0680C99896B08700C9932
:103EC000886B013088630C99C88F0138C88701203E
:103ED0000590FFE7FEF72EFF0699401A10998842D9
:103EE00004D3FFE71098013018B9FFE7109820B904
:103EF000FFE703208DF8130022E09FE7FFE70C980F
:103F00001099069A03F0D8F938B1FFE701208DF82F
:103F100013000C992020486512E00C98806870B955
:103F2000FFE7FFE7002003900C980068C06803904B
:103F30000C980068806803900398FFE7FFE7FFE7AD
:103F40000C99012081F85100FFE70C99002081F8BD
:103F50005000FFE79DF813008DF83700FFE79DF84C
:103F600037000EB080BD000081B0009001B07047F6
:103F700081B0009001B0704780B582B00090009889
:103F800020B9FFE701208DF807003FE0009890F886
:103F90003D0040B9FFE70099002081F83C000098FF
:103FA00000F038F8FFE70099022081F83D00009901
:103FB00051F8040B03F052FB0099012081F84600F0
:103FC000FFE70099012081F83E00009981F83F0049
:103FD000009981F84000009981F84100FFE7FFE770
:103FE0000099012081F84200009981F8430000996E
:103FF00081F84400009981F84500FFE7009901200D
:1040000081F83D0000208DF80700FFE79DF80700CC
:1040100002B080BD82B001900198006844F2004176
:10402000C4F20101884212D1FFE7FFE700200090AF
:1040300043F64400C4F20200016841F4003101601B
:10404000006800F4003000900098FFE7FFE702B03E
:104050007047000083B00190019890F83D0001285E
:1040600004D0FFE701208DF80B006AE001990220DF
:1040700081F83D0001980168C86840F00100C860FF
:10408000019800680021C4F2010188423CD0FFE79A
:1040900001980068B0F1804F36D0FFE701980068C2
:1040A00040F20041C4F2000188422DD0FFE70198A0
:1040B000006840F60001C4F20001884224D0FFE706
:1040C0000198006840F60041C4F2000188421BD00C
:1040D000FFE70198006840F20041C4F20101884204
:1040E00012D0FFE70198006844F20001C4F2010118
:1040F000884209D0FFE70198006841F60001C4F248
:104100000001884212D1FFE701980068806800F042
:10411000070000900098062807D0FFE70198016883
:10412000086840F001000860FFE706E001980168B8
:10413000086840F001000860FFE700208DF80B00E0
:10414000FFE79DF80B0003B07047000081B00090BE
:1041500001B0704780B582B0019001980068006995
:1041600000F002010020B0EB510F28D0FFE70198CA
:104170000068C06800F002010020B0EB510F1DD0B4
:10418000FFE7019801686FF00200086101990120C2
:104190000877019800688069800720B1FFE70198DF
:1041A000FFF7D4FF06E0019800F048F9019800F00D
:1041B0003DFAFFE7019900200877FFE7FFE7019844
:1041C0000068006900F004010020B0EB910F29D0D5
:1041D000FFE701980068C06800F004010020B0EB20
:1041E000910F1ED0FFE7019801686FF0040008618D
:1041F00001990220087701980068806910F4407FD7
:1042000004D0FFE70198FFF7A1FF06E0019800F056
:1042100015F9019800F00AFAFFE7019900200877E4
:10422000FFE7FFE701980068006900F0080100203F
:10423000B0EBD10F28D0FFE701980068C06800F00C
:1042400008010020B0EBD10F1DD0FFE701980168F5
:104250006FF0080008610199042008770198006850
:10426000C069800720B1FFE70198FFF76FFF06E004
:10427000019800F0E3F8019800F0D8F9FFE7019900
:1042800000200877FFE7FFE701980068006900F069
:1042900010010020B0EB111F29D0FFE70198006842
:1042A000C06800F010010020B0EB111F1ED0FFE726
:1042B000019801686FF010000861019908200877E3
:1042C00001980068C06910F4407F04D0FFE70198AE
:1042D000FFF73CFF06E0019800F0B0F8019800F00D
:1042E000A5F9FFE7019900200877FFE7FFE70198AC
:1042F00000680069C00780B1FFE701980068C068E6
:10430000C00748B1FFE7019801686FF0010008613C
:10431000019800F075FAFFE7FFE70198006800696F
:10432000C1B20020B0EBD11F13D0FFE701980068A5
:10433000C068C1B20020B0EBD11F09D0FFE70198DF
:1043400001686FF0800008610198FFF70DFEFFE73C
:10435000FFE701980068006900F040010020B0EB21
:10436000911F14D0FFE701980068C06800F0400179
:104370000020B0EB911F09D0FFE7019801686FF0B2
:1043800040000861019800F049FAFFE7FFE7019853
:104390000068006900F020010020B0EB511F14D02C
:1043A000FFE701980068C06800F020010020B0EB32
:1043B000511F09D0FFE7019801686FF020000861E4
:1043C0000198FFF7D5FDFFE7FFE702B080BD0000D1
:1043D00080B588B007900020069005900490039067
:1043E00002900798006844F20041C4F2010188423B
:1043F00022D1FFE7FFE70020019043F63000C4F22E
:104400000200016841F020010160006800F0200016
:1044100001900198FFE740200290022003900020C5
:10442000049005900320069041F20040C4F202007F
:1044300002A9FEF78BFAFFE708B080BD81B00090BB
:1044400001B0704780B586B00490039102920020BD
:104450008DF80700FFE7049890F83C00012804D18C
:10446000FFE702208DF8170089E00499012081F808
:104470003C00FFE7FFE7029800900C2800F27080F4
:104480000099DFE801F0076D6D6D206D6D6D3A6D7F
:104490006D6D530004980068039903F0C9F90498FE
:1044A0000168886940F0080088610498016888699B
:1044B00020F0040088610398026904980168886903
:1044C0001043886150E004980068039903F026FACD
:1044D00004980168886940F4006088610498016864
:1044E000886920F4806088610398026904980168F3
:1044F000886940EA0220886136E0049800680399E0
:1045000003F086FA04980168C86940F00800C861A1
:1045100004980168C86920F00400C8610398026922
:1045200004980168C8691043C8611DE004980068D8
:10453000039903F0E7FA04980168C86940F4006041
:10454000C86104980168C86920F48060C861039854
:10455000026904980168C86940EA0220C86103E062
:1045600001208DF80700FFE7FFE70499002081F89C
:104570003C00FFE79DF807008DF81700FFE79DF866
:10458000170006B080BD000080B582B00090009892
:1045900020B9FFE701208DF807003FE0009890F870
:1045A0003D0040B9FFE70099002081F83C000098E9
:1045B00000F038F8FFE70099022081F83D000099EB
:1045C00051F8040B03F04AF80099012081F84600E5
:1045D000FFE70099012081F83E00009981F83F0033
:1045E000009981F84000009981F84100FFE7FFE75A
:1045F0000099012081F84200009981F84300009958
:1046000081F84400009981F84500FFE700990120F6
:1046100081F83D0000208DF80700FFE79DF80700B6
:1046200002B080BD81B0009001B0704781B00090B1
:1046300001B0704780B58CB00A900991099828B9EB
:10464000FFE70A9890F83E0007901CE009980428BC
:1046500005D1FFE70A9890F83F00069010E009980E
:10466000082805D1FFE70A9890F84000059004E07B
:104670000A9890F841000590FFE705980690FFE73B
:1046800006980790FFE70798012804D0FFE701206C
:104690008DF82F00AFE0099828B9FFE70A990220AA
:1046A00081F83E001EE00998042806D1FFE70A9928
:1046B000022081F83F00049012E00998082806D1F2
:1046C000FFE70A99022081F84000039005E00A996B
:1046D000022081F841000390FFE703980490FFE770
:1046E0000498FFE70A98006809990122019203F0F3
:1046F00083F801980A9909680022C4F201029142E4
:1047000002900CD0FFE70A9800684FF60041CBF604
:10471000FE710844B0FA80F040090290FFE7029869
:10472000C00738B1FFE70A980168486C40F40040C0
:104730004864FFE70A9800680021C4F2010188423A
:104740003CD0FFE70A980068B0F1804F36D0FFE711
:104750000A98006840F20041C4F2000188422DD05E
:10476000FFE70A98006840F60001C4F200018842A1
:1047700024D0FFE70A98006840F60041C4F2000127
:1047800088421BD0FFE70A98006840F20041C4F25B
:104790000101884212D0FFE70A98006844F2000144
:1047A000C4F20101884209D0FFE70A98006841F687
:1047B0000001C4F20001884212D1FFE70A980068A4
:1047C000806800F0070008900898062807D0FFE7E7
:1047D0000A980168086840F001000860FFE706E0F9
:1047E0000A980168086840F001000860FFE70020AF
:1047F0008DF82F00FFE79DF82F000CB080BD000062
:1048000080B582B0019001980068B0F1804F03D16B
:10481000FFE7FEF795FAFFE702B080BD81B0009098
:1048200001B0704782B00190ADF8021002B070473D
:1048300081B0009001B0704780B592B0119011988E
:1048400000680068109011980068C0680F90119877
:10485000006840690E9000200D900C90109800F0B8
:104860000F000D900D9888B9FFE79DF84000800675
:1048700000280AD5FFE79DF83C008006002804D5F3
:10488000FFE7119803F0FEF9E3E1FFE70D98002838
:1048900000F0C280FFE79DF83800C00738B9FFE795
:1048A000BDF83C0010F4907F00F0B680FFE79DF863
:1048B0004000C00758B1FFE79DF83D00C00730B188
:1048C000FFE71199086C40F001000864FFE79DF8CC
:1048D0004000400700280BD5FFE79DF83800C007CF
:1048E00030B1FFE71199086C40F002000864FFE75F
:1048F0009DF84000800700280BD5FFE79DF83800A1
:10490000C00730B1FFE71199086C40F0040008645B
:10491000FFE79DF840000007002811D5FFE79DF84C
:104920003C008006002805D4FFE79DF83800C0074A
:1049300030B1FFE71199086C40F008000864FFE708
:104940001198006C002866D0FFE79DF840008006B3
:1049500000280AD5FFE79DF83C008006002804D512
:10496000FFE7119803F08EF9FFE71198006840699E
:10497000C0F380100C901198006C0007002804D43C
:10498000FFE70C9800283ED0FFE7119803F01CF9D0
:10499000119800684069400600282FD5FFE7FFE71F
:1049A000FFE71198006850E8050F20F040000B90D9
:1049B000FFE70B991198026842E805100028F0D132
:1049C000FFE7FFE71198806B98B1FFE71198816BC3
:1049D00047F6A930C0F6000008651198806BFDF716
:1049E0004BFD28B1FFE71198806B016D8847FFE709
:1049F00003E01198FFF71CFFFFE703E01198FFF7B2
:104A000017FFFFE706E01198FFF712FF119900204A
:104A10000864FFE7FFE71CE11198006B012840F0F4
:104A2000F880FFE79DF84000C006002840F1F180C3
:104A3000FFE79DF83C00C006002840F1EA80FFE750
:104A4000FFE700200A901198006800680A9011980A
:104A5000006840680A900A98FFE71198006840696A
:104A6000400600287ED5FFE71198806B00684068FB
:104A7000ADF82600BDF82600002872D0FFE7BDF88B
:104A800026001199898D88426BDAFFE7BDF8260070
:104A90001199C8851198806BC069B0F5807F58D096
:104AA000FFE7FFE7FFE71198006850E8030F20F4E5
:104AB00080700890FFE708991198026842E8031097
:104AC0000028F0D1FFE7FFE7FFE7FFE71198006854
:104AD00050E8050F20F001000790FFE707991198B3
:104AE000026842E805100028F0D1FFE7FFE7FFE782
:104AF000FFE71198006850E8050F20F0400006908D
:104B0000FFE706991198026842E805100028F0D1E5
:104B1000FFE7FFE71199202081F83E00119900205E
:104B20000863FFE7FFE71198006850E8030F20F0E3
:104B300010000590FFE705991198026842E80310FC
:104B40000028F0D1FFE7FFE71198806BFDF71EFC0E
:104B5000FFE71198818DC28D891A89B2FFF762FE35
:104B6000FFE776E01199888DC98D401AADF81200E3
:104B70001198C08D00284BD0FFE7BDF81200002827
:104B800046D0FFE7FFE7FFE71198006850E8030F02
:104B900020F490700390FFE703991198026842E8AF
:104BA00003100028F0D1FFE7FFE7FFE7FFE71198C8
:104BB000006850E8050F20F001000290FFE702991D
:104BC0001198026842E805100028F0D1FFE7FFE7DE
:104BD0001199202081F83E00119900200863FFE719
:104BE000FFE71198006850E8030F20F010000190D3
:104BF000FFE701991198026842E803100028F0D1FC
:104C0000FFE7FFE71198BDF81210FFF70BFEFFE773
:104C10001FE09DF84000000600280AD5FFE79DF838
:104C20003C000006002804D5FFE7119803F07AF94C
:104C30000FE09DF84000400600280AD5FFE79DF8E8
:104C40003C004006002804D5FFE7119803F006F861
:104C5000FFE712B080BD000080B582B000900098E0
:104C600020B9FFE701208DF807003EE00098806939
:104C700008B1FFE700E0FFE7009890F83D0040B979
:104C8000FFE70099002081F83C00009800F032F81E
:104C9000FFE70099242081F83D0000980168C8686A
:104CA00020F40050C860009803F09EF80098016856
:104CB000086920F49040086100980168486920F074
:104CC0002A00486100980168C86840F40050C86034
:104CD000009900200864009A202182F83D10009A73
:104CE00082F83E108DF80700FFE79DF8070002B03C
:104CF00080BD000080B596B01590002014901390F0
:104D00001290119010901598006841F20001C4F2C1
:104D10000101884267D1FFE7FFE700200F9043F6CB
:104D20004400C4F20200016841F010010160006813
:104D300000F010000F900F98FFE7FFE700200E90A3
:104D400043F63000C4F20200016841F00201016044
:104D5000006800F002000E900E98FFE7FFE70020C9
:104D60000D9043F63000C4F20200016841F00101E9
:104D70000160006800F001000D900D98FFE78020B1
:104D800010900220059011900020099012900320AD
:104D90000690139007200790149040F20040C4F250
:104DA000020010A90891FDF7D1FDDDF814C0069AA4
:104DB00007980899099B4FF4007ECDF840E0CDF8A4
:104DC00044C01293139214900020C4F20200FDF725
:104DD000BDFD099A25200A900521FEF787F80A985B
:104DE000FEF77AF89CE01598006841F20041C4F2A1
:104DF0000101884240F09380FFE7FFE700200C901C
:104E000043F64400C4F20200016841F02001016051
:104E1000006800F020000C900C98FFE7FFE70020EE
:104E20000B9043F63000C4F20200016841F04001EB
:104E30000160006800F040000B900B98FFE74FF412
:104E400084401090022011900020039012900320C3
:104E500013900820149041F60000C4F2020010A93B
:104E6000FDF774FD039940F22450C2F20000049053
:104E700046F24042C4F2020202604FF020624260F9
:104E80008160C1604FF48062026141618161C161F2
:104E900001624162FDF7A2FC18B1FFE7FCF732FDA9
:104EA000FFE7FFE7159840F22451C2F20001816349
:104EB00015988863FFE740F28450C2F20000029028
:104EC00046F2A041C4F2020101604FF0206141604E
:104ED000402181600021C1604FF480620261416124
:104EE0008161C16101624162FDF778FC18B1FFE7A1
:104EF000FCF708FDFFE7FFE7159840F28451C2F286
:104F00000001416315988863FFE747200190052160
:104F10000022FDF7EBFF0198FDF7DEFFFFE7FFE75B
:104F200016B080BD81B0009001B0704781B0009094
:104F300001B0704780B584B00020039002900190CA
:104F4000FDF7F8FE02902420C4F2000000680190F2
:104F50000298019A4FF47A7100FB012003900398A4
:104F600004B080BDFFE7FEE780B582B0ADF8060073
:104F7000BDF8062040F23C60C2F20000002103F0C0
:104F80002DF802B080BD000080B588B0079000F019
:104F9000E3F80020069003F08BFA0690FFE740F25A
:104FA0002420C2F200000290FCF766F9029890ED0E
:104FB000020A40F2E810C2F20000019002F094FAF6
:104FC0000198029940F2BC22C2F20002059282EDE1
:104FD0000E0A3432039291ED030A143002F084FA7F
:104FE00001980299059A82ED0F0A91ED010A283085
:104FF00002F07AFA0298039A059981ED0D0A436945
:10500000CB6283690B63006941F8280F40F20430DA
:10501000C2F2000004909FED4B0A01F05BFC049982
:105020000598D1F8A021C261D1F8A4210262D1F87B
:10503000A821426291ED690A9FED431A20EE010A10
:1050400080ED000A91ED680A20EE010A80ED010A68
:1050500091ED6A0A20EE010A80ED030A90ED010A43
:1050600090ED101A30EE410A9FED381AB4EE410A65
:10507000F1EE10FA0ADAFFE740F2BC21C2F20001B9
:10508000B1F844000130A1F844001CE040F2BC201B
:10509000C2F2000090ED010A90ED101A30EE410AC4
:1050A0009FED2B1AB4EE410AF1EE10FA0ADDFFE78C
:1050B00040F2BC21C2F20001B1F844000138A1F86D
:1050C0004400FFE7FFE740F2BC20C2F2000000907E
:1050D0004168016490ED011AB0F9441000EE101A15
:1050E000B8EEC00A9FED1B2A20EE020A30EE010A3C
:1050F00080ED020A90ED0B0A9FED131A20EE010AD3
:1051000080ED040A90ED0C0A20EE010A80ED050AFC
:1051100090ED0A0A20EE010A80ED060A9DF81800BB
:10512000C00748B9FFE740F22420C2F2000090ED2A
:10513000070AFCF751F8FFE706A8012103F09AF9E6
:105140002DE700BF6F12833AE12E6542000034C3A1
:10515000000034430000B44380B584B040F2242002
:10516000C2F200000190FCF787F8019890ED020A66
:1051700040F2E810C2F20000029040F21401C2F2C4
:105180000001039102F096F9019A0298039992EDB9
:10519000030A143002F08EF9019A0298039992EDF5
:1051A000010A283002F086F940F26820C2F20000BD
:1051B00040F23C02C2F20002022100F0A1FF40F2E4
:1051C0000430C2F2000040F25401C2F2000140F289
:1051D000E402C2F20002B2EE040ADFED040A9FED1F
:1051E000041A01F0DFFA04B080BD00BF6F12833AE9
:1051F0000024744980B584B003908DF80B108DF8AD
:105200000A208DF8093003990420088003990820AA
:1052100048809DF80B0020B1FFE79DF8090028B9F0
:10522000FFE70399FE2081F8C400FFE79DF80B001B
:10523000039908719DF80A00039948719DF80900C7
:1052400003998871039900200862039901F11800FD
:1052500001F12003012201921146FBF7BFF80398E8
:1052600000889DF80910484303F000FD0399C860C9
:105270000399C86809889DF809205143FBF7A8FDE8
:10528000039800889DF80B10484303F0EFFC039946
:10529000C1F8C8000399D1F8C80009889DF80B200F
:1052A0005143FBF795FD019A039B03F12C001979FB
:1052B000D3F8C830FBF792F8039800889DF80B10DC
:1052C000484303F0D3FC0399C1F8CC000399D1F80B
:1052D000CC0009889DF80B205143FBF779FD019A1A
:1052E000039B03F134001979D3F8CC30FBF776F83F
:1052F000039800889DF80910484303F0B7FC039910
:10530000C1F8D4000399D1F8D40009889DF8092088
:105310005143FBF75DFD019A039B03F1440099792A
:10532000D3F8D430FBF75AF803984079002850D0CE
:10533000FFE7039800889DF80A10484303F096FCA5
:10534000039908610399086909889DF80A20514367
:10535000FBF73EFD039800889DF80A10484303F0D0
:1053600085FC0399C1F8D0000399D1F8D0000988D1
:105370009DF80A205143FBF72BFD039A02F13C00F4
:105380005179D2F8D0300122FBF728F80398008831
:105390009DF80B1048439DF80A10484303F066FC43
:1053A0000399C1F8D8000399D1F8D80009889DF86D
:1053B0000B2051439DF80A205143FBF709FD039B45
:1053C00003F14C0019795A79D3F8D830FBF706F875
:1053D000FFE7039800889DF80B104843484303F00B
:1053E00045FC0399C1F8DC000399D1F8DC00098879
:1053F0009DF80B2051435143FBF7EAFC039901F15F
:1054000054000A79D1F8DC301146FAF7E7FF039827
:1054100000889DF80B104843484303F027FC03998C
:10542000C1F8E0000399D1F8E00009889DF80B204D
:1054300051435143FBF7CCFC039901F15C000A791D
:10544000D1F8E0301146FAF7C9FF039800889DF8BB
:10545000091048439DF80B10484303F007FC0399DB
:10546000C1F8E4000399D1F8E40009889DF8092007
:1054700051439DF80B205143FBF7AAFC039B03F11A
:1054800064001A799979D3F8E430FAF7A7FF039802
:1054900000889DF80B1048439DF80910484303F01D
:1054A000E5FB0399C1F8E8000399D1F8E800098801
:1054B0009DF80B2051439DF809205143FBF788FCD0
:1054C000039B03F16C0019799A79D3F8E830FAF765
:1054D00085FF039800889DF80B104843484303F06C
:1054E000C5FB0399C1F8EC000399D1F8EC000988D9
:1054F0009DF80B2051435143FBF76AFC039901F1DE
:1055000074000A79D1F8EC301146FAF767FF039876
:1055100000889DF80B104843484303F0A7FB03990C
:10552000C1F8F0000399D1F8F00009889DF80B202C
:1055300051435143FBF74CFC039901F17C000A797C
:10554000D1F8F0301146FAF749FF039800889DF82A
:105550000B104843484303F089FB0399C1F8F4005A
:105560000399D1F8F40009889DF80B205143514369
:10557000FBF72EFC039901F184000A79D1F8F4308D
:105580001146FAF72BFF039800889DF8091048434D
:10559000484303F06BFB0399C1F8F8000399D1F875
:1055A000F80009889DF8092051435143FBF710FC8E
:1055B000039901F18C008A79D1F8F8301146FAF795
:1055C0000DFF039800889DF80B1048439DF80910C3
:1055D000484303F04BFB0399C1F8FC000399D1F851
:1055E000FC0009889DF80B2051439DF80920514388
:1055F000FBF7EEFB039B03F1940019799A79D3F83A
:10560000FC30FAF7EBFE03990888097948434843D0
:1056100003F02CFB0399C1F80001039AD2F80001B2
:105620001188127951435143FBF7D2FB039901F1E1
:105630009C000A79D1F800311146FAF7CFFE0399A0
:10564000088809794843484303F010FB0399C1F8DF
:105650000401039AD2F8040111881279514351438D
:10566000FBF7B6FB039901F1A4000A79D1F80431E4
:105670001146FAF7B3FE039908880979484348436D
:1056800003F0F4FA0399C1F80801039AD2F808016B
:105690001188127951435143FBF79AFB039901F1A9
:1056A000AC000A79D1F808311146FAF797FE039950
:1056B00008880979484303F0D9FA0399C1F80C0125
:1056C000039AD2F80C01118812795143FBF780FB41
:1056D000039A02F1B4001179D2F80C310122009240
:1056E000FAF77CFE039908880979484303F0BEFA6B
:1056F0000399C1F81001039AD2F8100111881279A8
:105700005143FBF765FB009A039B03F1BC00197939
:10571000D3F81031FAF762FE039800889DF80B1059
:10572000484303F0A3FA0399C1F834010399D1F86F
:10573000340109889DF80B205143FBF749FB04B065
:1057400080BD000080B582B00190019800F064F83F
:105750000198D0F8180128B1FFE70198D0F8181186
:105760008847FFE7019800F0D9F90198D0F81C01AB
:1057700028B1FFE70198D0F81C118847FFE701988E
:1057800000F032F90198D0F8200128B1FFE7019824
:10579000D0F820118847FFE7019800F061F80198E0
:1057A000D0F8240128B1FFE70198D0F824118847E8
:1057B000FFE7019800F05AF90198D0F8280128B1C4
:1057C000FFE70198D0F828118847FFE7019800F01B
:1057D000C7F80198D0F82C0128B1FFE70198D0F85C
:1057E0002C118847FFE70198D0F8300128B1FFE776
:1057F0000198D0F830118847FFE7019BD3F83401B6
:10580000D3F8C8101A881B795A43FBF7A7FA0198F6
:10581000D0F8340102B080BD80B582B00190019B08
:10582000D3F8D400D9681A889B795A43FBF796FAC3
:10583000019AD068118892795143FBF7C9FA01980F
:10584000407901280ADBFFE7019BD3F8D0001969F2
:105850001A885B795A43FBF781FAFFE702B080BDF3
:1058600080B582B00190019890F814018008C007BB
:1058700008B1FFE771E0019901F164006C31FBF7B9
:105880006BF9019981F8C4000199B1F86400A1F89D
:10589000A4000199B1F87E00A1F8A600019A02F1D6
:1058A000640002F17C01A432FBF734F8019981F81D
:1058B000C4000199B1F8A400A1F8AC000199B1F8B5
:1058C0006E00A1F8AE00019A02F1A40002F16C0191
:1058D000AC32FBF71FF8019981F8C4000199B1F8C7
:1058E0008C00A1F89C000199B1F88E00A1F89E00EF
:1058F000019A02F1AC0002F18C019C32FAF7EAFC49
:10590000019981F8C400019901F19C00AC31FAF7CA
:1059100069FD019981F8C4000199B1F87C00A1F8F2
:10592000A4000199B1F86E00A1F8A600019A02F155
:105930007C0002F16C01A432FAF7ECFF019981F8C6
:10594000C400019A02F1A40002F1AC019432FAF70A
:10595000E1FF019981F8C400FFE702B080BD0000BB
:1059600080B582B00190019890F814010009C00739
:1059700008B1FFE735E00199B1F89400A1F8A4005F
:105980000199B1F86600A1F8A600019A02F194000D
:1059900002F16401A432FAF7BDFF019981F8C40055
:1059A0000199B1F8A400A1F8AC000199B1F87E000A
:1059B000A1F8AE00019A02F1A40002F17C01AC3220
:1059C000FAF7A8FF019981F8C400019A02F17C005E
:1059D00002F1AC017432FBF73BF8019981F8C40085
:1059E000FFE702B080BD000080B582B00190019851
:1059F00090F814014008C00708B1FFE734E00199AE
:105A000001F154005C31FBF7A7F8019981F8C4005B
:105A1000019A02F1540002F174017C32FAF77AFF24
:105A2000019981F8C4000199B1F87C00A1F8A400A3
:105A30000199B1F85E00A1F8A600019A02F17C007C
:105A400002F15C01A432FAF765FF019981F8C40004
:105A5000019A02F1A40002F184017C32FAF73AFCC7
:105A6000019981F8C400FFE702B080BD80B582B023
:105A70000190019890F81401C008C00708B1FFE731
:105A80004AE00199B1F86400A1F8B400019901203D
:105A90000090A1F8B600019A02F1640002F134010D
:105AA000B432FAF737FF01460098019A82F8C41021
:105AB000019AB2F84410A2F8BC100199A1F8BE00F6
:105AC000019A02F1440002F1B401BC32FAF7C0FFBE
:105AD00001460098019A82F8C410019AB2F8941015
