:020000040800F2
:10000000389300209D020008CD470008D53800082D
:10001000C947000825190008BD610008000000005C
:10002000000000000000000000000000915A0008DD
:100030002919000800000000714900083D5B000814
:10004000B7020008B7020008B7020008B7020008AC
:10005000B7020008B7020008B7020008B70200089C
:10006000B7020008B7020008B7020008B70200088C
:10007000B7020008B7020008B7020008B70200087C
:10008000B7020008B7020008B7020008B70200086C
:10009000B7020008B7020008B7020008B70200085C
:1000A000B7020008B7020008B7020008B70200084C
:1000B0004D5C0008B7020008B7020008B70200084C
:1000C000B7020008B7020008B7020008B70200082C
:1000D000B7020008B7020008B7020008B70200081C
:1000E000B7020008B7020008B7020008B70200080C
:1000F000B7020008B7020008B7020008B7020008FC
:10010000B7020008B7020008B7020008B7020008EB
:10011000B7020008B7020008B7020008B7020008DB
:10012000B7020008B7020008B7020008B7020008CB
:10013000B7020008B7020008B7020008B7020008BB
:10014000B7020008B7020008B7020008B7020008AB
:10015000B7020008B7020008B7020008B70200089B
:10016000B7020008B7020008B7020008B70200088B
:10017000B7020008B7020008B7020008000000003C
:10018000B7020008B702000800F002F800F076F8A5
:1001900014A696E8000CB244B344DA4501D100F04D
:1001A0006DF8BAE80F000FA696E83000A5EB04053D
:1001B00004EB0607AAEB0704A7F101074FEA1515A0
:1001C0004FEA3414A4F10104AC4201D300F056F814
:1001D00013F0010F18BFFB1A43F0010300F001F800
:1001E000DBE71847A0810000C08100000A444FF0FF
:1001F000000C10F8013B13F0070408BF10F8014B86
:100200001D1108BF10F8015B641E05D010F8016BCA
:10021000641E01F8016BF9D113F0080F1EBF10F82E
:10022000014BAD1C0C1B09D16D1E58BF01F801CB51
:10023000FAD505E014F8016B01F8016B6D1EF9D5D4
:100240009142D6D37047000070470000002300247D
:1002500000250026103A28BF78C1FBD8520728BFD6
:1002600030C148BF0B6070471FB508F04CF89DE8DF
:10027000030000F027FE1FBD10B510BD00F0B4FE56
:100280001146FFF7F1FF06F09DF900F0D2FE03B42E
:10029000FFF7F2FF03BC00F003FF000009488047AE
:1002A00009480047FEE7FEE7FEE7FEE7FEE7FEE758
:1002B000FEE7FEE7FEE7FEE704480549054A064B70
:1002C00070470000395C000889010008385300209D
:1002D00038930020387300203873002070B40588EC
:1002E0000E884468D1F804C05368B54208D14088EC
:1002F0004988884201BF11888D425188884203D0C5
:1003000070BC6FF00200704705FB00F1880827D031
:1003100094ED001ADCED000A94ED010ADCED011AFF
:1003200031EE201AD4ED020A70EE211A9CED020A79
:1003300083ED001AC3ED011A94ED031ADCED031AE4
:1003400030EE800A401E71EE210A83ED020A04F1AC
:100350001004C3ED030A03F110030CF1100CD7D104
:1003600011F0030030D0B0F1004F30D200282BDD67
:10037000211F1B1FACF1040210F0010F0AD091EDF8
:10038000010AD2ED010A091D121D30EE200A83ED8B
:10039000010A1B1D400817D091ED010AD2ED010A98
:1003A000401E30EE200A83ED010A91ED020AD2EDE3
:1003B000020A01F1080102F1080230EE200A83ED81
:1003C000020A03F10803E7D170BC00207047B4ECC7
:1003D000010A401EFCEC010A30EE200AA3EC010ADF
:1003E000F5D1F1E701804280436070472DE9F34F7A
:1003F00084B0049840680090486801900498B0F870
:1004000000E04588DFEDFE0A00200290B0EE600AB1
:10041000AE4506D108884988884204BF71468645A2
:1004200004D06FF0020006B0BDE8F08F01985FEADB
:10043000010C18BFB7EE001A3DD000BFBEEB0C0197
:1004400017D0B1F1004F80F01F82002911DD021F8B
:1004500011F0010F1CBFC2ED010A121D4B1006D096
:10046000C2ED010AC2ED020A08325B1EF8D100EBB0
:100470008100BCF10102A0EC011A19D0B2F1004FC9
:1004800080F00882002A13DD031F12F0010F1CBF49
:10049000C3ED010A1B1D511008D000BFC3ED010AB6
:1004A000C3ED020A491E03F10803F7D100EB8200F5
:1004B000BCF1010CC2D14FF000080395002D14BF10
:1004C000B0EE602A002000F0BF8100BF009908FB59
:1004D00005F001EB800B0199DBED002A01EB8000B8
:1004E0000346F0EE421AC64552D9AEEB0802ABEB1A
:1004F000850112F0010F17D001EB850191ED000A83
:10050000B5EEC00AF1EE10FA07DDB4EEE10AF1EE45
:1005100010FA09DDF0EE401A06E0B1EE400AF4EE02
:10052000C01AF1EE10FAF5D3521031D001EB850C60
:100530009CED000AB5EEC00AF1EE10FA05DDB4EE4E
:10054000E10AF1EE10FA09DD06E0B1EE400AF4EE40
:10055000C01AF1EE10FA01D2F0EE401A01EBC5011B
:1005600091ED000AB5EEC00AF1EE10FA05DDB4EE29
:10057000E10AF1EE10FA09DD06E0B1EE400AF4EE10
:10058000C01AF1EE10FA01D2F0EE401A521ECDD18F
:10059000F5EEC01AF1EE10FA00F07381F5EEC02A04
:1005A0000126F1EE10FA0099D4BFB1EE620AB0EE66
:1005B000620AB4EE610AF1EE10FA1CBFAEEB08025B
:1005C000B2F1010C47D005FB08F201EB820292ED7B
:1005D000001A00BFB0EE410A05FB06F4B5EEC00AF2
:1005E00000EB8404F1EE10FACCBFF0EE400AF1EE1D
:1005F000400AF4EE610AF1EE10FA28D1B5EB080CCE
:1006000011D0BCF1004F7DD2BCF1000F0BDD00BF5B
:1006100092ED000AD1ED000ABCF1010CE2EC010AF6
:10062000A1EC010AF4D129000ED0B1F1004F6AD239
:10063000002909DD94ED000AD0ED000A491EE4EC22
:10064000010AA0EC010AF5D1012002900BE0761C12
:10065000BCF1010CBED10298012804D0F5EEC02AED
:10066000F1EE10FA7ED09BED000AB5EB08009A4639
:100670005946064622D0B0F1004F74D200281DDD45
:10068000091F10F0010F06D0F0EE400A80EEA01A0C
:1006900081ED011A091D401010D000BFD1ED010AF3
:1006A000401E80EE801A81ED011A91ED021AC1EE12
:1006B000000AC1ED020A01F10801EFD1280026D09D
:1006C000B0F1004F7ED2002821DDAAF1040110F024
:1006D000010F06D0D1ED010A80EE801A81ED011ADA
:1006E000091D401013D000BFD1ED010A401E80EE5D
:1006F000801A81ED011AD1ED020A80EE801A81ED97
:10070000021A01E0CBE0D6E001F10801ECD1DDE90D
:1007100000124FF000095FEA0E0773D0C14504BF15
:1007200001EB860102EB850274D091ED000ADC46F4
:100730005046331E35D01C46B6F1004F7ED2002CF9
:100740002FDD0B1FABF1040C16F0010F0FD0F0EEF4
:10075000400ADCED011AB0EE601A00EEE11A83EDFA
:10076000011A01E08DE0B1E01B1D0CF1040C7410C6
:1007700015D000BFD3ED010A9CED011A40EE410AED
:10078000C3ED010AD3ED020A9CED021A0CF1080C2C
:1007900040EE410AC3ED020A0833641EEAD101EBC0
:1007A00086012B0036D0B3F1004F72D2002B31DD21
:1007B000A2F1040CAAF1040013F0010F0CD0DCED3F
:1007C000010A00E08BE090ED011A001D40EE410AA5
:1007D000CCED010A0CF1040C5C1019D0DCED010A1F
:1007E00090ED011A40EE410ACCED010ADCED020A5F
:1007F00090ED021A083040EE410ACCED020A03E007
:10080000000000000DE005E0641E0CF1080CE5D1CD
:1008100002EB830201EB88017F1E09F101097FF4DD
:100820007DAF009808F10108001D00900398401E5C
:1008300003907FF44BAE0299012900E058E004BF19
:1008400006B0BDE8F08F00BFB5EEC00AF1EE10FAB9
:100850007FF4E9AD04990EFB05F3002B4A684FF0D5
:1008600000010BD902EB810C9CED000AB5EEC00A29
:10087000F1EE10FA02D1491C8B42F3D88B427FF47F
:10088000D2AD6FF00400CEE5E0EC010A491EFBD1C9
:10089000EFE538E0E0EC010A521EFBD108E692EDEC
:1008A000000AD1ED000ABCF1010CE2EC010AA1EC56
:1008B000010AF4D1B7E694ED000AD0ED000A491E12
:1008C000E4EC010AA0EC010AF5D1BDE6D1ED000A85
:1008D000401E80EE801AA1EC011AF7D1EEE6D3EDAE
:1008E000000A401E80EE801AA3EC011AF7D10EE731
:1008F000BCEC011AD1ED000A5B1E40EE410AE1ECAE
:10090000010AF5D14DE7B0EC011AD2ED000A5B1EE9
:1009100040EE410AE2EC010AF5D17BE72DE9F04F08
:1009200082B0466853680193058847884B88002049
:1009300000900888874201BFB2F800C06545528820
:1009400093421EBF6FF0020002B0BDE8F08F9FED32
:10095000412A4FEA970EC7F3400B00BFDDE90002C2
:1009600002EB800A4A6898464FF00009B0EE420A4E
:10097000B4465FEA0E0025D092ED001ADCED001AB5
:1009800002EB8302DCED010A01EE810A92ED001A0E
:1009900002EB8302401ED2ED001A02EB830200EE4E
:1009A000810A9CED021ADCED030A00040CF1100C24
:1009B000000C01EE210A92ED001A02EB830200EE18
:1009C000810AD9D117F0030026D0ACF10404A2EBC0
:1009D000830210F0010F08D002EB8302D4ED010A6C
:1009E00092ED001A241D00EE810A5FEA0B0013D07D
:1009F00002EB830CD4ED010A9CED001A02EBC3025A
:100A0000401E00EE810AD4ED020A92ED001A04F1B4
:100A1000080400EE810AEBD109F10100AAEC010AF9
:100A20001FFA80F9486800EB8902A8F101001FFA5B
:100A300080F8B8F1000F99D1009806EB87061844AA
:100A400080B20090681E05042D0C87D102B00020F2
:100A5000BDE8F08F0000000070B405880E8844687F
:100A6000D1F804C05368B54208D14088498888420B
:100A700001BF11888D425188884203D070BC6FF04D
:100A80000200704705FB00F1880827D094ED001A9A
:100A9000DCED000A94ED010ADCED011A31EE601A7A
:100AA000D4ED020A70EE611A9CED020A83ED001A81
:100AB000C3ED011A94ED031ADCED031A30EEC00AFF
:100AC000401E71EE610A83ED020A04F11004C3EDC9
:100AD000030A03F110030CF1100CD7D111F003003D
:100AE00030D0B0F1004F30D200282BDD211F1B1F6A
:100AF000ACF1040210F0010F0AD091ED010AD2ED21
:100B0000010A091D121D30EE600A83ED010A1B1D4A
:100B1000400817D091ED010AD2ED010A401E30EED7
:100B2000600A83ED010A91ED020AD2ED020A01F199
:100B3000080102F1080230EE600A83ED020A03F1B7
:100B40000803E7D170BC00207047B4EC010A401ED6
:100B5000FCEC010A30EE600AA3EC010AF5D1F1E7E2
:100B60002DE9F04F02884768B0F802804888D1F834
:100B7000049082B04FF0000A1646824207BF0988EF
:100B800088456FF0020002B018BFBDE8F08F4FEA51
:100B9000980B02EB42000190C8F34000CDF8000032
:100BA00009EB8A01BBF1000F33D0019801EB820CF5
:100BB00001EB80043B46E64601EBC2054FEA0B0021
:100BC00093ED000A401E81ED000A93ED010A01EB4E
:100BD00002118CED000A93ED020A0CEB021C85ED6C
:100BE000000A93ED030A05EB021584ED000A04EBFD
:100BF000021403F11003E3D10EEB820000EB82003C
:100C000000EB8201ABF10100504307EB0B1701EB46
:100C1000001118F0030C21D03B1FA1EB82011CF046
:100C2000010F06D093ED010A01EB82011B1D81ED3E
:100C3000000A009880B100BF93ED010A01EB820425
:100C400001EBC20184ED000A93ED020A401E81ED22
:100C5000000A03F10803EFD107EB8C070AF101004A
:100C60001FFA80FA701E0604360C99D102B00020DB
:100C7000BDE8F08F70B5064600F008F9056806F18A
:100C80000B0020F00704B4429CBF002070BD2B462F
:100C90006A68BAB11068A04210D304F10801884212
:100CA0003CBF5068586007D3516810194160116803
:100CB000091B016058601460101D70BD1346526816
:100CC000002AE7D12146284600F0E8F80028DED1C6
:100CD00070BD53EA020C00F069802DE9F04B4FF033
:100CE0000006002B1FBFB3FA83F503FA05F424FABC
:100CF00005F65E4012BF1643B2FA82F502FA05F419
:100D0000C5F120051EBF22FA05FC44EA0C0420357B
:100D100056EA044C4FEA144418BF641C4FF0000814
:100D20004FF00009904271EB030C39D3002919BF31
:100D3000B1FA81F701FA07F6B0FA80F700FA07F680
:100D4000C7F120071EBF20FA07FC46EA0C06203731
:100D5000B6FBF4FCA7EB0507103F07F01F0BCBF128
:100D600020062CFA06F60CFA0BFB44BFB34600260D
:100D7000202FA4BF5E464FF0000B5BEA060C08BFB5
:100D80004FF0010B19EB0B0948EB0608ABFB027C9B
:100D900006FB02CC0BFB03CCC01B71EB0C01C1E7C3
:100DA0000B46024641464846BDE8F08B13B5084362
:100DB00018BF4FF0FF300146AFF30080BDE81C4084
:100DC000704710B5203AC0F00B80B1E81850A0E889
:100DD0001850B1E81850A0E81850203ABFF4F5AF09
:100DE0005FEA027C24BFB1E81850A0E8185044BF65
:100DF00018C918C0BDE810405FEA827C24BF51F8D2
:100E0000043B40F8043B08BF7047D20728BF31F8C5
:100E1000023B48BF11F8012B28BF20F8023B48BF16
:100E200000F8012B704702F0FF0343EA032242EA75
:100E3000024200F002B84FF0000200B5134694469B
:100E40009646203922BFA0E80C50A0E80C50B1F122
:100E50002001BFF4F7AF090728BFA0E80C5048BF36
:100E60000CC05DF804EB890028BF40F8042B08BFD4
:100E7000704748BF20F8022B11F0804F18BF00F8D0
:100E8000012B70477047704770470000004870475B
:100E900090010020704770477047704738B504468E
:100EA0000A4600206946AFF30080002808BF38BD1D
:100EB00002460099204600F075F8012038BD012057
:100EC00000F08AB8F8B5AFF30080054600200C4664
:100ED0000C2000BF0646A819A0420DD9324669462B
:100EE0000020AFF30080070008BF00F075F80098FD
:100EF000A04218BF0546C419FFF7C8FF05600746A2
:100F0000F01D20F007004619284600F00AF8B44208
:100F100008BFF8BDA21B31463868BDE8F84000F0B4
:100F200041B800210160416070470C20704770B5E6
:100F30000446051FFFF7AAFF0068002C14BF446891
:100F400070BD002C18BFAC423CBF20466468F8D38B
:100F500001680A18AA4218BF456003D12A680546ED
:100F60001144016028684119A1421CBF6C6070BD2A
:100F70006168696021680844286070BD10B500F0A0
:100F80000DF8006810BD10B5044600F007F80460C5
:100F900010BD0000004870478801002000487047DD
:100FA00088010020034640688C46002818BF88420C
:100FB0003CBF03464068F8D318681844884207D0FD
:100FC0000CF1030020F00700001D411A521A0146DF
:100FD000081D0A60FFF7ABBF10B500F039F8BDE897
:100FE000104000F02FB870477546FFF7D3FFAE46AC
:100FF00005006946534620F00700854618B020B525
:10100000FFF75AF9BDE820404FF000064FF0000707
:101010004FF000084FF0000BAC46ACE8C009ACE85C
:10102000C009ACE8C009ACE8C00921F007018D4651
:10103000704710B50446AFF300802046BDE810406D
:10104000FFF725B9002801D000F02AB8704700004A
:1010500010B5012805D0002103A000F027F80120D9
:1010600010BD09A1F8E7000053494752544D454DC2
:101070003A204F7574206F662068656170206D6539
:101080006D6F7279000000003A2048656170206D34
:10109000656D6F727920636F72727570746564002C
:1010A00001491820ABBEFEE72600020070B50546D8
:1010B0000C460A2000E06D1C00F011F835B12878CC
:1010C0000028F8D102E0641C00F009F814B120787F
:1010D0000028F8D1BDE870400A20AFF3008008B5C1
:1010E00069468DF800000320ABBE08BD80B5002026
:1010F000C4F202001021012200F06EFE80BD00004B
:1011000080B50020C4F202001021002200F064FE2D
:1011100080BD000080B588B000208DF81E00FFF76C
:10112000EFFF8020049000F0D3FB5520059000F0E5
:10113000CFFB059800F0CCFB8DF81E00FFF7D6FF23
:101140009620069000F004FCFFF7DAFF049800F008
:10115000BFFB059800F0BCFB059800F0B9FB8DF8CB
:101160001E00FFF7C3FF069800F0F2FBFFF7C8FF71
:101170007E20B62100F0C6FBFFF7B8FF502000F03C
:10118000D5FBFFF7BDFF049800F0A2FB059800F027
:101190009FFB059800F09CFB8DF81E00FFF7A6FF53
:1011A000069800F0D5FBFFF7ABFF049800F090FB2A
:1011B000059800F08DFB059800F08AFB8DF81E0065
:1011C000FFF794FF069800F0C3FB9DF81E001E2851
:1011D00004D0FFE7FF208DF81F005CE000208DF8B1
:1011E0001D00FFE79DF81D00052850DCFFE7FFF715
:1011F00087FF9DF81D0000EB400240F20000C2F2A4
:10120000000003908118805C497800F07BFBFFF7B9
:101210006DFF9620029000F09BFBFFF771FF039893
:101220009DF81D1001EB4101405C40F0800000F092
:101230004FFB5520019000F04BFB019800F048FB5C
:101240008DF81E00FFF752FF029800F081FB039912
:101250009DF81E009DF81D2002EB420211444978C2
:1012600088420DD0FFE79DF81D0000EB400140F2E1
:101270000000C2F20000084480788DF81F000AE0E8
:10128000FFE79DF81D0001308DF81D00AAE7002042
:101290008DF81F00FFE79DF81F0008B080BD00001B
:1012A00080B540F20040C4F202000122114600F075
:1012B00093FD80BD80B540F20040C4F202000121E0
:1012C000002200F089FD80BD80B586B0002002902C
:1012D0008DF81600FFF7EEFF02980DF1160103914D
:1012E00000F0E4FAFFF7DCFF9620049000F030FBFA
:1012F000FFF7E0FF0298039900F0D8FAFFF7D0FF5C
:10130000049800F025FBFFF7D5FF1420B62100F06C
:10131000F9FAFFF7C5FF502000F008FBFFF7CAFFFE
:101320000298039900F0C2FAFFF7BAFF049800F0A0
:101330000FFBFFF7BFFF0298039900F0B7FAFFF722
:10134000AFFF049800F004FB9DF816000F2804D0AE
:10135000FFE7FF208DF8170053E000208DF81500FF
:10136000FFE79DF81500052847DCFFE7FFF7A2FF20
:101370009DF8150000EB400240F22800C2F2000088
:1013800001908118805C497800F0BCFAFFF788FF73
:101390009620009000F0DCFAFFF78CFF01989DF892
:1013A000151001EB4101405C0DF1160100F07EFAD1
:1013B000FFF776FF009800F0CBFA01999DF8160030
:1013C0009DF8152002EB42021144497888420DD065
:1013D000FFE79DF8150000EB400140F22800C2F243
:1013E0000000084480788DF817000AE0FFE79DF8B8
:1013F000150001308DF81500B3E700208DF81700B7
:10140000FFE79DF8170006B080BD000080B582B0F0
:101410008DED010ADDED010A40F26420C2F2000008
:101420009FED200A04F074FFFFE740F26420C2F24F
:10143000000090ED110A9FED1C1AB4EE410AF1EE86
:1014400010FA0ADDFFE740F26421C2F2000144F223
:101450000000C4F21C60486414E040F26420C2F250
:10146000000090ED110AB5EE400AF1EE10FA07DA2D
:10147000FFE740F26421C2F200010020486400E06E
:10148000FFE7FFE7FFE740F26420C2F2000090EDC3
:10149000110ABDEEC00A10EE100A02F01DFA02B0E9
:1014A00080BD00BF0000204200401C4680B584B0D3
:1014B000039000200290019003980078C00720B9A3
:1014C000FFE7039800F010F9FFE7FFF719FE9220FD
:1014D00000F0FEF9122001A90091062200F0C4F9E3
:1014E000FFF704FE9DF804009DF8051040EA012076
:1014F000039908849DF806009DF8071040EA012032
:10150000039948849DF808009DF8091040EA0120DD
:101510000399888440F22000C2F2000090ED000A96
:101520000399B1F9201001EE101AB8EEC11A20EE9D
:10153000010A039981ED010A90ED000A0399B1F9BE
:10154000221001EE101AB8EEC11A20EE010A03991A
:1015500081ED020A90ED000A0398B0F9240001EE33
:10156000100AB8EEC11A20EE010A039880ED030AB2
:10157000FFF7C6FDA22000F0ABF90099222002225D
:1015800000F072F9FFF7B2FD9DF804009DF8051018
:10159000C00040EA5110039988850398B0F92C00E7
:1015A000B0F5806F06DBFFE70399888DA0F500603A
:1015B0008885FFE70398B0F92C0000EE100AB8EE1A
:1015C000C00AB4EE001A20EE010AB3EE071A30EE9C
:1015D000010A039880ED070AFFF76CFE002001A9BD
:1015E000082200F041F9FFF75BFE9DF804000F2888
:1015F00019D1FFE79DF806009DF8071040EA012089
:101600000399C8849DF808009DF8091040EA01205C
:10161000039908859DF80A009DF80B1040EA012007
:1016200003994885FFE740F22400C2F2000090EDE4
:10163000000A0399B1F9261001EE101AB8EEC12A7A
:10164000039991ED0C1A20EE020A30EE410A81ED69
:10165000040A90ED000A0399B1F9281001EE101A5E
:10166000B8EEC12A039991ED0D1A20EE020A30EE70
:10167000410A81ED050A90ED000A0398B0F92A00AD
:1016800001EE100AB8EEC12A039890ED0E1A20EE72
:10169000020A30EE410A80ED060A04B080BD000067
:1016A00080B582B000208DF80700FFE700208DF89C
:1016B0000700FFF72FFD01469DF8070008438DF84E
:1016C0000700FFF701FE01469DF8070008438DF86B
:1016D0000700022000F02AF9FFE79DF80700002824
:1016E000E4D1FFE702B080BD80B586B00590002050
:1016F00004900390ADF80A00FFE7BDF80A0041F23C
:101700008731884200F39180FFE7FFF7F9FC9220D0
:1017100000F0DEF8122003A90191062200F0A4F8DF
:10172000FFF7E4FC9DF80C009DF80D1040EA012045
:10173000059908849DF80E009DF80F1040EA0120DD
:10174000059948849DF810009DF8111040EA012089
:1017500005998884FFF7AEFD01990020082200F06A
:1017600083F8FFF79DFD9DF80C000F2853D1FFE78C
:101770009DF80E009DF80F1040EA01200599C884DD
:101780009DF810009DF8111040EA01200599088588
:101790009DF812009DF8131040EA01200599488534
:1017A00040F22400C2F2000090ED000A0599B1F960
:1017B000261001EE101AB8EEC12A059991ED0C1A07
:1017C00020EE020A30EE010A81ED0C0A90ED000ACB
:1017D0000599B1F9281001EE101AB8EEC12A059941
:1017E00091ED0D1A20EE020A30EE010A81ED0D0A8C
:1017F00090ED000A0598B0F92A0001EE100AB8EE43
:10180000C12A059890ED0E1A20EE020A30EE010A68
:1018100080ED0E0AFFE7012000F088F8FFE7BDF831
:101820000A000130ADF80A0067E7059890ED0C0A50
:101830009FED0C1A80EE010A80ED0C0A059890EDE0
:101840000D0A80EE010A80ED0D0A059890ED0E0A52
:1018500080EE010A80ED0E0A05990120087006B09D
:1018600080BD00BF00409C4580B584B08DF80F005E
:1018700002918DF807209DF80F0040F0800000F0E5
:1018800027F8FFE79DF8070070B1FFE7552000F04B
:101890001FF8029908700298013002909DF8070025
:1018A00001388DF80700EDE704B080BD80B582B047
:1018B0008DF8070000919DF8070040F0800000F0CF
:1018C00007F8552000F004F80099087002B080BDB8
:1018D00080B582B08DF8070000208DF806006946BB
:1018E0004FF47A70086040F2A440C2F200000DF19B
:1018F00007010DF10602012301F0DAF99DF8060057
:1019000002B080BD80B582B08DF807008DF806105A
:101910009DF80700FFF7DCFF9DF80600FFF7D8FFF2
:1019200002B080BDFFE7FEE77047000080B582B0DF
:10193000019000F069FA0090FFE700F065FA009965
:10194000401A0199884201D2FFE7F6E702B080BD54
:1019500080B582B0019000F04BF80090FFE700F0F6
:1019600047F80099401A0199884201D2FFE7F6E74B
:1019700002B080BD80B582B00190FFE7012004F085
:101980004DFEFBE781B0EFF3108072B60090FFE7E9
:10199000FEE7000084B08DED030A9DED030AB6EE6C
:1019A000001A20EE010A8DED020A039801900198B9
:1019B0000090009945F68620C5F63770A0EB6100CF
:1019C0000090009801909DED010A9DED021A21EE14
:1019D000001A21EE002AB7EE081A31EE421A20EE64
:1019E000010A8DED010A9DED010A04B07047000067
:1019F00080B584B0002003900290019000F004FABA
:101A000002902420C4F20000006801900298019A1C
:101A10004FF47A7100FB01200390039804B080BD5D
:101A20008EB00D900C9100200A90099008900B90B8
:101A3000FFE70B980F2800F2CC81FFE70B990120FC
:101A400088400A900C9800680A9908400990099803
:101A50000A99884240F0B881FFE70C98406800F08E
:101A60000300012807D0FFE70C98406800F003004E
:101A700002282FD1FFE70D98806808900B9841004D
:101A8000032000FA01F10898884308900C98C06878
:101A90000B99490000FA01F108980843089008984A
:101AA0000D9988600D98406808900B99012000FA04
:101AB00001F10898884308900C984068C0F3001022
:101AC0000B9900FA01F108980843089008980D99BD
:101AD0004860FFE70C98406800F00300032818D026
:101AE000FFE70D98C06808900B984100032000FAAA
:101AF00001F10898884308900C9880680B99490078
:101B000000FA01F108980843089008980D99C860F8
:101B1000FFE70C98406800F00300022826D1FFE799
:101B20000D980B996FF0030202EA51010844006A14
:101B300008900B9800F0070081000F2000FA01F1D7
:101B40000898884308900C9800690B9901F00701E8
:101B5000890000FA01F108980843089008980D9947
:101B60000B9B02EA530211440862FFE70D980068DC
:101B700008900B984100032000FA01F1089888436F
:101B800008900C98406800F003000B99490000FA97
:101B900001F108980843089008980D9908600C987E
:101BA00080798007002800F00E81FFE7FFE7002022
:101BB000079043F64400C4F20200016841F48041FA
:101BC0000160006800F4804007900798FFE70B98D9
:101BD00020F0030043F60801C4F2010140580890C8
:101BE0000B9800F0030081000F2000FA01F1089823
:101BF000884308900D980021C4F20201884203D165
:101C0000FFE7002006905EE00D9840F20041C4F22C
:101C10000201884203D1FFE70120059050E00D98B2
:101C200040F60001C4F20201884203D1FFE702201E
:101C3000049042E00D9840F60041C4F2020188424F
:101C400003D1FFE70320039034E00D9841F2000137
:101C5000C4F20201884203D1FFE70420029026E08B
:101C60000D9841F20041C4F20201884203D1FFE71E
:101C70000520019018E00D9841F60001C4F2020120
:101C8000884203D1FFE7062000900AE00D9941F653
:101C90000042C4F202020820914208BF07200090CF
:101CA000FFE700980190FFE701980290FFE7029894
:101CB0000390FFE703980490FFE704980590FFE77F
:101CC00005980690FFE70698C0B20B9901F0030152
:101CD000890000FA01F108980843089008980B99C8
:101CE00021F0030143F60802C4F20102885043F6D2
:101CF0000840C4F2010000680890099908988843D8
:101D000008900C988079C006002805D5FFE709994E
:101D1000089808430890FFE7089843F60841C4F282
:101D20000101086043F60C40C4F20100006808900D
:101D300009990898884308900C98807980060028B3
:101D400005D5FFE70999089808430890FFE7089828
:101D500043F60C41C4F20101086043F60440C4F2AA
:101D600001000068089009990898884308900C9829
:101D700080798007002805D5FFE70999089808436E
:101D80000890FFE7089843F60441C4F20101086097
:101D900043F60040C4F201000068089009990898D1
:101DA000884308900C988079C00728B1FFE709990B
:101DB000089808430890FFE7089843F60041C4F2EA
:101DC00001010860FFE7FFE7FFE70B9801300B9088
:101DD0002FE60EB07047000082B00190ADF80210FF
:101DE0008DF801209DF8010028B1FFE7BDF8020041
:101DF0000199886105E0BDF802000004019988613D
:101E0000FFE702B07047000044F23020C2F2000049
:101E10000068704740F27810C2F20000027844F285
:101E20003021C2F2000108681044086070470000C9
:101E300080B543F60041C4F20201086840F4007026
:101E40000860086840F480600860086840F48070AA
:101E50000860032000F0CEF80F2000F005F800F035
:101E600079F8002080BD000080B58CB00B90002078
:101E700004900390FFE70020009043F64000C4F276
:101E80000200016841F001010160006800F00100FA
:101E900000900098FFE706A802A900F0EDF9099864
:101EA0000490049820B9FFE700F016FA059004E0CA
:101EB00000F012FA40000590FFE705984DF68361A7
:101EC000C4F21B31A0FB01014FF0FF3000EB914049
:101ED000039040F24450C2F200004FF08041016094
:101EE00040F2E731C16003994160002101618160E6
:101EF000816101F099F88DF807009DF8070028BB73
:101F0000FFE740F24450C2F2000001F0FBF88DF808
:101F100007009DF80700C0B9FFE71C2000F046F855
:101F20000B980F280CD8FFE70B991C20002200F01B
:101F300047F80B9840F27C11C2F20001086003E000
:101F400001208DF80700FFE7FFE7FFE79DF8070096
:101F50000CB080BD80B582B0FFE70020019043F651
:101F60004400C4F20200016841F48041016000684D
:101F700000F4804001900198FFE7FFE70020009007
:101F800043F64000C4F20200016841F08051016054
:101F9000006800F0805000900098FFE76FF00100AB
:101FA0000F21002200F00CF802B080BD80B582B095
:101FB0008DF807009DF9070004F04AF902B080BDD2
:101FC00080B586B08DF8170004910392002002902E
:101FD00004F056F902909DF91700019002980499B7
:101FE000039A02F0F9FB0146019804F051F906B09A
:101FF00080BD000080B582B00190019804F06AF9BC
:1020000002B080BD7047000080B584B0029001919D
:10201000029820B9FFE701208DF80F0021E1019817
:1020200043F60041C4F20201096801F00701884249
:1020300012D9FFE7019943F60040C4F20200017093
:10204000006800F007000199884204D0FFE70120F2
:102050008DF80F0005E1FFE702980078800700285F
:102060002AD5FFE7029800784007002809D5FFE746
:1020700043F60801C4F20201086840F4E050086029
:10208000FFE7029800780007002809D5FFE743F62C
:102090000801C4F20201086840F460400860FFE7EC
:1020A00043F60801C4F20201086820F0F000029A29
:1020B000926810430860FFE702980078C007002884
:1020C0006ED0FFE702984068012811D1FFE743F680
:1020D0000000C4F20200006800F400310020B0EB00
:1020E000514F04D1FFE701208DF80F00B9E02CE03B
:1020F00002984068022805D0FFE70298406803284C
:1021000011D1FFE743F60000C4F20200006800F0BE
:1021100000710020B0EB516F04D1FFE701208DF872
:102120000F009EE010E043F60000C4F202000068D9
:1021300000F002010020B0EB510F04D1FFE70120B5
:102140008DF80F008DE0FFE7FFE743F60801C4F2CA
:102150000201086820F00300029A526810430860E8
:10216000FFF752FE0090FFE743F60800C4F20200BA
:10217000006800F00C0002994968B0EB810F0ED0A6
:10218000FFE7FFF741FE0099401A41F2893188428A
:1021900004D3FFE703208DF80F0062E0E4E7FFE7D8
:1021A000019843F60041C4F20201096801F00701F9
:1021B000884212D2FFE7019943F60040C4F20200C0
:1021C0000170006800F007000199884204D0FFE721
:1021D00001208DF80F0044E0FFE7029800784007E7
:1021E00000280CD5FFE743F60801C4F20201086895
:1021F00020F4E050029AD26810430860FFE702988A
:102200000078000700280DD5FFE743F60801C4F267
:102210000201086820F46040029A126940EAC20094
:102220000860FFE700F06AF843F60801C4F2020113
:102230000968C9B20A0948F25431C0F60001895C44
:10224000C84040F27411C2F20001086040F27C10F4
:10225000C2F200000068FFF707FE00208DF80F00B3
:10226000FFE79DF80F0004B080BD00004C21C4F2D0
:10227000472101200860704782B0019000910199C8
:102280000F20086043F60800C4F20200016801F064
:102290000301019A5160016801F0F001019A916017
:1022A000016801F4E051019AD160006800F46040D7
:1022B000C0080199086143F60040C4F202000068BA
:1022C00000F007000099086002B0704740F27410F7
:1022D000C2F200000068704780B5FFF7F7FF43F6D1
:1022E0000801C4F202010968C1F3822248F2643194
:1022F000C0F60001895CC84080BD000080B586B092
:102300000020059004900390029043F60800C4F268
:102310000200006800F00C000146019140B1FFE7A7
:10232000019804280AD0FFE7019808280CD04FE054
:1023300042F20040C0F2F40002904FE041F600305B
:10234000C0F2B700029049E043F60400C4F2020074
:10235000016801F03F01059100684002002813D593
:10236000FFE743F60400C4F202000068C0F38810DF
:1023700041F60031C0F2B701A0FB0101059A00232C
:10238000FEF7A7FC049012E043F60400C4F202003A
:102390000068C0F3881042F20041C0F2F401A0FBD3
:1023A0000101059A0023FEF794FC0490FFE743F631
:1023B0000400C4F20200006800F44031022000EB87
:1023C000D130039004980399B0FBF1F0029005E03E
:1023D00042F20040C0F2F4000290FFE7029806B01B
:1023E00080BD000080B543F60C00C4F20200006816
:1023F0000006002809D5FFE7FFF704FE43F60E01AB
:10240000C4F2020180200870FFE780BD80B586B06D
:102410000490049820B9FFE701208DF8170050E3DD
:1024200004980078C007002800F0A580FFE743F675
:102430000800C4F20200006800F00C00042813D069
:10244000FFE743F60800C4F20200006800F00C0049
:1024500008281ED1FFE743F60400C4F2020000681A
:102460004002002815D5FFE743F60000C4F2020041
:10247000006800F400310020B0EB514F08D0FFE7B6
:102480000498406820B9FFE701208DF8170018E391
:1024900070E0FFE704984068B0F5803F09D1FFE79E
:1024A00043F60001C4F20201086840F4803008607D
:1024B00020E004984068B0F5A02F0DD1FFE743F667
:1024C0000001C4F20201086840F480200860086836
:1024D00040F4803008600CE043F60001C4F20201D1
:1024E000086820F480300860086820F480200860C4
:1024F000FFE7FFE7FFE704984068E8B1FFE7FFF771
:1025000083FC0390FFE743F60000C4F2020000687A
:1025100000F400310020B0EB514F0CD1FFE7FFF782
:1025200073FC0399401A652804D3FFE703208DF854
:102530001700C6E2E7E71CE0FFF766FC0390FFE741
:1025400043F60000C4F20200006800F400310020ED
:10255000B0EB514F0CD0FFE7FFF756FC0399401A40
:10256000652804D3FFE703208DF81700A9E2E7E709
:10257000FFE7FFE7FFE7049800788007002840F1B5
:102580009680FFE743F60800C4F20200006810F0EE
:102590000C0F13D0FFE743F60800C4F202000068F6
:1025A00000F00C0008282CD1FFE743F60400C4F229
:1025B000020000684002002823D4FFE743F6000031
:1025C000C4F20200006800F002010020B0EB510FDD
:1025D00009D0FFE70498C068012804D0FFE7012074
:1025E0008DF817006DE243F60001C4F2020108689D
:1025F00020F0F800049A126940EAC2000860FFE780
:1026000054E00498C06870B3FFE70021C4F247218A
:1026100001200860FFF7F8FB0390FFE743F6000096
:10262000C4F20200006800F002010020B0EB510F7C
:102630000CD1FFE7FFF7E8FB0399401A032804D306
:10264000FFE703208DF817003BE2E7E743F60001C0
:10265000C4F20201086820F0F800049A126940EA06
:10266000C200086021E00021C4F247210020086078
:10267000FFF7CAFB0390FFE743F60000C4F2020035
:10268000006800F002010020B0EB510F0CD0FFE712
:10269000FFF7BAFB0399401A032804D3FFE703208E
:1026A0008DF817000DE2E7E7FFE7FFE7FFE7049883
:1026B0000078000700284BD5FFE70498406918B35D
:1026C000FFE740F68061C4F2472101200860FFF770
:1026D0009BFB0390FFE743F67400C4F2020000681E
:1026E00000F002010020B0EB510F0CD1FFE7FFF723
:1026F0008BFB0399401A032804D3FFE703208DF8CE
:102700001700DEE1E7E722E040F68061C4F24721EE
:1027100000200860FFF778FB0390FFE743F67400A2
:10272000C4F20200006800F002010020B0EB510F7B
:102730000CD0FFE7FFF768FB0399401A032804D386
:10274000FFE703208DF81700BBE1E7E7FFE7FFE7AE
:10275000049800784007002840F1CE80FFE7002071
:102760008DF8070043F64000C4F202000068C00084
:10277000002815D4FFE7FFE70020009043F6400053
:10278000C4F20200016841F080510160006800F06D
:10279000805000900098FFE701208DF80700FFE7C8
:1027A00047F20000C4F200000068C005002822D4EF
:1027B000FFE747F20001C4F20001086840F48070AE
:1027C0000860FFF721FB0390FFE747F20000C4F227
:1027D00000000068C00500280CD4FFE7FFF714FBD9
:1027E0000399401A032804D3FFE703208DF817004C
:1027F00067E1EAE7FFE7FFE704988068012809D16D
:10280000FFE743F67001C4F20201086840F00100DE
:1028100008601FE00498806805280DD1FFE743F6A3
:102820007001C4F20201086840F004000860086802
:1028300040F0010008600CE043F67001C4F20201B0
:10284000086820F001000860086820F004000860B3
:10285000FFE7FFE7FFE704988068F8B1FFE7FFF7BD
:10286000D3FA0390FFE743F67000C4F20200006859
:1028700000F002010020B0EB510F0ED1FFE7FFF78F
:10288000C3FA0399401A41F28931884204D3FFE721
:1028900003208DF8170014E1E5E71EE0FFF7B4FA16
:1028A0000390FFE743F67000C4F20200006800F0F6
:1028B00002010020B0EB510F0ED0FFE7FFF7A4FAA2
:1028C0000399401A41F28931884204D3FFE703207B
:1028D0008DF81700F5E0E5E7FFE79DF80700012810
:1028E00009D1FFE743F64001C4F20201086820F075
:1028F00080500860FFE7FFE704988069002800F037
:10290000DC80FFE743F60800C4F20200006800F034
:102910000C00082800F08580FFE7049880690228F1
:102920005CD1FFE76021C4F2472100200860FFF777
:102930006BFA0390FFE743F60000C4F20200006860
:1029400000F000710020B0EB516F0CD0FFE7FFF7F3
:102950005BFA0399401A032804D3FFE703208DF89C
:102960001700AEE0E7E70499C869D1F820C04B6AC8
:102970008A6A40EA0C0040EA8310D2034FF6FF73E4
:102980009A43A2F580321043C96A40EA016043F6D7
:102990000401C4F2020108606021C4F24721012051
:1029A0000860FFF731FA0390FFE743F60000C4F236
:1029B0000200006800F000710020B0EB516F0CD1F4
:1029C000FFE7FFF721FA0399401A032804D3FFE732
:1029D00003208DF8170074E0E7E721E06021C4F2DE
:1029E000472100200860FFF70FFA0390FFE743F646
:1029F0000000C4F20200006800F000710020B0EB9B
:102A0000516F0CD0FFE7FFF7FFF90399401A032835
:102A100004D3FFE703208DF8170052E0E7E7FFE754
:102A20004AE004988069012804D1FFE701208DF86D
:102A3000170046E043F60400C4F20200006802906A
:102A400004988069012831D0FFE7029800F48000E3
:102A50000499C969884229D1FFE7029800F03F0034
:102A60000499096A884221D1FFE7029847F6C071AC
:102A700008400499496AB0EB811F17D1FFE702981B
:102A800000F440300499896AC9034FF6FF729143FC
:102A9000A1F58031884209D1FFE7029800F070600B
:102AA0000499C96AB0EB016F04D0FFE701208DF8EB
:102AB000170006E0FFE7FFE7FFE700208DF81700AB
:102AC000FFE79DF8170006B080BD000080B584B018
:102AD0000290029820B9FFE701208DF80F0071E005
:102AE0000298406A60B9FFE702984068B0F5827FBB
:102AF00001D1FFE703E002990020C861FFE705E08C
:102B000002990020086102994861FFE702990020BC
:102B10008862029890F8510040B9FFE702990020BE
:102B200081F85000029800F051F8FFE70299022066
:102B300081F8510002980168086820F040000860A0
:102B4000029A019211685068D2F808C0D36800F464
:102B500082700CF4044C604403F40063184413695D
:102B600003F002031844536903F001031844936906
:102B700003F400731844D36903F038031844136A4C
:102B800003F080031843926A02F400521043086075
:102B9000029A508B00F004001168526A02F0100291
:102BA0001044486002980168C86920F40060C86158
:102BB000029900204865029A012182F851108DF88F
:102BC0000F00FFE79DF80F0004B080BD80B58EB008
:102BD0000D9000200C900B900A90099008900D9891
:102BE000006843F20001C4F2010188425ED1FFE7B0
:102BF000FFE70020079043F64400C4F2020001689A
:102C000041F480510160006800F4805007900798FB
:102C1000FFE7FFE70020069043F63000C4F2020011
:102C2000016841F002010160006800F002000690B6
:102C30000698FFE7FFE70020059043F63000C4F256
:102C40000200016841F001010160006800F001002C
:102C500005900598FFE71820089002200090099041
:102C6000002001900A90032002900B900520039011
:102C70000C9040F20040C4F2020008A90491FEF753
:102C8000CFFEDDF800C0019B029A039804994FF033
:102C9000800ECDF820E0CDF824C00A930B920C9062
:102CA0000020C4F20200FEF7BBFEFFE70EB080BDBD
:102CB00080B58EB0DDF840C00C900B910A92ADF853
:102CC00026300120059000208DF81300FFE70C98B6
:102CD00090F85000012804D1FFE702208DF837005A
:102CE00095E10C99012081F85000FFE7FFE7FFF71D
:102CF0008BF806900C9890F851008DF81F000C98F6
:102D000040680890BDF82600ADF824009DF81F002B
:102D1000012812D0FFE70898B0F5827F09D1FFE7BC
:102D20000C98806828B9FFE79DF81F00042804D09C
:102D3000FFE702208DF813005AE10B9838B1FFE746
:102D40000A9820B1FFE7BDF8260020B9FFE701206F
:102D50008DF813004CE10C9890F85100042805D030
:102D6000FFE70C99052081F85100FFE70C9900203E
:102D700048650A990C9A9163BDF826100C9AD18780
:102D8000BDF826100C9A91870B990C9A1163BDF827
:102D900026100C9AD186BDF826100C9A91860C99B3
:102DA00008640C9948640C980068006800F04000C2
:102DB000402807D0FFE70C980168086840F0400001
:102DC0000860FFE70C98C068B0F5006F76D1FFE7A8
:102DD0000C98406828B1FFE7BDF8240001280ED107
:102DE000FFE70C980168006B0088C8600C99086BBD
:102DF000023008630C99C88E0138C886FFE7FFE7E8
:102E00000C98C18E0120029039B9FFE70C98C08F51
:102E1000002818BF01200290FFE70298C007002891
:102E20004BD0FFE70C98006880688007002818D511
:102E3000FFE70C98C08EA0B1FFE70598012810D1DC
:102E4000FFE70C980168006B0088C8600C99086B5C
:102E5000023008630C99C88E0138C886002005909E
:102E6000FFE70C9800688068C007A8B1FFE70C98DE
:102E7000C08F88B1FFE70C980068C0680C99896B17
:102E800008800C99886B023088630C99C88F0138D0
:102E9000C88701200590FFE7FEF7B6FF0699401AA4
:102EA0001099884208D3FFE71098013020B1FFE75E
:102EB00003208DF813009BE0A2E778E00C984068AF
:102EC00028B1FFE7BDF8240001280ED1FFE70C98D8
:102ED0000168006B007808730C99086B0130086377
:102EE0000C99C88E0138C886FFE7FFE70C98C18EA1
:102EF0000120019039B9FFE70C98C08F002818BF56
:102F000001200190FFE70198C00700284ED0FFE79D
:102F10000C98006880688007002818D5FFE70C9897
:102F2000C08EA0B1FFE70598012810D1FFE70C98EB
:102F30000168006B007808730C99086B0130086316
:102F40000C99C88E0138C88600200590FFE70C98C0
:102F500000688068C007A8B1FFE70C98C08F88B1EF
:102F6000FFE70C980068C0680C99896B08700C9991
:102F7000886B013088630C99C88F0138C88701209D
:102F80000590FFE7FEF740FF0699401A1099884226
:102F900004D3FFE71098013018B9FFE7109820B963
:102FA000FFE703208DF8130022E09FE7FFE70C986E
:102FB0001099069A02F07EFC38B1FFE701208DF8E7
:102FC00013000C992020486512E00C98806870B9B5
:102FD000FFE7FFE7002003900C980068C0680390AB
:102FE0000C980068806803900398FFE7FFE7FFE70D
:102FF0000C99012081F85100FFE70C99002081F81D
:103000005000FFE79DF813008DF83700FFE79DF8AB
:1030100037000EB080BD000081B0009001B0704755
:1030200081B0009001B0704780B582B000900098E8
:1030300020B9FFE701208DF807003FE0009890F8E5
:103040003D0040B9FFE70099002081F83C0000985E
:1030500000F038F8FFE70099022081F83D00009960
:1030600051F8040B02F0FAFD0099012081F84600A6
:10307000FFE70099012081F83E00009981F83F00A8
:10308000009981F84000009981F84100FFE7FFE7CF
:103090000099012081F84200009981F843000099CD
:1030A00081F84400009981F84500FFE7009901206C
:1030B00081F83D0000208DF80700FFE79DF807002C
:1030C00002B080BD82B001900198006844F20041D6
:1030D000C4F20101884212D1FFE7FFE7002000900F
:1030E00043F64400C4F20200016841F4003101607B
:1030F000006800F4003000900098FFE7FFE702B09E
:103100007047000083B00190019890F83D000128BD
:1031100004D0FFE701208DF80B006AE0019902203E
:1031200081F83D0001980168C86840F00100C8605E
:10313000019800680021C4F2010188423CD0FFE7F9
:1031400001980068B0F1804F36D0FFE70198006821
:1031500040F20041C4F2000188422DD0FFE70198FF
:10316000006840F60001C4F20001884224D0FFE765
:103170000198006840F60041C4F2000188421BD06B
:10318000FFE70198006840F20041C4F20101884263
:1031900012D0FFE70198006844F20001C4F2010177
:1031A000884209D0FFE70198006841F60001C4F2A7
:1031B0000001884212D1FFE701980068806800F0A2
:1031C000070000900098062807D0FFE701980168E3
:1031D000086840F001000860FFE706E00198016818
:1031E000086840F001000860FFE700208DF80B0040
:1031F000FFE79DF80B0003B07047000081B000901E
:1032000001B0704780B582B00190019800680069F4
:1032100000F002010020B0EB510F28D0FFE7019829
:103220000068C06800F002010020B0EB510F1DD013
:10323000FFE7019801686FF0020008610199012021
:103240000877019800688069800720B1FFE701983E
:10325000FFF7D4FF06E0019800F048F9019800F06C
:103260003DFAFFE7019900200877FFE7FFE70198A3
:103270000068006900F004010020B0EB910F29D034
:10328000FFE701980068C06800F004010020B0EB7F
:10329000910F1ED0FFE7019801686FF004000861EC
:1032A00001990220087701980068806910F4407F36
:1032B00004D0FFE70198FFF7A1FF06E0019800F0B6
:1032C00015F9019800F00AFAFFE701990020087744
:1032D000FFE7FFE701980068006900F0080100209F
:1032E000B0EBD10F28D0FFE701980068C06800F06C
:1032F00008010020B0EBD10F1DD0FFE70198016855
:103300006FF00800086101990420087701980068AF
:10331000C069800720B1FFE70198FFF76FFF06E063
:10332000019800F0E3F8019800F0D8F9FFE701995F
:1033300000200877FFE7FFE701980068006900F0C8
:1033400010010020B0EB111F29D0FFE701980068A1
:10335000C06800F010010020B0EB111F1ED0FFE785
:10336000019801686FF01000086101990820087742
:1033700001980068C06910F4407F04D0FFE701980D
:10338000FFF73CFF06E0019800F0B0F8019800F06C
:10339000A5F9FFE7019900200877FFE7FFE701980B
:1033A00000680069C00780B1FFE701980068C06845
:1033B000C00748B1FFE7019801686FF0010008619C
:1033C000019800F075FAFFE7FFE7019800680069CF
:1033D000C1B20020B0EBD11F13D0FFE70198006805
:1033E000C068C1B20020B0EBD11F09D0FFE701983F
:1033F00001686FF0800008610198FFF70DFEFFE79C
:10340000FFE701980068006900F040010020B0EB80
:10341000911F14D0FFE701980068C06800F04001D8
:103420000020B0EB911F09D0FFE7019801686FF011
:1034300040000861019800F049FAFFE7FFE70198B2
:103440000068006900F020010020B0EB511F14D08B
:10345000FFE701980068C06800F020010020B0EB91
:10346000511F09D0FFE7019801686FF02000086143
:103470000198FFF7D5FDFFE7FFE702B080BD000030
:1034800080B588B0079000200690059004900390C6
:1034900002900798006844F20041C4F2010188429A
:1034A00022D1FFE7FFE70020019043F63000C4F28D
:1034B0000200016841F020010160006800F0200076
:1034C00001900198FFE74020029002200390002025
:1034D000049005900320069041F20040C4F20200DF
:1034E00002A9FEF79DFAFFE708B080BD81B0009009
:1034F00001B0704780B586B004900391029200201D
:103500008DF80700FFE7049890F83C00012804D1EB
:10351000FFE702208DF8170089E00499012081F867
:103520003C00FFE7FFE7029800900C2800F2708053
:103530000099DFE801F0076D6D6D206D6D6D3A6DDE
:103540006D6D530004980068039902F071FC0498B3
:103550000168886940F008008861049801688869FA
:1035600020F0040088610398026904980168886962
:103570001043886150E004980068039902F0CEFC83
:1035800004980168886940F40060886104980168C3
:10359000886920F480608861039802690498016852
:1035A000886940EA0220886136E00498006803993F
:1035B00002F02EFD04980168C86940F00800C86157
:1035C00004980168C86920F00400C8610398026982
:1035D00004980168C8691043C8611DE00498006838
:1035E000039902F08FFD04980168C86940F40060F7
:1035F000C86104980168C86920F48060C8610398B4
:10360000026904980168C86940EA0220C86103E0C1
:1036100001208DF80700FFE7FFE70499002081F8FB
:103620003C00FFE79DF807008DF81700FFE79DF8C5
:10363000170006B080BD000080B582B000900098F1
:1036400020B9FFE701208DF807003FE0009890F8CF
:103650003D0040B9FFE70099002081F83C00009848
:1036600000F038F8FFE70099022081F83D0000994A
:1036700051F8040B02F0F2FA0099012081F846009B
:10368000FFE70099012081F83E00009981F83F0092
:10369000009981F84000009981F84100FFE7FFE7B9
:1036A0000099012081F84200009981F843000099B7
:1036B00081F84400009981F84500FFE70099012056
:1036C00081F83D0000208DF80700FFE79DF8070016
:1036D00002B080BD81B0009001B0704781B0009011
:1036E00001B0704780B58CB00A900991099828B94B
:1036F000FFE70A9890F83E0007901CE0099804281C
:1037000005D1FFE70A9890F83F00069010E009986D
:10371000082805D1FFE70A9890F84000059004E0DA
:103720000A9890F841000590FFE705980690FFE79A
:1037300006980790FFE70798012804D0FFE70120CB
:103740008DF82F00AFE0099828B9FFE70A99022009
:1037500081F83E001EE00998042806D1FFE70A9987
:10376000022081F83F00049012E00998082806D151
:10377000FFE70A99022081F84000039005E00A99CA
:10378000022081F841000390FFE703980490FFE7CF
:103790000498FFE70A98006809990122019202F053
:1037A0002BFB01980A9909680022C4F20102914298
:1037B00002900CD0FFE70A9800684FF60041CBF664
:1037C000FE710844B0FA80F040090290FFE70298C9
:1037D000C00738B1FFE70A980168486C40F4004020
:1037E0004864FFE70A9800680021C4F2010188429A
:1037F0003CD0FFE70A980068B0F1804F36D0FFE771
:103800000A98006840F20041C4F2000188422DD0BD
:10381000FFE70A98006840F60001C4F20001884200
:1038200024D0FFE70A98006840F60041C4F2000186
:1038300088421BD0FFE70A98006840F20041C4F2BA
:103840000101884212D0FFE70A98006844F20001A3
:10385000C4F20101884209D0FFE70A98006841F6E6
:103860000001C4F20001884212D1FFE70A98006803
:10387000806800F0070008900898062807D0FFE746
:103880000A980168086840F001000860FFE706E058
:103890000A980168086840F001000860FFE700200E
:1038A0008DF82F00FFE79DF82F000CB080BD0000C1
:1038B00080B582B0019001980068B0F1804F03D1CB
:1038C000FFE7FEF7A7FAFFE702B080BD81B00090E6
:1038D00001B07047FFE7FEE780B582B0ADF80600A3
:1038E000BDF8062040F2FC40C2F20000002102F0C8
:1038F00067FC02B080BD000080B588B0079000F082
:10390000E3F80020069002F0BBFE0690FFE740F2CD
:103910002420C2F200000290FDF7C8FD029890ED4D
:10392000020A40F2E810C2F20000019002F0DCF856
:103930000198029940F2B822C2F20002059282ED8B
:103940000E0A3432039291ED030A143002F0CCF8DF
:1039500001980299059A82ED0F0A91ED010A28302B
:1039600002F0C2F80298039A059981ED0D0A4369A5
:10397000CB6283690B63006941F8280F40F2003085
:10398000C2F2000004909FED4B0A01F063FB049922
:103990000598D1F89821C261D1F89C210262D1F832
:1039A000A021426291ED670A9FED431A20EE010AC1
:1039B00080ED000A91ED660A20EE010A80ED010A11
:1039C00091ED680A20EE010A80ED030A90ED010AEC
:1039D00090ED101A30EE410A9FED381AB4EE410A0C
:1039E000F1EE10FA0ADAFFE740F2B821C2F2000164
:1039F000B1F844000130A1F844001CE040F2B820C6
:103A0000C2F2000090ED010A90ED101A30EE410A6A
:103A10009FED2B1AB4EE410AF1EE10FA0ADDFFE732
:103A200040F2B821C2F20001B1F844000138A1F817
:103A30004400FFE7FFE740F2B820C2F20000009028
:103A40004168016490ED011AB0F9441000EE101ABB
:103A5000B8EEC00A9FED1B2A20EE020A30EE010AE2
:103A600080ED020A90ED0B0A9FED131A20EE010A79
:103A700080ED040A90ED0C0A20EE010A80ED050AA3
:103A800090ED0A0A20EE010A80ED060A9DF8180062
:103A9000C00748B9FFE740F22420C2F2000090EDD1
:103AA000070AFDF7B3FCFFE706A8012102F0CAFDF3
:103AB0002DE700BF6F12833AE12E6542000034C348
:103AC000000034430000B44380B584B040F22420A9
:103AD000C2F200000190FDF7E9FC019890ED020AA6
:103AE00040F2E810C2F20000029040F21401C2F26B
:103AF0000001039101F0DEFF019A0298039992ED13
:103B0000030A143001F0D6FF019A0298039992ED4E
:103B1000010A283001F0CEFF40F26420C2F200001A
:103B200040F23C02C2F20002022100F0C5FE40F267
:103B30000030C2F2000040F25401C2F2000140F233
:103B4000E402C2F20002B2EE040ADFED040A9FEDC5
:103B5000041A01F0FFF904B080BD00BF6F12833A70
:103B60000024744980B584B003908DF80B108DF853
:103B70000A208DF809300399042008800399082051
:103B800048809DF80B0020B1FFE79DF8090028B997
:103B9000FFE70399FE2081F8C400FFE79DF80B00C2
:103BA000039908719DF80A00039948719DF809006E
:103BB00003998871039900200862039901F11800A4
:103BC00001F12003012201921146FCF70BFC03983E
:103BD00000889DF809104843FDF74CF80399C86028
:103BE0000399C86809889DF809205143FDF723F916
:103BF000039800889DF80B104843FDF73BF80399A4
:103C0000C1F8C8000399D1F8C80009889DF80B20B5
:103C10005143FDF710F9019A039B03F12C00197928
:103C2000D3F8C830FCF7DEFB039800889DF80B1032
:103C30004843FDF71FF80399C1F8CC000399D1F868
:103C4000CC0009889DF80B205143FDF7F4F8019A48
:103C5000039B03F134001979D3F8CC30FCF7C2FB95
:103C6000039800889DF809104843FDF703F803996D
:103C7000C1F8D4000399D1F8D40009889DF809202F
:103C80005143FDF7D8F8019A039B03F14400997959
:103C9000D3F8D430FCF7A6FB03984079002850D025
:103CA000FFE7039800889DF80A104843FCF7E2FFFD
:103CB000039908610399086909889DF80A2051430E
:103CC000FDF7B9F8039800889DF80A104843FCF7FF
:103CD000D1FF0399C1F8D0000399D1F8D000098829
:103CE0009DF80A205143FDF7A6F8039A02F13C0023
:103CF0005179D2F8D0300122FCF774FB0398008888
:103D00009DF80B1048439DF80A104843FCF7B2FF9A
:103D10000399C1F8D8000399D1F8D80009889DF813
:103D20000B2051439DF80A205143FDF784F8039B73
:103D300003F14C0019795A79D3F8D830FCF752FBCB
:103D4000FFE7039800889DF80B1048434843FCF7B1
:103D500091FF0399C1F8DC000399D1F8DC000988D0
:103D60009DF80B2051435143FDF765F8039901F18C
:103D700054000A79D1F8DC301146FCF733FB039884
:103D800000889DF80B1048434843FCF773FF0399E4
:103D9000C1F8E0000399D1F8E00009889DF80B20F4
:103DA00051435143FDF747F8039901F15C000A794B
:103DB000D1F8E0301146FCF715FB039800889DF818
:103DC000091048439DF80B104843FCF753FF039933
:103DD000C1F8E4000399D1F8E40009889DF80920AE
:103DE00051439DF80B205143FDF725F8039B03F148
:103DF00064001A799979D3F8E430FCF7F3FA039860
:103E000000889DF80B1048439DF809104843FCF7C3
:103E100031FF0399C1F8E8000399D1F8E800098857
:103E20009DF80B2051439DF809205143FDF703F8FD
:103E3000039B03F16C0019799A79D3F8E830FCF709
:103E4000D1FA039800889DF80B1048434843FCF7CB
:103E500011FF0399C1F8EC000399D1F8EC0009882F
:103E60009DF80B2051435143FCF7E5FF039901F105
:103E700074000A79D1F8EC301146FCF7B3FA0398D4
:103E800000889DF80B1048434843FCF7F3FE039964
:103E9000C1F8F0000399D1F8F00009889DF80B20D3
:103EA00051435143FCF7C7FF039901F17C000A79A4
:103EB000D1F8F0301146FCF795FA039800889DF888
:103EC0000B1048434843FCF7D5FE0399C1F8F400B2
:103ED0000399D1F8F40009889DF80B205143514310
:103EE000FCF7A9FF039901F184000A79D1F8F430B5
:103EF0001146FCF777FA039800889DF809104843AB
:103F00004843FCF7B7FE0399C1F8F8000399D1F8CC
:103F1000F80009889DF8092051435143FCF78BFFB5
:103F2000039901F18C008A79D1F8F8301146FCF739
:103F300059FA039800889DF80B1048439DF8091022
:103F40004843FCF797FE0399C1F8FC000399D1F8A8
:103F5000FC0009889DF80B2051439DF8092051432E
:103F6000FCF769FF039B03F1940019799A79D3F860
:103F7000FC30FCF737FA039908880979484348432D
:103F8000FCF778FE0399C1F80001039AD2F800010A
:103F90001188127951435143FCF74DFF039901F108
:103FA0009C000A79D1F800311146FCF71BFA0399FD
:103FB0000888097948434843FCF75CFE0399C1F837
:103FC0000401039AD2F80401118812795143514334
:103FD000FCF731FF039901F1A4000A79D1F804310B
:103FE0001146FCF7FFF903990888097948434843CB
:103FF000FCF740FE0399C1F80801039AD2F80801C2
:104000001188127951435143FCF715FF039901F1CF
:10401000AC000A79D1F808311146FCF7E3F90399AD
:10402000088809794843FCF725FE0399C1F80C017B
:10403000039AD2F80C01118812795143FCF7FBFE68
:10404000039A02F1B4001179D2F80C3101220092E6
:10405000FCF7C8F90399088809794843FCF70AFE78
:104060000399C1F81001039AD2F81001118812794E
:104070005143FCF7E0FE009A039B03F1BC00197961
:10408000D3F81031FCF7AEF9039800889DF80B10B7
:104090004843FCF7EFFD0399C1F834010399D1F8C7
:1040A000340109889DF80B205143FCF7C4FE04B08D
:1040B00080BD000080B582B00190019800F064F8E6
:1040C0000198D0F8180128B1FFE70198D0F818112D
:1040D0008847FFE7019800F0D9F90198D0F81C0152
:1040E00028B1FFE70198D0F81C118847FFE7019835
:1040F00000F032F90198D0F8200128B1FFE70198CB
:10410000D0F820118847FFE7019800F061F8019886
:10411000D0F8240128B1FFE70198D0F8241188478E
:10412000FFE7019800F05AF90198D0F8280128B16A
:10413000FFE70198D0F828118847FFE7019800F0C1
:10414000C7F80198D0F82C0128B1FFE70198D0F802
:104150002C118847FFE70198D0F8300128B1FFE71C
:104160000198D0F830118847FFE7019BD3F834015C
:10417000D3F8C8101A881B795A43FCF722FE01981D
:10418000D0F8340102B080BD80B582B00190019BAF
:10419000D3F8D400D9681A889B795A43FCF711FEEA
:1041A000019AD068118892795143FCF744FE019836
:1041B000407901280ADBFFE7019BD3F8D000196999
:1041C0001A885B795A43FCF7FCFDFFE702B080BD1B
:1041D00080B582B00190019890F814018008C00762
:1041E00008B1FFE771E0019901F164006C31FCF75F
:1041F000B7FC019981F8C4000199B1F86400A1F8F5
:10420000A4000199B1F87E00A1F8A600019A02F17C
:10421000640002F17C01A432FCF780FB019981F873
:10422000C4000199B1F8A400A1F8AC000199B1F85B
:104230006E00A1F8AE00019A02F1A40002F16C0137
:10424000AC32FCF76BFB019981F8C4000199B1F81D
:104250008C00A1F89C000199B1F88E00A1F89E0095
:10426000019A02F1AC0002F18C019C32FCF736F8A5
:10427000019981F8C400019901F19C00AC31FCF76F
:10428000B5F8019981F8C4000199B1F87C00A1F852
:10429000A4000199B1F86E00A1F8A600019A02F1FC
:1042A0007C0002F16C01A432FCF738FB019981F823
:1042B000C400019A02F1A40002F1AC019432FCF7AF
:1042C0002DFB019981F8C400FFE702B080BD00001A
:1042D00080B582B00190019890F814010009C007E0
:1042E00008B1FFE735E00199B1F89400A1F8A40006
:1042F0000199B1F86600A1F8A600019A02F19400B4
:1043000002F16401A432FCF709FB019981F8C400B1
:104310000199B1F8A400A1F8AC000199B1F87E00B0
:10432000A1F8AE00019A02F1A40002F17C01AC32C6
:10433000FCF7F4FA019981F8C400019A02F17C00BB
:1043400002F1AC017432FCF787FB019981F8C400DB
:10435000FFE702B080BD000080B582B001900198F7
:1043600090F814014008C00708B1FFE734E0019954
:1043700001F154005C31FCF7F3FB019981F8C400B2
:10438000019A02F1540002F174017C32FCF7C6FA82
:10439000019981F8C4000199B1F87C00A1F8A4004A
:1043A0000199B1F85E00A1F8A600019A02F17C0023
:1043B00002F15C01A432FCF7B1FA019981F8C40062
:1043C000019A02F1A40002F184017C32FBF786FF1E
:1043D000019981F8C400FFE702B080BD80B582B0CA
:1043E0000190019890F81401C008C00708B1FFE7D8
:1043F0004AE00199B1F86400A1F8B40001990120E4
:104400000090A1F8B600019A02F1640002F13401B3
:10441000B432FCF783FA01460098019A82F8C4107E
:10442000019AB2F84410A2F8BC100199A1F8BE009C
:10443000019A02F1440002F1B401BC32FCF70CFB1A
:1044400001460098019A82F8C410019AB2F89410BB
:10445000A2F8B4100199A1F8B600019901F19400F5
:1044600001F1B402BC31FCF759FA019981F8C4009A
:10447000019901F12C0201F13400B431FBF72EFF58
:10448000019981F8C400FFE702B080BD80B582B019
:104490000190019890F81401C00708B1FFE744E0CB
:1044A00001984079012834DBFFE701990879A1F8E8
:1044B000B400019901200090A1F8B600019A02F120
:1044C0002C0102F15400B432FCF728FA014600989E
:1044D000019A82F8C410019A1179A2F8B4100199D6
:1044E000A1F8B600019A02F14C0002F13C01BC3285
:1044F000FCF714FA019981F8C400019A02F1B400A2
:1045000002F1BC013432FBF7E9FE019981F8C400E5
:104510000BE0019A02F12C0102F154003432FCF755
:10452000FDF9019981F8C400FFE702B080BD0000E9
:10453000B0B590B048F21C30C0F600000168426887
:104540008368D0F80CC0D0F810E044690E94CDF820
:1045500034E0CDF830C00B930A92099180690F9036
:1045600009A80021019102F09DF8019940F2602212
:10457000C2F20002106048F23830C0F60000026853
:104580004368D0F808C0D0F80CE004694569079585
:104590000694CDF814E0CDF810C003930292806920
:1045A000089002A802F07EF840F2B421C2F20001A5
:1045B000086010B0B0BD000080B590B000200F9032
:1045C0000E900D900C900B90FFE700200A9043F6A0
:1045D0003000C4F20200016841F00201016000688D
:1045E00000F002000A900A98FFE7FFE70020099018
:1045F00043F63000C4F20200016841F0010101609D
:10460000006800F0010009900998FFE7FFE700202B
:10461000089043F63000C4F20200016841F08001C6
:104620000160006800F0800008900898FFE7FFE74D
:104630000020079043F63000C4F20200016841F008
:1046400020010160006800F0200007900798FFE754
:10465000FFE70020069043F63000C4F20200016834
:1046600041F004010160006800F004000690069823
:10467000FFE70020C4F20200019010210091012206
:104680000292FDF7A9FB029A40F20040C4F2020038
:1046900004901146FDF7A0FB009A019802990B9235
:1046A0000C910D91022103910E910BA90591FDF73B
:1046B000B7F9059930200B904FF404100C900020AE
:1046C0000D9040F60000C4F20200FDF7A9F9029B2C
:1046D000039A049805990B930C930D930E92FDF792
:1046E0009FF910B080BD000080B582B040F2A440B8
:1046F000C2F20000019043F20001C4F20101016026
:104700004FF48271416000218160C160016101222A
:1047100042614FF4007282611022C2610162416203
:1047200081620A21C162FEF7D1F918B1FFE7FDF7F6
:1047300029F9FFE702B080BD80B588B00021009163
:10474000079106910591049103910291019140F224
:10475000FC40C2F2000044F20042C4F201020260D6
:1047600053224260816044F61F62C2600161816130
:10477000FEF75AFC18B1FFE7FDF704F9FFE740F236
:10478000FC40C2F20000FEF757FF18B1FFE7FDF74B
:10479000F9F8FFE76020019000220292039205924F
:1047A00040F2FC40C2F2000001A9FEF7A3FE18B1DE
:1047B000FFE7FDF7E7F8FFE740F2FC40C2F2000038
:1047C000FEF75EFE08B080BDFFE7FEE780B5FDF7AF
:1047D00009FEFFE7FEE7000088B00790069105920A
:1047E000079800F0070004900498C0F1070005281E
:1047F00003D3FFE70420019004E00498C0F1070010
:104800000190FFE70198039004980430062803D82C
:10481000FFE70020009003E0049803380090FFE7D2
:104820000098029006980399012202FA01F10139D9
:104830000840029B984005999A40013A114008436C
:1048400008B0704781B0009000990020C8600099BE
:10485000086100994861009988610099886300990E
:10486000C863009908640099486401B0704700006B
:1048700080B582B001900198406C01F0DDFC012808
:1048800007D0FFE70198406C01F0C8FC012808D16F
:10489000FFE7019991F8340040F0020081F83400FC
:1048A00007E0019991F8340000F0FD0081F8340030
:1048B000FFE702B080BD000080B584B003908DF8A2
:1048C0000B1001929DF80B0003990870039944F6B0
:1048D0004500C0F60000C864039944F60D10C0F608
:1048E000000088640398C16C88470398826C019922
:1048F00090470246039991F8340002F0010200F05B
:10490000FE00104481F8340004B080BD83B00190F3
:1049100000910198007818B1FFE7009820B9FFE7EF
:1049200001208DF80B001DE0009800680199C86116
:10493000009840680199086200988068019948626F
:104940000098C06801998862009800690199C8625E
:10495000009840690199086301990020C8868DF884
:104960000B00FFE79DF80B0003B07047000000004C
:10497000EFF30980BFF36F8F154B1A681EF0100F0D
:1049800008BF20ED108A20E9F04F10602DE90900E2
:104990004FF0500080F31188BFF34F8FBFF36F8F3C
:1049A00002F07AFE4FF0000080F31188BDE80900A4
:1049B00019680868B0E8F04F1EF0100F08BFB0EC9F
:1049C000108A80F30988BFF36F8F704700BF00BF64
:1049D0008C05002080B582B00190019AD2F80C01BC
:1049E000118812795143FCF726FA0198D0F8CC00CF
:1049F00090ED002A90ED013A90ED021A90ED030A35
:104A000023EE033A22EE022A32EE032A21EE011AA5
:104A100031EE021A20EE000A30EE010AFCF7BAFF6E
:104A20000198D0F80C0180ED000A0199D1F8CC0072
:104A3000D1F80C1191ED001A90ED000A20EE010A58
:104A400080ED000A0199D1F8CC00D1F80C1191ED5C
:104A5000001A90ED010A20EE010A80ED010A019989
:104A6000D1F8CC00D1F80C1191ED001A90ED020AAA
:104A700020EE010A80ED020A0199D1F8CC00D1F8AC
:104A80000C1191ED001A90ED030A20EE010A80ED61
:104A9000030A0198D0F8CC1091ED010AB6EE002A75
:104AA00020EE020A90ED021A20EE010AD0F8DC0096
:104AB00080ED040A0198D0F8CC1091ED020A20EEA6
:104AC000020A90ED021A20EE010AD0F8DC0080ED17
:104AD000050A0198D0F8CC1091ED000ABEEE001A3C
:104AE00020EE010A90ED023A20EE030AD0F8DC0035
:104AF00080ED0A0A0198D0F8CC1091ED030A20EE5F
:104B0000020A90ED023A20EE030AD0F8DC0080EDB4
:104B10000B0A0198D0F8CC1091ED030A20EE010A9F
:104B200090ED023A20EE030AD0F8DC0080ED100A86
:104B30000198D0F8CC1091ED000A20EE010A90ED1A
:104B4000023A20EE030AD0F8DC0080ED110A019849
:104B5000D0F8CC1091ED020A20EE020A90ED022A64
:104B600020EE020AD0F8DC0080ED160A0198D0F899
:104B7000CC1091ED010A20EE010A90ED021A20EE10
:104B8000010AD0F8DC0080ED170AFFE70198D0F8A1
:104B9000EC0090ED1C0A9FED2F1AB4EE410AF1EEE5
:104BA00010FA09DDFFE70198D0F8EC1044F200009C
:104BB000C4F21C60086717E00198D0F8EC0090ED93
:104BC0001C0A9FED251AB4EE410AF1EE10FA09DA3B
:104BD000FFE70198D0F8EC1044F20000CCF21C6022
:104BE000086700E0FFE7FFE7FFE7FFE70198D0F87D
:104BF000EC0090ED230A9FED171AB4EE410AF1EE96
:104C000010FA0ADDFFE70198D0F8EC1044F200003A
:104C1000C4F21C60C1F88C0018E00198D0F8EC00D8
:104C200090ED230A9FED0C1AB4EE410AF1EE10FA52
:104C30000ADAFFE70198D0F8EC1044F20000CCF259
:104C40001C60C1F88C0000E0FFE7FFE7FFE702B05F
:104C500080BD00BF00401C4600401CC680B584B02B
:104C600002900299B1F8AC00A1F8A40002990120C9
:104C70000190A1F8A600029901F1A40201F1AC0093
:104C8000BC31FBF74BFE01460198029A82F8C41032
:104C90000299A1F8B4000299B1F8AC00A1F8B600ED
:104CA000029901F1AC00B431FBF75AFF029981F887
:104CB000C400029A02F1B40002F1A4011832FBF719
:104CC0002DFE029981F8C400029890ED080A90ED3B
:104CD000091AB6EE002A21EE021AB4EE410AF1EEEC
:104CE00010FA05DAFFE70299012081F82900FFE7B1
:104CF000029890ED080A90ED091AB4EE410AF1EE1F
:104D000010FA4BDDFFE7029890F82900C007002851
:104D100044D0FFE70298007DC00738B1FFE7029951
:104D200091F82800013081F8280004E00299002061
:104D300081F82800FFE7029890F8280033280CDB60
:104D4000FFE70299002081F82900029991F81401E7
:104D500000F0EF0081F814011FE0029BD3F8C800B7
:104D6000D3F8CC101A881B795A43FCF72AF8029B17
:104D7000D3F8EC00D3F8F0101A881B795A435A4341
:104D8000FCF71FF8029991F8140140F0100081F827
:104D9000140101208DF80F003EE039E0029890EDFB
:104DA000080A90ED091A9FED1E2A21EE021AB4EEB0
:104DB000410AF1EE10FA18DDFFE7029890F8290099
:104DC000C00790B1FFE7029890ED080A90ED091A2C
:104DD00031EE400A9FED132A21EE021A80EE010AFD
:104DE000D0F80C0180ED000A06E00298D0F80C1112
:104DF0004FF07E500860FFE70299002081F82800FC
:104E0000029991F8140100F0EF0081F81401FFE716
:104E100000208DF80F00FFE79DF80F0004B080BD63
:104E2000CDCCCC3D6666663F80B582B00190019BDB
:104E3000D3F8E40019881A799B7959435143FBF759
:104E4000FAFF0198D0F8CC10D0F8E40091ED020AF6
:104E5000B8EE001A20EE010A80ED000A0198D0F8A1
:104E6000CC10D0F8E40091ED030A30EE000A80ED9A
:104E7000010A0198D0F8CC10D0F8E40091ED000AB6
:104E800020EE010A80ED020A0198D0F8CC10D0F88B
:104E9000E40091ED010A30EE000A80ED030A01986A
:104EA000D0F8CC10D0F8E40091ED010A30EE000A01
:104EB00080ED060A0198D0F8CC10D0F8E40091ED0E
:104EC000000A30EE000A80ED070A0198D0F8CC10F5
:104ED000D0F8E40091ED030A30EE000A80ED080AF4
:104EE0000198D0F8CC10D0F8E40091ED020A30EE31
:104EF000000A80ED090A0198D0F8CC10D0F8E4003F
:104F000091ED000A30EE000A80ED0C0A0198D0F80D
:104F1000CC10D0F8E40091ED010A20EE010A80EDFA
:104F20000D0A0198D0F8CC10D0F8E40091ED020AF7
:104F300020EE010A80ED0E0A0198D0F8CC10D0F8CE
:104F4000E40091ED030A30EE000A80ED0F0A02B092
:104F500080BD000080B588B007908DED060ACDEDCC
:104F6000050A8DED041A03910292069807990862CA
:104F700005980799486204980799886203980799E9
:104F8000C862029807990863079834300621002206
:104F900001920323FEF7E6FD0198079981F8480086
:104FA000079981F85D00079A4CF67741C3F22B21EF
:104FB0009165079981F85C000799D1F8FC204FF0C2
:104FC0007E5111600799D1F8FC1048600799D1F81B
:104FD000FC1088600799D1F8FC10C860079944F666
:104FE000D510C0F60000C1F85001079944F62960B9
:104FF000C0F60000C1F85401079945F28140C0F69F
:105000000000C1F85801079991F8480140F00400E8
:1050100081F84801079991F8480140F0080081F8AB
:105020004801079BD3F81001D96A9A8E93F838305B
:105030005A435A43FBF7C5FE079BD3F82001196B6F
:105040009A8E93F838305A435A43FBF7BAFE08B0A9
:1050500080BD000080B586B00590049103928DED6F
:10506000020A02980599C863049890ED000A059811
:1050700090ED051A30EE410A80ED5E0A049890ED3D
:10508000010A059890ED061A30EE410A80ED5F0A9C
:10509000049890ED020A059890ED071A30EE410A47
:1050A00080ED600A059890ED5E1A90ED5F2A90ED14
:1050B000600A22EE022A21EE011A31EE021A20EED7
:1050C000000A30EE010AFCF765FC059880ED620AE3
:1050D000059890ED0F1A90ED5E0AB6EE002A20EECC
:1050E000020A20EE010A80ED630A059890ED0F1A7E
:1050F00090ED5F0A20EE020A20EE010A80ED640ABC
:10510000059890ED0F1A90ED600A20EE020A20EE4D
:10511000010A80ED650A059BD3F81001D96A9A8EC1
:1051200093F838305A435A43FBF74BFE059890EDFD
:10513000630AB1EE400AD0F8100180ED010A05982B
:1051400090ED640AB1EE400AD0F8100180ED020A39
:10515000059890ED650AB1EE400AD0F8100180ED97
:10516000030A0598D0F81011D0F88C0188610598D1
:10517000D0F81011D0F894010862059890ED640AF7
:10518000B1EE400AD0F8100180ED090A0598D0F878
:105190001011D0F890010863059890ED650AB1EE02
:1051A000400AD0F8100180ED0D0A0598D0F81011D2
:1051B000D0F88C01C8630598D0F81011D0F894018C
:1051C00088640598D0F81011D0F89001C86405984B
:1051D00090ED630AB1EE400AD0F8100180ED140A98
:1051E0000599039B18685A689B68C1F87431C1F827
:1051F0007021C1F86C01059890ED5B1A90ED5C2A66
:1052000090ED5D0A22EE022A21EE011A31EE021A19
:1052100020EE000A30EE010AFCF7BCFB059880ED99
:10522000610A059890ED5B0A90ED611A20EE010A83
:10523000006C80ED000A059890ED5C0A90ED611A13
:1052400020EE010A006C80ED010A059890ED5D0AE0
:1052500090ED611A20EE010A006C80ED020A0598BB
:1052600090ED621AB7EE000A80EE010A9FED811AF6
:10527000B4EE410AF1EE10FA23DAFFE7059890ED5B
:10528000611AB7EE000A80EE010A9FED7B1AB4EEB8
:10529000410AF1EE10FA14DDFFE7059890ED611A6E
:1052A000B7EE000A80EE010A9FED741AB4EE410ACF
:1052B000F1EE10FA05DAFFE70599012081F84800C0
:1052C00004E00599002081F84800FFE7059890ED7B
:1052D000080A90ED0F1A20EE010AD0F8280180ED9F
:1052E000000A059890ED080A90ED0F1A20EE010AC9
:1052F000D0F8280180ED070A059890ED080A90ED96
:105300000F1A20EE010AD0F8280180ED0E0A059848
:1053100090ED080A90ED0F1A20EE010AD0F828014E
:1053200080ED150A059890ED090A90ED0F1A20EE10
:10533000010AD0F8280180ED1C0A059890ED090AB1
:1053400090ED0F1A20EE010AD0F8280180ED230A13
:105350000599886AD1F82C1108600599886AD1F8F6
:105360002C1108610599886AD1F82C1108620598FA
:105370003430FEF79FFE0599D1F868010068486057
:105380000599D1F86801406888600599D1F86801ED
:105390008068C8600599D1F86801C06808610599FE
:1053A000D1F86801006948610599D1F86801406940
:1053B000886105990020C861059890ED011A90ED6B
:1053C000022A90ED033A90ED040A22EE033A21EE10
:1053D000000A30EE030A30EE000A22EE022A21EE25
:1053E000011A31EE021A31EE011ABFEE002A8DEDDC
:1053F000012A71EE020A02F0FBFD059880ED660AB3
:10540000059890ED010A90ED021A90ED033A90EDA7
:10541000042A20EE030A21EE021A30EE410A30EE91
:10542000000A02F04FFD9DED012A059880ED670A04
:10543000059890ED011A90ED020A90ED034A90ED67
:10544000043A24EE034A21EE000A30EE040A30EE5C
:10545000000A23EE033A21EE011A31EE031A31EE6F
:10546000011A71EE020A02F0C3FD059880ED680A88
:1054700006B080BD9A99993E23DB144123DB244179
:1054800080B586B00590059901F164006C31FBF799
:1054900067FB059981F8C4000599B1F86400A1F88B
:1054A000A4000599B1F87E00A1F8A600059A02F1C2
:1054B000640002F17C01A432FBF730FA059981F80F
:1054C000C4000599B1F8A400A1F8AC000599B1F8A1
:1054D0006E00A1F8AE00059A02F1A40002F16C0181
:1054E000AC32FBF71BFA059981F8C4000599B1F8B5
:1054F0008C00A1F89C000599B1F88E00A1F89E00DF
:10550000059A02F1AC0002F18C019C32FAF7E6FE3A
:10551000059981F8C400059901F19C00AC31FAF7B6
:1055200065FF059981F8C4000599B1F86400A1F8F8
:10553000B40005990120A1F8B6000598D0F8CC1068
:10554000D0F80C0191ED001A91ED010A91ED023AAB
:1055500091ED032A21EE031A20EE020A30EE410AF1
:1055600030EE000A80ED000A0598D0F8CC10D0F893
:105570000C0191ED000A91ED012A91ED021A91EDD5
:10558000033A21EE031A20EE020A30EE010A30EE51
:10559000000A80ED010A0598D0F8CC10D0F80C0173
:1055A00091ED001A91ED013A91ED022A91ED030A75
:1055B00023EE033A21EE011A31EE431A22EE022ABB
:1055C00031EE421A20EE000A30EE010A80ED020AA6
:1055D00000208DF80700FFE79DF8070002281BDC7C
:1055E000FFE70598D0F80C019DF8071000EB81004B
:1055F00090ED000AB0EEC00A02F0D8FB9DF807104B
:1056000002A800EB810080ED000AFFE79DF807008B
:1056100001308DF80700DFE70599B1F84400A1F8E3
:10562000BC0005990120A1F8BE00059A02F14400D2
:1056300002F1B401BC32FBF70FFA059981F8C400FE
:105640000598FFF70BFB08B1FFE72AE10599B1F8D0
:105650007C00A1F8A4000599B1F86E00A1F8A6009D
:10566000059A02F17C0002F16C01A432FBF756F9B5
:10567000059981F8C400059A02F1A40002F1AC0179
:105680009432FBF74BF9059981F8C40000208DF89E
:105690000600FFE79DF80600059AB2F89610B2F8EA
:1056A00094205143884218DAFFE70599D1F8FC00AD
:1056B000D1F80C1191ED001A9DF8061000EB810055
:1056C00090ED000A20EE010A80ED000AFFE79DF848
:1056D000060001308DF80600DCE704208DF8050097
:1056E000FFE79DF80500052832DCFFE700208DF874
:1056F0000400FFE79DF80400022822DCFFE79DF884
:10570000051002A800EB810010ED040A9FED681A55
:1057100080EE011A0598D0F8FC0001EB41019DF8DC
:105720000420114400EB810090ED000A20EE010AF4
:1057300080ED000AFFE79DF8040001308DF80400B9
:10574000D8E7FFE79DF8050001308DF80500C8E7B0
:105750000599B1F89400A1F8B40005990120A1F8C9
:10576000B600059901F1940001F1B402BC31FBF7D8
:10577000D5F8059981F8C400059890F82900C0076C
:1057800000287DD0FFE7FFE70598D0F80C1191EDD8
:10579000040A90ED021A9FED442A21EE021AB4EE9B
:1057A000410AF1EE10FA0CDDFFE7059890ED020AD0
:1057B0009FED3D1A20EE010AD0F80C0180ED040A9D
:1057C0001EE00598D0F80C1191ED040A90ED021A34
:1057D0009FED362A21EE021AB4EE410AF1EE10FADC
:1057E0000CDAFFE7059890ED020A9FED301A20EEE3
:1057F000010AD0F80C0180ED040A00E0FFE7FFE7A2
:10580000FFE7FFE70598D0F80C1191ED050A90ED40
:10581000021A9FED252A21EE021AB4EE410AF1EE9A
:1058200010FA0CDDFFE7059890ED020A9FED1E1AB5
:1058300020EE010AD0F80C0180ED050A1EE0059863
:10584000D0F80C1191ED050A90ED021A9FED172A80
:1058500021EE021AB4EE410AF1EE10FA0CDAFFE77B
:10586000059890ED020A9FED111A20EE010AD0F87A
:105870000C0180ED050A00E0FFE7FFE7FFE7FFE727
:105880000598D0F80C110020C860059901F12C0290
:1058900001F13400B431FAF721FD059981F8C40013
:1058A000FFE706B080BD00BF0AD7233C0AD723BC60
:1058B000DA0FC93F80B586B004900391029240F29E
:1058C0007410C2F2000000684AF6AB21CAF6AA21A1
:1058D000A0FB011000094FF2A171C1F2C601A0FBAB
:1058E0000110000C4FF47A7148430190049840680D
:1058F000B0F5827F15D1FFE70498039B02996A46B1
:1059000011608021002200F027F848B1FFE70499D8
:10591000486D40F02000486503208DF8170017E01F
:1059200012E0FFE7019808B9FFE70CE001980138A1
:105930000190FFE7049800688068C1B20020B0EBD6
:10594000D11FEFD1FFE7FFE700208DF81700FFE739
:105950009DF8170006B080BD80B58AB0DDF830C074
:10596000089007918DF81B20059305980190FCF78E
:105970004BFA024601980C99891A08440390FCF7E7
:1059800043FA0290039840F27411C2F200010968D0
:10599000C1F3CB3148430490FFE708980068806862
:1059A00007990840401AB0FA80F040099DF81B1092
:1059B00088425ED0FFE705980130002858D0FFE705
:1059C000FCF722FA0299401A0399884204D2FFE7B1
:1059D0000398002842D1FFE708980168486820F042
:1059E000E000486008984068B0F5827F13D1FFE777
:1059F00008988068B0F5004F06D0FFE708988068E7
:105A0000B0F5806F07D1FFE708980168086820F0BB
:105A100040000860FFE70898806AB0F5005F0FD18A
:105A2000FFE7FFE708980168086820F40050086065
:105A300008980168086840F400500860FFE7FFE735
:105A40000899012081F85100FFE70899002081F8AA
:105A50005000FFE703208DF827000EE0049818B9E6
:105A6000FFE700200390FFE7049801380490FFE768
:105A700093E700208DF82700FFE79DF827000AB084
:105A800080BD0000000000000000000000000000D9
:105A9000074B19680868B0E8F04F80F30988BFF336
:105AA0006F8F4FF0000080F31188704700BF00BF78
:105AB0008C05002083B0029001918DED000A0198C1
:105AC000006802990860019840680299486001984E
:105AD00080680299886000980299C86000980299CD
