:020000040800F2
:10000000089300209D020008AD350008892B0008E8
:10001000A9350008CD190008F545000800000000CA
:10002000000000000000000000000000E1410008A6
:10003000CF19000800000000413600084D420008BA
:10004000B7020008B7020008B7020008B7020008AC
:10005000B7020008B7020008B7020008B70200089C
:10006000B7020008B7020008B7020008B70200088C
:10007000B7020008B7020008B7020008B70200087C
:10008000B7020008B7020008B7020008B70200086C
:10009000B7020008B7020008B7020008B70200085C
:1000A000B7020008B7020008B7020008B70200084C
:1000B00041430008B7020008B7020008B702000871
:1000C000B7020008B7020008B7020008B70200082C
:1000D000B7020008B7020008B7020008B70200081C
:1000E000B7020008B7020008B7020008B70200080C
:1000F000B7020008B7020008B7020008B7020008FC
:10010000B7020008B7020008B7020008B7020008EB
:10011000B7020008B7020008B7020008B7020008DB
:10012000B7020008B7020008B7020008B7020008CB
:10013000B7020008B7020008B7020008B7020008BB
:10014000B7020008B7020008B7020008B7020008AB
:10015000B7020008B7020008B7020008B70200089B
:10016000B7020008B7020008B7020008B70200088B
:10017000B7020008B7020008B7020008000000003C
:10018000B7020008B702000800F002F800F076F8A5
:1001900014A696E8000CB244B344DA4501D100F04D
:1001A0006DF8BAE80F000FA696E83000A5EB04053D
:1001B00004EB0607AAEB0704A7F101074FEA1515A0
:1001C0004FEA3414A4F10104AC4201D300F056F814
:1001D00013F0010F18BFFB1A43F0010300F001F800
:1001E000DBE71847845A0000A45A00000A444FF085
:1001F000000C10F8013B13F0070408BF10F8014B86
:100200001D1108BF10F8015B641E05D010F8016BCA
:10021000641E01F8016BF9D113F0080F1EBF10F82E
:10022000014BAD1C0C1B09D16D1E58BF01F801CB51
:10023000FAD505E014F8016B01F8016B6D1EF9D5D4
:100240009142D6D37047000070470000002300247D
:1002500000250026103A28BF78C1FBD8520728BFD6
:1002600030C148BF0B6070471FB505F0CAFC9DE860
:10027000030000F06BFE1FBD10B510BD00F0C6FE00
:100280001146FFF7F1FF04F071FA00F0FEFE03B42F
:10029000FFF7F2FF03BC00F037FF0000094880477A
:1002A00009480047FEE7FEE7FEE7FEE7FEE7FEE758
:1002B000FEE7FEE7FEE7FEE704480549054A064B70
:1002C000704700002F4300088901000808530020F0
:1002D00008930020087300200873002070B405887C
:1002E0000E884468D1F804C05368B54208D14088EC
:1002F0004988884201BF11888D425188884203D0C5
:1003000070BC6FF00200704705FB00F1880827D031
:1003100094ED001ADCED000A94ED010ADCED011AFF
:1003200031EE201AD4ED020A70EE211A9CED020A79
:1003300083ED001AC3ED011A94ED031ADCED031AE4
:1003400030EE800A401E71EE210A83ED020A04F1AC
:100350001004C3ED030A03F110030CF1100CD7D104
:1003600011F0030030D0B0F1004F30D200282BDD67
:10037000211F1B1FACF1040210F0010F0AD091EDF8
:10038000010AD2ED010A091D121D30EE200A83ED8B
:10039000010A1B1D400817D091ED010AD2ED010A98
:1003A000401E30EE200A83ED010A91ED020AD2EDE3
:1003B000020A01F1080102F1080230EE200A83ED81
:1003C000020A03F10803E7D170BC00207047B4ECC7
:1003D000010A401EFCEC010A30EE200AA3EC010ADF
:1003E000F5D1F1E701804280436070472DE9F34F7A
:1003F00084B0049840680090486801900498B0F870
:1004000000E04588DFEDFE0A00200290B0EE600AB1
:10041000AE4506D108884988884204BF71468645A2
:1004200004D06FF0020006B0BDE8F08F01985FEADB
:10043000010C18BFB7EE001A3DD000BFBEEB0C0197
:1004400017D0B1F1004F80F01F82002911DD021F8B
:1004500011F0010F1CBFC2ED010A121D4B1006D096
:10046000C2ED010AC2ED020A08325B1EF8D100EBB0
:100470008100BCF10102A0EC011A19D0B2F1004FC9
:1004800080F00882002A13DD031F12F0010F1CBF49
:10049000C3ED010A1B1D511008D000BFC3ED010AB6
:1004A000C3ED020A491E03F10803F7D100EB8200F5
:1004B000BCF1010CC2D14FF000080395002D14BF10
:1004C000B0EE602A002000F0BF8100BF009908FB59
:1004D00005F001EB800B0199DBED002A01EB8000B8
:1004E0000346F0EE421AC64552D9AEEB0802ABEB1A
:1004F000850112F0010F17D001EB850191ED000A83
:10050000B5EEC00AF1EE10FA07DDB4EEE10AF1EE45
:1005100010FA09DDF0EE401A06E0B1EE400AF4EE02
:10052000C01AF1EE10FAF5D3521031D001EB850C60
:100530009CED000AB5EEC00AF1EE10FA05DDB4EE4E
:10054000E10AF1EE10FA09DD06E0B1EE400AF4EE40
:10055000C01AF1EE10FA01D2F0EE401A01EBC5011B
:1005600091ED000AB5EEC00AF1EE10FA05DDB4EE29
:10057000E10AF1EE10FA09DD06E0B1EE400AF4EE10
:10058000C01AF1EE10FA01D2F0EE401A521ECDD18F
:10059000F5EEC01AF1EE10FA00F07381F5EEC02A04
:1005A0000126F1EE10FA0099D4BFB1EE620AB0EE66
:1005B000620AB4EE610AF1EE10FA1CBFAEEB08025B
:1005C000B2F1010C47D005FB08F201EB820292ED7B
:1005D000001A00BFB0EE410A05FB06F4B5EEC00AF2
:1005E00000EB8404F1EE10FACCBFF0EE400AF1EE1D
:1005F000400AF4EE610AF1EE10FA28D1B5EB080CCE
:1006000011D0BCF1004F7DD2BCF1000F0BDD00BF5B
:1006100092ED000AD1ED000ABCF1010CE2EC010AF6
:10062000A1EC010AF4D129000ED0B1F1004F6AD239
:10063000002909DD94ED000AD0ED000A491EE4EC22
:10064000010AA0EC010AF5D1012002900BE0761C12
:10065000BCF1010CBED10298012804D0F5EEC02AED
:10066000F1EE10FA7ED09BED000AB5EB08009A4639
:100670005946064622D0B0F1004F74D200281DDD45
:10068000091F10F0010F06D0F0EE400A80EEA01A0C
:1006900081ED011A091D401010D000BFD1ED010AF3
:1006A000401E80EE801A81ED011A91ED021AC1EE12
:1006B000000AC1ED020A01F10801EFD1280026D09D
:1006C000B0F1004F7ED2002821DDAAF1040110F024
:1006D000010F06D0D1ED010A80EE801A81ED011ADA
:1006E000091D401013D000BFD1ED010A401E80EE5D
:1006F000801A81ED011AD1ED020A80EE801A81ED97
:10070000021A01E0CBE0D6E001F10801ECD1DDE90D
:1007100000124FF000095FEA0E0773D0C14504BF15
:1007200001EB860102EB850274D091ED000ADC46F4
:100730005046331E35D01C46B6F1004F7ED2002CF9
:100740002FDD0B1FABF1040C16F0010F0FD0F0EEF4
:10075000400ADCED011AB0EE601A00EEE11A83EDFA
:10076000011A01E08DE0B1E01B1D0CF1040C7410C6
:1007700015D000BFD3ED010A9CED011A40EE410AED
:10078000C3ED010AD3ED020A9CED021A0CF1080C2C
:1007900040EE410AC3ED020A0833641EEAD101EBC0
:1007A00086012B0036D0B3F1004F72D2002B31DD21
:1007B000A2F1040CAAF1040013F0010F0CD0DCED3F
:1007C000010A00E08BE090ED011A001D40EE410AA5
:1007D000CCED010A0CF1040C5C1019D0DCED010A1F
:1007E00090ED011A40EE410ACCED010ADCED020A5F
:1007F00090ED021A083040EE410ACCED020A03E007
:10080000000000000DE005E0641E0CF1080CE5D1CD
:1008100002EB830201EB88017F1E09F101097FF4DD
:100820007DAF009808F10108001D00900398401E5C
:1008300003907FF44BAE0299012900E058E004BF19
:1008400006B0BDE8F08F00BFB5EEC00AF1EE10FAB9
:100850007FF4E9AD04990EFB05F3002B4A684FF0D5
:1008600000010BD902EB810C9CED000AB5EEC00A29
:10087000F1EE10FA02D1491C8B42F3D88B427FF47F
:10088000D2AD6FF00400CEE5E0EC010A491EFBD1C9
:10089000EFE538E0E0EC010A521EFBD108E692EDEC
:1008A000000AD1ED000ABCF1010CE2EC010AA1EC56
:1008B000010AF4D1B7E694ED000AD0ED000A491E12
:1008C000E4EC010AA0EC010AF5D1BDE6D1ED000A85
:1008D000401E80EE801AA1EC011AF7D1EEE6D3EDAE
:1008E000000A401E80EE801AA3EC011AF7D10EE731
:1008F000BCEC011AD1ED000A5B1E40EE410AE1ECAE
:10090000010AF5D14DE7B0EC011AD2ED000A5B1EE9
:1009100040EE410AE2EC010AF5D17BE72DE9F04F08
:1009200082B0466853680193058847884B88002049
:1009300000900888874201BFB2F800C06545528820
:1009400093421EBF6FF0020002B0BDE8F08F9FED32
:10095000412A4FEA970EC7F3400B00BFDDE90002C2
:1009600002EB800A4A6898464FF00009B0EE420A4E
:10097000B4465FEA0E0025D092ED001ADCED001AB5
:1009800002EB8302DCED010A01EE810A92ED001A0E
:1009900002EB8302401ED2ED001A02EB830200EE4E
:1009A000810A9CED021ADCED030A00040CF1100C24
:1009B000000C01EE210A92ED001A02EB830200EE18
:1009C000810AD9D117F0030026D0ACF10404A2EBC0
:1009D000830210F0010F08D002EB8302D4ED010A6C
:1009E00092ED001A241D00EE810A5FEA0B0013D07D
:1009F00002EB830CD4ED010A9CED001A02EBC3025A
:100A0000401E00EE810AD4ED020A92ED001A04F1B4
:100A1000080400EE810AEBD109F10100AAEC010AF9
:100A20001FFA80F9486800EB8902A8F101001FFA5B
:100A300080F8B8F1000F99D1009806EB87061844AA
:100A400080B20090681E05042D0C87D102B00020F2
:100A5000BDE8F08F0000000070B405880E8844687F
:100A6000D1F804C05368B54208D14088498888420B
:100A700001BF11888D425188884203D070BC6FF04D
:100A80000200704705FB00F1880827D094ED001A9A
:100A9000DCED000A94ED010ADCED011A31EE601A7A
:100AA000D4ED020A70EE611A9CED020A83ED001A81
:100AB000C3ED011A94ED031ADCED031A30EEC00AFF
:100AC000401E71EE610A83ED020A04F11004C3EDC9
:100AD000030A03F110030CF1100CD7D111F003003D
:100AE00030D0B0F1004F30D200282BDD211F1B1F6A
:100AF000ACF1040210F0010F0AD091ED010AD2ED21
:100B0000010A091D121D30EE600A83ED010A1B1D4A
:100B1000400817D091ED010AD2ED010A401E30EED7
:100B2000600A83ED010A91ED020AD2ED020A01F199
:100B3000080102F1080230EE600A83ED020A03F1B7
:100B40000803E7D170BC00207047B4EC010A401ED6
:100B5000FCEC010A30EE600AA3EC010AF5D1F1E7E2
:100B60002DE9F04F02884768B0F802804888D1F834
:100B7000049082B04FF0000A1646824207BF0988EF
:100B800088456FF0020002B018BFBDE8F08F4FEA51
:100B9000980B02EB42000190C8F34000CDF8000032
:100BA00009EB8A01BBF1000F33D0019801EB820CF5
:100BB00001EB80043B46E64601EBC2054FEA0B0021
:100BC00093ED000A401E81ED000A93ED010A01EB4E
:100BD00002118CED000A93ED020A0CEB021C85ED6C
:100BE000000A93ED030A05EB021584ED000A04EBFD
:100BF000021403F11003E3D10EEB820000EB82003C
:100C000000EB8201ABF10100504307EB0B1701EB46
:100C1000001118F0030C21D03B1FA1EB82011CF046
:100C2000010F06D093ED010A01EB82011B1D81ED3E
:100C3000000A009880B100BF93ED010A01EB820425
:100C400001EBC20184ED000A93ED020A401E81ED22
:100C5000000A03F10803EFD107EB8C070AF101004A
:100C60001FFA80FA701E0604360C99D102B00020DB
:100C7000BDE8F08F70B5A0FB0140B4F1805170F178
:100C8000000024BF002070BD204600F005F90500DB
:100C90001CBF214600F0B4F8284670BD53EA020C90
:100CA00000F069802DE9F04B4FF00006002B1FBFCC
:100CB000B3FA83F503FA05F424FA05F65E4012BF91
:100CC0001643B2FA82F502FA05F4C5F120051EBFFB
:100CD00022FA05FC44EA0C04203556EA044C4FEA9B
:100CE000144418BF641C4FF000084FF000099042F4
:100CF00071EB030C39D3002919BFB1FA81F701FA5E
:100D000007F6B0FA80F700FA07F6C7F120071EBF12
:100D100020FA07FC46EA0C062037B6FBF4FCA7EBEA
:100D20000507103F07F01F0BCBF120062CFA06F643
:100D30000CFA0BFB44BFB3460026202FA4BF5E462F
:100D40004FF0000B5BEA060C08BF4FF0010B19EBEC
:100D50000B0948EB0608ABFB027C06FB02CC0BFB45
:100D600003CCC01B71EB0C01C1E70B4602464146A8
:100D70004846BDE8F08B13B5084318BF4FF0FF306D
:100D80000146AFF30080BDE81C40704710B5203A23
:100D9000C0F00B80B1E81850A0E81850B1E8185026
:100DA000A0E81850203ABFF4F5AF5FEA027C24BFF8
:100DB000B1E81850A0E8185044BF18C918C0BDE8E1
:100DC00010405FEA827C24BF51F8043B40F8043BAA
:100DD00008BF7047D20728BF31F8023B48BF11F85F
:100DE000012B28BF20F8023B48BF00F8012B7047B9
:100DF00002F0FF0343EA032242EA024200F024B871
:100E00004FF000020429C0F0128010F0030C00F033
:100E10001B80CCF1040CBCF1020F18BF00F8012BB1
:100E2000A8BF20F8022BA1EB0C0100F00DB85FEA7F
:100E3000C17C24BF00F8012B00F8012B48BF00F84B
:100E4000012B70474FF0000200B5134694469646BA
:100E5000203922BFA0E80C50A0E80C50B1F12001CD
:100E6000BFF4F7AF090728BFA0E80C5048BF0CC07B
:100E70005DF804EB890028BF40F8042B08BF7047D9
:100E800048BF20F8022B11F0804F18BF00F8012B4B
:100E9000704770477047704770B5064600F036F8E7
:100EA000056806F10B0020F00704B4429CBF002047
:100EB00070BD2B466A68BAB11068A04210D304F125
:100EC000080188423CBF5068586007D35168101928
:100ED00041601168091B016058601460101D70BDED
:100EE00013465268002AE7D12146284600F01AF836
:100EF0000028DED170BD10B500F00CF8006810BD00
:100F000010B5044600F006F8046010BD00487047B4
:100F1000600100200048704758010020704770476A
:100F20007047704738B504460A4600206946AFF35B
:100F30000080002808BF38BD02460099204600F016
:100F40008AF8012038BD012000F0A8B8F8B5AFF349
:100F50000080054600200C460C2000BF0646A8195C
:100F6000A0420DD9324669460020AFF30080070049
:100F700008BF00F093F80098A04218BF0546C419B6
:100F8000FFF7C4FF05600746F01D20F00700461973
:100F9000284600F00AF8B44208BFF8BDA21B31464B
:100FA0003868BDE8F84000F056B8002101604160A3
:100FB00070470C20704770B50446051FFFF7A6FF69
:100FC0000068002C14BF446870BD002C18BFAC42F0
:100FD0003CBF20466468F8D301680A18AA4218BFCB
:100FE000456003D12A68054611440160286841190B
:100FF000A1421CBF6C6070BD6168696021680844D3
:10100000286070BD00487047580100207546FFF702
:10101000F9FFAE4605006946534620F007008546B5
:1010200018B020B5FFF748F9BDE820404FF00006A2
:101030004FF000074FF000084FF0000BAC46ACE853
:10104000C009ACE8C009ACE8C009ACE8C00921F0AF
:1010500007018D467047034640688C46002818BF3C
:1010600088423CBF03464068F8D318681844884259
:1010700007D00CF1030020F00700001D411A521A9E
:101080000146081D0A60FFF796BF10B50446AFF38E
:1010900000802046BDE81040FFF7F9B810B500F019
:1010A0000BF8BDE8104000F001B87047002801D0EF
:1010B00000F02AB87047000010B5012805D00021C3
:1010C00003A000F027F8012010BD09A1F8E70000F7
:1010D00053494752544D454D3A204F7574206F6621
:1010E0002068656170206D656D6F72790000000089
:1010F0003A2048656170206D656D6F727920636F6D
:10110000727275707465640001491820ABBEFEE709
:101110002600020070B505460C460A2000E06D1C52
:1011200000F011F835B128780028F8D102E0641CED
:1011300000F009F814B120780028F8D1BDE870401B
:101140000A20AFF3008008B569468DF8000003203F
:10115000ABBE08BD2DE9F04F81B02DED028B88B0FC
:101160000446007840F20009C4F202090026002873
:101170000396029640F09D809FEDBB8ACDE9046600
:101180000DF11E0A04AF09F5806641F2873B4FF06E
:1011900000084FF47A7500BF48461021002200F085
:1011A00016FD92208DF81F0000208DF81E0040F2E1
:1011B0007440C2F200000DF11F0152460123009558
:1011C00001F078F912203946062200F073FB4846F8
:1011D0001021012200F0FBFCBDF810000121208449
:1011E000BDF8120000226084BDF81400A0843046CF
:1011F00000F0EDFC00203946082200F05BFB304691
:101200000121012200F0E3FC9DF810000F2832D1EB
:10121000BDF81200E084BDF814002085BDF816006A
:101220006085B4F9260094ED0C1A00EE100AB8EEB1
:10123000C00A94ED0D2A94ED0E3AB4F9280020EE80
:10124000080A30EE010A01EE100AB8EEC11AB4F92C
:101250002A0021EE081A31EE021A02EE100AB8EE48
:10126000C22A22EE082A32EE032A84ED0C0A84ED0B
:101270000D1A84ED0E2A012000F0AAFBD84508F1D2
:10128000010889D394ED0C0A94ED0D1A9FED772A8D
:1012900094ED0E3A80EE020A81EE021A83EE022AE3
:1012A00001200026207084ED0C0A84ED0D1A84EDD7
:1012B0000E2A48461021002200F089FC40F27445B5
:1012C0009220C2F200058DF810004FF47A7804A93C
:1012D0000DF11F02284601238DF81F60CDF8008014
:1012E00001F0E8F802AF12203946062200F0E2FAD7
:1012F00048461021012200F06AFCBDF808009FED6D
:101300005C1A2084BDF80A0010216084BDF80C002E
:101310000022A084B4F9200000EE100AB4F92200E3
:10132000B8EEC00A02EE100AB4F92400B8EEC22AE0
:1013300003EE100AB8EEC33A20EE010A22EE012AAB
:1013400023EE011A484684ED010A84ED022A84ED59
:10135000031A00F03CFCA2208DF8100004A90DF146
:101360001F02284601238DF81F60CDF8008001F090
:10137000A1F822203946022200F09CFA48461021AA
:10138000012200F024FC9DF808009DF80910C0001F
:1013900040EA5110A085B4F92C00B0F5806F03DB52
:1013A000A08DA0F50060A085B4F92C00B4EE001A61
:1013B00000EE100AB8EEC00A20EE010AB3EE071ADA
:1013C00009F5806530EE010A28460121002284EDEE
:1013D000070A00F0FCFB02A90020082200F06AFACC
:1013E00028460121012200F0F2FB9DF808000F2899
:1013F00008D1BDF80A00E084BDF80C002085BDF8D6
:101400000E006085B4F926009FED171A00EE100A51
:10141000B8EEC00A94ED0C2A94ED0D3A94ED0E4A04
:10142000B4F9280020EE010A30EE420A02EE100A5A
:10143000B8EEC22AB4F92A0022EE012A32EE432A7B
:1014400003EE100AB8EEC33A23EE011A31EE441A45
:1014500084ED040A84ED052A84ED061A08B0BDEC7B
:10146000028B01B0BDE8F08F58A08B3A00409C453C
:101470003333EB3A2DE9F04F85B00020C4F202007F
:1014800000264FF0800800F5806BCDF808B000BF53
:101490000025C4F2020528461021002200F097FB27
:1014A00040F274478DF81260C2F200070DF1130488
:1014B0000DF112068DF8138038462146324601237D
:1014C0004FF47A784FF00009CDF8008000F0F2FF79
:1014D0004FF0550A38462146324601238DF813A0B5
:1014E0008DF81290CDF8008000F0E4FF38462146D8
:1014F000324601238DF813A08DF81290CDF80080AC
:1015000000F0D8FF28461021012200F060FB962051
:1015100000F06AFA28461021002200F058FB8020D3
:101520008DF8130038462146324601238DF812907B
:10153000CDF8008000F0BEFF384621463246012338
:101540008DF813A08DF81290CDF8008000F0B2FF56
:1015500038462146324601238DF813A08DF81290AB
:10156000CDF8008000F0A6FF28461021012200F0EF
:101570002EFB962000F038FA28461021002200F0B9
:1015800026FB7E20B62100F0FCF92846102101221E
:1015900000F01DFB502000F01BFA2846102100220D
:1015A00000F015FB80208DF81300384621463246A6
:1015B00001238DF81290CDF8008000F07BFF3846B3
:1015C0002146324601238DF813A08DF81290CDF8F4
:1015D000008000F06FFF38462146324601238DF827
:1015E00013A08DF81290CDF8008000F063FF28461C
:1015F0001021012200F0EBFA962000F0F5F92846C0
:101600001021002200F0E3FA80208DF81300384604
:101610002146324601238DF81290CDF8008000F06B
:1016200049FF38462146324601238DF813A08DF834
:101630001290CDF8008000F03DFF3846214632463A
:1016400001238DF813A08DF81290CDF8008000F0E2
:1016500031FF9DF8124028461021012200F0B7FA10
:10166000962000F0C1F91E2C6CD14FF0000800BF8D
:101670000027C4F2020738461021002200F0A7FA22
:1016800045F6304108EB4800C0F6000101EB0009C7
:101690000C5C99F801102046039100F072F938466D
:1016A0001021012200F093FA962000F09DF93846AF
:1016B0001021002200F08BFA40F2744B44F08000BD
:1016C000C2F2000B0DF113060DF1120A8DF8130092
:1016D000002558463146524601234FF47A748DF85E
:1016E0001250009400F0E6FE55208DF81300584685
:1016F0003146524601238DF81250009400F0DAFE74
:1017000055208DF8130058463146524601238DF876
:101710001250009400F0CEFE9DF812403846102181
:10172000012200F054FA962000F05EF903988442FA
:1017300012D108F10108B8F1060F99D14FF0000954
:101740000CE000BF45F6424A4FF0FF09C0F6000A20
:1017500000264FF080080AE099F80290DDF808B002
:1017600045F6424A4FF08008C0F6000A0026584667
:10177000012100228DF8136000F029FA0DF1130405
:101780000020214600F0D2F858460121012200F045
:101790001EFA962000F028F958460121002200F098
:1017A00016FA0020214600F0C1F858460121012216
:1017B00000F00DFA962000F017F95846012100229A
:1017C00000F005FA1420B62100F0DBF8584601219C
:1017D000012200F0FCF9502000F0FAF858460121EF
:1017E000002200F0F4F90020214600F09FF858464E
:1017F0000121012200F0EBF9962000F0F5F858469F
:101800000121002200F0E3F90020214600F08EF8CB
:1018100058460121012200F0DAF9962000F0E4F8A0
:101820009DF813000F2835D1002600BF584601212E
:10183000002200F0CCF906EB46000AEB00051AF88E
:1018400000406F782046394600F09BF85846012149
:10185000012200F0BCF9962000F0C6F8584601219C
:10186000002200F0B4F920460DF1130100F05EF8FB
:1018700058460121012200F0AAF9962000F0B4F8A0
:101880009DF81300B84207D10136062ECED10020B4
:1018900003E000BFFF2001E0A878002640EA090429
:1018A000022000F095F8002C7FF4F2AD05B0BDE801
:1018B000F08F00002DE9F04F83B040F080008DF8EC
:1018C000090040F2744014460D464FF000094FF4F1
:1018D0007A7AC2F200000DF1090102AA01238DF803
:1018E0000890CDF800A000F0E5FDE4B140F27448A6
:1018F0004FF0550BC2F200080DF10B070DF10A066F
:1019000040463946324601238DF80BB08DF80A90D7
:10191000CDF800A000F0CEFD9DF80A00013C2106A4
:1019200005F8010BECD103B0BDE8F08FF0B583B042
:1019300040F2744540F08000C2F200050C468DF87C
:10194000090000264FF47A770DF1090102AA284612
:1019500001238DF80860009700F0ACFD55208DF84C
:101960000B000DF10B010DF10A02284601238DF841
:101970000A60009700F09EFD9DF80A00207003B0F9
:10198000F0BDF0B583B040F27445C2F200050C46DC
:101990008DF8090000264FF47A770DF1090102AAAB
:1019A000284601238DF80860009700F083FD0DF1B3
:1019B0000B010DF10A02284601238DF80B408DF82A
:1019C0000A60009700F076FD03B0F0BDFEE77047B7
:1019D000B0B5044600F000F9054600BF00F0FCF881
:1019E000401BA042FAD3B0BD2DE9F04140F22408DB
:1019F0000446C4F2000800F0EFF8D8F8007005467D
:101A00004FF47A7600F0E8F8D8F80010401BC91BB4
:101A100000FB0610A042F5D3BDE8F08180B500BF01
:101A2000012002F0B6FEFBE7EFF3108072B600BFB4
:101A3000FEE700002DE9F04F82B000F13E4707F1CC
:101A4000FF77860546EA972741F60046C4F202066C
:101A5000082243F6004EB04208BF0722C4F2010E2E
:101A6000072F38BF3A46002600274FF000080092A3
:101A70000D68012202FA08F415EA040900F09B80BF
:101A8000D1F804B003220BF0030CACF10105BA400D
:101A9000012D6FEA020A0FD88268CD6802EA0A02B5
:101AA000BD402A4382604268A243CBF3001404FA8B
:101AB00008F42243426005E0BCF1030F02D14FF06D
:101AC000030C1EE0C2688C6802EA0A02BC40224392
:101AD000BCF1020FC26014D16FF0030202EA580297
:101AE0000244D2F820C006F01C040F230D69A34065
:101AF0002CEA0303A5402B431362D1F804B00BF08A
:101B0000030C02680CFA07F302EA0A021A431BF4F8
:101B1000403F02604FD0002243F644030192C4F2DA
:101B200002031A684FF6084C42F480421A601A68A1
:101B3000CFF6FF7C02F480420192019A28F0030262
:101B4000724452F80C3006F00C050F24AC40A3434D
:101B5000009C04FA05F52B4342F80C30DEF808200F
:101B60004B6842EA090543F60C4CDC0258BF22EAF6
:101B70000905CEF80850C4F2010CDCF800209C02E4
:101B800042EA090558BF22EA0905CCF80050DEF800
:101B900004209C0342EA090558BF22EA0905CEF851
:101BA0000450DEF80020DB0342EA090558BF22EAB0
:101BB0000905CEF8005008F101080237B8F1100FFE
:101BC00006F104067FF454AF02B0BDE8F08F002A9E
:101BD00008BF09048161704744F20020C2F200008E
:101BE0000068704740F2481044F20021C2F2000041
:101BF000C2F2000100780A6810440860704780B59E
:101C000043F60040C4F20200016841F40071016033
:101C1000016841F480610160016841F480710160F4
:101C2000032000F0B9F80F2000F004F800F058F895
:101C3000002080BD70B586B0002543F640010195B7
:101C4000C4F202010A68044642F001020A6009680F
:101C500001A801F0010101910199694600F05DF9C7
:101C6000049E002E18BF012600F076F94DF6836120
:101C7000B040C4F21B31A0FB01014FF0FF3000EB7C
:101C8000914140F21450C2F200004FF0804240F205
:101C9000E733C0E90021C0E902530561856100F026
:101CA000F8FC0546C8B940F21450C2F2000000F03A
:101CB00036FD054688B91C2000F033F80F2C0BD8F0
:101CC0001C2021460022002500F03BF840F24C1079
:101CD000C2F20000046000E00125284606B070BD95
:101CE00082B0002043F640010190C4F202014A682C
:101CF00042F480424A604A6802F480420192019AAA
:101D000000900868002240F08050086008680F21A9
:101D100000F08050009000986FF0010002B000F0D9
:101D200010B800280CD400F01F01012202FA01F1C2
:101D30001C2202EAD0004EF20012CEF200028150C4
:101D4000704710B54EF60C5CCEF2000CDCF800309B
:101D5000C3F3022E8EF00704042C28BF0424BEF126
:101D600003034FF0FF3E0EFA04F438BF0023A143F3
:101D700099400EFA03F39A43114300F00F0200F169
:101D800060430901043A03F564436244002848BFF4
:101D900002F10C03197010BD4EF60C51CEF2000189
:101DA0000A684FF6FF031A4060F30A2242F080608F
:101DB00040F0FD700860704770470000002872D046
:101DC0002DE9F04143F60008C4F202080446D8F8B1
:101DD00000040D4600F00700884207D288F800543E
:101DE000D8F8000400F00700A84266D120688107F7
:101DF00017D5410705D5D8F8081041F4E051C8F8C7
:101E00000810010705D5D8F8081041F46041C8F85A
:101E10000810D8F80810A26821F0F0011143C8F8A2
:101E20000810C00741D1D8F8000400F00700A8420C
:101E300007D988F80054D8F8000400F00700A84239
:101E40003BD12068410707D5D8F80810E26821F493
:101E5000E0511143C8F80810000708D5D8F8080069
:101E6000216920F4604040EAC100C8F8080000F091
:101E700086F8D8F8081045F61842C1F30311C0F6E9
:101E80000002515C40F2441220FA01F140F24C1081
:101E9000C2F200000068C2F200021160FFF7CAFE41
:101EA0000020BDE8F081012070476068811E022992
:101EB00006D2D8F80010890108D40120BDE8F081CD
:101EC00001281FD1D8F800108903F6D5D8F80810DA
:101ED00021F003010843C8F80800FFF77DFE06461D
:101EE00041F28837D8F80800616800F00C00B0EBC8
:101EF000810F98D0FFF770FE801BB842F2D9032003
:101F0000BDE8F081D8F800108907D6D5DEE74C206F
:101F1000C4F247200121016070470F22026043F69E
:101F20000802C4F20202136803F00303436013685B
:101F300003F0F0038360136803F4E053C360D2F846
:101F400000C04FF4E05303EADC030361D2F8F80366
:101F500000F007000860704740F2441043F60801A3
:101F6000C2F20000C4F202010068096845F6284286
:101F7000C1F38221C0F60002515CC840704710B521
:101F800043F60404C4F20204606800F00C00082860
:101F90000AD0042819BF42F20040C0F2F40041F612
:101FA0000030C0F2B70010BD2068216823684902E4
:101FB00041F60031C0F2B70100F03F02C3F38810D0
:101FC0005CBF42F20041C0F2F401A1FB000100231A
:101FD000FEF764FE21680222C1F3014102EB4101D8
:101FE000B0FBF1F010BD10B543F60C04C4F20204CE
:101FF0002068000658BF10BDFFF7DEFE8020A070ED
:1020000010BD000000286BD02DE9F04182B00446DD
:10201000007843F60006C007C4F202060CD0B06890
:1020200000F00C00042840F09A803068800303D54B
:102030006068002800F0AD80207880071BD5B0686C
:1020400010F00C0F09D0B06800F00C00082840F028
:10205000A2807068400200F19E803068800703D53E
:10206000E068012840F095803068216920F0F80090
:1020700040EAC10030602078000733D42078400760
:1020800047D4A56955B3B06800F00C00082840F0AB
:10209000B580012D7DD07068E16900F480028A422C
:1020A00077D1216A00F03F028A4272D147F6C071AF
:1020B000626A0140B1EB821F6BD1A16A4FF6FF73D8
:1020C000C903994300F44032A1F580318A4260D1BE
:1020D000E16A00F07060B0EB016F5AD10020F3E0CC
:1020E000012070476069002840F20000C4F24720D8
:1020F00074D00121C0F8801EFFF76EFD054600BFB9
:10210000706F8007BAD4FFF767FD401B0228F7D92C
:10211000D9E0306C5FEAC0080AD400200190306C2E
:1021200040F080503064306C00F080500190019895
:1021300047F20007C4F200073868C00540D4386889
:1021400040F480703860FFF747FD05463868C005E9
:1021500036D4FFF741FD401B0228F7D9B3E0B06841
:1021600000F00C00082803D1706840023FF55DAF15
:102170006068B0F5803F07D0B0F5A02F40F08D80AB
:10218000306840F480203060306840F48030306047
:102190008DE0012098E0E068002851D00020C4F2D2
:1021A000472001210160FFF717FD054630688007D1
:1021B0003FF55AAFFFF710FD401B0228F6D982E029
:1021C000A068012805D005284ED1306F40F00400EA
:1021D0003067306F40F0010030674FE00021C0F8F9
:1021E000801EFFF7F9FC0546706F80077FF546AF4C
:1021F000FFF7F2FC401B0228F6D964E00027C4F286
:10220000472700203866FFF7E7FC022D05460BD173
:10221000306880015BD5FFF7DFFC401B02284FF0E0
:102220000300F5D950E000BF306880017FF556AF5C
:10223000FFF7D2FC401B02284FF00300F4D943E023
:102240000020C4F2472000210160FFF7C5FC0546CD
:10225000306880077FF50FAFFFF7BEFC401B0228F8
:102260004FF00300F4D92FE0316F002821F0010175
:102270003167316F21F00401316749D0FFF7ACFCC1
:10228000054641F2883700BF306F800751D4FFF711
:10229000A3FC401BB842F7D915E03168002821F4AF
:1022A00080313160316821F4802131604AD0FFF7FC
:1022B00093FC0546306880033FF5BEAEFFF78CFC0B
:1022C000401B6428F6D9032002B0BDE8F08104F178
:1022D0001C052FCD084340EA8210D9034FF6FF7248
:1022E0009143A1F5803140EA056008437060012008
:1022F0003866FFF771FC0446306880013FF5EEAEAA
:10230000FFF76AFC001B02284FF00300F4D9DBE75B
:10231000FFF762FC054641F2883700BF306F800747
:1023200007D5FFF759FC401BB8424FF00300F5D921
:10233000CAE7B8F1000F3FF5A4AE306C20F0805032
:1023400030649EE6FFF748FC054600BF3068800316
:102350007FF572AEFFF740FC401B64284FF003008E
:10236000F4D9B1E770B538B10446406A30B1002005
:10237000206104F1140007E001264BE06068B0F52D
:10238000827F03D004F11C00002101600026A662B8
:1023900094F8510020B9204684F8506000F03CF8D1
:1023A000022084F8510094E80F0001F4827105685E
:1023B00002F4044225F040050560114403F4006274
:1023C0002369114403F002026369114403F001021E
:1023D000A369E569114403F40072114405F0380261
:1023E000256A114405F08002A56A114305F40052E4
:1023F00011430160626A042101EA134102F01002F4
:1024000011444160C16921F40061C1610120666528
:1024100084F85100304670BD2DE9F04385B0006866
:1024200043F20005C4F20105A8423FD1002643F65D
:1024300030000096C4F2020041696C4641F48051BC
:10244000416141694FF0020801F480510091009907
:10245000009601684FF0030941F002010160016834
:10246000052701F00201009100990096016841F0F2
:10247000010101600068214600F001000090009811
:102480001820009005F55440CDE90186CDF80C9058
:102490000497FFF7CFFA8020CDE9000805F55040FA
:1024A0002146CDE902690497FFF7C4FA05B0BDE8FB
:1024B000F08300002DE9F04381B0044690F850000D
:1024C000012801D10220C8E001201E4615460F4612
:1024D00084F85000FFF780FB94F8511081460129E1
:1024E0006BD1002F4FF0010000F0B180002D00F003
:1024F000AE80002E00F0AB8094F85100002104283B
:102500001CBF052084F851006165A563E687A68796
:102510002763E6862068A68621646164016849060F
:1025200003D4016841F0400101606168731EE268F4
:10253000B1FA81F1B3FA83F3DDF8208049095B0930
:10254000B2F5006F41EA030146D131B137F8021B01
:10255000C1602763E08E0138E086012608F101059D
:10256000E08E10B9E08F00287AD020688168890752
:102570000CD5E18E51B1012E08D1216B002631F826
:10258000022BC2602163E18E0139E1868168C907AF
:102590000AD0E18F41B1C068A16B012621F8020B7E
:1025A000A163E08F0138E087FFF716FB002DD7D03D
:1025B000A0EB09004045D3D348E06068B0F5827FC6
:1025C00008D104294FF0020041D1A16800293FF44D
:1025D00088AF3CE002203AE039B139780173206BD2
:1025E00001302063E08E0138E086012608F1010504
:1025F000E08E08B9E08F98B32068816889070ED50E
:10260000E18E61B1012E0AD1216B00260978017398
:10261000216B206801312163E18E0139E1868168F7
:10262000C9070BD0E18F49B1C068A16B01260870C2
:10263000A06B0130A063E08F0138E087FFF7CCFA90
:10264000002DD5D0A0EB09004045D1D303200121B6
:1026500084F85110002184F8501001B0BDE8F083D7
:10266000204641464A4601F025FD18B1202060650C
:102670000120ECE7A06800284FF00000E7D10090AF
:102680002168CA680092896800910099DFE7704765
:10269000704740B310B5044690F83D0028B90020BB
:1026A00084F83C00204600F020F8022084F83D0029
:1026B0002068211D01F04AFE012084F8460084F8BC
:1026C0003E0084F83F0084F8400084F8410084F81C
:1026D000420084F8430084F8440084F8450084F8FC
:1026E0003D00002010BD01207047006844F2004109
:1026F000C4F20101884218BF704781B000200090E9
:1027000043F64400C4F20200016841F40031016064
:10271000006800F400300090009801B0704790F815
:102720003D1001291CBF01207047022180F83D1097
:10273000006841F2FF72C168C4F20002904241F0A9
:102740000101C1600BDC40F2FF71C4F2000188425C
:1027500013DCB0F1804F27D040F2004115E040F289
:10276000FF31C4F20101884212DC41F60001C4F2DB
:102770000001884218D0002112E040F60001C4F2A6
:102780000001884210D040F60041C4F2000109E087
:1027900044F20001C4F20101884205D040F2004138
:1027A000C4F20101884204D1816801F007010629C1
:1027B00003D0016841F001010160002070477047BB
:1027C00010B5016804460869800744BFC8685FEA1D
:1027D000807038D40869400744BFC8685FEA407019
:1027E0003DD40869000744BFC8685FEA007043D45D
:1027F0000869C00644BFC8685FEAC06048D4086979
:10280000C0071CBFC8685FEAC0704ED108690006E7
:1028100044BFC8685FEA00604FD40869400644BFFF
:10282000C8685FEA406050D40869800646BFC8683F
:102830005FEA806010BD6FF0200220460A61BDE8AB
:102840001040FFF725BF6FF00200086101202077DC
:102850008869800741D02046FFF7B1FF43E06FF061
:102860000400086102202077886910F4407F3ED080
:102870002046FFF7A4FF40E06FF008000861042045
:102880002077C86980073CD02046FFF798FF3EE0DC
:102890006FF01000086108202077C86910F4407FAD
:1028A00039D02046FFF78BFF3BE06FF00100086155
:1028B000204600F061F92168A8E76FF08000086108
:1028C0002046FFF7E4FE2168A7E76FF040000861AB
:1028D000204600F058F92168A6E7204600F04FF89E
:1028E000204600F0C6F821680020207772E72046D5
:1028F00000F045F8204600F0BCF821680020207761
:102900006FE7204600F03BF8204600F0B2F821685F
:10291000002020776CE7204600F031F8204600F0D8
:10292000A8F821680020207769E7016844F2004098
:10293000C4F20100814218BF704780B586B0002103
:1029400043F630020191C4F20202136800F55040D0
:1029500043F020031360126802F020020192019AF2
:10296000402201920222CDE9022104910321059126
:1029700001A9FFF75FF806B0BDE8804070477047D7
:10298000B0B5044690F83C00012804BF0220B0BD59
:102990000D464FEAB2010120032984F83C0037D8E4
:1029A000DFE801F0020A12222068294601F05CFDEE
:1029B000206850F8181F0EE02068294601F085FDB8
:1029C000206850F8181F16E02068294601F0B1FD74
:1029D000206850F81C1F41F008010160016821F0D7
:1029E0000401016029690FE02068294601F0D4FD47
:1029F000206850F81C1F41F400610160016821F457
:102A000080610160296909020268114301600020A8
:102A1000002184F83C10B0BD40B310B5044690F8D6
:102A20003D0028B9002084F83C00204600F020F842
:102A3000022084F83D002068211D01F087FC012060
:102A400084F8460084F83E0084F83F0084F8400093
:102A500084F8410084F8420084F8430084F844007C
:102A600084F8450084F83D00002010BD0120704727
:102A70007047704741B108290ED0042914BF00F1F6
:102A8000410200F13F0209E090F83E20012A12D1F4
:102A9000022280F83E2012E000F140021278012A62
:102AA00009D10222082908D0042914BF80F8412046
:102AB00080F83F2003E00120704780F84020006844
:102AC00001F01F010122036A02FA01F123EA010267
:102AD0000262026A114341F2FF72C4F200029042A4
:102AE00001620BDC40F2FF71C4F20001884213DC8A
:102AF000B0F1804F35D040F2004115E040F2FF3197
:102B0000C4F20101884214DC41F60001C4F2000164
:102B1000884226D0002114E040F60001C4F20001F2
:102B200088421ED040F60041C4F20001884218D00D
:102B30001CE044F20001C4F20101884211D040F2CD
:102B40000041C4F20101884210D1416C40F20043BF
:102B500040F48062C4F2010341F400419A424164AE
:102B600004D1816801F00701062903D0016841F012
:102B700001010160002070470068B0F1804F18BF6C
:102B80007047FFF72FB87047FEE740F2CC41C2F222
:102B9000000109684863704782B040F2F414C2F241
:102BA00000042046FEF7D6FA40F2B81640F20005BF
:102BB00094ED020AC2F20006C2F200053046294630
:102BC00001F020FB94ED030A06F1140A5046294651
:102BD00001F018FB94ED010A06F128073846294652
:102BE00001F010FB40F23429C2F2000940F20C025D
:102BF000C2F200024846022100F0E5FC40F2D02576
:102C00009FED698AC2F2000540F2240140F2B4024D
:102C10009FED661AC2F20001C2F20002B2EE040A8F
:102C20002846F0EE480A00F075FE01F0C7FD40F2BC
:102C30008828C2F200089FED5EAA9FED5EBA9FED64
:102C40005FCA9FED5F9A9FED5FDA9FED5FEA9FEDB0
:102C50005AFA08F134060DF1040B01902046FEF7F4
:102C600079FA94ED020A40F2B810C2F2000001F0C5
:102C7000D4FA94ED031A88ED0E0A5046B0EE410ADC
:102C800001F0CBFA94ED011A88ED0F0A3846B0EE48
:102C9000410A01F0C2FAA169D4E9042088ED0D0AC5
:102CA000C8E90B01414641F8282F28463246B0EECC
:102CB000480A00F07BFE95ED671A95ED660A88EDEF
:102CC000081A21EE0A1A88ED001A98ED101A88EDFC
:102CD000070A20EE0A0A95ED682A30EE411AB4EE92
:102CE0004B1A88ED092A22EE0A2AF1EE10FA88ED35
:102CF000010A88ED032A03DAB8F84400013007E03E
:102D0000B8F84400B4EE4F1AF1EE10FA02DD0138C3
:102D1000A8F8440000B201EE100AB8EEC11A21EE84
:102D20000C1A88ED100A31EE000A88ED020A98EDBF
:102D30000A0A98ED0B1A98ED0C2A9DF8040021EE72
:102D40000A1A22EE0A2A20EE0A0AC00788ED041A9F
:102D500088ED052A88ED060A20D1D4ED070A4846F9
:102D6000B0EE490A01F048FC99ED110AB0EE4D1A97
:102D7000B4EE4D0AF1EE10FA06DCB5EE400AF1EEC3
:102D800010FAB0EE4E1A03DAB0EE410A89ED111ACC
:102D9000BDEEC00A10EE100AFFF7F7FE58460121FB
:102DA00001F0FFFC5AE700BF6F12833A0024744918
:102DB000E12E6542000034C3000034430000B443F8
:102DC0000000204200401C46000000002DE9F043B6
:102DD00081B0044604201E4691468846C0F2080091
:102DE000206001B116B9FE2084F8C40000202346FB
:102DF00043F8200F04F118000121012284F8048017
:102E000084F80590A671FDF7EDFA2588012005FBF1
:102E100006F1FDF72FFFE06005FB08F10120FDF74B
:102E200029FF21790346C4F8C80004F12C000122CF
:102E3000FDF7D8FA208800FB08F10120FDF71AFF02
:102E400021790346C4F8CC0004F134000122FDF7D7
:102E5000C9FA208800FB06F10120FDF70BFFA179DC
:102E60000346C4F8D40004F144000122FDF7BAFA85
:102E7000657925B3208800FB09F701203946FDF765
:102E8000F9FE206101203946FDF7F4FE0346C4F83F
:102E9000D00004F13C0029460122FDF7A3FA208866
:102EA00009FB08F141430120FDF7E4FE2179627935
:102EB0000346C4F8D80004F14C00FDF793FA2088CB
:102EC00008FB08F505FB00F10120FDF7D3FE217991
:102ED0000346C4F8DC0004F154000A46FDF782FA08
:102EE000208805FB00F10120FDF7C4FE217903468F
:102EF000C4F8E00004F15C000A46FDF773FA20888C
:102F000006FB08F707FB00F10120FDF7B3FE22796D
:102F1000A1790346C4F8E40004F16400FDF762FA05
:102F2000208807FB00F10120FDF7A4FE2179A2799A
:102F30000346C4F8E80004F16C00FDF753FA20885A
:102F400005FB00F10120FDF795FE21790346C4F849
:102F5000EC0004F174000A46FDF744FA208805FBF2
:102F600000F10120FDF786FE21790346C4F8F00048
:102F700004F17C000A46FDF735FA208805FB00F1D4
:102F80000120FDF777FE21790346C4F8F40004F12F
:102F900084000A46FDF726FA208806FB06F1414325
:102FA0000120FDF767FEA1790346C4F8F80004F19B
:102FB0008C000A46FDF716FA208807FB00F1012075
:102FC000FDF758FE2179A2790346C4F8FC0004F10C
:102FD0009400FDF707FA20882579684300FB05F186
:102FE0000120FDF747FE0346C4F8000104F19C00F0
:102FF00029462A46FDF7F6F920882579684300FB23
:1030000005F10120FDF736FE0346C4F8040104F182
:10301000A40029462A46FDF7E5F92088257968436A
:1030200000FB05F10120FDF725FE0346C4F8080169
:1030300004F1AC0029462A46FDF7D4F92088257909
:1030400005FB00F10120FDF715FE0346C4F80C0155
:1030500004F1B40029460122FDF7C4F9208825793E
:1030600005FB00F10120FDF705FE0346C4F8100141
:1030700004F1BC0029460122FDF7B4F9208800FBC9
:1030800008F10120FDF7F6FDC4F8340101B0BDE8F8
:10309000F0832DE9F04704462288A379D0F8D400C4
:1030A000E1685A43FDF772FE2188A279E068514336
:1030B000FDF7C8FE627932B123882169D4F8D000C7
:1030C0005A43FDF763FED4F8181109B1204688472A
:1030D00094F81401C0072ED1607910B320792546E9
:1030E00025F8B40FA5F188010126A5F160002A4654
:1030F0006E80FDF713FC21796E8005F108062874B7
:103100002980A5F16800A5F178013246FDF706FC9B
:103110002874A5F1800228463146FDF7DFF82874AF
:1031200009E004F12C0104F1540004F13402FDF72C
:10313000F5FB84F8C400D4F81C1109B12046884777
:1031400094F8140180072AD404F1540504F15C06B4
:1031500028463146FDF704FD04F17C0784F8C400DD
:1031600004F1740128463A46FDF7D8FBB4F87C1008
:10317000254625F8A41F35F8461C84F8C40069804C
:10318000384631462A46FDF7C9FB84F8C400A5F14C
:10319000200128463A46FDF7A1F884F8C400D4F887
:1031A000201109B12046884794F8140104F16408FD
:1031B000400750D404F16C0A40465146FDF7D0FC5C
:1031C00084F8C400B4F86400274627F8A40FB4F8C4
:1031D0007E0004F17C09A4F8A600404649463A4620
:1031E000FDF79CFB84F8C40038882546B4F86E10BF
:1031F00025F8AC0FA4F8AE10384651462A46FDF724
:103200008DFB214684F8C40051F88C0F264646F801
:103210009C0F28463246FDF761F884F8C40030461A
:103220002946FDF7E3F884F8C400B4F87C00B4F84C
:103230006E103880A4F8A610484651463A46FDF76D
:103240006DFB84F8C400A6F1080238462946FDF754
:1032500065FB84F8C400D4F8241109B120468847DE
:1032600094F81401000735D4204630F8641F254631
:1032700025F8B41F04F134094FF0010A49462A46E3
:10328000A4F8B6A0FDF74AFB84F8C400204630F845
:10329000441F274627F8BC1F29463A46A4F8BEA07B
:1032A000FDF7DAFB214631F8942F84F8C400A1F130
:1032B00068062A80084639462A46A4F8B6A0FDF7D3
:1032C0002DFB84F8C400484629463246FDF706F82F
:1032D00084F8C400D4F8281109B12046884794F82E
:1032E0001401C00624D4204630F8941F2546B4F8B3
:1032F000662025F8A41FA4F8A62041462A46FDF71B
:103300000DFB2988264626F8AC1F307636F82E0CA1
:10331000A6F130077080284639463246FDF7FEFA9E
:103320003076A6F1380238463146FDF795FB307607
:10333000D4F82C1109B120468847D4F8301109B1CE
:103340002046884722882379D4F83401D4F8C8105D
:103350005A43FDF71BFDD4F83401BDE8F0870000A7
:1033600080B58EB0154808AF079014A000F1040E88
:103370009EE80E50806987E80E500D9007A8002146
:1033800001F023FA40F23021C2F20001124A086033
:1033900011A000F1040E00929EE80E50806901AF6A
:1033A00087E80E5006906846002101F00EFA40F2C0
:1033B0008421C2F2000108600EB080BD5C5C000890
:1033C0001D1A0008030000000000000000040000B7
:1033D0000000000000000000545C0008992B000869
:1033E00003000000000000000004000000000000D6
:1033F000000000002DE9F04387B04FF0000843F6CD
:103400003000CDF81880CDF80480C4F202000168C5
:10341000002541F0020101600168C4F2020501F0DB
:10342000020101910199CDF804800168012241F067
:10343000010101600168102601F00101019101996B
:10344000CDF804800168012741F080010160016826
:1034500001F0800101910199CDF80480016841F0EB
:1034600020010160016801F0200101910199CDF86E
:103470000480016841F0040101600068102100F03F
:103480000400019001982846FEF7A1FB05F5806431
:10349000204601210122FEF79AFBCDE9026702AE28
:1034A0004FF00209284631460497CDF81490FEF7F4
:1034B000C1FA302002904FF40410CDE9030805F55D
:1034C00000603146FEF7B6FA20463146CDE9027774
:1034D000CDE90479FEF7AEFA07B0BDE8F08310B588
:1034E00040F2744043F20001C2F20000C4F2010154
:1034F0004FF4827200234FF0010C4FF4007E102431
:1035000080E80E000A21C0E90333C0E905CEC4619A
:10351000C0E90833C0E90A31FEF724FF18B1BDE85D
:103520001040FEF781BA10BD80B588B040F2CC40A3
:1035300044F200420021C2F20000C4F2010253230F
:1035400044F61F6CCDE90611CDE90411C0E9002352
:10355000C0E9021C01618161FFF79BF808B1FEF729
:1035600063FA40F2CC40C2F20000FFF755FA08B10E
:10357000FEF75AFA602001900020CDE90200059084
:1035800040F2CC40C2F2000001A90022FFF7F8F996
:1035900008B1FEF749FA40F2CC40C2F20000FFF752
:1035A000C4F908B080BD0000FEE70000FEF71BFD77
:1035B000FEE70021C0E90311C0E90511C0E90E11C1
:1035C000C0E91011704710B50446017043F2B350C2
:1035D00043F20F61C0F60000C0F600010023C4E909
:1035E000121020461146C4E90333C4E90533C4E987
:1035F0000E33C4E9103300F00AF894F8341000F0E8
:10360000010001F0FE01084484F8340010BD4FF0C1
:10361000010279B103786BB10A68C2614A6802623B
:103620008A684262CA6882620A69C2624969002283
:103630000163C286104670470000000000000000D1
:10364000EFF30980BFF36F8F154B1A681EF0100F50
:1036500008BF20ED108A20E9F04F10602DE9090025
:103660004FF0500080F31188BFF34F8FBFF36F8F7F
:1036700001F060FD4FF0000080F31188BDE8090003
:1036800019680868B0E8F04F1EF0100F08BFB0ECE2
:10369000108A80F30988BFF36F8F704700BF00BFA7
:1036A0005C05002010B5018802790446D0F80C01B1
:1036B0005143FDF7C7FBD4F8CC0045F6862390EDC7
:1036C000000A90ED011A90ED022A90ED033A21EEE6
:1036D000011A20EE000A30EE010A22EE021A31EE43
:1036E000000A23EE031A31EE000A10EE102AC5F686
:1036F0003773A3EB6202BEEE002A01EE102A20EE21
:10370000020A20EE010A20EE010AB7EE083AD4F8C8
:103710000C1130EE030A20EE010A81ED000A90ED53
:10372000001A90ED013A21EE000A80ED000A91EDB9
:10373000000A90ED021A20EE030A80ED010A91EDD5
:10374000003A90ED034A23EE011A80ED021A91ED42
:10375000001AD4F8DC1021EE041A80ED031AB6EE3C
:10376000001A94ED023A20EE010A20EE030A81EDE0
:10377000040A90ED020A94ED023A20EE010A20EECE
:10378000030A81ED050A90ED000A94ED023A20EE5D
:10379000020A20EE030A81ED0A0A90ED030A94ED75
:1037A000023A20EE010A20EE030A81ED0B0A90EDA9
:1037B000030A94ED023A20EE020A20EE030A81ED9C
:1037C000100A90ED000A94ED023A20EE020A20EE73
:1037D000030A81ED110A90ED020A94ED023A20EEFF
:1037E000010A20EE030A81ED160A90ED010A94ED1C
:1037F000021A20EE020A20EE010AD4F8EC0081ED54
:10380000170A90ED1C1A9FED140AB4EE401AF1EE5F
:1038100010FA02DD80ED1C0A08E09FED100AB4EEFC
:10382000401AF1EE10FAB8BF80ED1C0A90ED231A91
:103830009FED090AB4EE401AF1EE10FA02DD80EDB8
:10384000230A10BD9FED050AB4EE401AF1EE10FAFE
:10385000B8BF80ED230A10BD00401C4600401CC6C6
:1038600010B504462188A2792379D0F8E4005143A9
:103870005943FDF7E7FAD4F8CC10D4F8E40091ED01
:10388000020AB8EE001A20EE010A80ED000A91ED5E
:10389000030A30EE000A80ED010A91ED000A20EEE5
:1038A000010A80ED020A91ED010A30EE000A80ED76
:1038B000030A91ED010A30EE000A80ED060A91ED4F
:1038C000000A30EE000A80ED070A91ED030A30EE9F
:1038D000000A80ED080A91ED020A30EE000A80ED40
:1038E000090A91ED000A30EE000A80ED0C0A91ED14
:1038F000010A20EE010A80ED0D0A91ED020A20EE88
:10390000010A80ED0E0A91ED030A30EE000A80ED07
:103910000F0A10BDB0B5044600F1200383EC030A82
:10392000C4E90B1234300621002203230025FFF7DF
:103930004DFA4CF67740C3F22B20A065D4F8FC007A
:103940004FF07E51A4F85C50C0E90015C0E9025563
:1039500043F2A56043F66101C0F60000C0F6000125
:1039600043F6F942C0F60002C4E9540194F8480154
:10397000C4F85821A28E94F8383040F00C0084F836
:103980004801D4F81001E16A5A435A4384F8485078
:10399000FDF7FCF9A28E94F83830D4F82001216BA1
:1039A0005A435A43FDF7F2F9B0BD0000F0B581B0BB
:1039B0002DED048B054635F8343F45F6862785ED19
:1039C000020A91ED001A15ED082A15ED073A31EEBD
:1039D000421A85ED511A91ED012A15ED064A32EE93
:1039E000432A85ED522A91ED023A21EE015A33EE37
:1039F000443A22EE024A35EE044A23EE035A35EEEB
:103A0000044A044614EE100AC5F63777A7EB6000A7
:103A1000BEEE008A05EE100A24EE084A24EE054A9E
:103A200024EE054AB7EE089A164634EE094A2A797A
:103A300024EE054AB6EE005A85ED533A21EE051AFA
:103A400022EE052A23EE053AD5F8DC0055F8081CCD
:103A5000534321EE001A22EE002A23EE000A5A43B5
:103A600085ED554A85ED561A85ED572A85ED580A9C
:103A7000FDF78CF995ED560AD5F8DC00B1EE400A59
:103A800080ED010A95ED570A05F59C73B1EE400AE9
:103A900080ED020A95ED580AB1EE400A80ED030A66
:103AA000D5F858118161D5F86011016295ED570A7A
:103AB000B1EE400A80ED090AD5F85C11016395ED7D
:103AC000580AB1EE400A80ED0D0AD5F85811C163CD
:103AD000D5F860118164D5F85C11C16495ED560A82
:103AE000B1EE400A80ED140A96E8070007C395ED91
:103AF0004E0A95ED4F1A95ED502A21EE011A20EE4F
:103B0000003A33EE011A22EE022A32EE011A11EEC9
:103B1000100AA7EB600002EE100A21EE081A21EE4F
:103B2000021A21EE021A31EE091A21EE021AE86891
:103B300020EE010A85ED541A80ED000A95ED4F0A3A
:103B400095ED541A9FED692A20EE010A80ED010AD5
:103B500095ED500A95ED541A20EE010A80ED020A07
:103B600095ED551AB7EE000A80EE011AB4EE421A2E
:103B7000F1EE10FA13DA94ED611A80EE010A9FED6E
:103B80005C1AB4EE410AF1EE10FA08DD9FED591A05
:103B9000B4EE410AF1EE10FA01DA012000E0002053
:103BA00094ED080A94ED0F1AD4F8281120EE010ABA
:103BB00081ED000A94ED080A94ED0F1AD4F82C2137
:103BC00020EE010A81ED070A94ED080A94ED0F1A20
:103BD00084F8480020EE010A81ED0E0A94ED080AEF
:103BE00094ED0F1A20EE010A81ED150A94ED090AF1
:103BF00094ED0F1A20EE010A81ED1C0A94ED090ADA
:103C000094ED0F1A20EE010A81ED230AA16A1160DA
:103C1000A06A1061A06A10622846FFF73AFAD4F849
:103C20006801BFEE008A90ED001A84ED011A90ED54
:103C3000012A84ED022A90ED020A84ED030A90ED38
:103C4000033A22EE000A84ED043A016921EE033AB8
:103C5000616122EE022A21EE011A406931EE021A58
:103C600033EE000A31EE011AA061002030EE000AA6
:103C700071EE080AE06101F039FE84ED660A94ED08
:103C8000010A94ED021A94ED032A94ED043A22EE0F
:103C9000000A21EE031A30EE410A30EE000A01F06C
:103CA0008FFD84ED670A94ED011A94ED030A94EDFB
:103CB000042A94ED023A20EE020A21EE033A22EEA3
:103CC000022A21EE011A31EE021A33EE000A31EE19
:103CD000011A30EE000A71EE080A01F007FE84EDC9
:103CE000680ABDEC048B01B0F0BD00BF9A99993E03
:103CF00023DB144123DB24412DE9F04F85B000F193
:103D0000640500F16C09044628464946FCF728FF83
:103D100084F8C400B4F86400274627F8A40FB4F868
:103D20007E0004F17C01A4F8A60028463A460191E1
:103D3000FCF7F4FD84F8C40038882646B4F86E1009
:103D400026F8AC0FA4F8AE10384649463246FCF7C8
:103D5000E5FD214684F8C40051F88C0F254645F84E
:103D60009C0F30462A46FCF7B9FA84F8C40028466E
:103D70003146FCF73BFB84F8C400B4F86400A2466B
:103D80002AF8B40FDAF81810012091ED000A91ED2D
:103D9000011A91ED022A91ED033A22EE000A21EE7A
:103DA000031AAAF80200DAF8580031EE400A30EEA1
:103DB000000A80ED000A91ED000A91ED021A91EDE2
:103DC000032A91ED013A21EE021A20EE030A30EEA9
:103DD000010A30EE000A80ED010A91ED000A91ED32
:103DE000011A91ED022A91ED033A21EE011A20EE1B
:103DF000000A30EE410A22EE021A30EE410A23EEAA
:103E0000031A31EE000A00250DF1080B80ED020ABD
:103E1000D4F80C01284490ED000AB0EEC00A01F07D
:103E200043FC0BEB050004350C2D80ED000AEFD1AF
:103E3000204630F8441F254625F8BC1F4FF00108E6
:103E400051462A46A5F80280FCF706FE35F8101CFC
:103E5000287225F8181C304629463A4625F8168C53
:103E6000FCF75CFD287235F8100C514625F8060C5D
:103E7000304625F8088CFCF773FE2872A5F1A402E1
:103E800050463946FCF74AFD15ED261A15ED270A6E
:103E9000B6EE002A21EE022AB4EE420AF1EE10FA42
:103EA000B4EE410A2872B8BF84F82980F1EE10FA06
:103EB00013DD94F8290080B1207D002800F0D58022
:103EC00094F828000130C1B2332984F82800C0F0EA
:103ED000CF80002084F829001CE09FED712A21EE9C
:103EE000022AB4EE420AF1EE10FAB7EE002A0ADD19
:103EF00094F8290038B19FED6B2A31EE400A21EE8B
:103F0000021A80EE012AD4F80C0180ED002A00206C
:103F100084F8280094F81401B4F87C1000F0EF0045
:103F200084F81401B4F86E00A4F8A410A5F190016F
:103F3000A4F8A6000198009149463A46FCF7EEFC29
:103F400004F1940884F8C400384631464246FCF730
:103F5000E5FCB4F89620B4F894C084F8C4000CFBD7
:103F600002F2A2B1D4F8FC00D4F80C3100260027EC
:103F700000EB860193ED000A91ED001A0137FEB2C5
:103F800020EE010AB24281ED000AF1D801E0D4F836
:103F9000FC009FED450A3030042200BF0BEB82018C
:103FA00011ED041A002381EE001A00BFC11891ED33
:103FB000002A043321EE022A0C2B81ED002AF5D1D0
:103FC0000132062A00F10C00E8D10120A4F8B60065
:103FD000404629465246A4F8B4C0FCF79FFC94F82A
:103FE0002920D4F80C1184F8C4009AB394ED022A65
:103FF0009FED2E0A91ED043A22EE001AB4EE413AFA
:10400000F1EE10FA02DD81ED041A0AE09FED281AA4
:1040100022EE011AB4EE413AF1EE10FAB8BF81ED8A
:10402000041A94ED022A91ED051A22EE000AB4EE6C
:10403000401AF1EE10FA02DD81ED050A0AE09FED6B
:104040001C0A22EE000AB4EE401AF1EE10FAB8BFD4
:1040500081ED050A0020009AC86004F13400514641
:10406000FCF73CF984F8C40017E0002084F828002D
:1040700022882379D4E932015A43FCF787FE22884B
:104080002379D4E93B015A435A43FCF77FFE94F865
:10409000140140F0100084F8140105B0BDE8F08F61
:1040A000CDCCCC3D6666663FDA0FC93F0AD7233CCC
:1040B0000AD723BC10B582B040F24413C2F2000309
:1040C0001B6849F68174C1F25E64A3FB043C04469C
:1040D0004FEA5C504FF47A73584301906068B0F532
:1040E000827F0DD113460A462046802100F014F845
:1040F00078B1606D40F02000606503200AE000BFE9
:10410000019830B10198013801902068806800065C
:10411000F6D4002002B010BD2DE9F04381B01E4658
:1041200090460D468146FDF757FD301A00EB080713
:10413000FDF752FD40F24411C2F200010968C1F3DB
:10414000CB3179430091D9F800108A682A40AA42FD
:1041500016D1064608F1010474B1FDF73DFD801B40
:10416000B8420FD2009800990028A1F101010091F6
:10417000D9F8001008BF074688682840A842EBD04D
:10418000002028E0D9E900014268B1F5827F22F0E1
:10419000E00242600BD1D9F80810B1F5004F02D00F
:1041A000B1F5806F03D1016821F040010160D9F8B9
:1041B0002810B1F5005F07D1016821F400510160BA
:1041C000016841F400510160012089F8510000208C
:1041D00089F85000032001B0BDE8F0830000000022
:1041E000074B19680868B0E8F04F80F30988BFF3FF
:1041F0006F8F4FF0000080F31188704700BF00BF41
:104200005C0500200A6802604A684260896880EDA7
:10421000030A816080ED040A704790ED012A90ED59
:10422000023A90ED034A90ED045A90ED001A22EE06
:10423000042A23EE053A33EE022A21EE000A30EE7C
:10424000020A80ED030A80ED044A704780B54FF002
:10425000500080F31188BFF36F8FBFF34F8F01F0D1
:10426000B7F830B14EF60450CEF200004FF0805156
:104270000160002080F3118880BD0000B0B592B0CD
:10428000002401A81421CDE90A44CDE90844FCF733
:10429000D9FD43F640000094C4F2020001680225F3
:1042A00041F080510160006800F08050009000985B
:1042B00047F200000094C4F20000016841F480411C
:1042C0000160006800F48040009000980120069092
:1042D0004FF4803007904FF480000D9006200E9030
:1042E000A820CDE90F050420119006A80C95FDF734
:1042F00089FE20B1EFF3108072B600BFFEE70F20F9
:10430000CDE901054FF4A05004904FF48050059082
:1043100001A805210394FDF751FD20B1EFF31080B2
:1043200072B600BFFEE7FDF7F2FD12B0B0BD4EF66B
:104330008850CEF20000016841F4700101607047BE
:1043400040F21450C2F20000FEF73ABA10B540F63F
:10435000FF3E0368C4F2000E40F2004C7045C4F208
:10436000010C0DDCB0F1804F17D040F20042C4F2D6
:104370000002904211D040F60002C4F200020AE0AE
:1043800040F60042C4F20002904206D0604504D0DC
:104390000022C4F20102904203D14A6823F0700364
:1043A000134341F6FF72C4F2000290420DDC7045E7
:1043B0001FDCB0F1804F3FD040F20042C4F2000257
:1043C000904239D040F6000221E043F6FF72C4F279
:1043D000010290421EDC42F20002C4F2000290424E
:1043E0002AD00022C4F20102904225D0604523D099
:1043F00026E040F60042C4F2000290421CD041F692
:104400000002C4F20002904216D041F60042C4F20B
:1044100000020FE044F20002C4F2010290420BD00D
:1044200044F60002C4F20102904205D044F2004278
:10443000C4F20102904203D1CA6823F440731343CB
:1044400023F080024B69D1F800E08C681A430260C7
:10445000C46240F48062C0F828E0624504BF096984
:1044600001630121416110BD70B5026A40F2004450
:1044700022F001020262026AD0F804E0D0F818C00B
:104480008B6822F0020540F48062C4F20104A2426B
:1044900043EA050305D1CD6823F00C0325F004059C
:1044A0002B430D68A24206D1D1E905262EF44074B3
:1044B000224342EA060E2CF073022A43C0F804E0BD
:1044C000826149684163036270BD70B5026A40F25F
:1044D000004422F010020262026AD0F804E0D0F830
:1044E00018C08B6822F0200540F48062C4F20104F9
:1044F000A24245EA031307D1CD686FF0400623F0CE
:10450000C00306EA05152B430D68A24206D1D1E986
:1045100005242EF44066224346EA820E2CF4E6423D
:1045200042EA0522C0F804E08261496881630362BF
:1045300070BD70B5026A40F2004422F480720262DB
:10454000026AD0F804E0D0F81CC08B6822F4007531
:1045500040F48062C4F20104A24245EA032307D179
:10456000CD6840F2FF462D0223F44063B5432B4350
:104570000D68A24206D1D1E905242EF4405622430B
:1045800046EA021E2CF073022A43C0F804E0C2611E
:104590004968C163036270BD70B5026A40F20046AB
:1045A00022F480520262026A4368D0F81CE00C6870
:1045B000D1F808C040F48065C4F20106B54204D1C8
:1045C0004D6923F4804343EA85132EF4E64646EA18
:1045D00004264360C66122F40052496842EA0C3264
:1045E0000164026270BD40F2CC40C2F200000021C2
:1045F000FEF740BAFEE7000090ED111A90F8343053
:1046000011EE101A21F0004C0022BCF1FF4FA8BFA0
:10461000012203F0FD0141EA4201DA0780F834107B
:104620002CD1BCF1FF4F29DA80ED010A90ED0A4A46
:1046300030EE600AB0EEC05A90ED032A90ED043AD5
:10464000B4EE445AF1EE10FAC0ED020A80ED053ADC
:1046500080ED042A80ED030A17DD0178022917D0C6
:10466000012936D190ED081AB5EE401AF1EE10FA94
:1046700034D090ED063A30EE033A31E080B5C16CAB
:1046800088479FED391ABDE88040B0EE410A704777
:1046900090ED076A90ED087A30EE425A32EE022A27
:1046A000D0ED090A25EE065A20EE076A30EE420ADE
:1046B00033EE000A20EE200A35EE062A90ED0C4A71
:1046C00032EE002A31EE021A80ED0E5A80ED0F6AAA
:1046D00030E09FED251A00214164D6E79FED223A94
:1046E00090ED0B4A80ED063AB4EE443AF1EE10FA42
:1046F00006DCB1EE444AB4EE443AF1EE10FA03DAC5
:10470000B0EE443A80ED064A90ED075A90ED096A02
:1047100020EE055A21EE033A30EE420A90ED0C4AA3
:1047200020EE060A35EE031A31EE001A80ED0E5A1D
:1047300080ED0F3AB4EE441AF1EE10FA80ED100A53
:1047400080ED111A04DD80ED114AB0EE441A9CE7A9
:10475000B1EE440AB4EE401AF1EE10FABCBF80ED9F
:10476000110AB0EE401A90E700000000FDF747FA8A
:10477000FFF784FDFEF73EFEFEF7B1FEFEF7D4FE26
:10478000FFF731FFFCF776FEFEF7EAFD00F011F8C7
:10479000FEE780B5012898BF012000F009FC002049
:1047A00080BD80B5012998BF012100F029FC0020BF
:1047B00080BD80B500F076FC002080BDEFF3058061
:1047C00008B100F0FCBD00F0F4BDB0B584B04369A1
:1047D0008E468BB184697CB10589D0E9001C0269E1
:1047E00028B2843D18BFC51CCDE90053604673460E
:1047F000029400F0A3FD13E00589D0E90013028ABA
:1048000028B2843D18BFC51C03AC18467346CDE9D9
:10481000005400F066FD0399012818BF00210846E6
:1048200004B0B0BDF0B581B00D4645F2003140F2A4
:104830005C56C2F20001C2F200060F6831680446FD
:10484000081D00F087FA60B9306844F21422C06A8B
:10485000C2F200020121136801FA00F023EA00000D
:104860001060601C0BD155B13068011D45F2D82095
:10487000C2F2000001B0BDE8F04000F0B6BA306806
:10488000E41944600BD340F26850C2F200000068A3
:104890003168043101B0BDE8F04000F089BA40F25F
:1048A0006050C2F2000000683168043100F080FA04
:1048B00045F2A420C2F2000001688C4238BF0460B7
:1048C00001B0F0BD2DE9F047044600F0A7FA44F22C
:1048D0000420C2F20000016840F25C57013101601F
:1048E000C2F20007396845F2CC2A40F26C56C2F297
:1048F000000AC2F2000651B1DAF8000000283DD1EA
:104900003868E16AC06A884298BF3C6036E03C6023
:104910000068012832D10025701900F03BFA1435E7
:104920008C2DF9D144F21C28C2F20008404600F058
:1049300031FA44F23029C2F20009484600F02AFA5E
:1049400045F2B820C2F2000000F024FA45F2EC2053
:10495000C2F2000000F01EFA45F2D820C2F20000B8
:1049600000F018FA40F26050C2F20000C0F8008077
:1049700040F26850C2F20000C0F8009044F21020EB
:10498000C2F20000016844F2142201310160E06AC1
:10499000C2F20002012113688140194300EB80003C
:1049A000116006EB8000211D00F01FFA00F058FA9C
:1049B000DAF8000078B13868E16AC06A88420AD241
:1049C0004EF60450CEF200004FF080510160BFF36C
:1049D0004F8FBFF36F8FBDE8F087000010B504461E
:1049E00090F85100022808BF10BD012803D038B943
:1049F000206B00F04DFA2046BDE8104000F048BAA8
:104A00004FF0500080F31188BFF36F8FBFF34F8FCB
:104A1000FEE7000044F2082540F26C5A4EF60458B6
:104A200045F2EC2744F20426C2F20005C2F2000A65
:104A3000CEF200084FF08059C2F20007C2F2000621
:104A4000286890B100F0EAF9F868C468201D00F009
:104A500081F930680138306028680138286000F03A
:104A6000FFF92046FFF7BAFFEAE7DAF8000002286C
:104A7000E6D3C8F80090BFF34F8FBFF36F8FDFE727
:104A80002DE9F0470A9C8246206B16460F46DDE969
:104A900008599100A5229846FCF7AAF9206B00EB73
:104AA0008600A0F1040020F007067FB104F1340075
:104AB000002100BF7A5C42547A5C1AB10F2901F1DF
:104AC0000101F7D1002084F8430002E0002084F8BF
:104AD00034000027201D062D28BF0625E562C4E905
:104AE000115700F062F904F1180000F05EF985F04A
:104AF0000700A06130465146424624616462E76483
:104B000084F8507000F014F9B9F1000F206018BF5C
:104B1000C9F80040BDE8F08780B545F2D022C2F266
:104B2000000200BF114612688242FBD34B68D0F8E6
:104B300004C001EB030E864503D19C440846C1F82E
:104B400004C000EB0C0393420AD140F26453C2F25A
:104B500000031B689A4203D0D2E9002363444360F8
:104B60008142026018BF086080BD000008480068EC
:104B7000006880F308884FF0000080F3148862B664
:104B800061B6BFF34F8FBFF36F8F00DF00BF000030
:104B900008ED00E081B00020009040F25010C2F219
:104BA000000000684FF0500181F31188BFF36F8F50
:104BB000BFF34F8F013001D0FEE700BF00980028FF
:104BC000FCD001B070470000F0B581B0044600F0A1
:104BD000A9FA40F26450C2F20000016849B144F2FF
:104BE0001821C2F200010978002918BF4FF00041D6
:104BF0002EE040F2F851C2F20001CA1D4B0701F548
:104C0000705318BF22F0070145F2D022C2F2000211
:104C10000027C2E9001723F00702A2F1080303608E
:104C200042E902775A1A0368C1E9003245F2A0212D
:104C3000C2F200010A6044F24421C2F200010A609B
:104C400044F21821C2F2000101220A704FF0004123
:104C5000002C4FF000055AD0214058D124F0070114
:104C600044F2442610316207C2F2000608BF04F184
:104C7000080132684B1E934249D245F2D022C2F25B
:104C8000000217687B6800BF8B4205D23C681CB1EC
:104C900063683A462746F7E70068874211D01568EF
:104CA00038685B1A112B106011D3781842070AD0AC
:104CB0004FF0500080F31188BFF36F8FBFF34F8F19
:104CC000FEE7002523E043607960FFF725FF45F20A
:104CD000A02178683268C2F200010B68121A9A4269
:104CE000326038BF0A6044F21821C2F2000109782C
:104CF00045F2AC22C2F20002002918BF40F0004089
:104D0000136800210835C7E90010581C106000F036
:104D10001FFC680709D04FF0500080F31188BFF3E3
:104D20006F8FBFF34F8F00BFFEE7284601B0F0BD85
:104D3000034644F6953021F00101C0F600004FF023
:104D4000807C03E903106FF00201A3F1440043E902
:104D500009127047D0E9013201699A60D1F804C0A4
:104D600082688445536008BF4A6000220261086877
:104D7000013808600868704745F24C23C2F200030E
:104D8000036044F24820C2F2000008604FF48060E3
:104D9000106070474FF0FF31024642F8081F0021B3
:104DA0004260C0E903220160704700210161704741
:104DB00080B5D1F800C01CF1010207D000F1080253
:104DC0009646526813686345FAD903E0D0F810E0BC
:104DD000DEF804204A609160C1F808E0CEF80410C3
:104DE000086101680131016080BDD0F800C04368EE
:104DF00008619A684B608A609A68996051600CF10A
:104E00000101016070470000DFF80C00016841F407
:104E1000700101607047000088ED00E04FF0500025
:104E200080F31188BFF36F8FBFF34F8F40F25010A4
:104E3000C2F2000001684A1C026001B170474EF6E0
:104E40000450CEF2000000680006F7D04FF050008A
:104E500080F31188BFF36F8FBFF34F8FFEE7000021
:104E600040F25010C2F20000016839B1013901600E
:104E700018BF7047002080F3118870474FF0500032
:104E800080F31188BFF36F8FBFF34F8FFEE70000F1
:104E9000B0B5D0B1044644F21820C2F20000007848
:104EA00054F8041C002818BF4FF0004008420DD0F1
:104EB000A4F108052A6892B14FF0500080F31188E0
:104EC000BFF36F8FBFF34F8FFEE7B0BD4FF05000C1
:104ED00080F31188BFF36F8FBFF34F8FFEE721EA96
:104EE000000044F8040C00F01DF944F24421C2F221
:104EF000000154F8040C0A68104408602846FFF7C3
:104F00000BFE45F2B020C2F20000016801310160E1
:104F1000BDE8B04000F01CBB4EF21000CEF2000025
:104F200000210160816040F24411C2F20001096871
:104F300044F6D352C1F26202A1FB02124FF0FF31DC
:104F400001EB92114160072101607047EFF305808A
:104F5000102814D34EF2F031CEF20001405C44F23E
:104F6000F811C2F200010978884208D24FF05000CF
:104F700080F31188BFF36F8FBFF34F8FFEE74EF6BC
:104F80000C50CEF2000044F2FC110068C2F20001A5
:104F9000096800F4E060884298BF70474FF0500005
:104FA00080F31188BFF36F8FBFF34F8FFEE70000D0
:104FB00080B5C0B144F20C21C2F200010A6842B1CE
:104FC0004FF0500080F31188BFF36F8FBFF34F8F06
:104FD000FEE70A6801320A600021FFF723FC00F0B7
:104FE000B7FA00B180BD4EF60450CEF200004FF08B
:104FF00080510160BFF34F8FBFF36F8F80BD000002
:1050000080B580B1C9B144F20C22C2F2000213682B
:10501000EBB14FF0500080F31188BFF36F8FBFF3F7
:105020004F8F00BFFEE74FF0500080F31188BFF3B1
:105030006F8FBFF34F8F00BFFEE74FF0500080F33C
:105040001188BFF36F8FBFF34F8F00BFFEE7136868
:105050000133136045F20032C2F2000212680368A5
:105060009A42194402D2994202D309E0994201D3EB
:10507000914205D90160881A0021FFF7D3FB00E0B7
:10508000016000F065FA00B180BD4EF60450CEF22A
:1050900000004FF080510160BFF34F8FBFF36F8F5F
:1050A00080BD000010B586B0002405A804A903AA9D
:1050B000CDE90444FFF760FEDDE9032005990023F4
:1050C000CDE9010144F61520C0F6000013A10094BB
:1050D00000F034F945F24821C2F200010860D8B16D
:1050E0004FF0500080F31188BFF36F8FBFF34F8FE5
:1050F00045F2A420C2F200004FF0FF31016045F2FA
:10510000CC20C2F200000121016045F20030C2F261
:105110000000046000F050F806B010BD49444C4552
:105120000000000044F20C20C2F2000001680131CE
:105130000160704744F20C20C2F20000006830B1F8
:1051400045F20430C2F2000001210160704745F2CF
:105150000430C2F200000021016044F21420C2F2C7
:1051600000000068B0FA80F0C0B2C0F11F0040F249
:105170006C5100EB8000C2F2000151F820208AB18E
:1051800001EB800151F8040F40680A1D904208604D
:1051900001D140680860C06840F25C51C2F2000171
:1051A000086070474FF0500080F31188BFF36F8F95
:1051B000BFF34F8FFEE70000B0B584B04EF600504D
:1051C000CEF200004CF27021C4F20F1102684B1CA9
:1051D0009A4208D14FF0500080F31188BFF36F8FCF
:1051E000BFF34F8FFEE702688A4208D14FF05000AC
:1051F00080F31188BFF36F8FBFF34F8FFEE74FF23D
:10520000007CCFF6FF7C10F80C2044F2F8130292D9
:10521000FF2200F80C2010F80C20C2F200038DF8D9
:1052200007209DF8072002F050021A7044F2FC1289
:10523000C2F20002072313609DF90730B3F1FF3F6C
:1052400046DC062313609DF80710013B49008DF8EA
:1052500007109DF907100029F4D4022B38D14FF420
:1052600040711160029900F80C10016A41F470015C
:105270000162016A41F070410162FFF74DFE40F2A8
:105280005014C2F2000400252560FFF7BDFD4EF664
:105290003470CEF20000016841F040410160FFF738
:1052A00065FCFFF747FF039520684FF0500181F33D
:1052B0001188BFF36F8FBFF34F8F013002D000BF53
:1052C000FEE700BF03980028FCD0002004B0B0BD6A
:1052D0004FF0500080F31188BFF36F8FBFF34F8FF3
:1052E000FEE72DE9F04383B0074690009846154647
:1052F0008946FFF769FCE0B106465420FFF764FCDD
:10530000A0B10446DDE90A100022266384F851208A
:10531000CDE90010384649462A4643460294FFF735
:10532000AFFB2046FFF7CEFA012004E03046FFF73E
:10533000AFFD4FF0FF3003B0BDE8F08370B586B02D
:105340000B9CCCB10C9E06B354250495049D542DA2
:1053500025D1049DDDF828C0022586F8515005AD01
:105360003463CDE900C50296FFF78AFB3046FFF7AC
:10537000A9FA059806B070BD4FF0500080F311886F
:10538000BFF36F8FBFF34F8FFEE74FF0500080F3F6
:105390001188BFF36F8FBFF34F8F00BFFEE74FF051
:1053A000500080F31188BFF36F8FBFF34F8F00BFA2
:1053B000FEE745F20030C2F200000068704780B599
:1053C000FFF7C4FD45F20030C2F20000006880BD66
:1053D0002DE9F04F81B044F20C20C2F200000068C9
:1053E00040B145F2B420C2F200000168002401314E
:1053F0000160A8E045F20030C2F2000001684E1CD6
:1054000006602ED340F26050C2F2000001680968C5
:1054100049B14FF0500080F31188BFF36F8FBFF395
:105420004F8F00BFFEE740F26852C2F200020168EF
:1054300013680360116045F2A821C2F200010A68F6
:1054400001320A600168096821B10068C068C0685B
:10545000406801E04FF0FF3045F2A421C2F20001A4
:10546000086045F2A421C2F20001086840F25C5ACB
:105470008642C2F2000A01D200244EE040F2605B94
:10548000C2F2000BDBF8000000240068002841D0C5
:1054900044F214290127C2F2000900BFDBF8000022
:1054A000C068D0F80C80454655F8040F86422CD3CE
:1054B0002846FFF74FFCD8F8280018B108F118006B
:1054C000FFF748FCD8F82C00D9F8001007FA00F2D2
:1054D0001143C9F8001040F26C5100EB8000C2F299
:1054E000000101EB80002946FFF77FFCD8F82C0073
:1054F000DAF80010C96ADBF800208842106828BF7B
:105500003C460028CAD14FF0FF3045F2A421C2F238
:10551000000101E04FF0FF300860DAF8000040F2CF
:105520006C51C06AC2F2000100EB800051F820000B
:10553000012845F20430C2F2000088BF012400684F
:10554000002818BF0124204601B0BDE8F08F0000FC
:105550002DE9F04F81B044F20C24C2F2000420681F
:1055600068B1FFF75BFC206801382060206880B1DB
:105570000024FFF775FC204601B0BDE8F08F4FF026
:10558000500080F31188BFF36F8FBFF34F8F00BFC0
:10559000FEE744F20420C2F2000000680028E7D0D1
:1055A00045F2B826C2F20006306845F204380028F9
:1055B000C2F2000843D044F2142540F26C5940F284
:1055C0005C5A4FF0010BC2F20005C2F20009C2F2B0
:1055D000000A00BFF068C76807F11800FFF7BAFBC0
:1055E0003C1D2046FFF7B6FBF86A29680BFA00F26B
:1055F000114300EB8000296009EB80002146FFF792
:10560000F4FBF86ADAF80010C96A884228BFC8F8C3
:1056100000B030680028DDD140F26050C2F20000D6
:105620000168096821B10068C068C068406801E08D
:105630004FF0FF3045F2A421C2F20001086045F2AC
:10564000B424C2F2000425684DB10126FFF7C0FE64
:1056500008B1C8F80060013DF8D100202060D8F8FA
:10566000000000283FF484AF4EF60450CEF2000054
:105670004FF080510160BFF34F8F0124BFF36F8F54
:1056800077E74100080218BF04200A0E18BF40F057
:1056900001004FF07F4232EA010108BF40F00200F2
:1056A000012808BF0520704710B510EE104A4FF0D2
:1056B0001A402DED028B00EB4400B0F1C85F4AD8D0
:1056C0004FF0FC40B0EB440F22D2B0EEC00AF7EE30
:1056D000000A30EEC00AF6EE000A20EE208A18EE2C
:1056E000100A00F06FFA00EE100A14F0004F1DBF10
:1056F0009FED281ADFED280AB1EE400A9FED271A28
:1057000008BFF0EE410AF8EE001A20EE210A05E08B
:1057100020EE008A9FED221ADFED220ADFED221A29
:105720009FED222A70EEC00A20EE080A08EE212A18
:10573000DFED1F1A48EE021A9FED1E2A08EE212AFD
:10574000DFED1D1A48EE021ABDEC028B40EE610A35
:1057500030EE810A10BD4FF0CC40B0EB440F82BF59
:105760009FED160ABDEC028B10BD4FF07F40B0EBF1
:10577000440F05D2BDEC028BBDE8104000F00CBA1E
:105780000120FBF7BDFBBDEC028BBDE8104000F033
:1057900009BA00000000494022AA7D3A000000003A
:1057A0000000C93F22AAFD3924FE1C3DC78AD83C0F
:1057B0001E67383D1B93993DAFAA2A3EDB0FC93FB8
:1057C00010B54FF00E402DED028BB0EE408A18EE72
:1057D000104A00EB4400B0F1506F4AD84FF0FC4043
:1057E000B0EB440F22D2B0EEC80AF7EE000A30EE5A
:1057F000C00AF6EE000A60EE208A18EE900A00F069
:10580000E1F901EE100A14F0004F1DBFDFED2D0A83
:105810009FED2D0AB1EE411ADFED2C0A08BF9FED76
:105820002C0AF8EE001A21EE218A05E0DFED290AA4
:1058300068EE088AB0EE600A9FED271ADFED271A9E
:1058400030EE080A48EE811A9FED251A08EEA11ADB
:10585000DFED241A48EE811A9FED231A08EEA11AF3
:1058600068EE281ABDEC028B01EE810A30EE200AA8
:1058700010BD4FF0E440B0EB440F0CD918EE100A05
:10588000FFF7FFFE042808BF00F094F9B0EE480AC5
:10589000BDEC028B10BD4FF07F40B0EB440F07D240
:1058A000B0EE480ABDEC028BBDE8104000F074B9C0
:1058B0000120FBF725FBBDEC028BBDE8104000F09A
:1058C00071B900000000C9BF22AAFDB90000C93F9C
:1058D00022AAFD390000000024FE1C3DC78AD83CE6
:1058E0001E67383D1B93993DAFAA2A3E70B54FF015
:1058F00068422DED048BF0EE408A18EE900AB0EE6F
:10590000608A18EE101A02EB4003B3F1654F3CBFFA
:1059100002EB4102B2F1654F7DD200BFC0F3C75325
:10592000C1F3C7529A1A1B2A09DD10F0004F14BFA9
:105930009FED830A9FED830ABDEC048B70BD12F1CD
:105940001A0F36DA11F0004F09D010F0004F0CBFDB
:105950009FED7D0A9FED7D0ABDEC048B70BD88EE46
:10596000889A19EE100AFFF78CFE042808BF00F091
:1059700021F918EE900AFFF784FE054618EE100A8A
:10598000FFF77FFE044619EE100AFFF77AFE042D9A
:1059900018BF052D08D1042C18BF052C04D10028F0
:1059A00004BF0220FBF7ACFAB0EE490ABDEC048B51
:1059B00070BD4200B2EB410F3AD910F0004F19BF51
:1059C000DFED630A9FED630ADFED630A9FED630A73
:1059D000B0EE481A0A46B1EE688A80F00041F0EE57
:1059E000418A10460A1A5200B2F1807F34D24840F0
:1059F00010F0004FDFED5A1A9FED5A2A1DBFBEEE80
:105A0000001A70EEE10A30EE420AB6EE001A08BF44
:105A100070EEA10A00E040E008BF30EE020AB0EEEE
:105A2000682A01EE482A08EE818AC2EE081A15E0BB
:105A300011F0004F04BF9FED4C0AF0EE400AD1D0A8
:105A400010F0004F19BFDFED490A9FED490ADFED65
:105A5000490A9FED490AC5E7C8EE881A21EEA11A46
:105A60009FED462ADFED462A41EE022A9FED452AA8
:105A700001EE222ADFED442A41EE022A9FED432A5D
:105A8000BDEC048B01EE222A21EE811A01EE020AFE
:105A900030EE210A30EE200A70BD4FF07F42B2EBAB
:105AA000400F28BFB2EB410F09D2F0EE480AB0EE2A
:105AB000680ABDEC048BBDE8704000F070B840EAA5
:105AC00001035B0008BF41F0FF410BD0B2EB400F78
:105AD00008BFB2EB410F08D120F0804008EE900AD9
