:020000040800F2
:1000000028CB0020310300088D5500080348000864
:100010002D5500082D1A00089191000800000000DD
:100020000000000000000000000000007102000855
:10003000791B000800000000CD020008516900088B
:100040004B0300084B0300084B0300084B03000858
:100050004B0300084B0300084B0300084B03000848
:100060004B0300084B0300084B0300084B03000838
:10007000C91A00084B0300084B0300084B03000893
:100080004B0300084B0300084B0300084B03000818
:10009000311A00084B0300084B030008A71B000897
:1000A0004B0300084B0300084B0300084B030008F8
:1000B000256A00084B0300084B0300084B030008A7
:1000C0004B0300084B0300084B0300084B030008D8
:1000D0004B0300084B0300084B0300084171000864
:1000E0004B0300084B0300084B0300084B030008B8
:1000F0004B0300084B0300084B0300084B030008A8
:100100004B0300084B0300084B0300084B03000897
:100110004B0300084B0300084B0300084B03000887
:100120004B0300084B0300084B0300084B03000877
:100130004B0300084B0300084B0300084B03000867
:100140003D1A00084B0300084B03000895550008B2
:100150004B0300084B0300084B0300084B03000847
:100160004B0300084B0300084B0300084B03000837
:100170004B0300084B0300084B030008000000007D
:100180004B0300084B03000800F002F800F060F891
:100190000AA090E8000C82448344AAF10107DA45E2
:1001A00001D100F055F8AFF2090EBAE80F0013F0D4
:1001B000010F18BFFB1A43F0010318471CDD0000B4
:1001C0003CDD00000A444FF0000C10F8013B13F036
:1001D000070408BF10F8014B1D1108BF10F8015BA0
:1001E000641E05D010F8016B641E01F8016BF9D193
:1001F00013F0080F1EBF10F8014BAD1C0C1B09D1EA
:100200006D1E58BF01F801CBFAD505E014F8016B5B
:1002100001F8016B6D1EF9D59142D6D370470000ED
:100220000023002400250026103A28BF78C1FBD8FF
:10023000520728BF30C148BF0B6070471FB50CF094
:100240003FFE9DE8030000F037FF1FBD10B510BD55
:1002500000F0DCFF1146FFF7F1FF0AF0ADFC00F003
:10026000FAFF03B4FFF7F2FF03BC01F031F800001E
:100270002C4B19680868B0E8F04F80F30988BFF389
:100280006F8F4FF0000080F311887047000000006E
:1002900008480068006880F308884FF0000080F389
:1002A000148862B661B6BFF34F8FBFF36F8F00DF64
:1002B00000BF00BF08ED00E0DFF80C00016841F46A
:1002C00070010160704700BF88ED00E0EFF3098026
:1002D000BFF36F8F134B1A681EF0100F08BF20ED8D
:1002E000108A20E9F04F106009B44FF0500080F3FD
:1002F0001188BFF34F8FBFF36F8F0BF0BBF84FF038
:10030000000080F3118809BC19680868B0E8F04F54
:100310001EF0100F08BFB0EC108A80F30988BFF3FD
:100320006F8F704708020020EFF3058070470000D0
:100330000948804709480047FEE7FEE7FEE7FEE779
:10034000FEE7FEE7FEE7FEE7FEE7FEE704480549B5
:10035000054A064B70470000156A0008890100082D
:10036000288B002028CB002028AB002028AB0020C1
:10037000B5EEC00AF1EE10FA07D2DFED1E0AB4EEB8
:10038000E00AF1EE10FAA8BF7047DFED1B0AB5EEE8
:10039000C00A60EE200ABDEEE01A11EE100AF1EE7E
:1003A00010FA38BF401E00EE100A1549F7EE001A89
:1003B000B8EEC00A30EEC00ADFED100A60EE200A87
:1003C000BCEEE00A10EE100AC0F3080000EE100ABE
:1003D00001EB8000B8EE400A90ED011A70EEC00A01
:1003E00090ED000A71EEE01A21EE800A00EE810A1B
:1003F00070470000CD024CB483F9223E0000004457
:1004000098D4000870B405880E884468D1F804C0F8
:100410005368B54208D140884988884201BF118895
:100420008D425188884203D070BC6FF00200704743
:1004300005FB00F1880827D094ED001ADCED000AD6
:1004400094ED010ADCED011A31EE201AD4ED020A16
:1004500070EE211A9CED020A83ED001AC3ED011A19
:1004600094ED031ADCED031A30EE800A401E71EEA3
:10047000210A83ED020A04F11004C3ED030A03F11B
:1004800010030CF1100CD7D111F0030030D0B0F1F3
:10049000004F30D200282BDD211F1B1FACF10402BE
:1004A00010F0010F0AD091ED010AD2ED010A091DE9
:1004B000121D30EE200A83ED010A1B1D400817D0E3
:1004C00091ED010AD2ED010A401E30EE200A83EDC3
:1004D000010A91ED020AD2ED020A01F1080102F1CE
:1004E000080230EE200A83ED020A03F10803E7D187
:1004F00070BC00207047B4EC010A401EFCEC010AFD
:1005000030EE200AA3EC010AF5D1F1E70180428028
:10051000436070472DE9F34F84B004984068009021
:10052000486801900498B0F800E04588DFEDFE0AC5
:1005300000200290B0EE600AAE4506D108884988D6
:10054000884204BF7146864504D06FF0020006B0B1
:10055000BDE8F08F01985FEA010C18BFB7EE001AF2
:100560003DD000BFBEEB0C0117D0B1F1004F80F0C1
:100570001F82002911DD021F11F0010F1CBFC2ED07
:10058000010A121D4B1006D0C2ED010AC2ED020A8B
:1005900008325B1EF8D100EB8100BCF10102A0EC37
:1005A000011A19D0B2F1004F80F00882002A13DD41
:1005B000031F12F0010F1CBFC3ED010A1B1D5110D8
:1005C00008D000BFC3ED010AC3ED020A491E03F1C2
:1005D0000803F7D100EB8200BCF1010CC2D14FF04F
:1005E00000080395002D14BFB0EE602A002000F033
:1005F000BF8100BF009908FB05F001EB800B01995A
:10060000DBED002A01EB80000346F0EE421AC645FE
:1006100052D9AEEB0802ABEB850112F0010F17D0F7
:1006200001EB850191ED000AB5EEC00AF1EE10FA7A
:1006300007DDB4EEE10AF1EE10FA09DDF0EE401A42
:1006400006E0B1EE400AF4EEC01AF1EE10FAF5D36E
:10065000521031D001EB850C9CED000AB5EEC00ABA
:10066000F1EE10FA05DDB4EEE10AF1EE10FA09DD63
:1006700006E0B1EE400AF4EEC01AF1EE10FA01D233
:10068000F0EE401A01EBC50191ED000AB5EEC00A8B
:10069000F1EE10FA05DDB4EEE10AF1EE10FA09DD33
:1006A00006E0B1EE400AF4EEC01AF1EE10FA01D203
:1006B000F0EE401A521ECDD1F5EEC01AF1EE10FA4E
:1006C00000F07381F5EEC02A0126F1EE10FA0099D0
:1006D000D4BFB1EE620AB0EE620AB4EE610AF1EE86
:1006E00010FA1CBFAEEB0802B2F1010C47D005FBBB
:1006F00008F201EB820292ED001A00BFB0EE410A4F
:1007000005FB06F4B5EEC00A00EB8404F1EE10FA26
:10071000CCBFF0EE400AF1EE400AF4EE610AF1EED1
:1007200010FA28D1B5EB080C11D0BCF1004F7DD2E6
:10073000BCF1000F0BDD00BF92ED000AD1ED000A05
:10074000BCF1010CE2EC010AA1EC010AF4D1290090
:100750000ED0B1F1004F6AD2002909DD94ED000AF4
:10076000D0ED000A491EE4EC010AA0EC010AF5D123
:10077000012002900BE0761CBCF1010CBED1029866
:10078000012804D0F5EEC02AF1EE10FA7ED09BEDE0
:10079000000AB5EB08009A465946064622D0B0F149
:1007A000004F74D200281DDD091F10F0010F06D084
:1007B000F0EE400A80EEA01A81ED011A091D4010EA
:1007C00010D000BFD1ED010A401E80EE801A81EDED
:1007D000011A91ED021AC1EE000AC1ED020A01F1FF
:1007E0000801EFD1280026D0B0F1004F7ED20028BA
:1007F00021DDAAF1040110F0010F06D0D1ED010AAC
:1008000080EE801A81ED011A091D401013D000BF3F
:10081000D1ED010A401E80EE801A81ED011AD1ED62
:10082000020A80EE801A81ED021A01E0CBE0D6E0E8
:1008300001F10801ECD1DDE900124FF000095FEA97
:100840000E0773D0C14504BF01EB860102EB8502A0
:1008500074D091ED000ADC465046331E35D01C465C
:10086000B6F1004F7ED2002C2FDD0B1FABF1040C34
:1008700016F0010F0FD0F0EE400ADCED011AB0EED9
:10088000601A00EEE11A83ED011A01E08DE0B1E09B
:100890001B1D0CF1040C741015D000BFD3ED010A20
:1008A0009CED011A40EE410AC3ED010AD3ED020AA4
:1008B0009CED021A0CF1080C40EE410AC3ED020A4D
:1008C0000833641EEAD101EB86012B0036D0B3F168
:1008D000004F72D2002B31DDA2F1040CAAF104000A
:1008E00013F0010F0CD0DCED010A00E08BE090ED7D
:1008F000011A001D40EE410ACCED010A0CF1040C76
:100900005C1019D0DCED010A90ED011A40EE410AAD
:10091000CCED010ADCED020A90ED021A083040EE3F
:10092000410ACCED020A03E0000000000DE005E002
:10093000641E0CF1080CE5D102EB830201EB880187
:100940007F1E09F101097FF47DAF009808F10108CD
:10095000001D00900398401E03907FF44BAE029957
:10096000012900E058E004BF06B0BDE8F08F00BFE9
:10097000B5EEC00AF1EE10FA7FF4E9AD04990EFB72
:1009800005F3002B4A684FF000010BD902EB810CF4
:100990009CED000AB5EEC00AF1EE10FA02D1491C36
:1009A0008B42F3D88B427FF4D2AD6FF00400CEE5DA
:1009B000E0EC010A491EFBD1EFE538E0E0EC010A6A
:1009C000521EFBD108E692ED000AD1ED000ABCF1FF
:1009D000010CE2EC010AA1EC010AF4D1B7E694EDB6
:1009E000000AD0ED000A491EE4EC010AA0EC010A5D
:1009F000F5D1BDE6D1ED000A401E80EE801AA1ECD3
:100A0000011AF7D1EEE6D3ED000A401E80EE801AFF
:100A1000A3EC011AF7D10EE7BCEC011AD1ED000AE4
:100A20005B1E40EE410AE1EC010AF5D14DE7B0EC66
:100A3000011AD2ED000A5B1E40EE410AE2EC010A07
:100A4000F5D17BE72DE9F04F82B0466853680193FA
:100A5000058847884B88002000900888874201BF9E
:100A6000B2F800C06545528893421EBF6FF0020085
:100A700002B0BDE8F08F9FED412A4FEA970EC7F311
:100A8000400B00BFDDE9000202EB800A4A6898468D
:100A90004FF00009B0EE420AB4465FEA0E0025D0DE
:100AA00092ED001ADCED001A02EB8302DCED010A84
:100AB00001EE810A92ED001A02EB8302401ED2ED94
:100AC000001A02EB830200EE810A9CED021ADCEDB3
:100AD000030A00040CF1100C000C01EE210A92ED47
:100AE000001A02EB830200EE810AD9D117F003004D
:100AF00026D0ACF10404A2EB830210F0010F08D061
:100B000002EB8302D4ED010A92ED001A241D00EEDF
:100B1000810A5FEA0B0013D002EB830CD4ED010ACB
:100B20009CED001A02EBC302401E00EE810AD4EDD8
:100B3000020A92ED001A04F1080400EE810AEBD1DA
:100B400009F10100AAEC010A1FFA80F9486800EBDC
:100B50008902A8F101001FFA80F8B8F1000F99D1BD
:100B6000009806EB8706184480B20090681E0504C2
:100B70002D0C87D102B00020BDE8F08F00000000EE
:100B800070B405880E884468D1F804C05368B54233
:100B900008D140884988884201BF11888D42518818
:100BA000884203D070BC6FF00200704705FB00F173
:100BB000880827D094ED001ADCED000A94ED010AB4
:100BC000DCED011A31EE601AD4ED020A70EE611A02
:100BD0009CED020A83ED001AC3ED011A94ED031A8D
:100BE000DCED031A30EEC00A401E71EE610A83ED9F
:100BF000020A04F11004C3ED030A03F110030CF11F
:100C0000100CD7D111F0030030D0B0F1004F30D22A
:100C100000282BDD211F1B1FACF1040210F0010F77
:100C20000AD091ED010AD2ED010A091D121D30EE24
:100C3000600A83ED010A1B1D400817D091ED010ADF
:100C4000D2ED010A401E30EE600A83ED010A91EDFB
:100C5000020AD2ED020A01F1080102F1080230EEA7
:100C6000600A83ED020A03F10803E7D170BC00209B
:100C70007047B4EC010A401EFCEC010A30EE600A39
:100C8000A3EC010AF5D1F1E72DE9F04F028847689E
:100C9000B0F802804888D1F8049082B04FF0000A82
:100CA0001646824207BF098888456FF0020002B0ED
:100CB00018BFBDE8F08F4FEA980B02EB420001909D
:100CC000C8F34000CDF8000009EB8A01BBF1000F2A
:100CD00033D0019801EB820C01EB80043B46E646E1
:100CE00001EBC2054FEA0B0093ED000A401E81EDB7
:100CF000000A93ED010A01EB02118CED000A93ED5D
:100D0000020A0CEB021C85ED000A93ED030A05EBC9
:100D1000021584ED000A04EB021403F11003E3D181
:100D20000EEB820000EB820000EB8201ABF10100D0
:100D3000504307EB0B1701EB001118F0030C21D007
:100D40003B1FA1EB82011CF0010F06D093ED010ABD
:100D500001EB82011B1D81ED000A009880B100BFEC
:100D600093ED010A01EB820401EBC20184ED000A5C
:100D700093ED020A401E81ED000A03F10803EFD152
:100D800007EB8C070AF101001FFA80FA701E0604B7
:100D9000360C99D102B00020BDE8F08F70B5064640
:100DA00000F06EF9056806F10B0020F00704B4426C
:100DB0009CBF002070BD2B466A68BAB11068A04283
:100DC00010D304F1080188423CBF5068586007D333
:100DD0005168101941601168091B01605860146066
:100DE000101D70BD13465268002AE7D121462846DF
:100DF00000F04EF90028DED170BD53EA020C00F07D
:100E000069802DE9F04B4FF00006002B1FBFB3FAAD
:100E100083F503FA05F424FA05F65E4012BF164383
:100E2000B2FA82F502FA05F4C5F120051EBF22FAD6
:100E300005FC44EA0C04203556EA044C4FEA1444FD
:100E400018BF641C4FF000084FF00009904271EB8E
:100E5000030C39D3002919BFB1FA81F701FA07F65B
:100E6000B0FA80F700FA07F6C7F120071EBF20FA94
:100E700007FC46EA0C062037B6FBF4FCA7EB050797
:100E8000103F07F01F0BCBF120060CFA0BFB2CFADE
:100E900006F644BFB3460026202FA4BF5E464FF09F
:100EA000000B5BEA060C08BF4FF0010B19EB0B09B6
:100EB000ABFB027C48EB0608C01B06FB02CC0BFB1D
:100EC00003CC71EB0C01C1E70B4602464146484694
:100ED000BDE8F08B13B54FF000004FF00001AFF309
:100EE0000080BDE81C407047032A40F2308010F0BB
:100EF000030C00F0158011F8013BBCF1020F6244B5
:100F000098BF11F801CB00F8013B38BF11F8013B45
:100F1000A2F1040298BF00F801CB38BF00F8013BF2
:100F200011F0030300F02580083AC0F0088051F862
:100F3000043B083A51F804CBA0E80810F5E7121D6D
:100F40005CBF51F8043B40F8043BAFF30080D2078C
:100F500024BF11F8013B11F801CB48BF11F8012B58
:100F600024BF00F8013B00F801CB48BF00F8012B7B
:100F7000704710B5203AC0F00B80B1E81850203A05
:100F8000A0E81850B1E81850A0E81850BFF4F5AF29
:100F90005FEA027C24BFB1E81850A0E8185044BFB3
:100FA00018C918C0BDE810405FEA827C24BF51F820
:100FB000043B40F8043B08BF7047D20728BF31F814
:100FC000023B48BF11F8012B28BF20F8023B48BF65
:100FD00000F8012B704702F0FF0343EA032242EAC4
:100FE000024200F002B84FF000020429C0F0128063
:100FF00010F0030C00F01B80CCF1040CBCF1020FCC
:1010000018BF00F8012BA8BF20F8022BA1EB0C01A0
:1010100000F00DB85FEAC17C24BF00F8012B00F896
:10102000012B48BF00F8012B70474FF0000200B5BC
:10103000134694469646203922BFA0E80C50A0E8FB
:101040000C50B1F12001BFF4F7AF090728BFA0E8A9
:101050000C5048BF0CC05DF804EB890028BF40F875
:10106000042B08BF704748BF20F8022B11F0804FB7
:1010700018BF00F8012B7047704770477047000099
:1010800000487047D08A002070477047704770470B
:1010900038B504460A4600206946AFF300800028B0
:1010A00008BF38BD02460099204600F075F80120BF
:1010B00038BD012000F0A2B8F8B5AFF300800546B6
:1010C00000200C46102000BF0646A819A0420DD9EA
:1010D000324669460020AFF30080070008BF00F0E9
:1010E0008DF80098A04218BF0546C419FFF7C8FF45
:1010F00005600746F01D20F007004619284600F05D
:101100000AF8B44208BFF8BDA21B31463868BDE8F2
:10111000F84000F041B800210160C0E901107047BB
:101120001020704770B50446051FFFF7A9FF00683F
:10113000002C14BF446870BD002C18BFAC423CBFEB
:1011400020466468F8D301680A18AA4218BF4560AF
:1011500003D12A6805461144016028684119A1425B
:101160001CBF6C6070BD61686960216808442860BC
:1011700070BD10B500F00CF8006810BD10B5044645
:1011800000F006F8046010BD00487047C88A0020CF
:1011900000487047C88A0020034640688C460028F3
:1011A00018BF88423CBF03464068F8D3186818440B
:1011B000884207D00CF1030020F00700001D411AFF
:1011C000521A0146081D0A60FFF7ACBF1FB584B074
:1011D00000200A9C06AB04AA02A90094AFF3008089
:1011E00018B1DDE9020108B010BD0348204000F04D
:1011F00040F800200146F6E70000207C10B500F022
:101200003FF8BDE8104000F02FB870477546FFF773
:10121000BBFFAE4605006946534620F007008546F1
:1012200018B020B5FFF792F8BDE820404FF0000657
:101230004FF000074FF000084FF0000B21F00701BE
:10124000AC46ACE8C009ACE8C009ACE8C009ACE801
:10125000C0098D46704710B50446AFF300802046A4
:10126000BDE81040FEF7FDBF002801D000F030B807
:10127000704710B500F04CF8BDE81040FFF7F4BF20
:1012800010B5012805D0002103A000F027F80120A7
:1012900010BD09A1F8E7000053494752544D454D90
:1012A0003A204F7574206F662068656170206D6507
:1012B0006D6F7279000000003A2048656170206D02
:1012C000656D6F727920636F7272757074656400FA
:1012D00001491820ABBEFEE72600020070B50546A6
:1012E0000C460A2000E06D1C00F068F835B1287843
:1012F0000028F8D102E0641C00F060F814B12078F6
:101300000028F8D1BDE870400A2000F057B800006E
:1013100010B5022803D0410103D50DA112E0002031
:1013200010BD010101D50FA10CE0C10001D511A133
:1013300008E0810001D512A104E0400001D513A10D
:1013400000E0002115A0FFF7C9FF012010BD00003B
:10135000496E76616C6964204F7065726174696F63
:101360006E000000446976696465204279205A6500
:10137000726F00004F766572666C6F770000000038
:10138000556E646572666C6F77000000496E657813
:1013900061637420526573756C740000534947464D
:1013A00050453A2041726974686D657469632065BF
:1013B0007863657074696F6E3A20000008B56946FD
:1013C0008DF800000320ABBE08BD000001221021F3
:1013D000014801F065BA000000000240002210211F
:1013E000014801F05DBA0000000002402DE9F04123
:1013F000FFF7F4FF802000F07BFA552000F078FA28
:10140000552000F075FAFFF7E1FF962000F0C0FBD1
:10141000FFF7E4FF802000F06BFA552000F068FA37
:10142000552000F065FAFFF7D1FF962000F0B0FBE1
:10143000FFF7D4FFB6217E2000F0A0FAFFF7C6FF29
:10144000502000F09AFBFFF7C9FF802000F050FA0F
:10145000552000F04DFA552000F04AFAFFF7B6FF8C
:10146000962000F095FBFFF7B9FF802000F040FACE
:10147000552000F03DFA552000F03AFA0446FFF7F7
:10148000A5FF962000F084FB1E2C02D0FF20BDE8B3
:10149000F0810024174FFFF7A1FF04EB4405EE197C
:1014A000785D717800F06AFAFFF790FF962000F0FF
:1014B0006FFBFFF793FF785D40F0800000F018FAB3
:1014C000552000F015FA552000F012FA0546FFF7F6
:1014D0007DFF962000F05CFB7078A84204D004EBFE
:1014E000440038448078D2E7641CE4B2062CD2D39E
:1014F0000020CCE78801002001221146014801F0BC
:10150000CFB900000004024000220121014801F08F
:10151000C7B9000000040240F8B500200090FFF7B2
:10152000F3FF6946002000F0D7F9FFF7E5FF9620AA
:1015300000F02EFBFFF7E8FF6946002000F0CCF931
:10154000FFF7DAFF962000F023FBFFF7DDFFB6215F
:10155000142000F013FAFFF7CFFF502000F00DFB2E
:10156000FFF7D2FF6946002000F0B6F9FFF7C4FF8D
:10157000962000F00DFBFFF7C7FF6946002000F042
:10158000ABF9FFF7B9FF962000F002FB9DF80000D1
:101590000F2801D0FF20F8BD0024154FFFF7B4FF3E
:1015A00004EB4405EE19785D717800F0E7F9FFF778
:1015B000A3FF962000F0ECFAFFF7A6FF785D6946DE
:1015C00000F08AF9FFF798FF962000F0E1FA7078B2
:1015D0009DF80010884204D004EB44003844807821
:1015E000F8BD641CE4B2062CD8D30020F8BD00007E
:1015F0009A0100207CB50446002000900190FFF77E
:10160000EDFE922000F074F906226946122000F0E7
:1016100051F9FFF7DBFE9DF800009DF8011040EA4C
:10162000012000B220849DF802109DF8032041EAB9
:10163000022109B261849DF804209DF8053042EA38
:10164000032212B2A28400EE100A454DF8EEC00A41
:1016500095ED000A60EE800AC4ED010A00EE901AD2
:10166000F8EEE00A60EE800AC4ED020A00EE902A6D
:10167000F8EEE00A20EE800A84ED030AFFF7AEFEE2
:10168000A22000F035F902226946222000F012F96A
:10169000FFF79CFE9DF800009DF80110C00040EA95
:1016A0005110A085B0F5806F02DBA0F50060A08529
:1016B000B4F92C00B4EE001A00EE100AF8EEC00ADD
:1016C000B3EE070A00EE810A84ED070AFFF71CFF5C
:1016D00008226946002000F0EDF8FFF70DFF9DF8A5
:1016E00000000F2814D19DF802009DF8031040EA75
:1016F0000120E0849DF804009DF8051040EA0120D7
:1017000020859DF806009DF8071040EA01206085BD
:10171000B4F92600D4ED0C0A00EE100AB8EEC01A97
:1017200095ED010A50EE010AC4ED040AB4F928004F
:10173000D4ED0D0A01EE100AB8EEC11A50EE010AFE
:10174000C4ED050AB4F92A00D4ED0E0A01EE100A20
:10175000B8EEC11A50EE010AC4ED060A7CBD0000C5
:101760008001002070B50024FFF740FE40EA040528
:10177000FFF7D2FE40EA0504022000F0FEF9002C3B
:10178000F2D1BDE87040014800F002B8A006002088
:101790007CB50446002000900190002541F2883677
:1017A000FFF71CFE922000F0A3F8062269461220E3
:1017B00000F080F8FFF70AFE9DF801009DF8001088
:1017C00041EA002020849DF803009DF8021041EAC0
:1017D000002060849DF805009DF8041041EA002077
:1017E000A084FFF791FE08226946002000F062F80D
:1017F000FFF782FE9DF800000F2838D19DF8030006
:10180000000201B29DF802000143E1849DF8050049
:101810009DF80420000200B2104320859DF80720A7
:101820009DF80630120212B21A43628500EE101AB9
:101830001E49D4ED0C0AB8EEC01A91ED010A40EE33
:10184000010AC4ED0C0A00EE900A94ED0D1AF8EEB0
:10185000E00A00EE201A84ED0D1A00EE902A94EDB5
:101860000E1AF8EEE00A00EE201A84ED0E1A01209E
:1018700000F083F96D1CADB2B54291D3D4ED0C0AE2
:101880009FED0B0A80EE801A84ED0C1AD4ED0D0A40
:1018900080EE801A84ED0D1AD4ED0E0A80EE801AC7
:1018A00084ED0E1A012020707CBD00008001002014
:1018B00000409C4570B50D46144640F0800000F095
:1018C00017F806E0552000F013F805F8010B641E28
:1018D000E4B2002CF6D170BD10B50C4640F080008B
:1018E00000F006F8552000F003F8207010BD00004D
:1018F00001B582B0002001904FF47A70009001236E
:1019000001AA02A9024802F067F99DF804000EBD81
:10191000FC0B002010B5F0EE400A9FED130A1348AF
:1019200009F058F81148124A90ED0A0A10EE101A00
:10193000914204DD9FED0F0A80ED0A0A08E0B5EE42
:10194000C00AF1EE10FA03D29FED0B0A80ED0A0AED
:1019500090ED0A0ABDE81040BCEEC00A10EE100A75
:1019600080B202F04FBF00000000204218040020A7
:101970000000FA440000FA440000000010B50C46D4
:10198000FFF7B6FF2046BDE81040FFF7B1BF0000EB
:1019900000B58BB0282101A8FFF747FB0121099171
:1019A0000020079008910190029003900490069007
:1019B00005900A9001A9104800F03EF908B100F026
:1019C000F5F80D4800F085FC02210B4800F022F9E3
:1019D0000E2006900A9001A9084800F02DF908B1E0
:1019E00000F0E4F8054800F074FC0221034800F020
:1019F00011F90BB000BD0000AC0B0020D40B00208F
:101A000008B5242000900448044B0168A3F1240287
:101A1000091D05F09BFB08BDE40C002034070020E5
:101A20000021014802F0A8BC9C0C0020FEE7000049
:101A3000014800F00DBA0000AC0B0020014800F096
:101A400007BA0000D40B002004284FF000007047B4
:101A50000020704710B500220449054805F0B6FD86
:101A60000449034805F0A4FD002010BD9C7B002024
:101A7000C06E00209C73002010B50446204603F081
:101A800057FD2146034805F093FD024805F064FD2B
:101A9000002010BDC06E00200020704710B50A461F
:101AA0000849D1F8BC12D1F81412002901D0012044
:101AB00010BD0146034805F089FDBDE8104001480E
:101AC00005F01ABEC06E0020014800F08FBC000077
:101AD000280D00200168CAB2103A1823B2FBF3F2B5
:101AE000064B9B5CC3656FF30901032A02D9091DEC
:101AF000816500E08165806D7047000090D400082A
:101B000010B5014600208A6A8B694FF0C074002B23
:101B10000ED0B3F5005F1AD062B3012A2AD0022A90
:101B200028D0032A03D1C96AC90100D5012010BDFC
:101B30001AB1012A06D0022AF9D1C96AC901F6D51B
:101B4000012010BDC96AA142FBD1012010BD52B1D4
:101B5000012A0AD0022A06D0032AF7D1C96AA14273
:101B6000F4D1012010BD012010BDC96AC901FBD507
:101B7000012010BD012010BD704770B5054600F072
:101B800097FE044600F094FE001BA842FAD370BDF5
:101B900070B5054602F028FE044602F025FE001B43
:101BA000A842FAD370BD202000F086BD72B6FEE7D1
:101BB000F6EE000A60EE200A10EE100A0649A1EBCC
:101BC000600000EE100A20EE801AF7EE080A41EEDF
:101BD000400A20EE800A7047865A375F10B50B48DE
:101BE0000168001D0468001D0068084400280BD02F
:101BF0000822074902F0EEFE054920460422BDE80E
:101C00001040103102F0E6BE10BD0000107AFF1F38
:101C1000B202002090F82020012A07D0022A05D025
:101C2000416A41F4802141620120704700684269A5
:101C30000A4342610020704710B590F82020012A25
:101C400007D0022A05D0416A41F480214162012077
:101C500010BD3C4800F50070026842F001020260CD
:101C6000026822F47C52026002684B6A42EA032254
:101C700002600A7D02F01F0301229A40C369934368
:101C8000C361A0F50070CB69B3B9D0F80C329343AF
:101C9000C0F80C328C894B6864F31F434C6900EB2D
:101CA000C404C4F840320C890B6864F31F434C69C8
:101CB00000EBC404C4F84432CB69012B16D1D0F830
:101CC0000C321343C0F80C320C884B6864F31F438A
:101CD0004C6900EBC404C4F840320C89CB6864F34F
:101CE0001F434C6900EBC404C4F844328B697BB1D8
:101CF000D0F804321343C0F804320B6973B1D0F842
:101D000014321343C0F81432096A01290CD010E0D0
:101D1000D0F804329343C0F80432EEE7D0F814321E
:101D20009343C0F81432EFE7D0F81C121143C0F807
:101D30001C12D0F8001221F00101C0F8001200209E
:101D400010BD000000640040704730B590F820409E
:101D5000012C07D0022C05D0416A41F48021416258
:101D6000012030BD21B104682469A4075FD003E0DD
:101D70000468E468A40754D04FF4D874056804EBF1
:101D800001142D5905F004059560F5B305682D592A
:101D9000ED08556005682C5904F00204D4604FF436
:101DA000DA74056804EB01142D5905F00F0515616F
:101DB00005682D59C5F30725956105682C59240C34
:101DC00054614FF4DC72046802EB0112A4581C70D9
:101DD0000468A458240A5C700468A458240C9C70FD
:101DE0000468A258120EDA704FF4DE72046802EB37
:101DF0000112A4581C710468A458240A5C71046878
:101E0000A458240C9C71046800E016E0A258120E3D
:101E1000DA71B9B10068016941F020010161002067
:101E200030BD416A41F400114162012030BD416A78
:101E300041F400114162012030BD05682D596D0D3E
:101E40001560A7E70068C16841F02001C160E6E7BE
:101E50002DE9F05F0546002428684669D0F8049013
:101E60008768D0F80CA0D0F810B0D0F81880F1072F
:101E700048D0F90714D001218160B80703D528465E
:101E800000F054FA0CE0780702D54FF4006407E044
:101E9000380702D54FF4805402E0284600F045FA96
:101EA000F80516D529684FF480708860B80503D509
:101EB000284600F03DFA0CE0780502D544F40054C1
:101EC00007E0380502D544F4804402E0284600F0DB
:101ED0002EFAF80316D529684FF480308860B803CD
:101EE00003D5284600F026FA0CE0780302D544F426
:101EF000004407E0380302D544F4803402E0284669
:101F000000F017FA300707D55FEACA6004D544F439
:101F1000007429681020C86070074FF0080707D5C3
:101F20005FEA0A7004D52868C760284600F0B8F94F
:101F3000B00706D52868C068800702D0284600F0A0
:101F4000B1F9700607D55FEACB6004D544F480642C
:101F5000296810200861B00607D55FEA0B7004D528
:101F600028680761284600F0B1F9F00606D5286810
:101F70000069800702D0284600F0A9F9B00308D50F
:101F80005FEAC96005D5296810204860284600F03E
:101F90009FF9F00307D55FEA097004D52868476008
:101FA000284600F0C8F9300446D55FEA497040D5AC
:101FB000F00504D55FEAC87001D044F00104B00513
:101FC00004D55FEA887001D544F00204700504D599
:101FD0005FEA487001D544F00404300529D518F0B3
:101FE000700F26D008F07000402815D006DC1028AD
:101FF00009D020280AD0302816D10AE050280ED067
:10200000602811D10EE044F008040DE044F0100403
:102010000AE044F0200407E044F0400404E044F007
:10202000800401E044F480742868816921F0700123
:102030008161296804204860002C05D0686A20432B
:1020400068622846FFF780FEBDE8F09F70B5044641
:10205000002C03D094F8200010B104E0012070BDE2
:10206000204600F09DF82068016841F00101016000
:1020700000F01EFC054605260CE000F019FC401B94
:102080000A2807D9606A40F40030606284F8206052
:10209000012070BD20684068C007EED0206801684C
:1020A00021F00201016000F003FC05460CE000F0A5
:1020B000FFFB401B0A2807D9606A40F400306062C9
:1020C00084F82060012070BD206840688007EED44D
:1020D000207E01283FD02068016821F08001016046
:1020E000607E01283DD02068016821F04001016038
:1020F000A07E01283BD02068016821F0200101600A
:10210000E07E012839D02068016841F010010160AB
:10211000207F012837D02068016821F00801016084
:10212000607F012835D02068016821F0040101603A
:10213000D4E902010843D4E9041211430843616859
:10214000491E08432168C86100206062012084F8AC
:102150002000002070BD2068016841F0800101600E
:10216000BEE72068016841F040010160C0E72068D7
:10217000016841F020010160C2E72068016821F098
:1021800010010160C4E72068016841F008010160A6
:10219000C6E72068016841F004010160C8E700005B
:1021A0002DE9F04186B00446142101A8FEF73DFF59
:1021B000364B374ADFF8D08018682168344C032644
:1021C0000227401C103200254FF0090C414527D151
:1021D0001860012807D1106840F000701060106886
:1021E00000F000700090206840F008002060206837
:1021F00000F0080000900196029703950496CDF830
:1022000014C001A9234800F063FA0022052114201C
:1022100000F0ECFB142000F0DBFB06B0BDE8F08121
:10222000DFF874804145F8D1116841F08061116098
:10223000116801F0806100911860012807D11068D1
:1022400040F000701060106800F00070009020688E
:1022500040F002002060206800F002000090602042
:102260000190029703950496CDF814C001A90B487C
:1022700000F02EFA00220521402000F0B7FB40209C
:1022800000F0A6FBC9E70000006400400002002047
:1022900030380240000C0240006800400004024058
:1022A0007047000010B50446064B074A002120463F
:1022B000FFF74BFD2068BDE81040024A024906F0D6
:1022C0002BBF00005C01002084060020704770478F
:1022D000704770B5044694F82000012805D0606A64
:1022E00040F400206062012070BD022084F82000CC
:1022F0002068016821F00101016000F0D9FA05466B
:102300000DE000F0D5FA401B0A2808D9606A40F4B5
:1023100000306062052084F82000012070BD206834
:102320004068C007EDD1606270BD7047704770476C
:1023300070477047704770472DE9F0410446A76D1C
:1023400000F0B6FA054694F835000026022806D0BB
:102350008020606584F834600120BDE8F081206849
:10236000016821F0160101602068416921F08001B7
:102370004161206C08B9A06C20B12068016821F08F
:10238000080101602068016821F0010101600BE093
:1023900000F08EFA401B052806D920203434206234
:1023A000032060702670D8E720680068C007EFD16E
:1023B00034343F2094F828108840B86001206070C1
:1023C00026700020C9E790F83510022903D080213B
:1023D000416501207047052180F8351000680168CB
:1023E00021F0010101600020704700002DE9F84351
:1023F00004464FF00009CDF800906F484FF4165195
:102400000068B0FBF1F7A56D2E6894F85C00082217
:1024100002FA00F1314210D02068016849070CD55A
:10242000016821F00401016094F85C0002FA00F1F7
:10243000A960606D40F00100606594F85C104FF099
:10244000010808FA01F0304208D0216849690906FC
:1024500004D5A860606D40F00200606594F85C10DF
:1024600004208840304208D021680968890704D5D3
:10247000A860606D40F00400606594F85C10102066
:102480008840304220D02168096809071CD5A8601F
:102490002068016849030CD50068000304D4216C4E
:1024A00091B1204688470FE0A16C69B1204688476A
:1024B0000AE00168C90503D4016821F00801016040
:1024C000216C09B12046884794F85C102020884090
:1024D00030424CD021680968C90648D5A86094F8F4
:1024E000350005280BD020680168490330D5006805
:1024F000000328D4616C51B32046884737E0206838
:10250000016821F0160101602068416921F0800115
:102510004161206C08B9A06C20B12068016821F0ED
:102520000801016094F85C103F208840A86084F89E
:10253000358084F83490216D00293BD001B02046CD
:10254000BDE8F0430847E16B09B1204688470EE03B
:102550000168C90507D4016821F01001016084F801
:10256000358084F83490E16B09B120468847606D6E
:1025700000281FD0606DC00714D0052084F83500F6
:102580002068016821F0010101600098401C009062
:10259000B84203D820680068C007F6D184F83580B7
:1025A00084F83490E16C002904D001B02046BDE8E5
:1025B000F0430847BDE8F883040200202DE9F0410C
:1025C000044600F075F905465CB1022084F8350038
:1025D000002684F834602068016821F00101016060
:1025E0000DE00120BDE8F08100F062F9401B0528F4
:1025F00005D920206065032084F83500F2E72068C3
:102600000068C007F0D121680A6820480240D4E978
:1026100001031843D4E903352B4318436369184376
:10262000A3691843E3691843236A18431043626A95
:10263000042A03D1D4E90B231A431043086020680D
:10264000406920F00700656A2946054301270429EF
:102650000DD1A06A0543E06A48B12046FFF750FA61
:1026600028B14020606584F835700120BAE7206801
:1026700045612046FFF72EFA94F85C203F219140F7
:102680008160666584F835700020ABE73F8010F00C
:1026900070B5044600F00CF90546601C02D00448F1
:1026A0000078044400F004F9401BA042FAD370BD46
:1026B000700200207047000010B504490A68024209
:1026C00002D00860FFF7F6FF10BD0000143C014087
:1026D0002DE9F84F0022DFF89C914FF00108032705
:1026E0004FF00F0C09F1040AA9F1040B08FA02F5E6
:1026F0000B682B40AB426ED10C7904F00304012C23
:1027000001D0022C15D18668540007FA04FE26EA8F
:102710000E06D1F80CE00EFA04FE4EEA060EC0F8E2
:1027200008E04468AC430D79C5F300159540254396
:1027300045600C79E443A40708D0C568540007FA43
:1027400004F6B5438E68A6402E43C6600C7904F0AB
:102750000304022C11D1D40800EB8406356A540717
:10276000E40E0CFA04FE25EA0E05D1F810E00EFA8C
:1027700004FE4EEA050EC6F820E00568540007FA8C
:1027800004F6B5430E7906F00306A6402E43066014
:102790004C6814F4403F67D0374C256845F48045B9
:1027A0002560246804F480440094344C22F003052E
:1027B0002E19D6F8085894074FEA147E0CFA0EF436
:1027C000A5432F4CA04201D1002424E02D4CA0426F
:1027D00002D101241FE047E02B4CA04201D102248A
:1027E00019E02A4CA04201D1032414E0284CA04255
:1027F00001D104240FE0274CA04201D105240AE0B6
:10280000254CA04201D1062405E0244CA04201D170
:10281000072400E0082404FA0EF42C43C6F8084804
:10282000D9F800409C434D68ED0200D51C43C9F81F
:102830000040DAF800409C434D68AD0200D51C43CF
:10284000CAF80040DBF800409C434D68AD0300D55A
:102850001C43CBF80040074D083D2C689C434E6854
:10286000F60300D51C432C60521C102AFFF43EAF27
:10287000BDE8F88F083C0140443802400030014078
:10288000000002400004024000080240000C024028
:10289000001002400014024000180240001C0240D8
:1028A000002A01D0816170470904816170470000EE
:1028B000014880687047000070020020024881686B
:1028C00002781144816070477002002010B50B48F7
:1028D000016841F400710160016841F480610160A8
:1028E000016841F480710160032000F09FF80F201F
:1028F00000F006F800F050F8002010BD003C024047
:1029000030B587B0054600241F48016841F0010139
:102910000160006800F00100009001A902A800F029
:102920004BFE0598B0B100F06BFE40001749B0FBBC
:10293000F1F1491E16484FF08042026040F2E73242
:10294000C260416004618460846101F081FA0446E0
:102950001CB115E000F054FEE8E70D4801F0C2FAA2
:1029600004466CB91C2000F033F8102D07D2002269
:1029700029461C2000F03AF80648056000E00124D2
:1029800007B0204630BD00004038024040420F00F2
:10299000880D00207402002082B00C48016841F4C8
:1029A00080410160006800F4804001900748001FEA
:1029B000016841F080510160006800F08050019092
:1029C00000220F21901E02B000F010B844380240DF
:1029D000002809DB00F01F0201219140400980001E
:1029E00000F1E020C0F8001170470000F0B40D467F
:1029F0000D4B1B68C3F30223C3F10704042C00D959
:102A00000424191D072901D2002300E0DB1E012642
:102A100006FA04F1491E294099409E40761E164050
:102A20003143F0BC06F0A1BC0CED00E000F0070162
:102A3000054A10684FF6FF03184040EA0120034999
:102A400008431060704700000CED00E00000FA053C
:102A50007047006841620020704770B50368586A8B
:102A6000002907D09C6A00EB144400204FF48275C3
:102A7000491E0AE040EA024098620DE005EB80063C
:102A80009E5904EB1644401CC0B28842F6D305EBB5
:102A9000810144EA02405850002070BDD0F808057A
:102AA00005F0A7B901EBC10200EB8202D0F80805DE
:102AB000D26C05F0CBB801EBC10200EB8202D0F87A
:102AC0000805D2F88C2205F02FB9D0F8080505F0DA
:102AD00092B90A0601F00F0101EBC10100EB81017F
:102AE00001D53C3101E001F51F71006806F042B9E3
:102AF00070B504460B0601F00F0000EBC00104EBBB
:102B000081014FF001024FF0000502D53C314A70BF
:102B100002E001F51F714D70087094F8BC040128A3
:102B200008D084F8BC24206805F0DCFD84F8BC548F
:102B3000002070BD022070BD70B5044601F00F008A
:102B40006268904201D9012070BD0B0601F00F01AF
:102B500001EBC10104EB81014FF001024FF00005D0
:102B600002D53C314A7002E001F51F714D708D7045
:102B7000087094F8BC04012808D084F8BC242068AC
:102B800005F0A4FF84F8BC54002070BD022070BD85
:102B900001F00F0101EBC10100EB8100D0F89C02B4
:102BA00070472DE9F04104460F0601F00F0000EBDD
:102BB000C00104EB81014FF001064FF0000502D582
:102BC0003C314E7002E001F51F714D700870CA6013
:102BD0000B714A7802B10881022B00D14D7194F833
:102BE000BC04012809D084F8BC64206805F0C6FC48
:102BF000284684F8BC54BDE8F0810220FBE770B59C
:102C00000D4605F00F0404EBC40100EB810101F552
:102C10001F710A618B6100230B624B700C7003699A
:102C2000012B00D14A612A0705D0027C006805F01B
:102C3000A5FF002070BD027C006805F091FEF8E75A
:102C400070B504460D46616805F00F00884201D951
:102C5000012070BD29064FF000064FF0010206D595
:102C600000EBC00104EB81013C314A7006E005EB4A
:102C7000C50104EB810101F51F714E708A70087067
:102C800094F8BC04012807D084F8BC24206805F01F
:102C900049FF280702D007E0022070BD217C04F222
:102CA000C442206805F0E8FE84F8BC64002070BDD2
:102CB00070B50D4605F00F0404EBC40100EB810173
:102CC0003C310A618B6100230B6201234B700C7055
:102CD0000369012B00D14A612A0705D0027C0068F4
:102CE00005F04CFF002070BD027C006805F038FE46
:102CF000F8E72DE9F84F04462568284606F0E8F87D
:102D000000287ED1206806F00FF9002879D0D5F888
:102D10000808C0F30D20C4F8FC04206806F004F98C
:102D2000800704D52068416901F0020141612068F3
:102D300006F0FAF8C10604F2C440009035D52068C8
:102D4000816921F0100181612F6A07F00F0000EB0B
:102D5000C00004EB800606F51F76C7F34340022847
:102D600002D0062812D01BE047F6F070074217D0B9
:102D7000C7F30A1217462846316906F0D9F83069B8
:102D800038443061306A3844306209E0082228460D
:102D9000009906F0CDF8306AC7F30A110844306292
:102DA0002068816941F010018161206806F0BCF85B
:102DB00000034FF0080B4FF000094FF001085ED5FB
:102DC0000026206806F08FF8824655E05FEACA7058
:102DD0004FD0F1B2206806F09FF80746F80707D0F9
:102DE00005EB4610C0F8088B3146204602F0FCFB8C
:102DF000380709D505EB4610C0F808BB3146204618
:102E000000E0F9E102F0CCFBF80604D505EB461131
:102E10001020C1F8080BB8071CD56869000605D555
:102E2000D5F8040840F48061C5F8041806EBC60024
:102E300004EB800000F51F70C178012905D180F8EE
:102E40000390F1B2204600F0DDF905EB46110220B7
:102E5000C1F8080BB80604D505EB46102021C0F8D0
:102E6000081BB80405D505EB46104FF40051C0F817
:102E7000081B761C4FEA5A0ABAF1000FA6D1206847
:102E800006F052F840036CD5206806F025F882461B
:102E9000002663E05FEACA705DD0F1B2206806F0F8
:102EA00029F80746F80723D006F00F0108FA01F0C9
:102EB000D5F834188143C5F8341805EB4610C0F82E
:102EC0000889206901280FD106EBC60004EB8000B9
:102ED000D0E912211144C16436B9606D20B920686F
:102EE0000121009A05F0C8FDF1B22046FFF7DAFD96
:102EF000380703D505EB4610C0F808B9F80604D525
:102F000005EB46111020C1F80809780604D505EB39
:102F100046104021C0F80819B80716D53146284692
:102F200005F0A2FF06EBC60004EB80003C30C17840
:102F3000012905D180F80390F1B2204600F05EF936
:102F400005EB46110220C1F80809380603D53146C1
:102F5000204602F0BBFB761C4FEA5A0ABAF1000F7A
:102F600098D1206805F0E0FF002811DAD5F80408B0
:102F700020F00101C5F8041894F8F404012829D0C0
:102F8000204600F00EFA2068416901F000414161DD
:102F9000206805F0C9FF00050BD5D5F80808C00763
:102FA00002D0204600F042FA2068416901F4006135
:102FB0004161206805F0B8FFC00461D5D5F8040868
:102FC00020F00101C5F804181021206805F04CFF1D
:102FD000002120E084F8F49400212046FFF738FD1A
:102FE000D1E705EB411000F510604FF67F328260AB
:102FF000036823F400130360C0F80822D0F800220D
:1030000022F40012C0F80022D0F8002242F0006240
:10301000C0F80022491C60688842E2D8D5F81C0834
:1030200040F00111C5F81C18206B60B1D5F8840878
:1030300040F00B01C5F88418D5F8440840F00B01A6
:10304000C5F844180CE0D5F8140842F22B010843E7
:10305000C5F81408D5F8100840F00B01C5F8101891
:10306000D5F8000820F4FE61C5F80018217C20681E
:10307000009A05F001FD2068416901F48051416129
:10308000206805F051FF800415D5206805F0B8FAD6
:10309000206805F00DFFE06000F0ACFA0146227BED
:1030A000206805F0ABFF204600F064F92068416914
:1030B00001F400514161206805F036FF000707D593
:1030C000204600F072F92068416901F00801416171
:1030D000206805F029FF000615D5A86920F08001B9
:1030E000A96101260CE006EBC60004EB800090F815
:1030F0007F02012803D1F1B22046FFF7EAFC761CDB
:103100006068B042EFD8206805F00EFFC00220D5FD
:10311000012616E005EB4610D0F8001906EBC600B4
:1031200004EB800090F84020012A09D1002907DA39
:1031300080F83F80F0B240F080012046FFF7C9FCE4
:10314000761C6068B042E5D82068416901F48011BE
:103150004161206805F0E8FE800230D5012026E0BC
:1031600005EB4011D1F8001B00EBC00204EB82021A
:1031700092F88032012B19D1002917DA94F8FC3427
:1031800001F4803103F0010399420FD182F87F826C
:10319000A96941F08002AA616969090606D4D5F8D7
:1031A000040840F40070C5F8040803E0401C61689E
:1031B0008142D5D82068416901F40011416120683D
:1031C00005F0B2FE400007D52046FFF767FC2068F7
:1031D000416901F080414161206805F0A5FE40078A
:1031E0000AD520684568680702D52046FFF76DFCC0
:1031F0002068416829434160BDE8F88FD0F8080590
:1032000004F04EBED0F8080504F05FBE2DE9F04191
:103210008AB00446002C05D0266894F8BD04002529
:1032200020B108E001200AB0BDE8F08184F8BC5468
:10323000204600F05DF8032084F8BD04F06BC00563
:1032400000D42561206805F085FB04F110012822D7
:1032500088466846FDF78DFE94E80F0005F0DEF91C
:10326000022718B184F8BD740120DCE70021206832
:1032700005F07DFE002101260DE001EBC10004EB0D
:1032800080003C304670017001810571C5600561A8
:103290008561491CC9B260688842EED800210DE002
:1032A00001EBC10004EB800000F51F704570017058
:1032B0000571C56005618561491CC9B260688842B5
:1032C000EED8282241466846FDF753FE94E80F00E9
:1032D00005F088FA18B184F8BD740120A3E784F8DA
:1032E000385084F8BD64206805F06EFA00209AE733
:1032F00010B586B00446142101A8FDF796FE20689B
:10330000B0F1A04F2FD100211848026842F001020D
:103310000260006800F0010000904FF4C05001907E
:10332000022002900391032004900A20059001A935
:103330000F48FFF7CDF90D48001D016841F08001ED
:1033400001600A481430016841F48041016000685E
:1033500000F480400090002205214320FFF746FB47
:103360004320FFF735FB06B010BD000030380240A7
:103370000000024070B504460125E06800280ED028
:10338000022801D0FEF712FC2946D4F8080504F003
:103390000DFED4F80805BDE8704004F0C0BD00255E
:1033A000F2E7D0F8080504F0EABDD0F8080504F00B
:1033B000F0BD10B5044694F8BC0401280BD00120E0
:1033C00084F8BC0484F83810206805F000FE002062
:1033D00084F8BC0410BD022010BDD0F8082500F20E
:1033E000C441104604F0EEBD10B50446206894F8C0
:1033F000BC14012906D0012184F8BC14A16A01295A
:1034000002D008E0022010BDA169012903D0816B20
:1034100041F480318163206805F0FEFC206805F0EE
:10342000C5F9002084F8BC0410BD000010B50446A6
:10343000D4F8080504F008FE2068D0F8001E41F01A
:103440000101C0F8001E206A002804D0024801686B
:1034500041F00601016010BD10ED00E07047000072
:103460002DE9F04704460D46002C13D0DFF82891D3
:10347000D9F80000EFB200F00700A8420CD289F89A
:103480000070D9F8000000F00700A84204D0012025
:10349000BDE8F0870120FBE72068404E810712D588
:1034A000400703D5306840F4E050306020780007D2
:1034B00003D5306840F4604030603068A16820F087
:1034C000F000084330602078C00731D0334960688D
:1034D0000839012808D002280BD0032809D0096830
:1034E00089070BD40120D3E70968890306D401209A
:1034F000CEE70968890101D40120C9E7316821F0CC
:10350000030101433160FFF7D3F9804641F2883A65
:1035100007E0FFF7CDF9A0EB0800504501D90320E3
:10352000B6E73068616800F00C00B0EB810FF0D1B5
:10353000D9F8000000F00700A84209D989F8007006
:10354000D9F8000000F00700A84201D001209FE751
:103550002078400705D53068E16820F4E050084342
:1035600030602078000706D53068216920F460407B
:1035700040EAC100306000F063F83168084AC1F3E6
:103580000311515CC8400749086007480068FFF70D
:10359000B7F900207CE70000003C024008380240F8
:1035A00078D40008040200207402002001490120A0
:1035B000C8647047000047420F2202600B4A13683C
:1035C00003F003034360136803F0F00383601368A0
:1035D00003F4E053C360126802F46042D20802614F
:1035E0000348006800F00700086070470838024090
:1035F000003C0240014800687047000004020020BF
:1036000000B5FFF7F7FF04490968044AC1F38221B6
:10361000515CC84000BD00000838024088D4000852
:1036200000B5FFF7E7FF04490968044AC1F34231D6
:10363000515CC84000BD00000838024088D4000832
:1036400010B51748006810F00C01164816D0164B3C
:10365000042912D0082911D1114C241F216801F02E
:103660003F02216849020AD52068C0F38810A0FBF8
:1036700003010023FDF7C1FB09E0184610BD2168D6
:103680000023C1F38811A1FB0001FDF7B6FB2168FF
:10369000C1F30141491C4900B0FBF1F010BD00002D
:1036A000083802400024F400001BB70010B505489C
:1036B0000068000605D5FFF7D1FE02498020891C6D
:1036C000087010BD0C3802402DE9F84F0446002C5C
:1036D00013D02078DFF8A083C007A8F1040556D0E6
:1036E00008F104000168C1F3810101290CD00068D0
:1036F000C0F38100022803D00DE00120BDE8F88F5F
:10370000D8F80000400206D5286880033FD56068DD
:1037100070BB0120F2E76068B0F5803F10D0B0F5D3
:10372000A02F12D0286820F480302860286820F468
:10373000802028606068E0B1FFF7BAF8064614E020
:10374000286840F480302860F4E7286840F480203E
:103750002860286840F480302860EBE7FFF7A8F87D
:10376000801B642801D90320C8E728688003F5D5A9
:103770000DE0FFF79DF8064606E0FFF799F8801B7D
:10378000642801D90320B9E728688003F5D420789C
:10379000BA4F80074FF0000948D5B748001D0168AF
:1037A00011F00C0F08D00068C0F38100022813D17B
:1037B000D8F8000040020FD42868800704D5E068DC
:1037C000012801D0012099E72868216920F0F8003C
:1037D00040EAC100286029E0E068B8B10120386003
:1037E000FFF766F8064606E0FFF762F8801B02283E
:1037F00001D9032082E728688007F5D52868216968
:1038000020F0F80040EAC10028600FE0C7F80090FF
:10381000FFF74EF8064606E0FFF74AF8801B02283D
:1038200001D903206AE728688007F5D420780007CB
:1038300029D5DFF844A2924861690AF1700A89B17A
:1038400001210160FFF734F8064606E0FFF730F883
:10385000801B022801D9032050E7DAF80000800716
:10386000F4D510E0C0F80090FFF722F8064606E015
:10387000FFF71EF8801B022801D903203EE7DAF883
:1038800000008007F4D42078400778D54FF0000A74
:1038900079483C300068C0000BD477483C30016860
:1038A00041F080510160006800F0805000904FF0BE
:1038B000010ADFF8D0B1DBF80000C00514D4DBF852
:1038C000000040F48070CBF80000FEF7F1FF0646E0
:1038D00006E0FEF7EDFF801B022801D903200DE76B
:1038E000DBF80000C005F4D5634EA0686C360128F3
:1038F0000FD0052812D0306820F001003060306809
:1039000020F004003060A068F8B1FEF7D1FF8346D4
:1039100017E0306840F001003060F4E7306840F0B4
:1039200004003060306840F001003060EBE7FEF7E3
:10393000BFFFA0EB0B0141F28830814201D9032087
:10394000DCE630688007F2D510E0FEF7B1FF834671
:1039500009E0FEF7ADFFA0EB0B0141F28830814298
:1039600001D90320CAE630688007F2D4BAF1010F0A
:1039700005D141483C30016821F080510160A069C7
:10398000C0B33D49091D09684FF0FF36C1F38101FD
:10399000022946D0022805D0C7F86090FEF788FFBC
:1039A00004463AE0C7F86090FEF782FF814607E0E0
:1039B000FEF77EFFA0EB0900022801D903209DE657
:1039C00028688001F4D4D4E907010843616AA26A37
:1039D000890106EB520241EA0241084394F82C1097
:1039E00040EA0160C8F8000001203866FEF760FF79
:1039F000044607E03DE0FEF75BFF001B022801D90B
:103A000003207BE628688001F5D532E0FEF750FF01
:103A1000001B022801D9032070E628688001F5D434
:103A200027E0012823D0D8F80000E26900F48001E3
:103A300091421AD1226A00F03F01914215D147F616
:103A4000C071626A0140B1EB821F0ED1A26A00F41C
:103A5000403106EB5202B1EB024F06D194F82C1024
:103A600000F07060B0EB016F03D0012046E601204A
:103A700044E6002042E600000438024000004742CD
:103A8000800E47420070004070B50446002C09D0FB
:103A9000606A002540B125616561A56294F8510016
:103AA00040B10CE0012070BD6068B0F5827FF4D0B9
:103AB000E561F2E784F85050204600F045F8022016
:103AC00084F851002068016821F040010160A0885D
:103AD000218900F4827001F404410843A18901F4B2
:103AE00000610843217C01F002010843217D01F0BF
:103AF00001010843218B01F400710843217F01F08B
:103B00003801084394F8201001F080010843218D0A
:103B100001F40051084321680860A069042101EA0A
:103B2000104094F8241001F0100108432168486007
:103B30002068C16921F40061C1616565012084F8D4
:103B40005100002070BD0000F0B587B0044614217C
:103B500002A8FDF76AFA1C492068884232D1002782
:103B60001A48016841F480510160006800F48050F7
:103B7000019016481438016841F0020101600168A3
:103B800001F002010191016841F00101016000684A
:103B900000F001000190182002900226039604977D
:103BA000032505950524069402A90948FEF790FD12
:103BB00080200290039604970595069402A9054873
:103BC000FEF786FD07B0F0BD0030014044380240EA
:103BD00000040240000002402DE9F84F04460A9E0E
:103BE0008A4693461F4601254FF0000894F850007E
:103BF00001280ED0012084F85000FEF759FE8146BE
:103C000094F85100616801280DD0B1F5827F07D189
:103C100002E00220BDE8F88FA16809B9042802D0AB
:103C20004FF00208C3E0BAF1000F28D0BBF1000F3B
:103C300025D0380023D094F85100042802D0052064
:103C400084F8510000206065C4F838B0E787A78782
:103C5000C4F830A0E786A786206460642068016805
:103C6000490603D4016841F040010160E068B0F505
:103C7000006F07D06068E8B3012F48D07DE04FF0B7
:103C8000010894E0606808B1012F39D1206B2168E8
:103C90000088C860206B801C2063E08E401EE08698
:103CA0002EE02068816889070DD5E18E59B1012D7C
:103CB00009D1216B0988C160206B801C2063E08ED4
:103CC000401EE086002520688168C9070BD0E18F7F
:103CD00049B1C068A16B0880A06B801CA063E08F15
:103CE000401EE0870125FEF7E3FDA0EB0900B0428E
:103CF00006D300E00BE0701C02D04FF0030856E042
:103D0000E08E0028CDD1E08F0028CAD13BE0206BA7
:103D1000216800780873206B401C2063E08E401EF1
:103D2000E0862AE02068816889070DD5E18E59B1C7
:103D3000012D09D1216B09780173206B401C206390
:103D4000E08E401EE086002520688168C9070BD000
:103D5000E18F49B1C068A16B0870A06B401CA063E3
:103D6000E08F401EE0870125FEF7A2FDA0EB0900D1
:103D7000B04201D3701C11D186B1E08E0028D1D1A0
:103D8000E08F0028CED14A463146204602F0B8FAEC
:103D900038B14FF001082020606508E04FF00308BB
:103DA00005E0A06818B92068C1688068009001200B
:103DB000503460700020207040462BE770477047F9
:103DC00070B590F83C20012A31D0012680F83C6083
:103DD000022280F83D2002685468936824F0700540
:103DE0000C682C435460134C0268A24214D0B2F108
:103DF000804F11D0104CA2420ED0104CA2420BD0DA
:103E00000F4CA24208D00F4CA24205D00E4CA24249
:103E100002D00E4CA24204D123F08003496819431A
:103E200091603C30467000210170002070BD02207E
:103E300070BD000000000140000400400008004088
:103E4000000C004000040140004001400018004008
:103E500010B50446002C03D094F83D0010B107E0E3
:103E6000012010BD002084F83C00204600F016F828
:103E7000022084F83D00211D206802F0D9FD0120B8
:103E80003D3460726070A070E07020716071A0714C
:103E9000E07120722070002010BD000008B500689D
:103EA0000D49884209D10D48016841F004010160C3
:103EB000006800F00400009008BD09498842FBD169
:103EC0000648001D016841F400310160006800F4FB
:103ED0000030009008BD000000080040403802405B
:103EE0000044014090F83D10012901D001207047A5
:103EF000022180F83D100168CA6842F00102CA60E0
:103F000000681449884214D0B0F1804F11D0124992
:103F100088420ED0114988420BD01149884208D0FE
:103F20001049884205D01049884202D00F49884282
:103F300009D1816801F00701062908D0016841F024
:103F40000101016003E0016841F00101016000200E
:103F500070470000000001400004004000080040DD
:103F6000000C0040000401400040014000180040E7
:103F700070B50446002594F83C00012817D00126AE
:103F800084F83C60022084F83D002068826822F0BA
:103F9000770222F47F4282600868502838D00DDC16
:103FA000202853D005DC90B3102811D14EE0022018
:103FB00070BD30284AD040280AD13DE0602831D079
:103FC00070280CD0B0F5805F03D0B0F5005F12D040
:103FD00001253C34667000202070284670BDCB68F7
:103FE000D1E90121206802F096FD2068816841F046
:103FF00077018160EDE7CB68D1E90121206802F00B
:104000008AFD2068816841F480418160E1E71DE01C
:10401000CA684968206802F061FE5021206802F0F9
:1040200084FDD6E7CA684968206802F068FE60210E
:10403000206802F07AFDCCE7CA684968206802F07F
:104040004DFE4021206802F070FDC2E72268014663
:10405000104602F06AFDBCE7704770B50446206860
:1040600001694FF00005C943890716D4C168C943E7
:10407000890712D4E91E0161012020772068806938
:10408000800703D02046FFF7E7FF05E0204600F059
:10409000DFF8204600F06FF9257720680169C943F1
:1040A000490718D4C168C943490714D46FF0040103
:1040B0000161022020772068806910F4407F03D0DE
:1040C0002046FFF7C9FF05E0204600F0C1F8204672
:1040D00000F051F9257720680169C943090717D411
:1040E000C168C943090713D46FF0080101610420B6
:1040F00020772068C069800703D02046FFF7ACFF17
:1041000005E0204600F0A4F8204600F034F92577B9
:1041100020680169C943C90618D4C168C943C906E2
:1041200014D46FF010010161082020772068C06965
:1041300010F4407F03D02046FFF78EFF05E02046B5
:1041400000F086F8204600F016F92577206801690E
:10415000C943C90708D1C168C943C90704D1891E29
:104160000161204600F076F920680169C94309061B
:1041700009D4C168C943090605D46FF08001016103
:104180002046FFF71BFE20680169C943490609D490
:10419000C168C943490605D46FF04001016120465A
:1041A00000F05FF920680169C94389060BD4C16832
:1041B000C943890607D46FF0200101612046BDE89C
:1041C0007040FFF7FCBD70BD30B587B004461421C8
:1041D00002A8FCF72AFF194D206819490222012381
:1041E0000324A84213D1086840F00800086008685A
:1041F00000F008000190500302900392049305948C
:10420000069202A90F48FEF763FA07B030BD0E4DC3
:10421000A842FAD1086840F020000860086800F061
:10422000200001904020029003920493059206948E
:1042300002A90648FEF74CFAE7E700000008004034
:1042400030380240000C024000440140001402409B
:10425000704770B504460D46002694F83C000128CE
:104260000FD0012084F83C006AB1042A1FD0082A2C
:1042700032D00C2A44D00126002084F83C0030467D
:1042800070BD022070BD2946206802F057FC2068EE
:10429000816941F0080181612068816921F0040190
:1042A0008161206881692A6911438161E4E72946B7
:1042B000206802F077FC2068816941F40061816127
:1042C0002068816921F480618161206881692A699F
:1042D00041EA02218161CFE72946206802F09CFC77
:1042E0002068C16941F00801C1612068C16921F0FD
:1042F0000401C1612068C1692A691143C161BBE73A
:104300002946206802F0C0FC2068C16941F40061C0
:10431000C1612068C16921F48061C1612068C169FF
:104320002A6941EA0221C161A6E710B50446002CC2
:1043300003D094F83D0010B107E0012010BD00202B
:1043400084F83C00204600F015F8022084F83D0077
:10435000211D206802F06CFB01203D34607260700A
:10436000A070E07020716071A071E0712072207007
:10437000002010BD7047704710B50446002909D0D1
:1043800004290AD008290BD094F8410001280AD04A
:10439000012010BD94F83E00F8E794F83F00F5E7DF
:1043A00094F84000F2E70220A9B3042937D0082985
:1043B00038D084F841000122206802F09FFB1E499A
:1043C00020681E4A884201D0904203D1436C43F4D6
:1043D000004343642068884213D0B0F1804F10D06E
:1043E000174988420DD0174988420AD01649884299
:1043F00007D0904205D01549884202D0144988421E
:1044000013D1816801F00701062912D0016841F03B
:10441000010101600DE0FFE784F83E00CBE784F87E
:104420003F00C8E784F84000C5E7016841F001019A
:104430000160002010BD00000000014000040140A8
:104440000004004000080040000C00400040014013
:10445000001800400068B0F1804F01D1FEF72EBA7D
:104460007047704710B504460C482268824202D15A
:10447000204604F055FE012020632068C16841F009
:104480001001C1602068416941F040014161A06BA9
:104490000068016841F00101016010BD0048004062
:1044A00070470000F8B5044622681068D168536967
:1044B00000F00F06002E08D1850606D58D0604D51E
:1044C0002046BDE8F84002F01DBD0025002E66D054
:1044D00003F0010601F49077374360D0C20705D09E
:1044E000CA0503D5226C42F001022264420705D5B9
:1044F000DA0703D0226C42F002022264820705D55B
:10450000DA0703D0226C42F004022264020707D5C6
:1045100001F02002324303D0226C42F008022264F0
:10452000226C002A31D0800604D5880602D52046A8
:1045300002F0E8FC20684069C0F38010216C090794
:1045400000D438B3204602F0A9FC20684069400638
:104550001CD52068143050E8001F21F0400140E8CD
:104560000012002AF5D1A06B60B157490165A06B1C
:10457000FDF729FF002808D0A06B016D01B0BDE850
:10458000F04008472046FFF78BFFF8BD2046FFF7B5
:1045900087FFF8BD2046FFF783FF2564F8BD236B36
:1045A000012B7ED1C3067CD5CB067AD51068506826
:1045B000009050694FF02003400643D5A16B086876
:1045C000406880B20028E9D0A28D8242E6D9E08519
:1045D000C869B0F5807F2DD020680C3050E8001FEE
:1045E00021F4807140E80012002AF5D120681430CF
:1045F00050E8001F21F0010140E80012002AF5D127
:104600002068143050E8001F21F0400140E80012FB
:10461000002AF5D184F83E30256320680C3050E83C
:10462000001F21F0100140E80012002AF5D1A06B14
:10463000FDF782FEA08DE18D401A81B22046FFF782
:1046400011FFF8BDA08DE18D401A81B2E08D0028E8
:10465000F7D00029F5D020680C3050E8002F22F464
:10466000907240E80026002EF5D12068143050E802
:10467000002F22F0010240E80026002EF5D184F838
:104680003E30256320680C3050E8002F22F01002E5
:1046900040E80023002BF5D12046FFF7E3FEF8BDEC
:1046A000FFE7020606D50A0604D52046BDE8F84015
:1046B00002F016BD4006F2D54806F0D52046BDE80A
:1046C000F84002F012BC00008D6E000870B5044680
:1046D000002C04D094F83D00002510B106E0012024
:1046E00070BD84F83C50204600F022F8242084F865
:1046F0003D002068C16821F40051C160204602F0ED
:1047000065FC2068016921F49041016120684169DC
:1047100021F02A0141612068C16841F40051C16063
:104720002564202084F83D0084F83E00002070BD00
:1047300070B586B00646142101A8FCF776FC244922
:104740003068884241D100252248016841F4802127
:104750000160006800F4802000901E481038016855
:1047600041F004010160006800F0040000904FF483
:1047700040600190022002900395032004900720DE
:10478000059001A91448FDF7A3FF154C13482060BC
:104790004FF000606060A560E560401420616561D5
:1047A000A5618010E061256265622046FDF706FF85
:1047B00008B1FDF7FBF9B463A663002205212720A9
:1047C000FEF714F92720FEF703F906B070BD0000CC
:1047D0000048004040380240000802402860024083
:1047E000280D00207047704710B5FEF761F84FF0B4
:1047F0008041496A00EB4002C2EBC01001EBC000EF
:1048000010BDFEE702460021014804F0C2BC0000D2
:104810009C0C002010B51249124800F051FC1148C0
:104820000F49203000F04CFC0E480D49403000F09C
:1048300047FC0C480C4A0221603000F0BFFF0A4AD6
:104840000848903ABDE81040A2F190019FED071A88
:10485000DFED070AB2EE040AB03001F0CBB9000078
:1048600000000020B80300202C010020002474491F
:104870006F12833A2DED048B82B000200090FFF779
:10488000C9FF4D4800F1200940309FED4C9AA0F13E
:10489000880404F1340B04F1280A00F1700600F5D5
:1048A000FC77DFF81C819FED478ADFED478A474D93
:1048B000019006F0AFF900904448FCF79BFE95ED9F
:1048C000010A3D4800F00EFC84ED0D0A95ED020A48
:1048D000484600F007FC84ED0E0A95ED030A0198A6
:1048E00000F000FC84ED0F0AD5E905122869C4E93F
:1048F0000B12A0623048B0EE490A5A465146B03019
:1049000001F0D6F9D7E905123869C4E90812E06167
:1049100096ED680A20EE080A84ED000A96ED660A14
:1049200020EE080A84ED010AD6ED670A60EE880AD7
:10493000C4ED030AD4ED100A70EE600A10EE900A7E
:10494000404505D9B4F84400401CA4F8440009E0EF
:1049500010EE900A1E49884204DDB4F84400401E5F
:10496000A4F8440084ED100AB4F9440000EE900A63
:10497000F8EEE00A00EEA80A84ED020A94ED0A0AB5
:1049800020EE080A84ED040A94ED0C0A20EE080AD1
:1049900084ED050A94ED0B0A20EE080A84ED060A60
:1049A0000098C00703D195ED070AFCF7B3FF01217A
:1049B000684606F022F97CE7B80300206F12833ABC
:1049C000000034C3E12E65420000B443A00600207D
:1049D00000003443F0B500230A2530263727002491
:1049E00012E0B5EB107F04D906EB107C01F813C080
:1049F00003E007EB107C01F813C0000101EB430C4E
:104A00008CF801405B1CDBB29342EAD3F0BD2DE988
:104A1000F04104460D4616461F460420208008201B
:104A20006080002D00D017B9FE2084F8C4002571E5
:104A30006671A77100202062012204F12003114653
:104A400004F11800FBF762FD20887843FCF7A6F913
:104A5000E06021887943FCF7E8FA20886843FCF796
:104A60009DF9C4F8C80021886943FCF7DEFA217972
:104A7000012204F12C00D4F8C830FBF747FD208850
:104A80006843FCF78BF9C4F8CC0021886943FCF734
:104A9000CCFA2179012204F13400D4F8CC30FBF7B0
:104AA00035FD20887843FCF779F9C4F8D4002188D3
:104AB0007943FCF7BAFAA179012204F14400D4F851
:104AC000D430FBF723FD607988B320887043FCF76E
:104AD00065F9206121887143FCF7A7FA20887043AB
:104AE000FCF75CF9C4F8D00021887143FCF79DFA0B
:104AF0006179012204F13C00D4F8D030FBF706FDC7
:104B0000218805FB06F006464843FCF747F90246B4
:104B1000C4F8D800218810467143FCF786FA627900
:104B2000217904F14C00D4F8D830FBF7EFFC208851
:104B300005FB05F67043FCF731F9C4F8DC00218869
:104B40007143FCF772FA217904F154000A46D4F853
:104B5000DC30FBF7DBFC20887043FCF71FF9C4F85E
:104B6000E00021887143FCF760FA217904F15C00D0
:104B70000A46D4F8E030FBF7C9FC218807FB05F0B2
:104B800080464843FCF70AF9C4F8E400218801FB99
:104B900008F1FCF74AFA2279A17904F16400D4F80B
:104BA000E430FBF7B3FC208805FB07F800FB08F0B6
:104BB000FCF7F4F8C4F8E800218801FB08F1FCF7E1
:104BC00034FAA279217904F16C00D4F8E830FBF7CB
:104BD0009DFC20887043FCF7E1F8C4F8EC002188C4
:104BE0007143FCF722FA217904F174000A46D4F8E3
:104BF000EC30FBF78BFC20887043FCF7CFF8C4F84F
:104C0000F00021887143FCF710FA217904F17C004F
:104C10000A46D4F8F030FBF779FC20887043FCF7A3
:104C2000BDF8C4F8F40021887143FCF7FEF921793E
:104C300004F184000A46D4F8F430FBF767FC2088BE
:104C40007F437843FCF7AAF8C4F8F8002188794339
:104C5000FCF7EBF9A17904F18C000A46D4F8F8309E
:104C6000FBF754FC208800FB08F0FCF797F8C4F829
:104C7000FC00218801FB08F1FCF7D7F9A279217922
:104C800004F19400D4F8FC30FBF740FC2188207933
:104C900041434843FCF782F8C4F800012288217997
:104CA0004A435143FCF7C1F9217904F19C000A46BB
:104CB000D4F80031FBF72AFC21882079414348438E
:104CC000FCF76CF8C4F80401228821794A43514367
:104CD000FCF7ABF9217904F1A4000A46D4F80431B9
:104CE000FBF714FC2188207941434843FCF756F830
:104CF000C4F80801228821794A435143FCF795F909
:104D0000217904F1AC000A46D4F80831FBF7FEFB28
:104D1000208821794843FCF741F8C4F80C01218828
:104D200022795143FCF781F92179012204F1B40081
:104D3000D4F80C31FBF7EAFB208821794843FCF7D3
:104D40002DF8C4F81001218822795143FCF76DF940
:104D50002179012204F1BC00D4F81031FBF7D6FB15
:104D600020886843FCF71AF8C4F8340121886943A5
:104D7000BDE8F041FCF759B92DE9F047044694F835
:104D80001401400756D404F16C0104F164000D468F
:104D90000746FBF779FF683484F85C0034F8040CAC
:104DA000A087E08AE087683C04F1A40204F17C015A
:104DB000164688463846FBF745FE6E3484F85600A2
:104DC000E08EE0872088A4F840006E3C04F1AC023D
:104DD000174629463046FBF735FE8C3484F83800F8
:104DE00020882082608860828C3C04F19C0291467D
:104DF00004F18C013846FBF705FB6E3484F856004D
:104E000039464846FBF786FB84F85600E089E08681
:104E100020882087324629464046FBF713FE84F857
:104E200056006E3C04F1940239463046FBF70AFE08
:104E300084F8C400BDE8F08710B504462288A07944
:104E4000E1684243D4F8D400FCF793F82188A079B4
:104E50004143E068FCF7E9F86079002808D022882F
:104E600021694243D4F8D000BDE81040FCF781B876
:104E700010BD2DE9F041044694F81401C0062AD46F
:104E800034F8940F208234F82E0C6082943C04F1A4
:104E9000A402154604F1640104F19400FBF7D2FD6D
:104EA0007E3484F84600E08CE085208820867E3CB5
:104EB00004F1AC0204F17C0116460F462846FBF7CC
:104EC000C1FD84F8C40004F1740231463846FBF792
:104ED00057FE84F8C400BDE8F0812DE9F041044696
:104EE00094F8140180072BD404F15C0104F1540000
:104EF0000D460746FBF7C8FE84F8C40004F17C02A7
:104F0000164604F174013846FBF79CFD683484F8BA
:104F10005C00A08AA08734F80A0CE087683C04F1A2
:104F2000A402174629463046FBF78CFD84F8C400DE
:104F3000324604F184013846FBF764FA84F8C40071
:104F4000BDE8F08110B504462046FFF775FFD4F8A0
:104F5000181109B120468847204600F076F8D4F8A9
:104F60001C1109B1204688472046FFF7B6FFD4F848
:104F7000201109B1204688472046FFF7FDFED4F8EE
:104F8000241109B120468847204600F01EF8D4F8C5
:104F9000281109B1204688472046FFF76AFFD4F858
:104FA0002C1109B120468847D4F8301109B12046A8
:104FB000884722882079D4F8C8104243D4F83401B5
:104FC000FBF7D7FFD4F8340110BD2DE9F0410446BA
:104FD00094F81401000736D4B4F86400A4F8B400BF
:104FE0000125A4F8B65004F1B40204F134011646C8
:104FF0000F4604F16400FBF725FDA634A07734F8D2
:10500000620CE0822583A63C04F1BC029046314646
:1050100004F14400FBF7B4FD943484F83000208898
:1050200020846584943C3246414604F19400FBF7A9
:1050300009FD84F8C40004F12C0231463846FBF720
:10504000E1F984F8C400BDE8F0812DE9F04104469F
:1050500094F81401C0072AD1627904F12C0104F1FB
:10506000540004F1340522B32279A4F8B4200126B7
:10507000A4F8B66004F1B4021746FBF7E3FC84F829
:10508000C4002079A4F8B400A4F8B66004F1BC020E
:10509000164604F13C0104F14C00FBF7D3FC04F884
:1050A000C40F2A4631463846FBF7ACF92070BDE8FC
:1050B000F0812A46FBF7C6FC84F8C400F7E700003D
:1050C000D1E900238968C0E90523C1619FED040A85
:1050D00080ED010A00218160C1600161704700001C
:1050E0000000000080ED010A0178002907D180ED61
:1050F000020A80ED030A80ED040A01210170D0ED5F
:10510000030AC0ED020A90ED041A80ED031AD0EDF7
:10511000061A61EEA00AD0ED051A41EE810A90ED63
:10512000071A41EE000AC0ED040AB0EE600A7047AB
:1051300010B5FCF775FCFCF72BFCFCF761FC00F0EC
:10514000B5F9BDE81040FCF70DBB000010B51048E4
:105150000E4901600321416000218160C1604FF46C
:10516000102202614FF40012426101760122427660
:105170008176C17601774177FCF768FF002803D07C
:10518000BDE81040FCF712BD10BD000000640040F7
:10519000AC0B002010B510480E490160032141609E
:1051A00000218160C1604FF4102202614FF40012AF
:1051B00042610176012242768176C176017741779C
:1051C000FCF744FF002803D0BDE81040FCF7EEBC1C
:1051D00010BD000000680040D40B002008B509484D
:1051E000016841F400110160006800F400100090B3
:1051F000002205210C20FDF7F9FBBDE808400C203A
:10520000FDF7E6BB3038024010B58EB01C220B49CA
:1052100007A8FBF7AEFE002107A805F007FD084C24
:1052200020601C2205491C316846FBF7A2FE0021C4
:10523000684605F0FBFC60600EB010BD40D400086D
:10524000F8010020F0B587B0142102A8FBF7EDFEAD
:105250003148016841F002010160016801F002017A
:105260000191016841F008010160016801F0080145
:105270000191016841F004010160016801F004013D
:105280000191016841F001010160016801F0010133
:105290000191016841F080010160016801F0800125
:1052A0000191016841F020010160006800F02000D8
:1052B00001901A4F012210213846FDF7F1FA184EDD
:1052C000012211463046FDF7EBFA1020029001242E
:1052D000039404940225059502A93846FDF7F8F9D0
:1052E000302002904FF404100390049402A90D485A
:1052F000FDF7EEF9029403940494059502A9304653
:10530000FDF7E6F9002205211720FDF76FFB1720B6
:10531000FDF75EFB07B0F0BD3038024000000240F0
:10532000000402400008024010B510480E49016018
:105330004FF48271416000218160C16001610122EE
:105340004261520282611022C26101624162816245
:105350000A21C162FEF798FB002803D0BDE8104087
:10536000FCF724BC10BD000000300140FC0B002005
:1053700010B588B01C2101A8FBF757FE1548144949
:105380000160532141600024846044F61F61C160C4
:1053900004618461FEF75CFD08B1FCF707FC0D4871
:1053A000FEF7C3FF08B1FCF701FC602001900294F6
:1053B00003940594002201A90648FEF74AFF08B1AC
:1053C000FCF7F4FB0348FEF7FFFE08B010BD000039
:1053D000004401409C0C002010B58EB000240A94BB
:1053E0000B940C940D94089409941C2101A8FBF7CC
:1053F0001CFE1E481C490160A7214160846040F2E8
:10540000CF71C16004618461FEF722FD08B1FCF731
:10541000CDFB4FF480500A900AA91448FEF7A8FD6E
:1054200008B1FCF7C3FB1148FEF77FFF08B1FCF79A
:10543000BDFB0894099408A90C48FEF7C1FC08B10B
:10544000FCF7B4FB602001900294039405940822B9
:1054500001A90648FEF7FDFE08B1FCF7A7FB0348CB
:10546000FEF7B2FE0EB010BD00080040540C002044
:1054700010B50C480A4901600B4941600021816068
:10548000C16001610C2242618161C161FFF71EF9B7
:10549000002803D0BDE81040FCF788BB10BD000019
:1054A00000480040E40C0020A086010000B585B053
:1054B00014216846FBF7B9FD4FF48050009001209D
:1054C0000190022002900320039069461248FDF7E4
:1054D000FFF80A20FDF7DCF800221049104802F01E
:1054E0008FFB08B1FCF762FB0E490D4802F0D6FDB8
:1054F00008B1FCF75BFB0C49094802F04DF808B114
:10550000FCF754FB064802F09FFE002801D0FCF790
:105510004DFB05B000BD0000000002407C020020F1
:10552000C06E002038030020CC020020FEE70000FF
:1055300070B505460C462846216805F0CBFF0128CA
:105540000BD1064928780978884206D12946226875
:10555000BDE870400148FBF7C7BC70BDAC0100203E
:1055600010B504464FF6FF721A21204605F004FBE1
:1055700060831C2221460448FBF7B6FCBDE81040BE
:105580001C210148FCF78ABADC060020FEF78EF8E1
:10559000FEE700000148FDF7ACBB0000BC85002021
:1055A00070B504462068056C00EB4110D0F8081B6C
:1055B0000C4EB54205D9090403D54FF40041C0F89B
:1055C000081B2046FDF709FFB54208D920690128CC
:1055D00005D104F2C4420121206803F04DFA0020F5
:1055E00070BD00000A30544F2DE9F04105460C46CD
:1055F0002E68306C06EB4411D1F8083BD5F81080CA
:105600004FF400474FF0200C05F2C442B8F1010FEF
:1056100008D0DFF8B080404545D118043AD5C1F82C
:10562000087B4CE0284E5FEA037806D5B04246D9A5
:10563000180444D5C1F8087B41E05FEA836802D5CD
:10564000C1F808CB3BE013F0280F38D1B04204D9A1
:10565000180402D5C1F8087B31E004EBC40005EB67
:10566000800000F51F70D1F8101BC369C1F312014F
:10567000591A016224B983693BB10269114401617D
:10568000E1B22846FDF717FA19E00121286803F076
:10569000F3F9F5E7980601D5C1F808CBE1B2284641
:1056A000FDF709FA0BE034B9D5F8940218B90021D6
:1056B000304603F0E1F9E1B22846FDF7FCF900209D
:1056C000BDE8F0810A31544F0A30544F2DE9F84FAC
:1056D00080460E46D8F8007006EBC60008EB800442
:1056E0003C34A169206A884202D90120BDE8F88FC4
:1056F000081AE168814200D20846C01C4FEA900AAD
:1057000007EB461916E0151AE268AA4200D21546C0
:10571000E81C4FEA900A98F810000090ABB2F2B281
:105720003846216903F0E4FC206928442061206A9E
:1057300028442062D9F8180980B2504505D3A269DF
:10574000206A904201D2002ADDD1216AA0698842F4
:1057500008D806F00F0101208840D7F8341881439B
:10576000C7F834180020C1E70021C1600161416120
:105770009FED060A80ED060A80ED070A80ED080A13
:1057800080ED090A80ED0A0A704700000000000061
:10579000816A21F00042C2F1FF42D20F002A09D1F2
:1057A0004FF07F42B2EB410F01D1012100E0002117
:1057B000012902D1022180F84610704770B50446D5
:1057C000154621700648E0640648A0642046FFF7AD
:1057D000CBFFA36C29462046984784F8460070BD4D
:1057E00069570008E95700080278002A1DD0E1B186
:1057F00091ED000A80ED0B0A91ED010A80ED0C0A93
:1058000091ED020A80ED0D0A91ED030A80ED0E0A7A
:1058100091ED040A80ED0F0A91ED050A80ED100A62
:105820000021A0F8441000207047012070470000BC
:1058300010B50446903434F8901C14F88C0C414395
:10584000E06FFBF7F2FBE06B90ED000AD0ED010A90
:1058500020EE000A00EEA00AD0ED020A00EEA00A37
:10586000D0ED030A00EEA00AFCF7A2F9E06F80ED8C
:10587000000AE06BD0ED000A20EE800A80ED000AFD
:10588000E06BE16F90ED010AD1ED000A20EE200AF5
:1058900080ED010AE06BE16F90ED020AD1ED000AA4
:1058A00020EE200A80ED020AE06BE16F90ED030A22
:1058B000D1ED000A20EE200A80ED030AE06BB6EE7F
:1058C000000A14ED221AD0ED010AE06C60EE800AA5
:1058D00060EE810AC0ED040AE06B14ED221AD0EDEF
:1058E000020AE06C60EE800A60EE810AC0ED050AF3
:1058F000E06BFEEE000A54ED221A90ED001AE06C07
:1059000021EE201A21EE211A80ED0A1AE06B54EDE7
:10591000221A90ED031AE06C21EE001A21EE211AF2
:1059200080ED0B1AE06B54ED221A90ED031AE06C37
:1059300021EE201A21EE211A80ED101AE06B54EDB1
:10594000221A90ED001AE06C21EE201A21EE211AA5
:1059500080ED111AE06B90ED021AE06C21EE000A66
:1059600014ED221A20EE010A80ED160AE06B90ED8C
:10597000010AE06C20EE200A54ED220A20EE200AF3
:1059800080ED170AE06D0F4B903C016F9FED0E0A02
:105990000E4ADFED0F0A994202DD80ED1C0A03E09A
:1059A000914201D9C0ED1C0AD4F8EC00D0F88C105B
:1059B000994202DD80ED230A10BD9142FCD9C0ED71
:1059C000230A10BD00401C4600401C4600401CC677
:1059D00000401CC62DE9F0410446A43420892080F3
:1059E00001256580A43C04F1A40204F1AC00164634
:1059F00004F1BC010746FBF725F8AC34207625817D
:105A000020886081AC3C04F1B40188463846FBF73D
:105A10003BF984F8C40004F1180231464046FBF714
:105A200011F884F8C40094ED090AB6EE001AD4ED1A
:105A3000080A20EE011AF4EEC10AF1EE10FA01D2C2
:105A400084F82950F4EEC00A0020F1EE10FA30DD9F
:105A500094F8291069B3217D29B194F82810491CC4
:105A600084F8281001E084F8280094F828103229DE
:105A700007D9F53404F8CC0CE07F20F01000E07773
:105A80003DE0228820794243D4E93201FBF771FAE4
:105A90002288207942434243D4E93B01FBF769FA6B
:105AA00094F8140140F0100084F814010120BDE8BE
:105AB000F0819FED141A20EE011AF4EEC10AF1EE06
:105AC00010FA0FDD94F8291061B19FED0F1A70EEF6
:105AD000600AD4F80C1120EE010A80EE801A81EDE4
