:020000040800F2
:1000000020CB00207102000861820008A56E000864
:10001000DD810008AD1B000851EF00080000000062
:10002000000000000000000000000000019A00082D
:10003000791E0008000000007187000889A50008EB
:100040008B0200088B0200088B0200088B0200085C
:100050008B0200088B0200088B0200088B0200084C
:100060008B0200088B0200088B0200088B0200083C
:10007000211D00088B0200088B0200088B0200087B
:100080008B0200088B0200088B0200088B0200081C
:10009000B11B00088B0200088B020008ED1E00084F
:1000A0008B0200088B0200088B0200088B020008FC
:1000B00099A600088B0200088B0200088B0200083A
:1000C0008B0200088B0200088B0200088B020008DC
:1000D0008B0200088B0200088B02000819B300088D
:1000E0008B0200088B0200088B0200088B020008BC
:1000F0008B0200088B0200088B0200088B020008AC
:100100008B0200088B0200088B0200088B0200089B
:100110008B0200088B0200088B0200088B0200088B
:100120008B0200088B0200088B0200088B0200087B
:100130008B0200088B0200088B0200088B0200086B
:10014000CD1B00088B0200088B020008D982000832
:100150008B0200088B0200088B0200088B0200084B
:100160008B0200088B0200088B0200088B0200083B
:100170008B0200088B0200088B02000800000000C0
:100180008B0200088B02000800F002F800F060F813
:100190000AA090E8000C82448344AAF10107DA45E2
:1001A00001D100F055F8AFF2090EBAE80F0013F0D4
:1001B000010F18BFFB1A43F001031847BC4B0100A5
:1001C000DC4B01000A444FF0000C10F8013B13F027
:1001D000070408BF10F8014B1D1108BF10F8015BA0
:1001E000641E05D010F8016B641E01F8016BF9D193
:1001F00013F0080F1EBF10F8014BAD1C0C1B09D1EA
:100200006D1E58BF01F801CBFAD505E014F8016B5B
:1002100001F8016B6D1EF9D59142D6D370470000ED
:100220000023002400250026103A28BF78C1FBD8FF
:10023000520728BF30C148BF0B6070471FB513F08D
:10024000CDFD9DE8030000F0B5FE1FBD10B510BD4B
:1002500000F05AFF1146FFF7F1FF0FF0E9F900F047
:1002600078FF03B4FFF7F2FF03BC00F0AFFF00001C
:100270000948804709480047FEE7FEE7FEE7FEE73A
:10028000FEE7FEE7FEE7FEE7FEE7FEE70448054976
:10029000054A064B7047000085A600088901000842
:1002A000208B002020CB002020AB002020AB0020A2
:1002B000B5EEC00AF1EE10FA07D2DFED1E0AB4EE79
:1002C000E00AF1EE10FAA8BF7047DFED1B0AB5EEA9
:1002D000C00A60EE200ABDEEE01A11EE100AF1EE3F
:1002E00010FA38BF401E00EE100A1549F7EE001A4A
:1002F000B8EEC00A30EEC00ADFED100A60EE200A48
:10030000BCEEE00A10EE100AC0F3080000EE100A7E
:1003100001EB8000B8EE400A90ED011A70EEC00AC1
:1003200090ED000A71EEE01A21EE800A00EE810ADB
:1003300070470000CD024CB483F9223E0000004417
:100340006840010870B405880E884468D1F804C07C
:100350005368B54208D140884988884201BF118856
:100360008D425188884203D070BC6FF00200704704
:1003700005FB00F1880827D094ED001ADCED000A97
:1003800094ED010ADCED011A31EE201AD4ED020AD7
:1003900070EE211A9CED020A83ED001AC3ED011ADA
:1003A00094ED031ADCED031A30EE800A401E71EE64
:1003B000210A83ED020A04F11004C3ED030A03F1DC
:1003C00010030CF1100CD7D111F0030030D0B0F1B4
:1003D000004F30D200282BDD211F1B1FACF104027F
:1003E00010F0010F0AD091ED010AD2ED010A091DAA
:1003F000121D30EE200A83ED010A1B1D400817D0A4
:1004000091ED010AD2ED010A401E30EE200A83ED83
:10041000010A91ED020AD2ED020A01F1080102F18E
:10042000080230EE200A83ED020A03F10803E7D147
:1004300070BC00207047B4EC010A401EFCEC010ABD
:1004400030EE200AA3EC010AF5D1F1E701804280E9
:10045000436070472DE9F34F84B0049840680090E2
:10046000486801900498B0F800E04588DFEDFE0A86
:1004700000200290B0EE600AAE4506D10888498897
:10048000884204BF7146864504D06FF0020006B072
:10049000BDE8F08F01985FEA010C18BFB7EE001AB3
:1004A0003DD000BFBEEB0C0117D0B1F1004F80F082
:1004B0001F82002911DD021F11F0010F1CBFC2EDC8
:1004C000010A121D4B1006D0C2ED010AC2ED020A4C
:1004D00008325B1EF8D100EB8100BCF10102A0ECF8
:1004E000011A19D0B2F1004F80F00882002A13DD02
:1004F000031F12F0010F1CBFC3ED010A1B1D511099
:1005000008D000BFC3ED010AC3ED020A491E03F182
:100510000803F7D100EB8200BCF1010CC2D14FF00F
:1005200000080395002D14BFB0EE602A002000F0F3
:10053000BF8100BF009908FB05F001EB800B01991A
:10054000DBED002A01EB80000346F0EE421AC645BF
:1005500052D9AEEB0802ABEB850112F0010F17D0B8
:1005600001EB850191ED000AB5EEC00AF1EE10FA3B
:1005700007DDB4EEE10AF1EE10FA09DDF0EE401A03
:1005800006E0B1EE400AF4EEC01AF1EE10FAF5D32F
:10059000521031D001EB850C9CED000AB5EEC00A7B
:1005A000F1EE10FA05DDB4EEE10AF1EE10FA09DD24
:1005B00006E0B1EE400AF4EEC01AF1EE10FA01D2F4
:1005C000F0EE401A01EBC50191ED000AB5EEC00A4C
:1005D000F1EE10FA05DDB4EEE10AF1EE10FA09DDF4
:1005E00006E0B1EE400AF4EEC01AF1EE10FA01D2C4
:1005F000F0EE401A521ECDD1F5EEC01AF1EE10FA0F
:1006000000F07381F5EEC02A0126F1EE10FA009990
:10061000D4BFB1EE620AB0EE620AB4EE610AF1EE46
:1006200010FA1CBFAEEB0802B2F1010C47D005FB7B
:1006300008F201EB820292ED001A00BFB0EE410A0F
:1006400005FB06F4B5EEC00A00EB8404F1EE10FAE7
:10065000CCBFF0EE400AF1EE400AF4EE610AF1EE92
:1006600010FA28D1B5EB080C11D0BCF1004F7DD2A7
:10067000BCF1000F0BDD00BF92ED000AD1ED000AC6
:10068000BCF1010CE2EC010AA1EC010AF4D1290051
:100690000ED0B1F1004F6AD2002909DD94ED000AB5
:1006A000D0ED000A491EE4EC010AA0EC010AF5D1E4
:1006B000012002900BE0761CBCF1010CBED1029827
:1006C000012804D0F5EEC02AF1EE10FA7ED09BEDA1
:1006D000000AB5EB08009A465946064622D0B0F10A
:1006E000004F74D200281DDD091F10F0010F06D045
:1006F000F0EE400A80EEA01A81ED011A091D4010AB
:1007000010D000BFD1ED010A401E80EE801A81EDAD
:10071000011A91ED021AC1EE000AC1ED020A01F1BF
:100720000801EFD1280026D0B0F1004F7ED200287A
:1007300021DDAAF1040110F0010F06D0D1ED010A6C
:1007400080EE801A81ED011A091D401013D000BF00
:10075000D1ED010A401E80EE801A81ED011AD1ED23
:10076000020A80EE801A81ED021A01E0CBE0D6E0A9
:1007700001F10801ECD1DDE900124FF000095FEA58
:100780000E0773D0C14504BF01EB860102EB850261
:1007900074D091ED000ADC465046331E35D01C461D
:1007A000B6F1004F7ED2002C2FDD0B1FABF1040CF5
:1007B00016F0010F0FD0F0EE400ADCED011AB0EE9A
:1007C000601A00EEE11A83ED011A01E08DE0B1E05C
:1007D0001B1D0CF1040C741015D000BFD3ED010AE1
:1007E0009CED011A40EE410AC3ED010AD3ED020A65
:1007F0009CED021A0CF1080C40EE410AC3ED020A0E
:100800000833641EEAD101EB86012B0036D0B3F128
:10081000004F72D2002B31DDA2F1040CAAF10400CA
:1008200013F0010F0CD0DCED010A00E08BE090ED3D
:10083000011A001D40EE410ACCED010A0CF1040C36
:100840005C1019D0DCED010A90ED011A40EE410A6E
:10085000CCED010ADCED020A90ED021A083040EE00
:10086000410ACCED020A03E0000000000DE005E0C3
:10087000641E0CF1080CE5D102EB830201EB880148
:100880007F1E09F101097FF47DAF009808F101088E
:10089000001D00900398401E03907FF44BAE029918
:1008A000012900E058E004BF06B0BDE8F08F00BFAA
:1008B000B5EEC00AF1EE10FA7FF4E9AD04990EFB33
:1008C00005F3002B4A684FF000010BD902EB810CB5
:1008D0009CED000AB5EEC00AF1EE10FA02D1491CF7
:1008E0008B42F3D88B427FF4D2AD6FF00400CEE59B
:1008F000E0EC010A491EFBD1EFE538E0E0EC010A2B
:10090000521EFBD108E692ED000AD1ED000ABCF1BF
:10091000010CE2EC010AA1EC010AF4D1B7E694ED76
:10092000000AD0ED000A491EE4EC010AA0EC010A1D
:10093000F5D1BDE6D1ED000A401E80EE801AA1EC93
:10094000011AF7D1EEE6D3ED000A401E80EE801AC0
:10095000A3EC011AF7D10EE7BCEC011AD1ED000AA5
:100960005B1E40EE410AE1EC010AF5D14DE7B0EC27
:10097000011AD2ED000A5B1E40EE410AE2EC010AC8
:10098000F5D17BE72DE9F04F82B0466853680193BB
:10099000058847884B88002000900888874201BF5F
:1009A000B2F800C06545528893421EBF6FF0020046
:1009B00002B0BDE8F08F9FED412A4FEA970EC7F3D2
:1009C000400B00BFDDE9000202EB800A4A6898464E
:1009D0004FF00009B0EE420AB4465FEA0E0025D09F
:1009E00092ED001ADCED001A02EB8302DCED010A45
:1009F00001EE810A92ED001A02EB8302401ED2ED55
:100A0000001A02EB830200EE810A9CED021ADCED73
:100A1000030A00040CF1100C000C01EE210A92ED07
:100A2000001A02EB830200EE810AD9D117F003000D
:100A300026D0ACF10404A2EB830210F0010F08D021
:100A400002EB8302D4ED010A92ED001A241D00EEA0
:100A5000810A5FEA0B0013D002EB830CD4ED010A8C
:100A60009CED001A02EBC302401E00EE810AD4ED99
:100A7000020A92ED001A04F1080400EE810AEBD19B
:100A800009F10100AAEC010A1FFA80F9486800EB9D
:100A90008902A8F101001FFA80F8B8F1000F99D17E
:100AA000009806EB8706184480B20090681E050483
:100AB0002D0C87D102B00020BDE8F08F00000000AF
:100AC00070B405880E884468D1F804C05368B542F4
:100AD00008D140884988884201BF11888D425188D9
:100AE000884203D070BC6FF00200704705FB00F134
:100AF000880827D094ED001ADCED000A94ED010A75
:100B0000DCED011A31EE601AD4ED020A70EE611AC2
:100B10009CED020A83ED001AC3ED011A94ED031A4D
:100B2000DCED031A30EEC00A401E71EE610A83ED5F
:100B3000020A04F11004C3ED030A03F110030CF1DF
:100B4000100CD7D111F0030030D0B0F1004F30D2EB
:100B500000282BDD211F1B1FACF1040210F0010F38
:100B60000AD091ED010AD2ED010A091D121D30EEE5
:100B7000600A83ED010A1B1D400817D091ED010AA0
:100B8000D2ED010A401E30EE600A83ED010A91EDBC
:100B9000020AD2ED020A01F1080102F1080230EE68
:100BA000600A83ED020A03F10803E7D170BC00205C
:100BB0007047B4EC010A401EFCEC010A30EE600AFA
:100BC000A3EC010AF5D1F1E72DE9F04F028847685F
:100BD000B0F802804888D1F8049082B04FF0000A43
:100BE0001646824207BF098888456FF0020002B0AE
:100BF00018BFBDE8F08F4FEA980B02EB420001905E
:100C0000C8F34000CDF8000009EB8A01BBF1000FEA
:100C100033D0019801EB820C01EB80043B46E646A1
:100C200001EBC2054FEA0B0093ED000A401E81ED77
:100C3000000A93ED010A01EB02118CED000A93ED1D
:100C4000020A0CEB021C85ED000A93ED030A05EB8A
:100C5000021584ED000A04EB021403F11003E3D142
:100C60000EEB820000EB820000EB8201ABF1010091
:100C7000504307EB0B1701EB001118F0030C21D0C8
:100C80003B1FA1EB82011CF0010F06D093ED010A7E
:100C900001EB82011B1D81ED000A009880B100BFAD
:100CA00093ED010A01EB820401EBC20184ED000A1D
:100CB00093ED020A401E81ED000A03F10803EFD113
:100CC00007EB8C070AF101001FFA80FA701E060478
:100CD000360C99D102B00020BDE8F08F70B5064601
:100CE00000F04CF9056806F10B0020F00704B4424F
:100CF0009CBF002070BD2B466A68BAB11068A04244
:100D000010D304F1080188423CBF5068586007D3F3
:100D10005168101941601168091B01605860146026
:100D2000101D70BD13465268002AE7D1214628469F
:100D300000F02CF90028DED170BD53EA020C00F05F
:100D400069802DE9F04B4FF00006002B1FBFB3FA6E
:100D500083F503FA05F424FA05F65E4012BF164344
:100D6000B2FA82F502FA05F4C5F120051EBF22FA97
:100D700005FC44EA0C04203556EA044C4FEA1444BE
:100D800018BF641C4FF000084FF00009904271EB4F
:100D9000030C39D3002919BFB1FA81F701FA07F61C
:100DA000B0FA80F700FA07F6C7F120071EBF20FA55
:100DB00007FC46EA0C062037B6FBF4FCA7EB050758
:100DC000103F07F01F0BCBF120062CFA06F60CFAA9
:100DD0000BFB44BFB3460026202FA4BF5E464FF056
:100DE000000B5BEA060C08BF4FF0010B19EB0B0977
:100DF00048EB0608ABFB027C06FB02CC0BFB03CCEA
:100E0000C01B71EB0C01C1E70B4602464146484648
:100E1000BDE8F08B13B5084318BF4FF0FF30014613
:100E2000AFF30080BDE81C407047032A40F23080D9
:100E300010F0030C00F0158011F8013BBCF1020F1B
:100E4000624498BF11F801CB00F8013B38BF11F89C
:100E5000013BA2F1040298BF00F801CB38BF00F8B3
:100E6000013B11F0030300F02580083AC0F0088030
:100E700051F8043B083A51F804CBA0E80810F5E714
:100E8000121D5CBF51F8043B40F8043BAFF30080F7
:100E9000D20724BF11F8013B11F801CB48BF11F86C
:100EA000012B24BF00F8013B00F801CB48BF00F83C
:100EB000012B704710B5203AC0F00B80B1E81850F4
:100EC000A0E81850B1E81850A0E81850203ABFF434
:100ED000F5AF5FEA027C24BFB1E81850A0E81850D3
:100EE00044BF18C918C0BDE810405FEA827C24BF27
:100EF00051F8043B40F8043B08BF7047D20728BFB5
:100F000031F8023B48BF11F8012B28BF20F8023B03
:100F100048BF00F8012B704702F0FF0343EA0322A9
:100F200042EA024200F002B84FF0000200B5134658
:100F300094469646203922BFA0E80C50A0E80C50F9
:100F4000B1F12001BFF4F7AF090728BFA0E80C50AA
:100F500048BF0CC05DF804EB890028BF40F8042BA3
:100F600008BF704748BF20F8022B11F0804F18BF10
:100F700000F8012B70477047704770470048704772
:100F8000E0020020704770477047704738B504464C
:100F90000A4600206946AFF30080002808BF38BD2C
:100FA00002460099204600F075F8012038BD012066
:100FB00000F0A2B8F8B5AFF30080054600200C465B
:100FC000102000BF0646A819A0420DD93246694636
:100FD0000020AFF30080070008BF00F08DF80098F4
:100FE000A04218BF0546C419FFF7C8FF05600746B1
:100FF000F01D20F007004619284600F00AF8B44218
:1010000008BFF8BDA21B31463868BDE8F84000F0C3
:1010100041B800210160C0E90110704710207047FD
:1010200070B50446051FFFF7A9FF0068002C14BF28
:10103000446870BD002C18BFAC423CBF20466468B9
:10104000F8D301680A18AA4218BF456003D12A687C
:1010500005461144016028684119A1421CBF6C601B
:1010600070BD6168696021680844286070BD10B572
:1010700000F00CF8006810BD10B5044600F006F84A
:10108000046010BD00487047D80200200048704737
:10109000D8020020034640688C46002818BF8842CA
:1010A0003CBF03464068F8D318681844884207D00C
:1010B0000CF1030020F00700001D411A521A0146EE
:1010C000081D0A60FFF7ACBF1FB584B000200A9C62
:1010D00006AB04AA02A90094AFF3008018B1DDE9C1
:1010E000020108B010BD0348204000F040F8002085
:1010F0000146F6E70000207C10B500F03FF8BDE89F
:10110000104000F02FB870477546FFF7BBFFAE46A2
:1011100005006946534620F00700854618B020B503
:10112000FFF7B4F8BDE820404FF000064FF000078D
:101130004FF000084FF0000BAC46ACE8C009ACE83B
:10114000C009ACE8C009ACE8C00921F007018D4630
:10115000704710B50446AFF300802046BDE810404C
:10116000FFF77FB8002801D000F030B8704710B505
:1011700000F04CF8BDE81040FFF7F4BF10B50128AF
:1011800005D0002103A000F027F8012010BD09A11F
:10119000F8E7000053494752544D454D3A204F75EA
:1011A00074206F662068656170206D656D6F72795F
:1011B000000000003A2048656170206D656D6F7217
:1011C0007920636F7272757074656400014918202C
:1011D000ABBEFEE72600020070B505460C460A20AD
:1011E00000E06D1C00F068F835B128780028F8D1CF
:1011F00002E0641C00F060F814B120780028F8D1F7
:10120000BDE870400A2000F057B8000010B5022871
:1012100003D0410103D50DA112E0002010BD010152
:1012200001D50FA10CE0C10001D511A108E081009A
:1012300001D512A104E0400001D513A100E0002176
:1012400015A0FFF7C9FF012010BD0000496E7661AF
:101250006C6964204F7065726174696F6E00000084
:10126000446976696465204279205A65726F00008E
:101270004F766572666C6F7700000000556E64658E
:1012800072666C6F77000000496E65786163742048
:10129000526573756C7400005349474650453A20B7
:1012A00041726974686D65746963206578636570FF
:1012B00074696F6E3A20000008B569468DF8000029
:1012C0000320ABBE08BD000080B50020C4F20200C0
:1012D0001021012202F0C4F980BD000080B5002079
:1012E000C4F202001021002202F0BAF980BD000011
:1012F00080B588B000208DF81E00FFF7EFFF80203A
:10130000049000F073FB5520059000F06FFB0598EA
:1013100000F06CFB8DF81E00FFF7D6FF96200690BC
:1013200000F0BEFDFFF7DAFF049800F05FFB0598C0
:1013300000F05CFB059800F059FB8DF81E00FFF7EC
:10134000C3FF069800F0ACFDFFF7C8FF7E20B62172
:1013500000F0B4FBFFF7B8FF502000F08FFDFFF75F
:10136000BDFF049800F042FB059800F03FFB059894
:1013700000F03CFB8DF81E00FFF7A6FF069800F07A
:101380008FFDFFF7ABFF049800F030FB059800F0ED
:101390002DFB059800F02AFB8DF81E00FFF794FF47
:1013A000069800F07DFD9DF81E001E2804D0FFE782
:1013B000FF208DF81F005CE000208DF81D00FFE786
:1013C0009DF81D00052850DCFFE7FFF787FF9DF81B
:1013D0001D0000EB400240F20000C2F2000003904A
:1013E0008118805C497800F069FBFFF76DFF96205B
:1013F000029000F055FDFFF771FF03989DF81D1056
:1014000001EB4101405C40F0800000F0EFFA552014
:10141000019000F0EBFA019800F0E8FA8DF81E0058
:10142000FFF752FF029800F03BFD03999DF81E0064
:101430009DF81D2002EB42021144497888420DD0EC
:10144000FFE79DF81D0000EB400140F20000C2F2F2
:101450000000084480788DF81F000AE0FFE79DF83F
:101460001D0001308DF81D00AAE700208DF81F0037
:10147000FFE79DF81F0008B080BD000080B540F276
:101480000040C4F202000122114602F0E9F880BDDA
:1014900080B540F20040C4F202000121002202F0B7
:1014A000DFF880BD80B586B0002002908DF8160070
:1014B000FFF7EEFF02980DF11601039100F084FA98
:1014C000FFF7DCFF9620049000F0EAFCFFF7E0FF56
:1014D0000298039900F078FAFFF7D0FF049800F023
:1014E000DFFCFFF7D5FF1420B62100F0E7FAFFF785
:1014F000C5FF502000F0C2FCFFF7CAFF0298039915
:1015000000F062FAFFF7BAFF049800F0C9FCFFF799
:10151000BFFF0298039900F057FAFFF7AFFF049856
:1015200000F0BEFC9DF816000F2804D0FFE7FF2056
:101530008DF8170053E000208DF81500FFE79DF8A7
:101540001500052847DCFFE7FFF7A2FF9DF815000F
:1015500000EB400240F24000C2F20000019081180E
:10156000805C497800F0AAFAFFF788FF9620009087
:1015700000F096FCFFF78CFF01989DF8151001EB29
:101580004101405C0DF1160100F01EFAFFF776FFF5
:10159000009800F085FC01999DF816009DF8152033
:1015A00002EB42021144497888420DD0FFE79DF8D2
:1015B000150000EB400140F24000C2F20000084478
:1015C00080788DF817000AE0FFE79DF815000130DC
:1015D0008DF81500B3E700208DF81700FFE79DF8A0
:1015E000170006B080BD000080B584B003900020D5
:1015F00002900190FFF772FE922000F0F7F912209E
:1016000001A90091062200F0BDF9FFF75DFE9DF8EB
:1016100004009DF8051040EA0120039908849DF814
:1016200006009DF8071040EA0120039948849DF8C0
:1016300008009DF8091040EA01200399888440F2CF
:101640001400C2F2000090ED000A0399B1F92020C5
:1016500001EE102AB8EEC11A20EE010A81ED010A4E
:1016600090ED000A0399B1F9222001EE102AB8EE9C
:10167000C11A20EE010A81ED020A90ED000A0398DA
:10168000B0F9241001EE101AB8EEC11A20EE010ACA
:1016900080ED030AFFF722FEA22000F0A7F90099CF
:1016A0002220022200F06EF9FFF70EFE9DF80400E2
:1016B0009DF80510C00040EA5110039988850398F1
:1016C000B0F92C00B0F5806F06DBFFE70399888D39
:1016D000A0F500608885FFE70398B0F92C1000EEB4
:1016E000101AB8EEC00AB4EE001A20EE010AB3EEEA
:1016F000071A30EE010A80ED070AFFF7C9FE002045
:1017000001A9082200F03EF9FFF7B8FE9DF8040099
:101710000F2819D1FFE79DF806009DF8071040EA51
:1017200001200399C8849DF808009DF8091040EA3B
:101730000120039908859DF80A009DF80B1040EAE6
:10174000012003994885FFE740F21800C2F200002B
:1017500090ED000A0399B1F9262001EE102AB8EEA7
:10176000C12A91ED0C1A20EE020A30EE410A81EDF9
:10177000040A90ED000A0399B1F9282001EE102A1D
:10178000B8EEC12A91ED0D1A20EE020A30EE410AA0
:1017900081ED050A90ED000A0398B0F92A1001EED8
:1017A000101AB8EEC12A90ED0E1A20EE020A30EEA1
:1017B000410A80ED060A04B080BD000080B582B009
:1017C00000208DF80700FFE7FFF792FD01469DF826
:1017D000070008438DF80700FFF764FE01469DF8F7
:1017E000070008438DF80700022000F047FBFFE7E1
:1017F0009DF807000028E7D1FFE740F23830C2F239
:10180000000000F003F802B080BD000080B586B093
:101810000590002004900390ADF80A00FFE7BDF8A2
:101820000A0041F28731884200F38E80FFE7FFF71C
:1018300055FD922000F0DAF8122003A9019106224A
:1018400000F0A0F8FFF740FD9DF80C009DF80D108A
:1018500040EA0120059908849DF80E009DF80F10BC
:1018600040EA0120059948849DF810009DF8111068
:1018700040EA012005998884FFF70AFE01990020BB
:10188000082200F07FF8FFF7F9FD9DF80C000F2803
:1018900050D1FFE79DF80E009DF80F1040EA01209F
:1018A0000599C8849DF810009DF8111040EA0120A8
:1018B000059908859DF812009DF8131040EA012053
:1018C0000599488540F21800C2F2000090ED000A28
:1018D0000599B1F9262001EE102AB8EEC12A91ED42
:1018E0000C1A20EE020A30EE010A81ED0C0A90ED8E
:1018F000000A0599B1F9282001EE102AB8EEC12A94
:1019000091ED0D1A20EE020A30EE010A81ED0D0A6A
:1019100090ED000A0598B0F92A1001EE101AB8EE01
:10192000C12A90ED0E1A20EE020A30EE010A80ED77
:101930000E0AFFE7012000F0A1FAFFE7BDF80A0058
:101940000130ADF80A006AE7059890ED0C0A9FEDAA
:101950000C1A80EE010A80ED0C0A059890ED0D0A34
:1019600080EE010A80ED0D0A059890ED0E0A80EEDA
:10197000010A80ED0E0A05990120087006B080BDAD
:1019800000409C4580B584B08DF80F0002918DF821
:1019900007209DF80F0040F0800000F027F8FFE7D7
:1019A0009DF8070070B1FFE7552000F01FF802997D
:1019B00008700298013002909DF8070001388DF8F8
:1019C0000700EDE704B080BD80B582B08DF8070058
:1019D00000919DF8070040F0800000F007F85520C6
:1019E00000F004F80099087002B080BD80B582B0A4
:1019F0008DF8070000208DF8060069464FF47A70D4
:101A0000086042F2E430C2F200000DF107010DF16E
:101A10000602012303F06AFF9DF8060002B080BDB4
:101A200080B582B08DED010ADDED010A40F2B460AF
:101A3000C2F200009FED1F0A0DF07AFCFFE740F2B2
:101A4000B460C2F2000090ED0A0A9FED1B1AB4EEDA
:101A5000410AF1EE10FA09DDFFE740F2B461C2F28B
:101A600000010020C4F2FA40886213E040F2B46042
:101A7000C2F2000090ED0A0AB5EE400AF1EE10FA4B
:101A800007DAFFE740F2B461C2F200010020886289
:101A9000FFE7FFE7FFE740F2B460C2F2000090ED1D
:101AA0000A0ABDEEC00A10EE100A05F0FDF902B0F8
:101AB00080BD00BF000020420000FA4480B582B023
:101AC0008DF807008DF806109DF80700FFF78EFFD0
:101AD0009DF80600FFF78AFF02B080BD80B58EB08A
:101AE00004A802902821FFF71FFA029901220C9204
:101AF000002003900A900B920490059006900790A6
:101B0000099008900D9041F62860C2F2000000F0A4
:101B100081FA18B1FFE700F0EFF9FFE741F628601E
:101B2000C2F20000019001F039F80198022100F0A2
:101B300047FA0E2009900D9041F65060C2F2000065
:101B400004A900F067FA18B1FFE700F0D5F9FFE744
:101B500041F65060C2F20000009001F01FF80098BA
:101B6000022100F02DFA0EB080BD000080B582B0D9
:101B700042F21450C2F20000016804316B46242284
:101B80001A6040F2E052C2F2000202F1240309F0AE
:101B9000CBFB02B080BD000080B542F23C40C2F2F7
:101BA0000000002104F05AFD80BD0000FFE7FEE7C1
:101BB00080B541F62860C2F2000000F0F9FB80BD5C
:101BC00082B00190009102B07047000080B541F6EC
:101BD0005060C2F2000000F0EBFB80BD82B00190CB
:101BE000009102B07047000084B08DF80F000291A0
:101BF000ADF806209DF80F000146009123281DD85E
:101C00000099DFE801F012131415161B1B1B1B1B98
:101C10001B1B1B1B1B1B1B1B1B1B1B1B1B1B1B1B14
:101C20001B1B1B1B1B1B1718191A08E007E006E0FB
:101C300005E004E003E002E001E000E0FFE700204F
:101C400004B070470020704780B582B041F64C3038
:101C5000C2F20000009041F24C31C2F200010022B9
:101C6000019209F049FF009840F64C31C2F20001A0
:101C700009F024FF019802B080BD000080B584B057
:101C8000039002910398029906F0AAFA039941F68B
:101C90004C30C2F20000019009F010FF019809F0E9
:101CA000B3FE002004B080BD83B0029001918DF896
:101CB000032000208DF802009DF9020003B0704758
:101CC00080B586B00490ADF80E1000208DF80D00A0
:101CD00041F64C30C2F20000D0F8BC0202900298EB
:101CE000D0F8140220B1FFE701208DF8170013E0AF
:101CF0000499BDF80E2041F64C30C2F2000001906C
:101D000009F0FAFE01980AF001F88DF80D009DF82F
:101D10000D008DF81700FFE79DF8170006B080BD95
:101D200080B541F67860C2F2000001F031F880BD64
:101D300082B001900198007810384AF6AB21CAF6BB
:101D4000AA21A0FB011000090090009944F6FC2094
:101D5000C0F60100405C0199C8650098042807D3CB
:101D6000FFE701990868042262F30900886506E02C
:101D70000199086840F2FF3290438865FFE70198B7
:101D8000806D02B07047000086B0059000208DF88D
:101D900013000598806A03900598806910BBFFE7DF
:101DA0000398029003281BD80299DFE801F0020D86
:101DB0000218059890F82F00C00720B1FFE7012016
:101DC0008DF81300FFE70CE00598C06AB0F1C07F02
:101DD00004D1FFE701208DF81300FFE701E000E0E8
:101DE000FFE745E005988069B0F5005F25D1FFE782
:101DF0000398019003281ED80199DFE801F002063C
:101E0000021101208DF8130016E0059890F82F00BC
:101E1000C00720B1FFE701208DF81300FFE70BE0BA
:101E20000598C06AB0F1C07F04D1FFE701208DF8AA
:101E30001300FFE700E0FFE719E003980090032894
:101E400004D3FFE70098032804D00EE001208DF8AA
:101E500013000BE0059890F82F00C00720B1FFE7B2
:101E600001208DF81300FFE700E0FFE7FFE7FFE741
:101E70009DF8130006B070477047000080B582B02F
:101E8000019001F005FC0090FFE701F001FC0099D2
:101E9000401A0199884201D2FFE7F6E702B080BDFF
:101EA00080B582B0019004F0E5FF0090FFE704F0F8
:101EB000E1FF0099401A0199884201D2FFE7F6E755
:101EC00002B080BD80B582B0019000200090FFE795
:101ED0000DF014FC009042F2F450C2F2000007F042
:101EE000E5FB05200DF0D8FBF2E7000080B52020CF
:101EF00001F0BEF980BD000081B0EFF3108072B632
:101F00000090FFE7FEE7000084B08DED030A9DED31
:101F1000030AB6EE001A20EE010A8DED020A0398BC
:101F2000019001980090009945F68620C5F637701B
:101F3000A0EB61000090009801909DED010A9DEDDD
:101F4000021A21EE001A21EE002AB7EE081A31EE2D
:101F5000421A20EE010A8DED010A9DED010A04B03E
:101F60007047000080B584B047F61020C1F6FF70BE
:101F70000068039047F61420C1F6FF7000680290D5
:101F800047F61820C1F6FF70006801900199039888
:101F900008440390039888B1FFE7039840F29C211E
:101FA000C2F2000100910231082205F0BDF800994B
:101FB00002981231042205F0B7F8FFE704B080BDA3
:101FC00084B002900191029890F820008DF80300EF
:101FD0009DF80300012805D0FFE79DF803000228C3
:101FE0000AD1FFE7019A02980168486910434861E5
:101FF00000208DF80F0008E00299486A40F4802024
:10200000486201208DF80F00FFE79DF80F0004B033
:102010007047000086B00490039104980068019016
:10202000049890F820008DF803009DF80300012823
:1020300006D0FFE79DF80300022840F0B080FFE7DC
:1020400046F20040C4F2000001900199D1F800026C
:1020500040F00100C1F800020199D1F8000220F41B
:102060007C50C1F800020398426A0199D1F800023D
:1020700040EA0220C1F800020398406900F01F0105
:10208000012088400290029A0199D1F81C029043E5
:10209000C1F81C020398C069F0B9FFE7029A0199E0
:1020A000D1F80C029043C1F80C02039A9088D168D1
:1020B000526940EA0140019901EBC201C1F84002B6
:1020C000039A10889168526940EA0140019901EB36
:1020D000C201C1F84402FFE70398C06901281ED17C
:1020E000FFE7029A0199D1F80C021043C1F80C02E3
:1020F000039A90881168526940EA0140019901EB06
:10210000C201C1F84002039A90899168526940EA7D
:102110000140019901EBC201C1F84402FFE70398B5
:10212000806940B9FFE7029A0199D1F8040290430F
:10213000C1F8040207E0029A0199D1F804021043A1
:10214000C1F80402FFE70398006940B9FFE7029A6B
:102150000199D1F814029043C1F8140207E0029AE1
:102160000199D1F814021043C1F81402FFE7039853
:10217000006A012808D1FFE7029A0199D1F81C02F0
:102180001043C1F81C02FFE70199D1F8000220F0CA
:102190000100C1F8000200208DF8170008E0049942
:1021A000486A40F48020486201208DF81700FFE75C
:1021B0009DF8170006B0704781B0009001B07047DD
:1021C00086B00490039102920193049890F8200045
:1021D0008DF803009DF80300012806D0FFE79DF865
:1021E0000300022840F0D780FFE7039880B9FFE79B
:1021F00004980068C068800748B9FFE70499486AF6
:1022000040F40010486201208DF81700CCE00FE088
:10221000049800680069800748B9FFE70499486A94
:1022200040F40010486201208DF81700BCE0FFE781
:1022300004980068039900EB0110D0F8B00100F099
:102240000400029988600298806858B9FFE70498F2
:102250000068039900EB0110D0F8B001400D02991D
:1022600008600AE004980068039900EB0110D0F8B8
:10227000B001C00802994860FFE70498006803991C
:1022800000EB0110D0F8B00100F002000299C86024
:1022900004980068039900EB0110D0F8B40100F035
:1022A0000F000299086104980068039900EB01107F
:1022B000D0F8B40180B2000A0299886104980068DD
:1022C000039900EB0110D0F8B401000C02994861A9
:1022D00004980068039900EB0110D0F8B801019947
:1022E000087004980068039900EB0110D0F8B80159
:1022F000000A0199487004980068039900EB0110E6
:10230000D0F8B801000C019988700498006803990E
:1023100000EB0110D0F8B801000E0199C8700498C4
:102320000068039900EB0110D0F8BC010199087115
:1023300004980068039900EB0110D0F8BC01000A72
:102340000199487104980068039900EB0110D0F8D6
:10235000BC01000C0199887104980068039900EB96
:102360000110D0F8BC01000E0199C871039838B96A
:10237000FFE704980168C86840F02000C86006E0E4
:1023800004980168086940F020000861FFE7002018
:102390008DF8170008E00499486A40F480204862EC
:1023A00001208DF81700FFE79DF8170006B0704771
:1023B00080B58AB0099000200890099800684069AB
:1023C000079009980068406806900998006880683E
:1023D000059009980068C068049009980068006931
:1023E000039009980068806902909DF81C00C0075E
:1023F000002800F09480FFE79DF81400C00758B350
:10240000FFE709980168012088609DF814008007A3
:10241000002804D5FFE7099800F00AFC1BE09DF8AE
:1024200014004007002805D5FFE7089840F4006035
:1024300008900FE09DF814000007002805D5FFE77D
:10244000089840F48050089003E0099800F0ECFBF5
:10245000FFE7FFE7FFE7FFE79DF81500C00760B360
:10246000FFE7099801684FF4807088609DF81500B7
:102470008007002804D5FFE7099800F0E1FB1BE086
:102480009DF815004007002805D5FFE7089840F49F
:10249000005008900FE09DF815000007002805D5B2
:1024A000FFE7089840F48040089003E0099800F0A6
:1024B000C3FBFFE7FFE7FFE7FFE79DF81600C00754
:1024C00060B3FFE7099801684FF4803088609DF899
:1024D00016008007002804D5FFE7099800F0B8FB34
:1024E0001BE09DF816004007002805D5FFE7089877
:1024F00040F4004008900FE09DF816000007002807
:1025000005D5FFE7089840F48030089003E009986B
:1025100000F09AFBFFE7FFE7FFE7FFE7FFE79DF823
:102520001C000007002810D5FFE79DF81000C0062A
:10253000002809D5FFE7089840F400700890099832
:1025400001681020C860FFE7FFE79DF81C00400706
:1025500000280FD5FFE79DF810000007002808D5D8
:10256000FFE7099801680820C860099800F0CCFAD4
:10257000FFE7FFE79DF81C00800700280BD5FFE769
:1025800009980068C068800720B1FFE7099800F04B
:10259000BFFAFFE7FFE79DF81C004006002810D5B2
:1025A000FFE79DF80C00C006002809D5FFE7089852
:1025B00040F4806008900998016810200861FFE7E6
:1025C000FFE79DF81C00800600280FD5FFE79DF867
:1025D0000C000007002808D5FFE7099801680820CB
:1025E0000861099800F0CEFAFFE7FFE79DF81C00AC
:1025F000C00600280BD5FFE709980068006980072E
:1026000020B1FFE7099800F0C1FAFFE7FFE79DF866
:102610001E00800700280FD5FFE79DF81800C006B0
:10262000002808D5FFE7099801681020486009983C
:1026300000F0B0FAFFE7FFE79DF81E00C00778B191
:10264000FFE79DF818000007002808D5FFE7099864
:10265000016808204860099800F0FEFAFFE7FFE7EC
:102660009DF81D000006002840F18D80FFE79DF8D1
:1026700018004007002840F18180FFE79DF81D0009
:10268000C00750B1FFE79DF80800C00728B1FFE779
:10269000089840F001000890FFE79DF81D008007B2
:1026A00000280BD5FFE79DF808008007002805D516
:1026B000FFE7089840F002000890FFE79DF81D0032
:1026C000400700280BD5FFE79DF8080040070028C9
:1026D00005D5FFE7089840F004000890FFE79DF853
:1026E0001D000007002848D5FFE79DF8080010F0FE
:1026F000700F42D0FFE7029800F070000146019190
:10270000102814D0FFE70198202815D0FFE7019882
:10271000302816D0FFE70198402817D0FFE701982E
:10272000502818D0FFE70198602819D01DE00898BC
:1027300040F00800089019E0089840F01000089058
:1027400014E0089840F0200008900FE0089840F04E
:10275000400008900AE0089840F08000089005E0EA
:10276000089840F48070089000E0FFE7099801683D
:10277000886920F070008861FFE7FFE70998016829
:1027800004204860FFE7089848B1FFE7089A0999D4
:10279000486A104348620998FFF70EFDFFE70AB048
:1027A00080BD000080B584B00290029820B9FFE798
:1027B00001208DF80F00E0E0029890F8200020B989
:1027C000FFE7029800F0DEF8FFE70298016808686A
:1027D00040F00100086000F05BFF0190FFE7029805
:1027E00000684068C007A8B9FFE700F051FF0199F1
:1027F000401A0B280DD3FFE70299486A40F40030D5
:1028000048620299052081F8200001208DF80F0010
:10281000B3E0E4E702980168086820F0020008606D
:1028200000F036FF0190FFE70298006840688007DB
:10283000002815D5FFE700F02BFF0199401A0B285F
:102840000DD3FFE70299486A40F4003048620299CC
:10285000052081F8200001208DF80F008DE0E3E7CE
:102860000298007E012807D1FFE7029801680868F6
:1028700040F08000086006E002980168086820F0D7
:1028800080000860FFE70298407E012807D1FFE73B
:1028900002980168086840F04000086006E002986D
:1028A0000168086820F040000860FFE70298807E19
:1028B000012807D1FFE702980168086840F020006E
:1028C000086006E002980168086820F020000860AF
:1028D000FFE70298C07E012807D1FFE70298016850
:1028E000086820F01000086006E002980168086897
:1028F00040F010000860FFE70298007F012807D130
:10290000FFE702980168086840F00800086006E0E8
:1029100002980168086820F008000860FFE7029844
:10292000407F012807D1FFE702980168086840F05E
:102930000400086006E002980168086820F00400BE
:102940000860FFE7029B19685A689868D3F80CC0C2
:1029500040EA0C00D3F810C040EA0C005B69184351
:10296000013A1043C861029900204862029A01218D
:1029700082F820108DF80F00FFE79DF80F0004B0DB
:1029800080BD000080B590B00F9000200E900D909B
:102990000C900B900A900F98006846F20041C4F228
:1029A0000001884249D1FFE740F27430C2F20000D2
:1029B0000168013101600068012812D1FFE7FFE7DB
:1029C0000020099043F64000C4F20200016841F083
:1029D00000710160006800F0007009900998FFE73D
:1029E000FFE7FFE70020089043F63000C4F2020042
:1029F000016841F008010160006800F008000890DB
:102A00000898FFE703200A9002210B91002103910F
:102A10000C910D9009200E9040F60040C4F2020087
:102A20000AA900F041FC039A14200490052100F04B
:102A30000BFF049800F0FEFE64E00F98006846F675
:102A40000001C4F2000188425BD1FFE7FFE70020EC
:102A5000079043F64000C4F20200016841F0806133
:102A60000160006800F0806007900798FFE740F27F
:102A70007430C2F200000168013101600068012871
:102A800012D1FFE7FFE70020069043F64000C4F2B2
:102A90000200016841F000710160006800F0007000
:102AA00006900698FFE7FFE7FFE70020059043F652
:102AB0003000C4F20200016841F0020101600068C8
:102AC00000F0020005900598FFE760200A900220C0
:102AD0000B90002001900C9003200D9009200E9087
:102AE00040F20040C4F202000AA900F0DDFB019AA6
:102AF00040200290052100F0A7FE029800F09AFE07
:102B0000FFE7FFE710B080BD81B0009001B07047D3
:102B100080B582B00190019840F63032C2F20002D6
:102B200040F62833C2F200030021FFF749FB019869
:102B3000006846F20041C4F2000188420BD1FFE771
:102B400040F63030C2F2000040F62831C2F20001F7
:102B5000FFF736F814E00198006846F60001C4F269
:102B6000000188420BD1FFE740F63030C2F200008E
:102B700040F62831C2F20001FFF730F8FFE7FFE727
:102B800002B080BD81B0009001B0704781B000906C
:102B900001B0704781B0009001B0704780B584B03B
:102BA0000290029890F8200001282FD1FFE70299A7
:102BB000022081F8200002980168086820F00100D6
:102BC000086000F065FD0190FFE70298006840682A
:102BD000C007A8B1FFE700F05BFD0199401A0B2880
:102BE0000DD3FFE70299486A40F400304862029929
:102BF000052081F8200001208DF80F000FE0E4E7A8
:102C00000299002048628DF80F0008E00299486A96
:102C100040F40020486201208DF80F00FFE79DF886
:102C20000F0004B080BD000081B0009001B070477B
:102C300081B0009001B0704781B0009001B0704742
:102C400081B0009001B0704781B0009001B0704732
:102C500081B0009001B0704781B0009001B0704722
:102C600080B584B002900298806D019000F010FD54
:102C70000090029890F8350002280DD0FFE70299E5
:102C800080204865FFE70299002081F83400FFE7C3
:102C900001208DF80F0055E002980168086820F0C7
:102CA0001600086002980168486920F080004861B9
:102CB0000298006C20B9FFE70298806C38B1FFE7FA
:102CC00002980168086820F008000860FFE7029891
:102CD0000168086820F001000860FFE702980068BA
:102CE0000068C007C8B1FFE700F0D2FC0099401AA5
:102CF000062811D3FFE70299202048650299032096
:102D000081F83500FFE70299002081F83400FFE7E1
:102D100003208DF80F0015E0E0E70298C16D3F2019
:102D20008840019988600299012081F83500FFE709
:102D30000299002081F83400FFE7FFE700208DF8BA
:102D40000F00FFE79DF80F0004B080BD82B0009037
:102D5000009890F83500022807D0FFE700998020FE
:102D6000486501208DF807000EE00099052081F8E4
:102D7000350000980168086820F001000860FFE74E
:102D800000208DF80700FFE79DF8070002B07047AC
:102D900080B586B005900020039040F2CC10C2F2BE
:102DA0000000006848F2B511C1F64E31A0FB0110D9
:102DB000800A02900598806D019001980068049047
:102DC00004980599C96DC840000700281AD5FFE787
:102DD0000598006800684007002812D5FFE70598AD
:102DE0000168086820F0040008600598C16D08209B
:102DF0008840019988600599486D40F00100486558
:102E0000FFE7FFE704980599C96DC840C007A0B166
:102E1000FFE7059800684069000600280CD5FFE729
:102E20000598C16D01208840019988600599486D19
:102E300040F002004865FFE7FFE704980599C96D77
:102E4000C8404007002814D5FFE7059800680068CF
:102E5000800700280CD5FFE70598C16D0420884045
:102E6000019988600599486D40F004004865FFE7C6
:102E7000FFE704980599C96DC840C006002847D5EA
:102E8000FFE7059800680068000700283FD5FFE7C6
:102E90000598C16D102088400199886005980068E8
:102EA0000068400300281AD5FFE70598006800680D
:102EB0000003002809D4FFE70598006C20B1FFE764
:102EC0000598016C8847FFE708E00598806C20B101
:102ED000FFE70598816C8847FFE7FFE716E0059854
:102EE00000680068C005002807D4FFE7059801685E
:102EF000086820F008000860FFE70598006C20B122
:102F0000FFE70598016C8847FFE7FFE7FFE7FFE76A
:102F100004980599C96DC8408006002840F18D804D
:102F2000FFE7059800680068C006002840F184802B
:102F3000FFE70598C16D20208840019988600598B9
:102F400090F83500052834D1FFE705980168086836
:102F500020F01600086005980168486920F080009C
:102F600048610598006C20B9FFE70598806C38B17E
:102F7000FFE705980168086820F008000860FFE78F
:102F80000598C16D3F20884001998860059901200E
:102F900081F83500FFE70599002081F83400FFE74C
:102FA0000598006D20B1FFE70598016D8847FFE7A0
:102FB0007BE0059800680068400300281AD5FFE709
:102FC0000598006800680003002809D4FFE7059809
:102FD000406C20B1FFE70598416C8847FFE708E0A7
:102FE0000598C06B20B1FFE70598C16B8847FFE7E4
:102FF000FFE720E0059800680068C005002811D4AC
:10300000FFE705980168086820F01000086005993E
:10301000012081F83500FFE70599002081F8340090
:10302000FFE7FFE70598C06B20B1FFE70598C16B8C
:103030008847FFE7FFE7FFE7FFE70598406DA0B38C
:10304000FFE70598406DC00730B3FFE705990520FD
:1030500081F8350005980168086820F001000860D3
:10306000FFE70398013003900299884201D9FFE7F6
:1030700007E0FFE7059800680068C0070028F0D166
:10308000FFE70599012081F83500FFE70599002049
:1030900081F83400FFE7FFE70598C06C20B1FFE737
:1030A0000598C16C8847FFE7FFE706B080BD0000C8
:1030B00080B586B004900020039000F0E9FA0290F9
:1030C000049820B9FFE701208DF81700A3E00498C9
:1030D000406A08B1FFE7FFE70499022081F8350054
:1030E000FFE70499002081F83400FFE704980168A5
:1030F000086820F001000860FFE704980068006895
:10310000C00790B1FFE700F0C3FA0299401A062801
:103110000AD3FFE70499202048650499032081F829
:1031200035008DF8170076E0E7E70498006800683E
:103130000390039848F23F01CFF21001084003903A
:10314000049900914868D1F808C0CB680A6940EA40
:103150000C00184310434A6910438A691043CA6936
:103160001043096A01430398084303900498406A96
:10317000042808D1FFE70499C86A096B0143039842
:1031800008430390FFE703980499096808600498CE
:10319000006840690390039820F0070003900498AA
:1031A000416A0398084303900498406A04281AD19E
:1031B000FFE70498816A0398084303900498C06A63
:1031C00080B1FFE70498FEF7DFFD50B1FFE70499F7
:1031D000402048650499012081F835008DF81700DA
:1031E00019E0FFE7FFE7039804990968486104982C
:1031F000FEF79EFD01900498C16D3F208840019923
:103200008860049900204865049A012182F83510ED
:103210008DF81700FFE79DF8170006B080BD00008D
:1032200080B584B0039000F033FA029003980190C7
:103230000198013048B1FFE740F2CC20C2F2000013
:103240000178019808440190FFE7FFE700F020FAB9
:103250000299401A0199884201D2FFE7F6E704B0CB
:1032600080BD000081B0ADF8020001B070470000E1
:1032700080B582B0ADF8060043F61440C4F20100F8
:103280000068BDF8061008420CD0FFE7BDF8060044
:1032900043F61441C4F201010860BDF80600FFF7CF
:1032A000E1FFFFE702B080BD8EB00D900C910020D1
:1032B0000A90099008900B90FFE70B980F2800F2F6
:1032C000CC81FFE70B99012088400A900C98006898
:1032D0000A990840099009980A99884240F0B881F3
:1032E000FFE70C98406800F00300012807D0FFE7D3
:1032F0000C98406800F0030002282FD1FFE70D98DA
:10330000806808900B984100032000FA01F10898AA
:10331000884308900C98C0680B99490000FA01F1A5
:1033200008980843089008980D9988600D9840689F
:1033300008900B99012000FA01F108988843089041
:103340000C984068C0F300100B9900FA01F108983E
:103350000843089008980D994860FFE70C9840686A
:1033600000F00300032818D0FFE70D98C06808900C
:103370000B984100032000FA01F108988843089057
:103380000C9880680B99490000FA01F108980843ED
:10339000089008980D99C860FFE70C98406800F005
:1033A0000300022826D1FFE70D980B996FF0030266
:1033B00002EA51010844006A08900B9800F00700E7
:1033C00081000F2000FA01F10898884308900C98BA
:1033D00000690B9901F00701890000FA01F10898D2
:1033E0000843089008980D990B9B02EA5302114478
:1033F0000862FFE70D98006808900B9841000320D1
:1034000000FA01F10898884308900C98406800F091
:1034100003000B99490000FA01F10898084308904D
:1034200008980D9908600C9880798007002800F0B2
:103430000E81FFE7FFE70020079043F64400C4F247
:103440000200016841F480410160006800F480409E
:1034500007900798FFE70B9820F0030043F6080158
:10346000C4F20101405808900B9800F0030081005D
:103470000F2000FA01F10898884308900D98002168
:10348000C4F20201884203D1FFE7002006905EE00B
:103490000D9840F20041C4F20201884203D1FFE7D7
:1034A0000120059050E00D9840F60001C4F20201A1
:1034B000884203D1FFE70220049042E00D9840F6D5
:1034C0000041C4F20201884203D1FFE703200390C8
:1034D00034E00D9841F20001C4F20201884203D1A8
:1034E000FFE70420029026E00D9841F20041C4F26B
:1034F0000201884203D1FFE70520019018E00D98F2
:1035000041F60001C4F20201884203D1FFE7062020
:1035100000900AE00D9941F60042C4F20202082030
:10352000914208BF07200090FFE700980190FFE755
:1035300001980290FFE702980390FFE70398049038
:10354000FFE704980590FFE705980690FFE70698C7
:10355000C0B20B9901F00301890000FA01F108984B
:103560000843089008980B9921F0030143F60802DC
:10357000C4F20102885043F60840C4F2010000681A
:10358000089009990898884308900C988079C0069B
:10359000002805D5FFE70999089808430890FFE738
:1035A000089843F60841C4F20101086043F60C4054
:1035B000C4F20100006808900999089888430890AF
:1035C0000C9880798006002805D5FFE709990898AE
:1035D00008430890FFE7089843F60C41C4F2010144
:1035E000086043F60440C4F201000068089009999D
:1035F0000898884308900C9880798007002805D5A2
:10360000FFE70999089808430890FFE7089843F6F0
:103610000441C4F20101086043F60040C4F2010015
:103620000068089009990898884308900C98807958
:10363000C00728B1FFE70999089808430890FFE7F9
:10364000089843F60041C4F201010860FFE7FFE774
:10365000FFE70B9801300B902FE60EB0704700008B
:1036600082B00190ADF802108DF801209DF80100A4
:1036700028B1FFE7BDF802000199886105E0BDF8B7
:103680000200000401998861FFE702B07047000062
:1036900048F21460C2F200000068704740F2CC208B
:1036A000C2F20000027848F21461C2F20001086818
:1036B000104408607047000080B543F60041C4F232
:1036C0000201086840F400700860086840F48060F7
:1036D0000860086840F480700860032000F0CEF8AD
:1036E0000F2000F005F800F079F8002080BD000000
:1036F00080B58CB00B90002004900390FFE7002071
:10370000009043F64000C4F20200016841F001015C
:103710000160006800F0010000900098FFE706A833
:1037200002A901F0B5FB09980490049820B9FFE7BD
:1037300001F0DEFB059004E001F0DAFB40000590AB
:10374000FFE705984DF68361C4F21B31A0FB010130
:103750004FF0FF3000EB9140039042F28440C2F200
:1037600000004FF08041016040F2E731C1600399F1
:103770004160002101618160816102F005FB8DF8EB
:1037800007009DF8070028BBFFE742F28440C2F221
:10379000000002F083FB8DF807009DF80700C0B918
:1037A000FFE71C2000F046F80B980F280CD8FFE725
:1037B0000B991C20002200F047F80B9840F2D02112
:1037C000C2F20001086003E001208DF80700FFE766
:1037D000FFE7FFE79DF807000CB080BD80B582B021
:1037E000FFE70020019043F64400C4F202000168A4
:1037F00041F480410160006800F48040019001982C
:10380000FFE7FFE70020009043F64000C4F202000B
:10381000016841F080510160006800F08050009024
:103820000098FFE76FF001000F21002200F00CF874
:1038300002B080BD80B582B08DF807009DF9070009
:103840000BF016FD02B080BD80B586B08DF8170074
:1038500004910392002002900BF022FD02909DF94A
:103860001700019002980499039A04F0FFFC0146A6
:1038700001980BF01DFD06B080BD000080B582B040
:10388000019001980BF036FD02B080BD82B001902E
:103890008DF8031002B0704782B00190ADF80210AD
:1038A000BDF80200019909684862002002B0704723
:1038B00084B003908DF80B10ADF8082003980068D1
:1038C000406A00909DF80B0048B9FFE7BDF808106A
:1038D000009840EA014003990968886233E0039840
:1038E0000068816A009800EB1140009000208DF87C
:1038F0000700FFE79DF807009DF80B10013988428B
:1039000013D2FFE7039800689DF8071000EB8100D1
:10391000D0F80411009800EB11400090FFE79DF8EB
:10392000070001308DF80700E4E7BDF808100098A3
:1039300040EA0140039909689DF80B2001EB8201E0
:10394000C1F80001FFE7002004B0704780B582B0E5
:1039500001900198D0F8080509F072F802B080BD16
:1039600080B582B001908DF80310019AD2F8080555
:103970009DF8031001EBC10302EB8302D26C08F047
:10398000BBFE02B080BD000080B582B001908DF812
:103990000310019AD2F808059DF8031001EBC1034A
:1039A00002EB8302D2F88C2208F070FF02B080BDD7
:1039B00080B582B001900198D0F8080509F046F86A
:1039C00002B080BD80B584B003908DF80B109DF8D7
:1039D0000B00000600280CD5FFE703989DF80B109C
:1039E00001F00F0101EBC10100EB81003C300190BF
:1039F0000CE003989DF80B1001F00F0101EBC101E1
:103A000000EB810000F51F700190FFE7039800684C
:103A100001990AF071FE8DF80A009DF80A0004B0C1
:103A200080BD000080B584B002908DF807109DF82D
:103A30000700000600280FD5FFE702989DF8071041
:103A400001F00F0101EBC10100EB81003C3000905F
:103A50000099012048700FE002989DF8071001F0CE
:103A60000F0101EBC10100EB810000F51F70009018
:103A7000009900204870FFE79DF8070000F00F0054
:103A800000990870FFE7029890F8BC04012804D15F
:103A9000FFE702208DF80F0014E00299012081F861
:103AA000BC04FFE7FFE70298006800990AF04CF8B1
:103AB000FFE70299002081F8BC04FFE700208DF8A1
:103AC0000F00FFE79DF80F0004B080BD80B584B003
:103AD00002908DF807109DF8070000F00F00029982
:103AE0004968884204D9FFE701208DF80F004DE0B6
:103AF0009DF80700000600280FD5FFE702989DF803
:103B0000071001F00F0101EBC10100EB81003C3017
:103B100000900099012048700FE002989DF807106E
:103B200001F00F0101EBC10100EB810000F51F70F6
:103B30000090009900204870FFE7009900208870ED
:103B40009DF8070000F00F0000990870FFE7029849
:103B500090F8BC04012804D1FFE702208DF80F0083
:103B600014E00299012081F8BC04FFE7FFE7029806
:103B7000006800990AF068FBFFE70299002081F8CD
:103B8000BC04FFE700208DF80F00FFE79DF80F0051
:103B900004B080BD82B001908DF8031001989DF8AB
:103BA000031001F00F0101EBC10100EB8100D0F81F
:103BB0009C0202B07047000080B586B004908DF87A
:103BC0000F10ADF80C208DF80B3000208DF80A0096
:103BD0009DF80F00000600280FD5FFE704989DF818
:103BE0000F1001F00F0101EBC10100EB81003C302F
:103BF00001900199012048700FE004989DF80F1082
:103C000001F00F0101EBC10100EB810000F51F7015
:103C10000190019900204870FFE79DF80F0000F027
:103C20000F0001990870BDF80C000199C8609DF85B
:103C30000B00019908710198407820B1FFE70199C4
:103C400008780881FFE79DF80B00022804D1FFE700
:103C5000019900204871FFE7FFE7049890F8BC0441
:103C6000012804D1FFE702208DF8170015E0049920
:103C7000012081F8BC04FFE7FFE704980068019980
:103C800009F01CFEFFE70499002081F8BC04FFE75F
:103C90009DF80A008DF81700FFE79DF8170006B0A1
:103CA00080BD000080B586B005908DF8131003929A
:103CB000029305989DF8131001F00F0101EBC1016B
:103CC00000EB810000F51F700190039801990861D5
:103CD0000298019988610199002008620199487051
:103CE0009DF8130000F00F00019908700598006915
:103CF000012804D1FFE7039801994861FFE79DF887
:103D00001300000738B9FFE7059A10680199127C83
:103D10000AF04EF906E0059A10680199127C0AF043
:103D200037FBFFE7002006B080BD000080B584B0FF
:103D300002908DF807109DF8070000F00F0002991F
:103D40004968884204D9FFE701208DF80F0058E048
:103D50009DF80700000600280FD5FFE702989DF8A0
:103D6000071001F00F0101EBC10100EB81003C30B5
:103D700000900099012048700DE002989DF807100E
:103D800001EBC10100EB810000F51F70009000996C
:103D900000204870FFE70099012088709DF8070017
:103DA00000F00F0000990870FFE7029890F8BC043B
:103DB000012804D1FFE702208DF80F0021E00299CD
:103DC000012081F8BC04FFE7FFE702980068009932
:103DD0000AF08AFA9DF80700000740B9FFE7029A47
:103DE0001068117C02F2C4420AF0DEF9FFE7FFE737
:103DF0000299002081F8BC04FFE700208DF80F0035
:103E0000FFE79DF80F0004B080BD000080B586B0CC
:103E100005908DF813100392029305989DF81310E6
:103E200001F00F0101EBC10100EB81003C3001907A
:103E3000039801990861029801998861019900200D
:103E400008620199012048709DF8130000F00F00EE
:103E50000199087005980069012804D1FFE70398CB
:103E600001994861FFE79DF81300000738B9FFE7A3
:103E7000059A10680199127C0AF09AF806E0059AF2
:103E800010680199127C0AF083FAFFE7002006B05F
:103E900080BD000080B58CB00B900B9800680A9034
:103EA0000A9809900B9800680AF068FD002840F015
:103EB0000D84FFE70B9800680AF0CCFD10B9FFE70E
:103EC00000F004BC0998D0F80808C0F30D200B9945
:103ED000C1F8FC040B9800680AF0BCFD80070028BC
:103EE00007D5FFE70B980168486900F002004861B8
:103EF000FFE70B9800680AF0ADFDC006002862D508
:103F0000FFE70B980168886920F0100088610A9823
:103F1000006A02900B98029901F00F0101EBC101B8
:103F200000EB810000F51F700890029800F4F0117A
:103F30000220B0EB514F23D1FFE7BDF8080047F650
:103F4000F07108421BD0FFE70A9808990969029AA4
:103F5000C2F30A120AF08CFD029847F6F07100EAEB
:103F60000103089A106900EB13101061029800EA2F
:103F700001020899086A00EB12100862FFE71BE0D3
:103F8000029800F4F0110620B0EB514F12D1FFE778
:103F90000A980B9901F2C44108220AF069FD0298BF
:103FA00047F6F07100EA01020899086A00EB121066
:103FB000086200E0FFE7FFE70B980168886940F0BE
:103FC00010008861FFE70B9800680AF043FD0003CA
:103FD000002840F1A680FFE7002004900B980068BD
:103FE0000AF0E6FC0690FFE70698002800F09880AB
:103FF000FFE79DF81800C007002800F08A80FFE75F
:104000000B9800689DF810100AF00CFD05909DF8C3
:104010001400C00760B1FFE70998049900EB411153
:104020000120C1F8080B0B98049904F0A3F9FFE7ED
:104030009DF81400000700280CD5FFE709980499A3
:1040400000EB41110820C1F8080B0B98049904F00B
:104050004BF9FFE79DF81400C006002808D5FFE7DC
:104060000998049900EB41111020C1F8080BFFE7F3
:104070009DF81400800700282DD5FFE70A984069B5
:104080000006002808D5FFE70999D1F8040840F494
:104090008060C1F80408FFE70B98049901EBC101A7
:1040A00000EB810000F51F7008900898C078012887
:1040B00009D1FFE708990020C8700B989DF81010EF
:1040C00000F014FBFFE70998049900EB411102206E
:1040D000C1F8080BFFE79DF814008006002808D5FA
:1040E000FFE70998049900EB41112020C1F8080B63
:1040F000FFE79DF815008006002809D5FFE709981D
:10410000049900EB41114FF40050C1F8080BFFE790
:10411000FFE704980130049006984008069063E792
:10412000FFE70B9800680AF095FC4003002840F177
:10413000C680FFE70B9800680AF028FC0690002074
:104140000490FFE70698002800F0B880FFE79DF88C
:104150001800C007002800F0AA80FFE70B9800684D
:104160009DF810100AF036FC05909DF81400C00769
:1041700000283ED0FFE7049800F00F01012000FA6C
:1041800001F10391039B099AD2F834189943C2F8BC
:1041900034180999049A01EB4211C1F808090B98E7
:1041A000006901281FD1FFE70B98049901EBC101B9
:1041B00000EB81018A6CC86C1044C864049888B90B
:1041C000FFE70B98049901EBC10100EB8100406D02
:1041D00040B9FFE70B99086801F2C442012109F0D8
:1041E000E3FFFFE7FFE70B989DF81010FFF7B8FB20
:1041F000FFE79DF814000007002808D5FFE709989D
:10420000049900EB41110820C1F80809FFE79DF867
:104210001400C006002808D5FFE70998049900EBB0
:1042200041111020C1F80809FFE79DF8140040066D
:10423000002808D5FFE70998049900EB41114020B8
:10424000C1F80809FFE79DF814008007002822D56F
:10425000FFE70A9804990AF027FB0B98049901EBF1
:10426000C10100EB81003C3008900898C07801281B
:1042700009D1FFE708990020C8700B989DF810102D
:1042800000F026FAFFE70998049900EB411102209B
:10429000C1F80809FFE79DF814000006002805D5BD
:1042A000FFE70B98049904F049F9FFE7FFE704984A
:1042B0000130049006984008069043E7FFE70B980A
:1042C00000680AF0C7FBC00F00B3FFE70999D1F8F7
:1042D000040820F00100C1F804080B9890F8F404D9
:1042E000012808D1FFE70B98002180F8F4140B98FF
:1042F000FFF7CCFA03E00B9800F0E2FBFFE70B9826
:104300000168486900F000404861FFE70B980068C9
:104310000AF0A0FB0005002811D5FFE70998D0F8A6
:104320000808C00720B1FFE70B9800F057FCFFE733
:104330000B980168486900F400604861FFE70B983A
:1043400000680AF087FBC004002840F18680FFE780
:104350000999D1F8040820F00100C1F804080B986D
:10436000006810210AF0A0FA00200790FFE70798E4
:104370000B994968884231D2FFE70998079900EB09
:1043800041114FF67F30C1F808090999079A01EBEE
:104390004212D2F8001921F40011C2F8001909994B
:1043A000079A01EB4211C1F8080B0998079900EB35
:1043B0004111D1F8000B20F40010C1F8000B09984E
:1043C000079900EB4111D1F8000B40F00060C1F8F3
:1043D000000BFFE7079801300790C8E70999D1F86B
:1043E0001C0840F00110C1F81C080B98006B78B154
:1043F000FFE70999D1F8840840F00B00C1F8840860
:104400000999D1F8440840F00B00C1F844080FE0C6
:104410000999D1F8140842F22B021043C1F814088C
:104420000999D1F8100840F00B00C1F81008FFE717
:104430000999D1F8000820F4FE60C1F800080B9A31
:104440001068117C02F2C44209F0AEFE0B980168BC
:10445000486900F480504861FFE70B9800680AF053
:10446000F9FA800400281FD5FFE70B98006809F0CF
:1044700095FA0B9800680AF05BFA0B99C8600B98E4
:104480000068019000F02EFD014601980B9A127B06
:104490000AF0E6FB0B9800F0E9FA0B98016848690E
:1044A00000F400504861FFE70B9800680AF0D2FA68
:1044B000000700280AD5FFE70B9800F00BFB0B98CC
:1044C0000168486900F008004861FFE70B98006840
:1044D0000AF0C0FA0006002825D5FFE70A99886986
:1044E00020F08000886101200490FFE704980B9978
:1044F0004968884216D2FFE70B98049901EBC10185
:1045000000EB810090F87F02012806D1FFE70B98AD
:104510009DF81010FFF756FAFFE7FFE70498013007
:104520000490E3E7FFE70B9800680AF093FAC002F3
:1045300000283ED5FFE701200490FFE704980B997F
:10454000496888422ED2FFE70998049900EB411090
:10455000D0F8000902900B98049901EBC10100EB1F
:10456000810090F84000012817D1FFE79DF80B006B
:104570000006002811D5FFE70B98049901EBC10153
:1045800000EB8101012081F83F000B989DF810108D
:1045900041F08001FFF716FAFFE7FFE704980130CA
:1045A0000490CBE70B980168486900F480104861DB
:1045B000FFE70B9800680AF04DFA8002002855D5F5
:1045C000FFE701200490FFE704980B9949688842AF
:1045D00045D2FFE70998049900EB4110D0F8000B91
:1045E00002900B98049901EBC10100EB810090F857
:1045F000800201282ED1FFE79DF80B00000600285D
:1046000028D5FFE7029800F480300B99D1F8FC140C
:1046100001F0010188421DD1FFE70B98049901EBDD
:10462000C10100EB8101012081F87F020A998869AC
:1046300040F0800088610A9840690006002808D48C
:10464000FFE70999D1F8040840F40070C1F80408A4
:1046500005E0FFE7FFE7049801300490B4E70B980A
:104660000168486900F400104861FFE70B98006892
:104670000AF0F0F9400000280AD5FFE70B98FFF791
:1046800065F90B980168486900F080404861FFE7D0
:104690000B9800680AF0DEF94007002815D5FFE7FF
:1046A0000B980068406802909DF8080040070028B9
:1046B00004D5FFE70B98FFF77BF9FFE7029A0B9809
:1046C0000168486810434860FFE7FFE70CB080BD11
:1046D00080B582B001908DF803100198D0F80805DC
:1046E0009DF8031008F04EFA02B080BD80B582B08C
:1046F00001908DF803100198D0F808059DF803107B
:1047000008F078FA02B080BD2DE9F04F97B015900F
:10471000159820B9FFE701208DF85B0049E1159855
:1047200000681490159890F8BD0440B9FFE71599FA
:10473000002081F8BC04159800F040F9FFE71599B6
:10474000032081F8BD041498C06BC005002804D470
:10475000FFE7159900200861FFE71598006809F048
:104760001DFC159810900168119141688268C3681A
:10477000D0F810C044698569C669076AD0F82480FA
:10478000D0F82890D0F82CA0D0F830B0D0F834E091
:1047900068461290C0F824E01198DDF848E0CEF8A1
:1047A00020B0CEF81CA0CEF81890CEF81480CEF829
:1047B0001070CEF80C60CEF80850CEF80440CEF859
:1047C00000C009F001F940B1FFE71599022081F816
:1047D000BD0401208DF85B00EBE015980068002116
:1047E0000F910AF09FF90F988DF84F00FFE79DF8A1
:1047F0004F0015994968884245D2FFE715989DF802
:104800004F1001EBC10100EB8101012081F83D0057
:104810009DF84F00159900EBC00201EB820181F871
:104820003C009DF84F00159900EBC00201EB82019E
:10483000A1F8440015989DF84F1001EBC10100EB61
:104840008101002081F8400015999DF84F2002EB6E
:10485000C20201EB8201886415999DF84F2002EB9A
:10486000C20201EB8201C86415999DF84F2002EB4A
:10487000C20201EB82014865FFE79DF84F0001305D
:104880008DF84F00B3E700208DF84F00FFE79DF84B
:104890004F001599496888423ED2FFE715989DF868
:1048A0004F1001EBC10100EB8101002081F87D0276
:1048B0009DF84F10159A01EBC10302EB830282F8B9
:1048C0007C1215999DF84F2002EBC20201EB820188
:1048D00081F8800215999DF84F2002EBC20201EB8E
:1048E0008201C1F8880215999DF84F2002EBC2029F
:1048F00001EB8201C1F88C0215999DF84F2002EB63
:10490000C20201EB8201C1F89402FFE79DF84F005B
:1049100001308DF84F00BAE715980C9001680D91A1
:1049200041688268C368D0F810C044698569C66967
:10493000076AD0F82480D0F82890D0F82CA0D0F8BE
:1049400030B0D0F834E068460E90C0F824E00D98FE
:10495000DDF838E0CEF820B0CEF81CA0CEF81890E4
:10496000CEF81480CEF81070CEF80C60CEF8085057
:10497000CEF80440CEF800C009F0AEF940B1FFE730
:104980001599022081F8BD0401208DF85B0010E02C
:10499000159900200B9081F838001599012081F8B5
:1049A000BD041598006809F081F90B988DF85B003B
:1049B000FFE79DF85B0017B0BDE8F08F80B58AB0C7
:1049C000099000200890079006900590049009989F
:1049D0000068B0F1A04F47D1FFE7FFE70020039048
:1049E00043F63000C4F20200016841F001010160A9
:1049F000006800F0010003900398FFE74FF4C050F7
:104A000004900220059000200690032007900A20C1
:104A100008900020C4F2020004A9FEF745FCFFE75D
:104A200043F63401C4F20201086840F080000860D7
:104A3000FFE70020029043F64400C4F20200016840
:104A400041F480410160006800F4804002900298C7
:104A5000FFE7FFE74320019005210022FEF7F4FE67
:104A60000198FEF7E7FEFFE70AB080BD80B582B08F
:104A7000019001208DF803000198C06820B9FFE77C
:104A800000208DF803000CE00198C068022804D1D2
:104A9000FFE701208DF8030002E0FDF72DFAFFE7A4
:104AA000FFE70198D0F808059DF8031008F0A2F977
:104AB0000198D0F8080508F01DF902B080BD00008B
:104AC00080B582B001900198D0F8080508F060F92F
:104AD00002B080BD80B582B001900198D0F8080581
:104AE00008F068F902B080BD80B584B002908DF8FE
:104AF0000710FFE7029890F8BC04012804D1FFE7F3
:104B000002208DF80F001AE00299012081F8BC0400
:104B1000FFE7FFE79DF80700029981F83800029847
:104B200000689DF807100AF06DF8FFE70299002071
:104B300081F8BC04FFE700208DF80F00FFE79DF827
:104B40000F0004B080BD000080B582B001900199D3
:104B5000D1F8080501F2C44108F076F902B080BD31
:104B600080B584B00290029800680190FFE7029837
:104B700090F8BC04012804D1FFE702208DF80F0053
:104B800027E00299012081F8BC04FFE7FFE70298C3
:104B9000806A01280BD1FFE702988069012806D0BE
:104BA000FFE70199886B40F480308863FFE7029843
:104BB000006809F02FFE0298006809F061F8FFE72D
:104BC0000299002081F8BC04FFE700208DF80F0057
:104BD000FFE79DF80F0004B080BD000080B582B0F3
:104BE00001900198D0F8080508F0B0F90198016823
:104BF000D1F8000E40F00100C1F8000E0198006AE3
:104C000048B1FFE74EF61051CEF20001086840F0BF
:104C100006000860FFE702B080BD0000704700009A
:104C200080B584B002900191029820B9FFE701207D
:104C30008DF80F0021E1019843F60041C4F2020112
:104C4000096801F00701884212D9FFE7019943F68C
:104C50000040C4F202000170006800F007000199F2
:104C6000884204D0FFE701208DF80F0005E1FFE73F
:104C700002980078800700282AD5FFE7029800787C
:104C80004007002809D5FFE743F60801C4F20201F6
:104C9000086840F4E0500860FFE7029800780007D9
:104CA000002809D5FFE743F60801C4F202010868AD
:104CB00040F460400860FFE743F60801C4F20201D7
:104CC000086820F0F000029A926810430860FFE73D
:104CD00002980078C00700286ED0FFE7029840686D
:104CE000012811D1FFE743F60000C4F2020000687A
:104CF00000F400310020B0EB514F04D1FFE7012058
:104D00008DF80F00B9E02CE002984068022805D029
:104D1000FFE702984068032811D1FFE743F600003F
:104D2000C4F20200006800F000710020B0EB516F87
:104D300004D1FFE701208DF80F009EE010E043F65C
:104D40000000C4F20200006800F002010020B0EB95
:104D5000510F04D1FFE701208DF80F008DE0FFE730
:104D6000FFE743F60801C4F20201086820F00300DF
:104D7000029A526810430860FEF78AFC0090FFE731
:104D800043F60800C4F20200006800F00C0002992B
:104D90004968B0EB810F0ED0FFE7FEF779FC009970
:104DA000401A41F28931884204D3FFE703208DF88D
:104DB0000F0062E0E4E7FFE7019843F60041C4F228
:104DC0000201096801F00701884212D2FFE7019948
:104DD00043F60040C4F202000170006800F00700D2
:104DE0000199884204D0FFE701208DF80F0044E0CC
:104DF000FFE702980078400700280CD5FFE743F64C
:104E00000801C4F20201086820F4E050029AD26856
:104E100010430860FFE702980078000700280DD5CE
:104E2000FFE743F60801C4F20201086820F460407D
:104E3000029A126940EAC2000860FFE700F07CF8BD
:104E400043F60801C4F202010968C9B20A0944F62E
:104E5000E421C0F60101895CC84040F2CC11C2F2E5
:104E60000001086040F2D020C2F200000068FEF7A6
:104E70003FFC00208DF80F00FFE79DF80F0004B005
:104E800080BD00004C21C4F247210120086070471A
:104E900082B00190009101990F20086043F608004C
:104EA000C4F20200016801F00301019A5160016837
:104EB00001F0F001019A9160016801F4E051019A5A
:104EC000D160006800F46040C0080199086143F6B1
:104ED0000040C4F20200006800F00700009908607A
:104EE00002B0704740F2CC10C2F200000068704778
:104EF00080B5FFF7F7FF43F60801C4F20201096825
:104F0000C1F3822244F6F421C0F60101895CC84055
:104F100080BD000080B5FFF7E5FF43F60801C4F24D
:104F20000201096889B24A0B44F6F421C0F6010176
:104F3000895CC84080BD000080B586B00020059027
:104F400004900390029043F60800C4F20200006847
:104F500000F00C000146019140B1FFE701980428E0
:104F60000AD0FFE7019808280CD04FE042F2004039
:104F7000C0F2F40002904FE041F60030C0F2B700FA
:104F8000029049E043F60400C4F20200016801F017
:104F90003F01059100684002002813D5FFE743F662
:104FA0000400C4F202000068C0F3881041F600312A
:104FB000C0F2B701A0FB0101059A0023FBF7BDFE7B
:104FC000049012E043F60400C4F202000068C0F34B
:104FD000881042F20041C0F2F401A0FB0101059AE1
:104FE0000023FBF7AAFE0490FFE743F60400C4F297
:104FF0000200006800F44031022000EBD130039041
:1050000004980399B0FBF1F0029005E042F20040F1
:10501000C0F2F4000290FFE7029806B080BD0000E5
:1050200080B543F60C00C4F20200006800060028B8
:1050300009D5FFE7FFF7F2FD43F60E01C4F20201C6
:1050400080200870FFE780BD80B586B0049004988A
:1050500020B9FFE701208DF8170050E3049800788D
:10506000C007002800F0A580FFE743F60800C4F25F
:105070000200006800F00C00042813D0FFE743F69C
:105080000800C4F20200006800F00C0008281ED1DD
:10509000FFE743F60400C4F2020000684002002863
:1050A00015D5FFE743F60000C4F20200006800F4E3
:1050B00000310020B0EB514F08D0FFE70498406862
:1050C00020B9FFE701208DF8170018E370E0FFE733
:1050D00004984068B0F5803F09D1FFE743F600012E
:1050E000C4F20201086840F48030086020E00498AF
:1050F0004068B0F5A02F0DD1FFE743F60001C4F2E0
:105100000201086840F480200860086840F480309C
:1051100008600CE043F60001C4F20201086820F4C4
:1051200080300860086820F480200860FFE7FFE70F
:10513000FFE704984068E8B1FFE7FEF7A9FA03909B
:10514000FFE743F60000C4F20200006800F40031FB
:105150000020B0EB514F0CD1FFE7FEF799FA03990D
:10516000401A652804D3FFE703208DF81700C6E234
:10517000E7E71CE0FEF78CFA0390FFE743F6000038
:10518000C4F20200006800F400310020B0EB514F7F
:105190000CD0FFE7FEF77CFA0399401A652804D388
:1051A000FFE703208DF81700A9E2E7E7FFE7FFE735
:1051B000FFE7049800788007002840F19680FFE719
:1051C00043F60800C4F20200006810F00C0F13D080
:1051D000FFE743F60800C4F20200006800F00C008C
:1051E00008282CD1FFE743F60400C4F2020000684F
:1051F0004002002823D4FFE743F60000C4F2020077
:10520000006800F002010020B0EB510F09D0FFE769
:105210000498C068012804D0FFE701208DF817002A
:105220006DE243F60001C4F20201086820F0F800C4
:10523000049A126940EAC2000860FFE754E004984B
:10524000C06870B3FFE70021C4F247210120086065
:10525000FEF71EFA0390FFE743F60000C4F20200D7
:10526000006800F002010020B0EB510F0CD1FFE705
:10527000FEF70EFA0399401A032804D3FFE7032030
:105280008DF817003BE2E7E743F60001C4F20201A4
:10529000086820F0F800049A126940EAC200086029
:1052A00021E00021C4F2472100200860FEF7F0F958
:1052B0000390FFE743F60000C4F20200006800F02C
:1052C00002010020B0EB510F0CD0FFE7FEF7E0F930
:1052D0000399401A032804D3FFE703208DF8170031
:1052E0000DE2E7E7FFE7FFE7FFE704980078000734
:1052F00000284BD5FFE70498406918B3FFE740F654
:105300008061C4F2472101200860FEF7C1F90390D3
:10531000FFE743F67400C4F20200006800F00201E7
:105320000020B0EB510F0CD1FFE7FEF7B1F9039964
:10533000401A032804D3FFE703208DF81700DEE1AD
:10534000E7E722E040F68061C4F2472100200860D0
:10535000FEF79EF90390FFE743F67400C4F20200E3
:10536000006800F002010020B0EB510F0CD0FFE705
:10537000FEF78EF90399401A032804D3FFE70320B0
:105380008DF81700BBE1E7E7FFE7FFE70498007837
:105390004007002840F1CE80FFE700208DF807008D
:1053A00043F64000C4F202000068C000002815D493
:1053B000FFE7FFE70020009043F64000C4F2020040
:1053C000016841F080510160006800F08050009059
:1053D0000098FFE701208DF80700FFE747F2000083
:1053E000C4F200000068C005002822D4FFE747F29D
:1053F0000001C4F20001086840F480700860FEF704
:1054000047F90390FFE747F20000C4F2000000688C
:10541000C00500280CD4FFE7FEF73AF90399401ABB
:10542000032804D3FFE703208DF8170067E1EAE7BC
:10543000FFE7FFE704988068012809D1FFE743F6FA
:105440007001C4F20201086840F0010008601FE02A
:105450000498806805280DD1FFE743F67001C4F277
:105460000201086840F004000860086840F001008C
:1054700008600CE043F67001C4F20201086820F0F5
:1054800001000860086820F004000860FFE7FFE7FB
:10549000FFE704988068F8B1FFE7FEF7F9F803909A
:1054A000FFE743F67000C4F20200006800F002015A
:1054B0000020B0EB510F0ED1FFE7FEF7E9F803999A
:1054C000401A41F28931884204D3FFE703208DF866
:1054D000170014E1E5E71EE0FEF7DAF80390FFE7B6
:1054E00043F67000C4F20200006800F002010020E0
:1054F000B0EB510F0ED0FFE7FEF7CAF80399401A40
:1055000041F28931884204D3FFE703208DF8170068
:10551000F5E0E5E7FFE79DF80700012809D1FFE77F
:1055200043F64001C4F20201086820F08050086090
:10553000FFE7FFE704988069002800F0DC80FFE7C0
:1055400043F60800C4F20200006800F00C000828CE
:1055500000F08580FFE70498806902285CD1FFE7AE
:105560006021C4F2472100200860FEF791F8039003
:10557000FFE743F60000C4F20200006800F000718B
:105580000020B0EB516F0CD0FFE7FEF781F80399D4
:10559000401A032804D3FFE703208DF81700AEE07C
:1055A000E7E70499C869D1F820C04B6A8A6A40EAE3
:1055B0000C0040EA8310D2034FF6FF739A43A2F522
:1055C00080321043C96A40EA016043F60401C4F224
:1055D000020108606021C4F2472101200860FEF743
:1055E00057F80390FFE743F60000C4F2020000689A
:1055F00000F000710020B0EB516F0CD1FFE7FEF717
:1056000047F80399401A032804D3FFE703208DF8D5
:10561000170074E0E7E721E06021C4F24721002091
:105620000860FEF735F80390FFE743F60000C4F288
:105630000200006800F000710020B0EB516F0CD048
:10564000FFE7FEF725F80399401A032804D3FFE784
:1056500003208DF8170052E0E7E7FFE74AE00498DF
:105660008069012804D1FFE701208DF8170046E08A
:1056700043F60400C4F202000068029004988069B6
:10568000012831D0FFE7029800F480000499C9692D
:10569000884229D1FFE7029800F03F000499096A87
:1056A000884221D1FFE7029847F6C071084004996B
:1056B000496AB0EB811F17D1FFE7029800F4403030
:1056C0000499896AC9034FF6FF729143A1F58031AD
:1056D000884209D1FFE7029800F070600499C96A16
:1056E000B0EB016F04D0FFE701208DF8170006E052
:1056F000FFE7FFE7FFE700208DF81700FFE79DF8C1
:10570000170006B080BD000080B584B002900298FA
:1057100020B9FFE701208DF80F0071E00298406A80
:1057200060B9FFE702984068B0F5827F01D1FFE7DA
:1057300003E002990020C861FFE705E0029900201C
:10574000086102994861FFE7029900208862029887
:1057500090F8510040B9FFE70299002081F850000D
:10576000029800F051F8FFE70299022081F85100F9
:1057700002980168086820F040000860029A0192CF
:1057800011685068D2F808C0D36800F482700CF435
:10579000044C604403F400631844136903F00203EB
:1057A0001844536903F001031844936903F4007328
:1057B0001844D36903F038031844136A03F08003D4
:1057C0001843926A02F4005210430860029A508B08
:1057D00000F004001168526A02F0100210444860A0
:1057E00002980168C86920F40060C861029900202D
:1057F0004865029A012182F851108DF80F00FFE7E9
:105800009DF80F0004B080BD80B58EB00D900020D3
:105810000C900B900A90099008900D98006843F244
:105820000001C4F2010188425ED1FFE7FFE70020DA
:10583000079043F64400C4F20200016841F480512D
:105840000160006800F4805007900798FFE7FFE7C9
:105850000020069043F63000C4F20200016841F0D7
:1058600002010160006800F0020006900698FFE760
:10587000FFE70020059043F63000C4F20200016803
:1058800041F001010160006800F0010005900598F9
:10589000FFE7182008900220009009900020019056
:1058A0000A90032002900B90052003900C9040F288
:1058B0000040C4F2020008A90491FDF7F5FCDDF8F0
:1058C00000C0019B029A039804994FF0800ECDF816
:1058D00020E0CDF824C00A930B920C900020C4F273
:1058E0000200FDF7E1FCFFE70EB080BD80B58EB091
:1058F000DDF840C00C900B910A92ADF826300120E3
:10590000059000208DF81300FFE70C9890F85000E8
:10591000012804D1FFE702208DF8370095E10C99AA
:10592000012081F85000FFE7FFE7FDF7B1FE069088
:105930000C9890F851008DF81F000C984068089062
:10594000BDF82600ADF824009DF81F00012812D0F4
:10595000FFE70898B0F5827F09D1FFE70C988068CF
:1059600028B9FFE79DF81F00042804D0FFE70220B4
:105970008DF813005AE10B9838B1FFE70A9820B16F
:10598000FFE7BDF8260020B9FFE701208DF81300DE
:105990004CE10C9890F85100042805D0FFE70C99D1
:1059A000052081F85100FFE70C99002048650A990D
:1059B0000C9A9163BDF826100C9AD187BDF8261079
:1059C0000C9A91870B990C9A1163BDF826100C9ACA
:1059D000D186BDF826100C9A91860C9908640C9912
:1059E00048640C980068006800F04000402807D028
:1059F000FFE70C980168086840F040000860FFE786
:105A00000C98C068B0F5006F76D1FFE70C9840683D
:105A100028B1FFE7BDF8240001280ED1FFE70C985C
:105A20000168006B0088C8600C99086B023008633D
:105A30000C99C88E0138C886FFE7FFE70C98C18E25
:105A40000120029039B9FFE70C98C08F002818BFD9
:105A500001200290FFE70298C00700284BD0FFE723
:105A60000C98006880688007002818D5FFE70C981C
:105A7000C08EA0B1FFE70598012810D1FFE70C9870
:105A80000168006B0088C8600C99086B02300863DD
:105A90000C99C88E0138C88600200590FFE70C9845
:105AA00000688068C007A8B1FFE70C98C08F88B174
:105AB000FFE70C980068C0680C99896B08800C9906
:105AC000886B023088630C99C88F0138C887012021
:105AD0000590FFE7FDF7DCFD0699401A1099884212
