:020000040800F2
:1000000058CB002031030008F15500084348000890
:10001000915500082D1A0008B19300080000000057
:100020000000000000000000000000007102000855
:10003000811B000800000000CD020008756B00085D
:100040004B0300084B0300084B0300084B03000858
:100050004B0300084B0300084B0300084B03000848
:100060004B0300084B0300084B0300084B03000838
:10007000D11A00084B0300084B0300084B0300088B
:100080004B0300084B0300084B0300084B03000818
:10009000311A00084B0300084B030008C51B000879
:1000A0004B0300084B0300084B0300084B030008F8
:1000B000496C00084B0300084B0300084B03000881
:1000C0004B0300084B0300084B0300084B030008D8
:1000D0004B0300084B0300084B030008697300083A
:1000E0004B0300084B0300084B0300084B030008B8
:1000F0004B0300084B0300084B0300084B030008A8
:100100004B0300084B0300084B0300084B03000897
:100110004B0300084B0300084B0300084B03000887
:100120004B0300084B0300084B0300084B03000877
:100130004B0300084B0300084B0300084B03000867
:10014000411A00084B0300084B030008F95500084A
:100150004B0300084B0300084B0300084B03000847
:100160004B0300084B0300084B0300084B03000837
:100170004B0300084B0300084B030008000000007D
:100180004B0300084B03000800F002F800F060F891
:100190000AA090E8000C82448344AAF10107DA45E2
:1001A00001D100F055F8AFF2090EBAE80F0013F0D4
:1001B000010F18BFFB1A43F00103184724E10000A8
:1001C00044E100000A444FF0000C10F8013B13F02A
:1001D000070408BF10F8014B1D1108BF10F8015BA0
:1001E000641E05D010F8016B641E01F8016BF9D193
:1001F00013F0080F1EBF10F8014BAD1C0C1B09D1EA
:100200006D1E58BF01F801CBFAD505E014F8016B5B
:1002100001F8016B6D1EF9D59142D6D370470000ED
:100220000023002400250026103A28BF78C1FBD8FF
:10023000520728BF30C148BF0B6070471FB50DF093
:100240002FF89DE8030000F037FF1FBD10B510BD6B
:1002500000F0DCFF1146FFF7F1FF0AF06DFE00F041
:10026000FAFF03B4FFF7F2FF03BC01F031F800001E
:100270002C4B19680868B0E8F04F80F30988BFF389
:100280006F8F4FF0000080F311887047000000006E
:1002900008480068006880F308884FF0000080F389
:1002A000148862B661B6BFF34F8FBFF36F8F00DF64
:1002B00000BF00BF08ED00E0DFF80C00016841F46A
:1002C00070010160704700BF88ED00E0EFF3098026
:1002D000BFF36F8F134B1A681EF0100F08BF20ED8D
:1002E000108A20E9F04F106009B44FF0500080F3FD
:1002F0001188BFF34F8FBFF36F8F0BF0ABFA4FF046
:10030000000080F3118809BC19680868B0E8F04F54
:100310001EF0100F08BFB0EC108A80F30988BFF3FD
:100320006F8F7047C8020020EFF305807047000010
:100330000948804709480047FEE7FEE7FEE7FEE779
:10034000FEE7FEE7FEE7FEE7FEE7FEE704480549B5
:10035000054A064B70470000396C00088901000807
:10036000588B002058CB002058AB002058AB002001
:10037000B5EEC00AF1EE10FA07D2DFED1E0AB4EEB8
:10038000E00AF1EE10FAA8BF7047DFED1B0AB5EEE8
:10039000C00A60EE200ABDEEE01A11EE100AF1EE7E
:1003A00010FA38BF401E00EE100A1549F7EE001A89
:1003B000B8EEC00A30EEC00ADFED100A60EE200A87
:1003C000BCEEE00A10EE100AC0F3080000EE100ABE
:1003D00001EB8000B8EE400A90ED011A70EEC00A01
:1003E00090ED000A71EEE01A21EE800A00EE810A1B
:1003F00070470000CD024CB483F9223E0000004457
:1004000094D8000870B405880E884468D1F804C0F8
:100410005368B54208D140884988884201BF118895
:100420008D425188884203D070BC6FF00200704743
:1004300005FB00F1880827D094ED001ADCED000AD6
:1004400094ED010ADCED011A31EE201AD4ED020A16
:1004500070EE211A9CED020A83ED001AC3ED011A19
:1004600094ED031ADCED031A30EE800A401E71EEA3
:10047000210A83ED020A04F11004C3ED030A03F11B
:1004800010030CF1100CD7D111F0030030D0B0F1F3
:10049000004F30D200282BDD211F1B1FACF10402BE
:1004A00010F0010F0AD091ED010AD2ED010A091DE9
:1004B000121D30EE200A83ED010A1B1D400817D0E3
:1004C00091ED010AD2ED010A401E30EE200A83EDC3
:1004D000010A91ED020AD2ED020A01F1080102F1CE
:1004E000080230EE200A83ED020A03F10803E7D187
:1004F00070BC00207047B4EC010A401EFCEC010AFD
:1005000030EE200AA3EC010AF5D1F1E70180428028
:10051000436070472DE9F34F84B004984068009021
:10052000486801900498B0F800E04588DFEDFE0AC5
:1005300000200290B0EE600AAE4506D108884988D6
:10054000884204BF7146864504D06FF0020006B0B1
:10055000BDE8F08F01985FEA010C18BFB7EE001AF2
:100560003DD000BFBEEB0C0117D0B1F1004F80F0C1
:100570001F82002911DD021F11F0010F1CBFC2ED07
:10058000010A121D4B1006D0C2ED010AC2ED020A8B
:1005900008325B1EF8D100EB8100BCF10102A0EC37
:1005A000011A19D0B2F1004F80F00882002A13DD41
:1005B000031F12F0010F1CBFC3ED010A1B1D5110D8
:1005C00008D000BFC3ED010AC3ED020A491E03F1C2
:1005D0000803F7D100EB8200BCF1010CC2D14FF04F
:1005E00000080395002D14BFB0EE602A002000F033
:1005F000BF8100BF009908FB05F001EB800B01995A
:10060000DBED002A01EB80000346F0EE421AC645FE
:1006100052D9AEEB0802ABEB850112F0010F17D0F7
:1006200001EB850191ED000AB5EEC00AF1EE10FA7A
:1006300007DDB4EEE10AF1EE10FA09DDF0EE401A42
:1006400006E0B1EE400AF4EEC01AF1EE10FAF5D36E
:10065000521031D001EB850C9CED000AB5EEC00ABA
:10066000F1EE10FA05DDB4EEE10AF1EE10FA09DD63
:1006700006E0B1EE400AF4EEC01AF1EE10FA01D233
:10068000F0EE401A01EBC50191ED000AB5EEC00A8B
:10069000F1EE10FA05DDB4EEE10AF1EE10FA09DD33
:1006A00006E0B1EE400AF4EEC01AF1EE10FA01D203
:1006B000F0EE401A521ECDD1F5EEC01AF1EE10FA4E
:1006C00000F07381F5EEC02A0126F1EE10FA0099D0
:1006D000D4BFB1EE620AB0EE620AB4EE610AF1EE86
:1006E00010FA1CBFAEEB0802B2F1010C47D005FBBB
:1006F00008F201EB820292ED001A00BFB0EE410A4F
:1007000005FB06F4B5EEC00A00EB8404F1EE10FA26
:10071000CCBFF0EE400AF1EE400AF4EE610AF1EED1
:1007200010FA28D1B5EB080C11D0BCF1004F7DD2E6
:10073000BCF1000F0BDD00BF92ED000AD1ED000A05
:10074000BCF1010CE2EC010AA1EC010AF4D1290090
:100750000ED0B1F1004F6AD2002909DD94ED000AF4
:10076000D0ED000A491EE4EC010AA0EC010AF5D123
:10077000012002900BE0761CBCF1010CBED1029866
:10078000012804D0F5EEC02AF1EE10FA7ED09BEDE0
:10079000000AB5EB08009A465946064622D0B0F149
:1007A000004F74D200281DDD091F10F0010F06D084
:1007B000F0EE400A80EEA01A81ED011A091D4010EA
:1007C00010D000BFD1ED010A401E80EE801A81EDED
:1007D000011A91ED021AC1EE000AC1ED020A01F1FF
:1007E0000801EFD1280026D0B0F1004F7ED20028BA
:1007F00021DDAAF1040110F0010F06D0D1ED010AAC
:1008000080EE801A81ED011A091D401013D000BF3F
:10081000D1ED010A401E80EE801A81ED011AD1ED62
:10082000020A80EE801A81ED021A01E0CBE0D6E0E8
:1008300001F10801ECD1DDE900124FF000095FEA97
:100840000E0773D0C14504BF01EB860102EB8502A0
:1008500074D091ED000ADC465046331E35D01C465C
:10086000B6F1004F7ED2002C2FDD0B1FABF1040C34
:1008700016F0010F0FD0F0EE400ADCED011AB0EED9
:10088000601A00EEE11A83ED011A01E08DE0B1E09B
:100890001B1D0CF1040C741015D000BFD3ED010A20
:1008A0009CED011A40EE410AC3ED010AD3ED020AA4
:1008B0009CED021A0CF1080C40EE410AC3ED020A4D
:1008C0000833641EEAD101EB86012B0036D0B3F168
:1008D000004F72D2002B31DDA2F1040CAAF104000A
:1008E00013F0010F0CD0DCED010A00E08BE090ED7D
:1008F000011A001D40EE410ACCED010A0CF1040C76
:100900005C1019D0DCED010A90ED011A40EE410AAD
:10091000CCED010ADCED020A90ED021A083040EE3F
:10092000410ACCED020A03E0000000000DE005E002
:10093000641E0CF1080CE5D102EB830201EB880187
:100940007F1E09F101097FF47DAF009808F10108CD
:10095000001D00900398401E03907FF44BAE029957
:10096000012900E058E004BF06B0BDE8F08F00BFE9
:10097000B5EEC00AF1EE10FA7FF4E9AD04990EFB72
:1009800005F3002B4A684FF000010BD902EB810CF4
:100990009CED000AB5EEC00AF1EE10FA02D1491C36
:1009A0008B42F3D88B427FF4D2AD6FF00400CEE5DA
:1009B000E0EC010A491EFBD1EFE538E0E0EC010A6A
:1009C000521EFBD108E692ED000AD1ED000ABCF1FF
:1009D000010CE2EC010AA1EC010AF4D1B7E694EDB6
:1009E000000AD0ED000A491EE4EC010AA0EC010A5D
:1009F000F5D1BDE6D1ED000A401E80EE801AA1ECD3
:100A0000011AF7D1EEE6D3ED000A401E80EE801AFF
:100A1000A3EC011AF7D10EE7BCEC011AD1ED000AE4
:100A20005B1E40EE410AE1EC010AF5D14DE7B0EC66
:100A3000011AD2ED000A5B1E40EE410AE2EC010A07
:100A4000F5D17BE72DE9F04F82B0466853680193FA
:100A5000058847884B88002000900888874201BF9E
:100A6000B2F800C06545528893421EBF6FF0020085
:100A700002B0BDE8F08F9FED412A4FEA970EC7F311
:100A8000400B00BFDDE9000202EB800A4A6898468D
:100A90004FF00009B0EE420AB4465FEA0E0025D0DE
:100AA00092ED001ADCED001A02EB8302DCED010A84
:100AB00001EE810A92ED001A02EB8302401ED2ED94
:100AC000001A02EB830200EE810A9CED021ADCEDB3
:100AD000030A00040CF1100C000C01EE210A92ED47
:100AE000001A02EB830200EE810AD9D117F003004D
:100AF00026D0ACF10404A2EB830210F0010F08D061
:100B000002EB8302D4ED010A92ED001A241D00EEDF
:100B1000810A5FEA0B0013D002EB830CD4ED010ACB
:100B20009CED001A02EBC302401E00EE810AD4EDD8
:100B3000020A92ED001A04F1080400EE810AEBD1DA
:100B400009F10100AAEC010A1FFA80F9486800EBDC
:100B50008902A8F101001FFA80F8B8F1000F99D1BD
:100B6000009806EB8706184480B20090681E0504C2
:100B70002D0C87D102B00020BDE8F08F00000000EE
:100B800070B405880E884468D1F804C05368B54233
:100B900008D140884988884201BF11888D42518818
:100BA000884203D070BC6FF00200704705FB00F173
:100BB000880827D094ED001ADCED000A94ED010AB4
:100BC000DCED011A31EE601AD4ED020A70EE611A02
:100BD0009CED020A83ED001AC3ED011A94ED031A8D
:100BE000DCED031A30EEC00A401E71EE610A83ED9F
:100BF000020A04F11004C3ED030A03F110030CF11F
:100C0000100CD7D111F0030030D0B0F1004F30D22A
:100C100000282BDD211F1B1FACF1040210F0010F77
:100C20000AD091ED010AD2ED010A091D121D30EE24
:100C3000600A83ED010A1B1D400817D091ED010ADF
:100C4000D2ED010A401E30EE600A83ED010A91EDFB
:100C5000020AD2ED020A01F1080102F1080230EEA7
:100C6000600A83ED020A03F10803E7D170BC00209B
:100C70007047B4EC010A401EFCEC010A30EE600A39
:100C8000A3EC010AF5D1F1E72DE9F04F028847689E
:100C9000B0F802804888D1F8049082B04FF0000A82
:100CA0001646824207BF098888456FF0020002B0ED
:100CB00018BFBDE8F08F4FEA980B02EB420001909D
:100CC000C8F34000CDF8000009EB8A01BBF1000F2A
:100CD00033D0019801EB820C01EB80043B46E646E1
:100CE00001EBC2054FEA0B0093ED000A401E81EDB7
:100CF000000A93ED010A01EB02118CED000A93ED5D
:100D0000020A0CEB021C85ED000A93ED030A05EBC9
:100D1000021584ED000A04EB021403F11003E3D181
:100D20000EEB820000EB820000EB8201ABF10100D0
:100D3000504307EB0B1701EB001118F0030C21D007
:100D40003B1FA1EB82011CF0010F06D093ED010ABD
:100D500001EB82011B1D81ED000A009880B100BFEC
:100D600093ED010A01EB820401EBC20184ED000A5C
:100D700093ED020A401E81ED000A03F10803EFD152
:100D800007EB8C070AF101001FFA80FA701E0604B7
:100D9000360C99D102B00020BDE8F08F70B5064640
:100DA00000F06EF9056806F10B0020F00704B4426C
:100DB0009CBF002070BD2B466A68BAB11068A04283
:100DC00010D304F1080188423CBF5068586007D333
:100DD0005168101941601168091B01605860146066
:100DE000101D70BD13465268002AE7D121462846DF
:100DF00000F04EF90028DED170BD53EA020C00F07D
:100E000069802DE9F04B4FF00006002B1FBFB3FAAD
:100E100083F503FA05F424FA05F65E4012BF164383
:100E2000B2FA82F502FA05F4C5F120051EBF22FAD6
:100E300005FC44EA0C04203556EA044C4FEA1444FD
:100E400018BF641C4FF000084FF00009904271EB8E
:100E5000030C39D3002919BFB1FA81F701FA07F65B
:100E6000B0FA80F700FA07F6C7F120071EBF20FA94
:100E700007FC46EA0C062037B6FBF4FCA7EB050797
:100E8000103F07F01F0BCBF120060CFA0BFB2CFADE
:100E900006F644BFB3460026202FA4BF5E464FF09F
:100EA000000B5BEA060C08BF4FF0010B19EB0B09B6
:100EB000ABFB027C48EB0608C01B06FB02CC0BFB1D
:100EC00003CC71EB0C01C1E70B4602464146484694
:100ED000BDE8F08B13B54FF000004FF00001AFF309
:100EE0000080BDE81C407047032A40F2308010F0BB
:100EF000030C00F0158011F8013BBCF1020F6244B5
:100F000098BF11F801CB00F8013B38BF11F8013B45
:100F1000A2F1040298BF00F801CB38BF00F8013BF2
:100F200011F0030300F02580083AC0F0088051F862
:100F3000043B083A51F804CBA0E80810F5E7121D6D
:100F40005CBF51F8043B40F8043BAFF30080D2078C
:100F500024BF11F8013B11F801CB48BF11F8012B58
:100F600024BF00F8013B00F801CB48BF00F8012B7B
:100F7000704710B5203AC0F00B80B1E81850203A05
:100F8000A0E81850B1E81850A0E81850BFF4F5AF29
:100F90005FEA027C24BFB1E81850A0E8185044BFB3
:100FA00018C918C0BDE810405FEA827C24BF51F820
:100FB000043B40F8043B08BF7047D20728BF31F814
:100FC000023B48BF11F8012B28BF20F8023B48BF65
:100FD00000F8012B704702F0FF0343EA032242EAC4
:100FE000024200F002B84FF000020429C0F0128063
:100FF00010F0030C00F01B80CCF1040CBCF1020FCC
:1010000018BF00F8012BA8BF20F8022BA1EB0C01A0
:1010100000F00DB85FEAC17C24BF00F8012B00F896
:10102000012B48BF00F8012B70474FF0000200B5BC
:10103000134694469646203922BFA0E80C50A0E8FB
:101040000C50B1F12001BFF4F7AF090728BFA0E8A9
:101050000C5048BF0CC05DF804EB890028BF40F875
:10106000042B08BF704748BF20F8022B11F0804FB7
:1010700018BF00F8012B7047704770477047000099
:1010800000487047008B00207047704770477047DA
:1010900038B504460A4600206946AFF300800028B0
:1010A00008BF38BD02460099204600F075F80120BF
:1010B00038BD012000F0A2B8F8B5AFF300800546B6
:1010C00000200C46102000BF0646A819A0420DD9EA
:1010D000324669460020AFF30080070008BF00F0E9
:1010E0008DF80098A04218BF0546C419FFF7C8FF45
:1010F00005600746F01D20F007004619284600F05D
:101100000AF8B44208BFF8BDA21B31463868BDE8F2
:10111000F84000F041B800210160C0E901107047BB
:101120001020704770B50446051FFFF7A9FF00683F
:10113000002C14BF446870BD002C18BFAC423CBFEB
:1011400020466468F8D301680A18AA4218BF4560AF
:1011500003D12A6805461144016028684119A1425B
:101160001CBF6C6070BD61686960216808442860BC
:1011700070BD10B500F00CF8006810BD10B5044645
:1011800000F006F8046010BD00487047F88A00209F
:1011900000487047F88A0020034640688C460028C3
:1011A00018BF88423CBF03464068F8D3186818440B
:1011B000884207D00CF1030020F00700001D411AFF
:1011C000521A0146081D0A60FFF7ACBF1FB584B074
:1011D00000200A9C06AB04AA02A90094AFF3008089
:1011E00018B1DDE9020108B010BD0348204000F04D
:1011F00040F800200146F6E70000207C10B500F022
:101200003FF8BDE8104000F02FB870477546FFF773
:10121000BBFFAE4605006946534620F007008546F1
:1012200018B020B5FFF792F8BDE820404FF0000657
:101230004FF000074FF000084FF0000B21F00701BE
:10124000AC46ACE8C009ACE8C009ACE8C009ACE801
:10125000C0098D46704710B50446AFF300802046A4
:10126000BDE81040FEF7FDBF002801D000F030B807
:10127000704710B500F04CF8BDE81040FFF7F4BF20
:1012800010B5012805D0002103A000F027F80120A7
:1012900010BD09A1F8E7000053494752544D454D90
:1012A0003A204F7574206F662068656170206D6507
:1012B0006D6F7279000000003A2048656170206D02
:1012C000656D6F727920636F7272757074656400FA
:1012D00001491820ABBEFEE72600020070B50546A6
:1012E0000C460A2000E06D1C00F068F835B1287843
:1012F0000028F8D102E0641C00F060F814B12078F6
:101300000028F8D1BDE870400A2000F057B800006E
:1013100010B5022803D0410103D50DA112E0002031
:1013200010BD010101D50FA10CE0C10001D511A133
:1013300008E0810001D512A104E0400001D513A10D
:1013400000E0002115A0FFF7C9FF012010BD00003B
:10135000496E76616C6964204F7065726174696F63
:101360006E000000446976696465204279205A6500
:10137000726F00004F766572666C6F770000000038
:10138000556E646572666C6F77000000496E657813
:1013900061637420526573756C740000534947464D
:1013A00050453A2041726974686D657469632065BF
:1013B0007863657074696F6E3A20000008B56946FD
:1013C0008DF800000320ABBE08BD000001221021F3
:1013D000014801F085BA00000000024000221021FF
:1013E000014801F07DBA0000000002402DE9F04103
:1013F000FFF7F4FF802000F07BFA552000F078FA28
:10140000552000F075FAFFF7E1FF962000F0C4FBCD
:10141000FFF7E4FF802000F06BFA552000F068FA37
:10142000552000F065FAFFF7D1FF962000F0B4FBDD
:10143000FFF7D4FFB6217E2000F0A0FAFFF7C6FF29
:10144000502000F09EFBFFF7C9FF802000F050FA0B
:10145000552000F04DFA552000F04AFAFFF7B6FF8C
:10146000962000F099FBFFF7B9FF802000F040FACA
:10147000552000F03DFA552000F03AFA0446FFF7F7
:10148000A5FF962000F088FB1E2C02D0FF20BDE8AF
:10149000F0810024174FFFF7A1FF04EB4405EE197C
:1014A000785D717800F06AFAFFF790FF962000F0FF
:1014B00073FBFFF793FF785D40F0800000F018FAAF
:1014C000552000F015FA552000F012FA0546FFF7F6
:1014D0007DFF962000F060FB7078A84204D004EBFA
:1014E000440038448078D2E7641CE4B2062CD2D39E
:1014F0000020CCE72C02002001221146014801F017
:10150000EFB900000004024000220121014801F06F
:10151000E7B9000000040240F8B500200090FFF792
:10152000F3FF6946002000F0D7F9FFF7E5FF9620AA
:1015300000F032FBFFF7E8FF6946002000F0CCF92D
:10154000FFF7DAFF962000F027FBFFF7DDFFB6215B
:10155000142000F013FAFFF7CFFF502000F011FB2A
:10156000FFF7D2FF6946002000F0B6F9FFF7C4FF8D
:10157000962000F011FBFFF7C7FF6946002000F03E
:10158000ABF9FFF7B9FF962000F006FB9DF80000CD
:101590000F2801D0FF20F8BD0024154FFFF7B4FF3E
:1015A00004EB4405EE19785D717800F0E7F9FFF778
:1015B000A3FF962000F0F0FAFFF7A6FF785D6946DA
:1015C00000F08AF9FFF798FF962000F0E5FA7078AE
:1015D0009DF80010884204D004EB44003844807821
:1015E000F8BD641CE4B2062CD8D30020F8BD00007E
:1015F0003E0200207CB50446002000900190FFF7D9
:10160000EDFE922000F074F906226946122000F0E7
:1016100051F9FFF7DBFE9DF800009DF8011040EA4C
:10162000012000B220849DF802109DF8032041EAB9
:10163000022109B261849DF804209DF8053042EA38
:10164000032212B2A28400EE100A454DF8EEC00A41
:1016500095ED000A60EE800AC4ED010A00EE901AD2
:10166000F8EEE00A60EE800AC4ED020A00EE902A6D
:10167000F8EEE00A20EE800A84ED030AFFF7AEFEE2
:10168000A22000F035F902226946222000F012F96A
:10169000FFF79CFE9DF800009DF80110C00040EA95
:1016A0005110A085B0F5806F02DBA0F50060A08529
:1016B000B4F92C00B4EE001A00EE100AF8EEC00ADD
:1016C000B3EE070A00EE810A84ED070AFFF71CFF5C
:1016D00008226946002000F0EDF8FFF70DFF9DF8A5
:1016E00000000F2814D19DF802009DF8031040EA75
:1016F0000120E0849DF804009DF8051040EA0120D7
:1017000020859DF806009DF8071040EA01206085BD
:10171000B4F92600D4ED0C0A00EE100AB8EEC01A97
:1017200095ED010A50EE010AC4ED040AB4F928004F
:10173000D4ED0D0A01EE100AB8EEC11A50EE010AFE
:10174000C4ED050AB4F92A00D4ED0E0A01EE100A20
:10175000B8EEC11A50EE010AC4ED060A7CBD0000C5
:101760002402002070B50024FFF740FE40EA040583
:10177000FFF7D2FE40EA0504022000F002FA002C36
:10178000F2D1BDE87040014800F002B8E806002040
:101790007CB50446002000900190002541F2883677
:1017A000FFF71CFE922000F0A3F8062269461220E3
:1017B00000F080F8FFF70AFE9DF801009DF8001088
:1017C00041EA002020849DF803009DF8021041EAC0
:1017D000002060849DF805009DF8041041EA002077
:1017E000A084FFF791FE08226946002000F062F80D
:1017F000FFF782FE9DF800000F2838D19DF8030006
:10180000000201B29DF802000143E1849DF8050049
:101810009DF80420000200B2104320859DF80720A7
:101820009DF80630120212B21A43628500EE101AB9
:101830001E49D4ED0C0AB8EEC01A91ED010A40EE33
:10184000010AC4ED0C0A00EE900A94ED0D1AF8EEB0
:10185000E00A00EE201A84ED0D1A00EE902A94EDB5
:101860000E1AF8EEE00A00EE201A84ED0E1A01209E
:1018700000F087F96D1CADB2B54291D3D4ED0C0ADE
:101880009FED0B0A80EE801A84ED0C1AD4ED0D0A40
:1018900080EE801A84ED0D1AD4ED0E0A80EE801AC7
:1018A00084ED0E1A012020707CBD0000240200206F
:1018B00000409C4570B50D46144640F0800000F095
:1018C00017F806E0552000F013F805F8010B641E28
:1018D000E4B2002CF6D170BD10B50C4640F080008B
:1018E00000F006F8552000F003F8207010BD00004D
:1018F00001B582B0002001904FF47A70009001236E
:1019000001AA02A9024802F087F99DF804000EBD61
:101910002C0C002010B5F0EE400A9FED130A13487E
:1019200009F018FA1148124A90ED0A0A10EE101A3E
:10193000914204DD9FED0F0A80ED0A0A08E0B5EE42
:10194000C00AF1EE10FA03D29FED0B0A80ED0A0AED
:1019500090ED0A0ABDE81040BCEEC00A10EE100A75
:1019600080B202F06FBF000000002042D8040020C7
:101970000000FA440000FA440000000010B50C46D4
:10198000FFF7B6FF2046BDE81040FFF7B1BF0000EB
:1019900000B58BB0282101A8FFF747FB0121099171
:1019A0000020079008910190029003900490069007
:1019B00005900A9001A9104800F04EF908B100F016
:1019C00004F90D4800F0A5FC02210B4800F032F9A3
:1019D0000E2006900A9001A9084800F03DF908B1D0
:1019E00000F0F3F8054800F094FC0221034800F0F1
:1019F00021F90BB000BD0000DC0B0020040C00201E
:101A000008B5242000900448044B0168A3F1240287
:101A1000091D05F0AFFC08BD140D0020640700206F
:101A20000021014802F0C8BCCC0C0020FEE70000F9
:101A3000014800F01DBA0000DC0B002070470000D8
:101A4000014800F015BA0000040C0020704704287B
:101A50004FF00000704700207047000010B50022D2
:101A60000449054805F0C6FE0449034805F0B4FEE4
:101A7000002010BDCC7B0020F06E0020CC73002035
:101A800010B50446204603F085FD2146034805F0C5
:101A9000A3FE024805F074FE002010BDF06E002089
:101AA0000020704710B50A460849D1F8BC12D1F899
:101AB0001412002901D0012010BD0146034805F091
:101AC00099FEBDE81040014805F02ABFF06E0020E5
:101AD000014800F0ABBC0000580D00200168CAB2FC
:101AE000103A1823B2FBF3F2064B9B5CC3656FF30D
:101AF0000901032A02D9091D816500E08165806D15
:101B0000704700008CD8000810B5014600208A6A92
:101B10008B694FF0C074002B0ED0B3F5005F1AD064
:101B200062B3012A2AD0022A28D0032A03D1C96A23
:101B3000C90100D5012010BD1AB1012A06D0022A20
:101B4000F9D1C96AC901F6D5012010BDC96AA142FF
:101B5000FBD1012010BD52B1012A0AD0022A06D0C1
:101B6000032AF7D1C96AA142F4D1012010BD012096
:101B700010BDC96AC901FBD5012010BD012010BDEF
:101B8000704770B5054600F0B3FE044600F0B0FEA5
:101B9000001BA842FAD370BD70B5054602F044FEA2
:101BA000044602F041FE001BA842FAD370BD0000BB
:101BB000034804F0ADFB052009F0DFF9F8E7000069
:101BC0009C020020202000F097BD72B6FEE70000C6
:101BD000F6EE000A60EE200A10EE100A0649A1EBAC
:101BE000600000EE100A20EE801AF7EE080A41EEBF
:101BF000400A20EE800A7047865A375F10B50B48BE
:101C00000168001D0468001D0068084400280BD00E
:101C10000822074902F004FF054920460422BDE8D6
:101C20001040103102F0FCBE10BD0000107AFF1F02
:101C30007203002090F82020012A07D0022A05D044
:101C4000416A41F480214162012070470068426985
:101C50000A4342610020704710B590F82020012A05
:101C600007D0022A05D0416A41F480214162012057
:101C700010BD3C4800F50070026842F001020260AD
:101C8000026822F47C52026002684B6A42EA032234
:101C900002600A7D02F01F0301229A40C369934348
:101CA000C361A0F50070CB69B3B9D0F80C3293438F
:101CB000C0F80C328C894B6864F31F434C6900EB0D
:101CC000C404C4F840320C890B6864F31F434C69A8
:101CD00000EBC404C4F84432CB69012B16D1D0F810
:101CE0000C321343C0F80C320C884B6864F31F436A
:101CF0004C6900EBC404C4F840320C89CB6864F32F
:101D00001F434C6900EBC404C4F844328B697BB1B7
:101D1000D0F804321343C0F804320B6973B1D0F821
:101D200014321343C0F81432096A01290CD010E0B0
:101D3000D0F804329343C0F80432EEE7D0F81432FE
:101D40009343C0F81432EFE7D0F81C121143C0F8E7
:101D50001C12D0F8001221F00101C0F8001200207E
:101D600010BD000000640040704730B590F820407E
:101D7000012C07D0022C05D0416A41F48021416238
:101D8000012030BD21B104682469A4075FD003E0BD
:101D90000468E468A40754D04FF4D874056804EBD1
:101DA00001142D5905F004059560F5B305682D590A
:101DB000ED08556005682C5904F00204D4604FF416
:101DC000DA74056804EB01142D5905F00F0515614F
:101DD00005682D59C5F30725956105682C59240C14
:101DE00054614FF4DC72046802EB0112A4581C70B9
:101DF0000468A458240A5C700468A458240C9C70DD
:101E00000468A258120EDA704FF4DE72046802EB16
:101E10000112A4581C710468A458240A5C71046857
:101E2000A458240C9C71046800E016E0A258120E1D
:101E3000DA71B9B10068016941F020010161002047
:101E400030BD416A41F400114162012030BD416A58
:101E500041F400114162012030BD05682D596D0D1E
:101E60001560A7E70068C16841F02001C160E6E79E
:101E70002DE9F05F0546002428684669D0F80490F3
:101E80008768D0F80CA0D0F810B0D0F81880F1070F
:101E900048D0F90714D001218160B80703D528463E
:101EA00000F064FA0CE0780702D54FF4006407E014
:101EB000380702D54FF4805402E0284600F055FA66
:101EC000F80516D529684FF480708860B80503D5E9
:101ED000284600F04DFA0CE0780502D544F4005491
:101EE00007E0380502D544F4804402E0284600F0BB
:101EF0003EFAF80316D529684FF480308860B8039D
:101F000003D5284600F036FA0CE0780302D544F4F5
:101F1000004407E0380302D544F4803402E0284648
:101F200000F027FA300707D55FEACA6004D544F409
:101F3000007429681020C86070074FF0080707D5A3
:101F40005FEA0A7004D52868C760284600F0B8F92F
:101F5000B00706D52868C068800702D0284600F080
:101F6000B1F9700607D55FEACB6004D544F480640C
:101F7000296810200861B00607D55FEA0B7004D508
:101F800028680761284600F0C1F9F00606D52868E0
:101F90000069800702D0284600F0B9F9B00308D5DF
:101FA0005FEAC96005D5296810204860284600F01E
:101FB000AFF9F00307D55FEA097004D528684760D8
:101FC000284600F0D8F9300446D55FEA497040D57C
:101FD000F00504D55FEAC87001D044F00104B005F3
:101FE00004D55FEA887001D544F00204700504D579
:101FF0005FEA487001D544F00404300529D518F093
:10200000700F26D008F07000402815D006DC10288C
:1020100009D020280AD0302816D10AE050280ED046
:10202000602811D10EE044F008040DE044F01004E3
:102030000AE044F0200407E044F0400404E044F0E7
:10204000800401E044F480742868816921F0700103
:102050008161296804204860002C05D0686A20430B
:1020600068622846FFF780FEBDE8F09F70B5044621
:10207000002C03D094F8200010B104E0012070BDC2
:10208000204600F09DF82068016841F001010160E0
:1020900000F02EFC054605260CE000F029FC401B54
:1020A0000A2807D9606A40F40030606284F8206032
:1020B000012070BD20684068C007EED0206801682C
:1020C00021F00201016000F013FC05460CE000F075
:1020D0000FFC401B0A2807D9606A40F40030606298
:1020E00084F82060012070BD206840688007EED42D
:1020F000207E01283FD02068016821F08001016026
:10210000607E01283DD02068016821F04001016017
:10211000A07E01283BD02068016821F020010160E9
:10212000E07E012839D02068016841F0100101608B
:10213000207F012837D02068016821F00801016064
:10214000607F012835D02068016821F0040101601A
:10215000D4E902010843D4E9041211430843616839
:10216000491E08432168C86100206062012084F88C
:102170002000002070BD2068016841F080010160EE
:10218000BEE72068016841F040010160C0E72068B7
:10219000016841F020010160C2E72068016821F078
:1021A00010010160C4E72068016841F00801016086
:1021B000C6E72068016841F004010160C8E700003B
:1021C0002DE9F04186B00446142101A8FEF72DFF49
:1021D000364B374ADFF8D08018682168344C032624
:1021E0000227401C103200254FF0090C414527D131
:1021F0001860012807D1106840F000701060106866
:1022000000F000700090206840F008002060206816
:1022100000F0080000900196029703950496CDF80F
:1022200014C001A9234800F073FA002205211420EC
:1022300000F0FCFB142000F0EBFB06B0BDE8F081E1
:10224000DFF874804145F8D1116841F08061116078
:10225000116801F0806100911860012807D11068B1
:1022600040F000701060106800F00070009020686E
:1022700040F002002060206800F002000090602022
:102280000190029703950496CDF814C001A90B485C
:1022900000F03EFA00220521402000F0C7FB40205C
:1022A00000F0B6FBC9E7000000640040C002002057
:1022B00030380240000C0240006800400004024038
:1022C0007047000010B504460C4B0D4A0021204613
:1022D000FFF74BFD0B492068884205D1BDE810404F
:1022E00006490748FFF7AABB0749884205D1BDE860
:1022F000104002490248FFF7A9BB10BDE8010020C9
:10230000CC06002000640040006800407047704721
:10231000704770B5044694F82000012805D0606A23
:1023200040F400206062012070BD022084F820008B
:102330002068016821F00101016000F0D9FA05462A
:102340000DE000F0D5FA401B0A2808D9606A40F475
:1023500000306062052084F82000012070BD2068F4
:102360004068C007EDD1606270BD7047704770472C
:1023700070477047704770472DE9F0410446A76DDC
:1023800000F0B6FA054694F835000026022806D07B
:102390008020606584F834600120BDE8F081206809
:1023A000016821F0160101602068416921F0800177
:1023B0004161206C08B9A06C20B12068016821F04F
:1023C000080101602068016821F0010101600BE053
:1023D00000F08EFA401B052806D9202034342062F4
:1023E000032060702670D8E720680068C007EFD12E
:1023F00034343F2094F828108840B8600120607081
:1024000026700020C9E790F83510022903D08021FA
:10241000416501207047052180F83510006801688A
:1024200021F0010101600020704700002DE9F84310
:1024300004464FF00009CDF800906F484FF4165154
:102440000068B0FBF1F7A56D2E6894F85C000822D7
:1024500002FA00F1314210D02068016849070CD51A
:10246000016821F00401016094F85C0002FA00F1B7
:10247000A960606D40F00100606594F85C104FF059
:10248000010808FA01F0304208D0216849690906BC
:1024900004D5A860606D40F00200606594F85C109F
:1024A00004208840304208D021680968890704D593
:1024B000A860606D40F00400606594F85C10102026
:1024C0008840304220D02168096809071CD5A860DF
:1024D0002068016849030CD50068000304D4216C0E
:1024E00091B1204688470FE0A16C69B1204688472A
:1024F0000AE00168C90503D4016821F00801016000
:10250000216C09B12046884794F85C10202088404F
:1025100030424CD021680968C90648D5A86094F8B3
:10252000350005280BD020680168490330D50068C4
:10253000000328D4616C51B32046884737E02068F7
:10254000016821F0160101602068416921F08001D5
:102550004161206C08B9A06C20B12068016821F0AD
:102560000801016094F85C103F208840A86084F85E
:10257000358084F83490216D00293BD001B020468D
:10258000BDE8F0430847E16B09B1204688470EE0FB
:102590000168C90507D4016821F01001016084F8C1
:1025A000358084F83490E16B09B120468847606D2E
:1025B00000281FD0606DC00714D0052084F83500B6
:1025C0002068016821F0010101600098401C009022
:1025D000B84203D820680068C007F6D184F8358077
:1025E00084F83490E16C002904D001B02046BDE8A5
:1025F000F0430847BDE8F883C40200202DE9F0410C
:10260000044600F075F905465CB1022084F83500F7
:10261000002684F834602068016821F0010101601F
:102620000DE00120BDE8F08100F062F9401B0528B3
:1026300005D920206065032084F83500F2E7206882
:102640000068C007F0D121680A6820480240D4E938
:1026500001031843D4E903352B4318436369184336
:10266000A3691843E3691843236A18431043626A55
:10267000042A03D1D4E90B231A43104308602068CD
:10268000406920F00700656A2946054301270429AF
:102690000DD1A06A0543E06A48B12046FFF734FA3D
:1026A00028B14020606584F835700120BAE72068C1
:1026B00045612046FFF712FA94F85C203F219140D3
:1026C0008160666584F835700020ABE73F8010F0CC
:1026D00070B5044600F00CF90546601C02D00448B1
:1026E0000078044400F004F9401BA042FAD370BD06
:1026F000300300207047000010B504490A68024208
:1027000002D00860FFF7F6FF10BD0000143C014046
:102710002DE9F84F0022DFF89C914FF001080327C4
:102720004FF00F0C09F1040AA9F1040B08FA02F5A5
:102730000B682B40AB426ED10C7904F00304012CE2
:1027400001D0022C15D18668540007FA04FE26EA4F
:102750000E06D1F80CE00EFA04FE4EEA060EC0F8A2
:1027600008E04468AC430D79C5F300159540254356
:1027700045600C79E443A40708D0C568540007FA03
:1027800004F6B5438E68A6402E43C6600C7904F06B
:102790000304022C11D1D40800EB8406356A5407D7
:1027A000E40E0CFA04FE25EA0E05D1F810E00EFA4C
:1027B00004FE4EEA050EC6F820E00568540007FA4C
:1027C00004F6B5430E7906F00306A6402E430660D4
:1027D0004C6814F4403F67D0374C256845F4804579
:1027E0002560246804F480440094344C22F00305EE
:1027F0002E19D6F8085894074FEA147E0CFA0EF4F6
:10280000A5432F4CA04201D1002424E02D4CA0422E
:1028100002D101241FE047E02B4CA04201D1022449
:1028200019E02A4CA04201D1032414E0284CA04214
:1028300001D104240FE0274CA04201D105240AE075
:10284000254CA04201D1062405E0244CA04201D130
:10285000072400E0082404FA0EF42C43C6F80848C4
:10286000D9F800409C434D68ED0200D51C43C9F8DF
:102870000040DAF800409C434D68AD0200D51C438F
:10288000CAF80040DBF800409C434D68AD0300D51A
:102890001C43CBF80040074D083D2C689C434E6814
:1028A000F60300D51C432C60521C102AFFF43EAFE7
:1028B000BDE8F88F083C0140443802400030014038
:1028C000000002400004024000080240000C0240E8
:1028D000001002400014024000180240001C024098
:1028E000002A01D0816170470904816170470000AE
:1028F000014880687047000030030020024881686A
:1029000002781144816070473003002010B50B48F5
:10291000016841F400710160016841F48061016067
:10292000016841F480710160032000F09FF80F20DE
:1029300000F006F800F050F8002010BD003C024006
:1029400030B587B0054600241F48016841F00101F9
:102950000160006800F00100009001A902A800F0E9
:102960004BFE0598B0B100F06BFE40001749B0FB7C
:10297000F1F1491E16484FF08042026040F2E73202
:10298000C260416004618460846101F081FA0446A0
:102990001CB115E000F054FEE8E70D4801F0C2FA62
:1029A00004466CB91C2000F033F8102D07D2002229
:1029B00029461C2000F03AF80648056000E0012492
:1029C00007B0204630BD00004038024040420F00B2
:1029D000B80D00203403002082B00C48016841F497
:1029E00080410160006800F4804001900748001FAA
:1029F000016841F080510160006800F08050019052
:102A000000220F21901E02B000F010B8443802409E
:102A1000002809DB00F01F020121914040098000DD
:102A200000F1E020C0F8001170470000F0B40D463E
:102A30000D4B1B68C3F30223C3F10704042C00D918
:102A40000424191D072901D2002300E0DB1E012602
:102A500006FA04F1491E294099409E40761E164010
:102A60003143F0BC06F0B3BD0CED00E000F007010F
:102A7000054A10684FF6FF03184040EA0120034959
:102A800008431060704700000CED00E00000FA05FC
:102A90007047006841620020704770B50368586A4B
:102AA000002907D09C6A00EB144400204FF4827583
:102AB000491E0AE040EA024098620DE005EB8006FC
:102AC0009E5904EB1644401CC0B28842F6D305EB75
:102AD000810144EA02405850002070BDD0F808053A
:102AE00005F09BBA01EBC10200EB8202D0F80805A9
:102AF000D26C05F0BFB901EBC10200EB8202D0F845
:102B00000805D2F88C2205F023BAD0F8080505F0A4
:102B100086BA0A0601F00F0101EBC10100EB810149
:102B200001D53C3101E001F51F71006806F036BAAD
:102B300070B504460B0601F00F0000EBC00104EB7A
:102B400081014FF001024FF0000502D53C314A707F
:102B500002E001F51F714D70087094F8BC04012863
:102B600008D084F8BC24206805F0D0FE84F8BC545A
:102B7000002070BD022070BD70B5044601F00F004A
:102B80006268904201D9012070BD0B0601F00F016F
:102B900001EBC10104EB81014FF001024FF0000590
:102BA00002D53C314A7002E001F51F714D708D7005
:102BB000087094F8BC04012808D084F8BC2420686C
:102BC00006F098F884F8BC54002070BD022070BD57
:102BD00001F00F0101EBC10100EB8100D0F89C0274
:102BE00070472DE9F04104460F0601F00F0000EB9D
:102BF000C00104EB81014FF001064FF0000502D542
:102C00003C314E7002E001F51F714D700870CA60D2
:102C10000B714A7802B10881022B00D14D7194F8F2
:102C2000BC04012809D084F8BC64206805F0BAFD12
:102C3000284684F8BC54BDE8F0810220FBE770B55B
:102C40000D4605F00F0404EBC40100EB810101F512
:102C50001F710A618B6100230B624B700C7003695A
:102C6000012B00D14A612A0705D0027C006806F0DA
:102C700099F8002070BD027C006805F085FFF8E738
:102C800070B504460D46616805F00F00884201D911
:102C9000012070BD29064FF000064FF0010206D555
:102CA00000EBC00104EB81013C314A7006E005EB0A
:102CB000C50104EB810101F51F714E708A70087027
:102CC00094F8BC04012807D084F8BC24206806F0DE
:102CD0003DF8280702D007E0022070BD217C04F2F5
:102CE000C442206805F0DCFF84F8BC64002070BD9D
:102CF00070B50D4605F00F0404EBC40100EB810133
:102D00003C310A618B6100230B6201234B700C7014
:102D10000369012B00D14A612A0705D0027C0068B3
:102D200006F040F8002070BD027C006805F02CFF22
:102D3000F8E72DE9F84F04462568284606F0DCF947
:102D400000287ED1206806F003FA002879D0D5F853
:102D50000808C0F30D20C4F8FC04206806F0F8F958
:102D6000800704D52068416901F0020141612068B3
:102D700006F0EEF9C10604F2C440009035D5206893
:102D8000816921F0100181612F6A07F00F0000EBCB
:102D9000C00004EB800606F51F76C7F34340022807
:102DA00002D0062812D01BE047F6F070074217D079
:102DB000C7F30A1217462846316906F0CDF9306983
:102DC00038443061306A3844306209E008222846CD
:102DD000009906F0C1F9306AC7F30A11084430625D
:102DE0002068816941F010018161206806F0B0F926
:102DF00000034FF0080B4FF000094FF001085ED5BB
:102E00000026206806F083F9824655E05FEACA7022
:102E10004FD0F1B2206806F093F90746F80707D0C3
:102E200005EB4610C0F8088B3146204602F00EFC38
:102E3000380709D505EB4610C0F808BB31462046D7
:102E400000E0F9E102F0DEFBF80604D505EB4611DF
:102E50001020C1F8080BB8071CD56869000605D515
:102E6000D5F8040840F48061C5F8041806EBC600E4
:102E700004EB800000F51F70C178012905D180F8AE
:102E80000390F1B2204600F0DDF905EB4611022077
:102E9000C1F8080BB80604D505EB46102021C0F890
:102EA000081BB80405D505EB46104FF40051C0F8D7
:102EB000081B761C4FEA5A0ABAF1000FA6D1206807
:102EC00006F046F940036CD5206806F019F98246F1
:102ED000002663E05FEACA705DD0F1B2206806F0B8
:102EE0001DF90746F80723D006F00F0108FA01F094
:102EF000D5F834188143C5F8341805EB4610C0F8EE
:102F00000889206901280FD106EBC60004EB800078
:102F1000D0E912211144C16436B9606D20B920682E
:102F20000121009A05F0BCFEF1B22046FFF7DAFD60
:102F3000380703D505EB4610C0F808B9F80604D5E4
:102F400005EB46111020C1F80809780604D505EBF9
:102F500046104021C0F80819B80716D53146284652
:102F600006F096F806EBC60004EB80003C30C17812
:102F7000012905D180F80390F1B2204600F05EF9F6
:102F800005EB46110220C1F80809380603D5314681
:102F9000204602F0CDFB761C4FEA5A0ABAF1000F28
:102FA00098D1206806F0D4F8002811DAD5F8040882
:102FB00020F00101C5F8041894F8F404012829D080
:102FC000204600F00EFA2068416901F0004141619D
:102FD000206806F0BDF800050BD5D5F80808C00735
:102FE00002D0204600F042FA2068416901F40061F5
:102FF0004161206806F0ACF8C00461D5D5F804083A
:1030000020F00101C5F804181021206806F040F8EE
:10301000002120E084F8F49400212046FFF738FDD9
:10302000D1E705EB411000F510604FF67F3282606A
:10303000036823F400130360C0F80822D0F80022CC
:1030400022F40012C0F80022D0F8002242F0006200
:10305000C0F80022491C60688842E2D8D5F81C08F4
:1030600040F00111C5F81C18206B60B1D5F8840838
:1030700040F00B01C5F88418D5F8440840F00B0166
:10308000C5F844180CE0D5F8140842F22B010843A7
:10309000C5F81408D5F8100840F00B01C5F8101851
:1030A000D5F8000820F4FE61C5F80018217C2068DE
:1030B000009A05F0F5FD2068416901F480514161F5
:1030C000206806F045F8800415D5206805F0ACFBB3
:1030D000206806F001F8E06000F0ACFA0146227BBF
:1030E000206806F09FF8204600F064F920684169E6
:1030F00001F400514161206806F02AF8000707D565
:10310000204600F072F92068416901F00801416130
:10311000206806F01DF8000615D5A86920F080018A
:10312000A96101260CE006EBC60004EB800090F8D4
:103130007F02012803D1F1B22046FFF7EAFC761C9A
:103140006068B042EFD8206806F002F8C00220D5CF
:10315000012616E005EB4610D0F8001906EBC60074
:1031600004EB800090F84020012A09D1002907DAF9
:1031700080F83F80F0B240F080012046FFF7C9FCA4
:10318000761C6068B042E5D82068416901F480117E
:103190004161206805F0DCFF800230D5012026E087
:1031A00005EB4011D1F8001B00EBC00204EB8202DA
:1031B00092F88032012B19D1002917DA94F8FC34E7
:1031C00001F4803103F0010399420FD182F87F822C
:1031D000A96941F08002AA616969090606D4D5F897
:1031E000040840F40070C5F8040803E0401C61685E
:1031F0008142D5D82068416901F4001141612068FD
:1032000005F0A6FF400007D52046FFF767FC2068C1
:10321000416901F080414161206805F099FF400754
:103220000AD520684568680702D52046FFF76DFC7F
:103230002068416829434160BDE8F88FD0F808054F
:1032400004F042BFD0F8080504F053BF2DE9F04167
:103250008AB00446002C05D0266894F8BD040025E9
:1032600020B108E001200AB0BDE8F08184F8BC5428
:10327000204600F05DF8032084F8BD04F06BC00523
:1032800000D42561206805F079FC04F110012822A2
:1032900088466846FDF76DFE94E80F0005F0D2FA07
:1032A000022718B184F8BD740120DCE700212068F2
:1032B00005F071FF002101260DE001EBC10004EBD8
:1032C00080003C304670017001810571C560056168
:1032D0008561491CC9B260688842EED800210DE0C2
:1032E00001EBC10004EB800000F51F704570017018
:1032F0000571C56005618561491CC9B26068884275
:10330000EED8282241466846FDF733FE94E80F00C8
:1033100005F07CFB18B184F8BD740120A3E784F8A4
:10332000385084F8BD64206805F062FB00209AE7FD
:1033300010B586B00446142101A8FDF776FE20687A
:10334000B0F1A04F2FD100211848026842F00102CD
:103350000260006800F0010000904FF4C05001903E
:10336000022002900391032004900A20059001A9F5
:103370000F48FFF7CDF90D48001D016841F08001AD
:1033800001600A481430016841F48041016000681E
:1033900000F480400090002205214320FFF746FB07
:1033A0004320FFF735FB06B010BD00003038024067
:1033B0000000024070B504460125E06800280ED0E8
:1033C000022801D0FEF701FC2946D4F8080504F0D4
:1033D00001FFD4F80805BDE8704004F0B4BE002534
:1033E000F2E7D0F8080504F0DEBED0F8080504F0D6
:1033F000E4BE10B5044694F8BC0401280BD00120AB
:1034000084F8BC0484F83810206805F0F4FE00202D
:1034100084F8BC0410BD022010BDD0F8082500F2CD
:10342000C441104604F0E2BE10B50446206894F88A
:10343000BC14012906D0012184F8BC14A16A012919
:1034400002D008E0022010BDA169012903D0816BE0
:1034500041F480318163206805F0F2FD206805F0B9
:10346000B9FA002084F8BC0410BD000010B5044671
:10347000D4F8080504F0FCFE2068D0F8001E41F0E6
:103480000101C0F8001E206A002804D0024801682B
:1034900041F00601016010BD10ED00E07047000032
:1034A0002DE9F04704460D46002C13D0DFF8289193
:1034B000D9F80000EFB200F00700A8420CD289F85A
:1034C0000070D9F8000000F00700A84204D00120E5
:1034D000BDE8F0870120FBE72068404E810712D548
:1034E000400703D5306840F4E05030602078000792
:1034F00003D5306840F4604030603068A16820F047
:10350000F000084330602078C00731D0334960684C
:103510000839012808D002280BD0032809D00968EF
:1035200089070BD40120D3E70968890306D4012059
:10353000CEE70968890101D40120C9E7316821F08B
:10354000030101433160FFF7D3F9804641F2883A25
:1035500007E0FFF7CDF9A0EB0800504501D90320A3
:10356000B6E73068616800F00C00B0EB810FF0D175
:10357000D9F8000000F00700A84209D989F80070C6
:10358000D9F8000000F00700A84201D001209FE711
:103590002078400705D53068E16820F4E050084302
:1035A00030602078000706D53068216920F460403B
:1035B00040EAC100306000F063F83168084AC1F3A6
:1035C0000311515CC8400749086007480068FFF7CD
:1035D000B7F900207CE70000003C024008380240B8
:1035E00074D80008C40200203403002001490120DF
:1035F000C8647047000047420F2202600B4A1368FC
:1036000003F003034360136803F0F003836013685F
:1036100003F4E053C360126802F46042D20802610E
:103620000348006800F0070008607047083802404F
:10363000003C02400148006870470000C4020020BE
:1036400000B5FFF7F7FF04490968044AC1F3822176
:10365000515CC84000BD00000838024084D8000812
:1036600000B5FFF7E7FF04490968044AC1F3423196
:10367000515CC84000BD00000838024084D80008F2
:1036800010B51748006810F00C01164816D0164BFC
:10369000042912D0082911D1114C241F216801F0EE
:1036A0003F02216849020AD52068C0F38810A0FBB8
:1036B00003010023FDF7A1FB09E0184610BD2168B6
:1036C0000023C1F38811A1FB0001FDF796FB2168DF
:1036D000C1F30141491C4900B0FBF1F010BD0000ED
:1036E000083802400024F400001BB70010B505485C
:1036F0000068000605D5FFF7D1FE02498020891C2D
:10370000087010BD0C3802402DE9F84F0446002C1B
:1037100013D02078DFF8A083C007A8F1040556D0A5
:1037200008F104000168C1F3810101290CD000688F
:10373000C0F38100022803D00DE00120BDE8F88F1E
:10374000D8F80000400206D5286880033FD560689D
:1037500070BB0120F2E76068B0F5803F10D0B0F593
:10376000A02F12D0286820F480302860286820F428
:10377000802028606068E0B1FFF7BAF8064614E0E0
:10378000286840F480302860F4E7286840F48020FE
:103790002860286840F480302860EBE7FFF7A8F83D
:1037A000801B642801D90320C8E728688003F5D569
:1037B0000DE0FFF79DF8064606E0FFF799F8801B3D
:1037C000642801D90320B9E728688003F5D420785C
:1037D000BA4F80074FF0000948D5B748001D01686F
:1037E00011F00C0F08D00068C0F38100022813D13B
:1037F000D8F8000040020FD42868800704D5E0689C
:10380000012801D0012099E72868216920F0F800FB
:1038100040EAC100286029E0E068B8B101203860C2
:10382000FFF766F8064606E0FFF762F8801B0228FD
:1038300001D9032082E728688007F5D52868216927
:1038400020F0F80040EAC10028600FE0C7F80090BF
:10385000FFF74EF8064606E0FFF74AF8801B0228FD
:1038600001D903206AE728688007F5D4207800078B
:1038700029D5DFF844A2924861690AF1700A89B13A
:1038800001210160FFF734F8064606E0FFF730F843
:10389000801B022801D9032050E7DAF800008007D6
:1038A000F4D510E0C0F80090FFF722F8064606E0D5
:1038B000FFF71EF8801B022801D903203EE7DAF843
:1038C00000008007F4D42078400778D54FF0000A34
:1038D00079483C300068C0000BD477483C30016820
:1038E00041F080510160006800F0805000904FF07E
:1038F000010ADFF8D0B1DBF80000C00514D4DBF812
:10390000000040F48070CBF80000FEF7F1FF06469F
:1039100006E0FEF7EDFF801B022801D903200DE72A
:10392000DBF80000C005F4D5634EA0686C360128B2
:103930000FD0052812D0306820F0010030603068C8
:1039400020F004003060A068F8B1FEF7D1FF834694
:1039500017E0306840F001003060F4E7306840F074
:1039600004003060306840F001003060EBE7FEF7A3
:10397000BFFFA0EB0B0141F28830814201D9032047
:10398000DCE630688007F2D510E0FEF7B1FF834631
:1039900009E0FEF7ADFFA0EB0B0141F28830814258
:1039A00001D90320CAE630688007F2D4BAF1010FCA
:1039B00005D141483C30016821F080510160A06987
:1039C000C0B33D49091D09684FF0FF36C1F38101BD
:1039D000022946D0022805D0C7F86090FEF788FF7C
:1039E00004463AE0C7F86090FEF782FF814607E0A0
:1039F000FEF77EFFA0EB0900022801D903209DE617
:103A000028688001F4D4D4E907010843616AA26AF6
:103A1000890106EB520241EA0241084394F82C1056
:103A200040EA0160C8F8000001203866FEF760FF38
:103A3000044607E03DE0FEF75BFF001B022801D9CA
:103A400003207BE628688001F5D532E0FEF750FFC1
:103A5000001B022801D9032070E628688001F5D4F4
:103A600027E0012823D0D8F80000E26900F48001A3
:103A700091421AD1226A00F03F01914215D147F6D6
:103A8000C071626A0140B1EB821F0ED1A26A00F4DC
:103A9000403106EB5202B1EB024F06D194F82C10E4
:103AA00000F07060B0EB016F03D0012046E601200A
:103AB00044E6002042E6000004380240000047428D
:103AC000800E47420070004070B50446002C09D0BB
:103AD000606A002540B125616561A56294F85100D6
:103AE00040B10CE0012070BD6068B0F5827FF4D079
:103AF000E561F2E784F85050204600F045F80220D6
:103B000084F851002068016821F040010160A0881C
:103B1000218900F4827001F404410843A18901F471
:103B200000610843217C01F002010843217D01F07E
:103B300001010843218B01F400710843217F01F04A
:103B40003801084394F8201001F080010843218DCA
:103B500001F40051084321680860A069042101EACA
:103B6000104094F8241001F01001084321684860C7
:103B70002068C16921F40061C1616565012084F894
:103B80005100002070BD0000F0B587B0044614213C
:103B900002A8FDF74AFA1C492068884232D1002762
:103BA0001A48016841F480510160006800F48050B7
:103BB000019016481438016841F002010160016863
:103BC00001F002010191016841F00101016000680A
:103BD00000F001000190182002900226039604973D
:103BE000032505950524069402A90948FEF790FDD2
:103BF00080200290039604970595069402A9054833
:103C0000FEF786FD07B0F0BD0030014044380240A9
:103C100000040240000002402DE9F84F04460A9ECD
:103C20008A4693461F4601254FF0000894F850003D
:103C300001280ED0012084F85000FEF759FE81467D
:103C400094F85100616801280DD0B1F5827F07D149
:103C500002E00220BDE8F88FA16809B9042802D06B
:103C60004FF00208C3E0BAF1000F28D0BBF1000FFB
:103C700025D0380023D094F85100042802D0052024
:103C800084F8510000206065C4F838B0E787A78742
:103C9000C4F830A0E786A7862064606420680168C5
:103CA000490603D4016841F040010160E068B0F5C5
:103CB000006F07D06068E8B3012F48D07DE04FF077
:103CC000010894E0606808B1012F39D1206B2168A8
:103CD0000088C860206B801C2063E08E401EE08658
:103CE0002EE02068816889070DD5E18E59B1012D3C
:103CF00009D1216B0988C160206B801C2063E08E94
:103D0000401EE086002520688168C9070BD0E18F3E
:103D100049B1C068A16B0880A06B801CA063E08FD4
:103D2000401EE0870125FEF7E3FDA0EB0900B0424D
:103D300006D300E00BE0701C02D04FF0030856E001
:103D4000E08E0028CDD1E08F0028CAD13BE0206B67
:103D5000216800780873206B401C2063E08E401EB1
:103D6000E0862AE02068816889070DD5E18E59B187
:103D7000012D09D1216B09780173206B401C206350
:103D8000E08E401EE086002520688168C9070BD0C0
:103D9000E18F49B1C068A16B0870A06B401CA063A3
:103DA000E08F401EE0870125FEF7A2FDA0EB090091
:103DB000B04201D3701C11D186B1E08E0028D1D160
:103DC000E08F0028CED14A463146204602F016FB4D
:103DD00038B14FF001082020606508E04FF003087B
:103DE00005E0A06818B92068C168806800900120CB
:103DF000503460700020207040462BE770477047B9
:103E000070B590F83C20012A31D0012680F83C6042
:103E1000022280F83D2002685468936824F07005FF
:103E20000C682C435460134C0268A24214D0B2F1C7
:103E3000804F11D0104CA2420ED0104CA2420BD099
:103E40000F4CA24208D00F4CA24205D00E4CA24209
:103E500002D00E4CA24204D123F0800349681943DA
:103E600091603C30467000210170002070BD02203E
:103E700070BD000000000140000400400008004048
:103E8000000C0040000401400040014000180040C8
:103E900010B50446002C03D094F83D0010B107E0A3
:103EA000012010BD002084F83C00204600F016F8E8
:103EB000022084F83D00211D206802F0CBFE012085
:103EC0003D3460726070A070E07020716071A0710C
:103ED000E07120722070002010BD000008B500685D
:103EE0000D49884209D10D48016841F00401016083
:103EF000006800F00400009008BD09498842FBD129
:103F00000648001D016841F400310160006800F4BA
:103F10000030009008BD000000080040403802401A
:103F20000044014090F83D10012901D00120704764
:103F3000022180F83D100168CA6842F00102CA609F
:103F400000681449884214D0B0F1804F11D0124952
:103F500088420ED0114988420BD01149884208D0BE
:103F60001049884205D01049884202D00F49884242
:103F700009D1816801F00701062908D0016841F0E4
:103F80000101016003E0016841F0010101600020CE
:103F9000704700000000014000040040000800409D
:103FA000000C0040000401400040014000180040A7
:103FB00070B50446002594F83C00012817D001266E
:103FC00084F83C60022084F83D002068826822F07A
:103FD000770222F47F4282600868502838D00DDCD6
:103FE000202853D005DC90B3102811D14EE00220D8
:103FF00070BD30284AD040280AD13DE0602831D039
:1040000070280CD0B0F5805F03D0B0F5005F12D0FF
:1040100001253C34667000202070284670BDCB68B6
:10402000D1E90121206802F088FE2068816841F012
:1040300077018160EDE7CB68D1E90121206802F0CA
:104040007CFE2068816841F480418160E1E71DE0E9
:10405000CA684968206802F053FF5021206802F0C6
:1040600076FED6E7CA684968206802F05AFF6021E8
:10407000206802F06CFECCE7CA684968206802F04C
:104080003FFF4021206802F062FEC2E7226801463D
:10409000104602F05CFEBCE7704770B5044620682D
:1040A00001694FF00005C943890716D4C168C943A7
:1040B000890712D4E91E01610120207720688069F8
:1040C000800703D02046FFF7E7FF05E0204600F019
:1040D000DFF8204600F06FF9257720680169C943B1
:1040E000490718D4C168C943490714D46FF00401C3
:1040F0000161022020772068806910F4407F03D09E
:104100002046FFF7C9FF05E0204600F0C1F8204631
:1041100000F051F9257720680169C943090717D4D0
:10412000C168C943090713D46FF008010161042075
:1041300020772068C069800703D02046FFF7ACFFD6
:1041400005E0204600F0A4F8204600F034F9257779
:1041500020680169C943C90618D4C168C943C906A2
:1041600014D46FF010010161082020772068C06925
:1041700010F4407F03D02046FFF78EFF05E0204675
:1041800000F086F8204600F016F9257720680169CE
:10419000C943C90708D1C168C943C90704D1891EE9
:1041A0000161204600F076F920680169C9430906DB
:1041B00009D4C168C943090605D46FF080010161C3
:1041C0002046FFF71BFE20680169C943490609D450
:1041D000C168C943490605D46FF04001016120461A
:1041E00000F05FF920680169C94389060BD4C168F2
:1041F000C943890607D46FF0200101612046BDE85C
:104200007040FFF7FCBD70BD30B587B00446142187
:1042100002A8FCF70AFF194D206819490222012360
:104220000324A84213D1086840F008000860086819
:1042300000F008000190500302900392049305944B
:10424000069202A90F48FEF763FA07B030BD0E4D83
:10425000A842FAD1086840F020000860086800F021
:10426000200001904020029003920493059206944E
:1042700002A90648FEF74CFAE7E7000000080040F4
:1042800030380240000C024000440140001402405B
:10429000704770B504460D46002694F83C0001288E
:1042A0000FD0012084F83C006AB1042A1FD0082AEC
:1042B00032D00C2A44D00126002084F83C0030463D
:1042C00070BD022070BD2946206802F049FD2068BB
:1042D000816941F0080181612068816921F0040150
:1042E0008161206881692A6911438161E4E7294677
:1042F000206802F069FD2068816941F400618161F4
:104300002068816921F480618161206881692A695E
:1043100041EA02218161CFE72946206802F08EFD43
:104320002068C16941F00801C1612068C16921F0BC
:104330000401C1612068C1692A691143C161BBE7F9
:104340002946206802F0B2FD2068C16941F400618D
:10435000C1612068C16921F48061C1612068C169BF
:104360002A6941EA0221C161A6E710B50446002C82
:1043700003D094F83D0010B107E0012010BD0020EB
:1043800084F83C00204600F015F8022084F83D0037
:10439000211D206802F05EFC01203D3460726070D7
:1043A000A070E07020716071A071E07120722070C7
:1043B000002010BD7047704710B50446002909D091
:1043C00004290AD008290BD094F8410001280AD00A
:1043D000012010BD94F83E00F8E794F83F00F5E79F
:1043E00094F84000F2E70220A9B3042937D0082945
:1043F00038D084F841000122206802F091FC1E4967
:1044000020681E4A884201D0904203D1436C43F495
:10441000004343642068884213D0B0F1804F10D02D
:10442000174988420DD0174988420AD01649884258
:1044300007D0904205D01549884202D014498842DD
:1044400013D1816801F00701062912D0016841F0FB
:10445000010101600DE0FFE784F83E00CBE784F83E
:104460003F00C8E784F84000C5E7016841F001015A
:104470000160002010BD0000000001400004014068
:104480000004004000080040000C004000400140D3
:10449000001800400068B0F1804F01D1FEF72EBA3D
:1044A0007047704710B504460C482268824202D11A
:1044B000204604F045FF012020632068C16841F0D8
:1044C0001001C1602068416941F040014161A06B69
:1044D0000068016841F00101016010BD0048004022
:1044E00070470000F8B5044622681068D168536927
:1044F00000F00F06002E08D1850606D58D0604D5DE
:104500002046BDE8F84002F011BE0025002E66D01E
:1045100003F0010601F49077374360D0C20705D05D
:10452000CA0503D5226C42F001022264420705D578
:10453000DA0703D0226C42F002022264820705D51A
:10454000DA0703D0226C42F004022264020707D586
:1045500001F02002324303D0226C42F008022264B0
:10456000226C002A31D0800604D5880602D5204668
:1045700002F0DCFD20684069C0F38010216C09075F
:1045800000D438B3204602F09DFD20684069400603
:104590001CD52068143050E8001F21F0400140E88D
:1045A0000012002AF5D1A06B60B157490165A06BDC
:1045B000FDF729FF002808D0A06B016D01B0BDE810
:1045C000F04008472046FFF78BFFF8BD2046FFF775
:1045D00087FFF8BD2046FFF783FF2564F8BD236BF6
:1045E000012B7ED1C3067CD5CB067AD510685068E6
:1045F000009050694FF02003400643D5A16B086836
:10460000406880B20028E9D0A28D8242E6D9E085D8
:10461000C869B0F5807F2DD020680C3050E8001FAD
:1046200021F4807140E80012002AF5D1206814308E
:1046300050E8001F21F0010140E80012002AF5D1E6
:104640002068143050E8001F21F0400140E80012BB
:10465000002AF5D184F83E30256320680C3050E8FC
:10466000001F21F0100140E80012002AF5D1A06BD4
:10467000FDF782FEA08DE18D401A81B22046FFF742
:1046800011FFF8BDA08DE18D401A81B2E08D0028A8
:10469000F7D00029F5D020680C3050E8002F22F424
:1046A000907240E80026002EF5D12068143050E8C2
:1046B000002F22F0010240E80026002EF5D184F8F8
:1046C0003E30256320680C3050E8002F22F01002A5
:1046D00040E80023002BF5D12046FFF7E3FEF8BDAC
:1046E000FFE7020606D50A0604D52046BDE8F840D5
:1046F00002F00ABE4006F2D54806F0D52046BDE8D5
:10470000F84002F006BD0000B570000870B5044620
:10471000002C04D094F83D00002510B106E00120E3
:1047200070BD84F83C50204600F022F8242084F824
:104730003D002068C16821F40051C160204602F0AC
:1047400059FD2068016921F49041016120684169A7
:1047500021F02A0141612068C16841F40051C16023
:104760002564202084F83D0084F83E00002070BDC0
:1047700070B586B00646142101A8FCF756FC244902
:104780003068884241D100252248016841F48021E7
:104790000160006800F4802000901E481038016815
:1047A00041F004010160006800F0040000904FF443
:1047B000406001900220029003950320049007209E
:1047C000059001A91448FDF7A3FF154C134820607C
:1047D0004FF000606060A560E56040142061656195
:1047E000A5618010E061256265622046FDF706FF45
:1047F00008B1FDF7EAF9B463A6630022052127207A
:10480000FEF714F92720FEF703F906B070BD00008B
:104810000048004040380240000802402860024042
:10482000580D00207047704710B5FEF761F84FF043
:104830008041496A00EB4002C2EBC01001EBC000AE
:1048400010BDFEE702460021014804F0B2BD0000A1
:10485000CC0C002010B51249124800F057FC11484A
:104860000F49203000F052FC0E480D49403000F056
:104870004DFC0C480C4A0221603000F0D1FF0A4A7E
:104880000848903ABDE81040A2F190019FED071A48
:10489000DFED070AB2EE040AB03001F0DDB9000026
:1048A00000000020780400202C010020002474491E
:1048B0006F12833A2DED048B84B000200190FFF736
:1048C000C9FF504800F1400A20309FED4F9AA0F1F7
:1048D0006804039004F1280004F1340B04F1F80695
:1048E00004F52077DFF824819FED498ADFED498ABE
:1048F0004FF00509484D029006F054FB01904648E0
:10490000FCF778FE95ED020A3E4800F011FC84EDBC
:104910000E0A95ED030A504600F00AFC84ED0F0ADA
:1049200095ED010A039800F003FC84ED0D0AD5E92A
:1049300005122869C4E90B12A0623248B0EE490A98
:104940005A46B030029901F0E5F9D7E90512386905
:10495000C4E90812E06196ED670A20EE080A84EDCA
:10496000000A96ED660A20EE080A84ED010AD6EDEB
:10497000680A60EE880AC4ED030AD4ED100A70EEEE
:10498000600A10EE900A404505D9B4F84400401C76
:10499000A4F8440009E010EE900A2049884204DDA2
:1049A000B4F84400401EA4F8440084ED100AB4F9A1
:1049B000440000EE900AF8EEE00A00EEA80A84ED4A
:1049C000020A94ED0B0A20EE080A84ED040A94ED25
:1049D0000C0A20EE080A84ED050A94ED0A0A20EE7E
:1049E000080A84ED060A0198B0FBF9F109FB1100F1
:1049F00018B995ED070AFCF78DFF012101A806F013
:104A0000C4FA79E7780400206F12833A000034C3B7
:104A1000E12E65420000B443E80600200000344364
:104A2000F0B500230A2530263727002412E0B5EB25
:104A3000107F04D906EB107C01F813C003E007EBEC
:104A4000107C01F813C0000101EB430C8CF801400D
:104A50005B1CDBB29342EAD3F0BD2DE9F041044682
:104A60000D4616461F460420208008206080002D39
:104A700000D017B9FE2084F8C40025716671A771B3
:104A800000202062012204F12003114604F11800E5
:104A9000FBF73CFD20887843FCF780F9E060218833
:104AA0007943FCF7C2FA20886843FCF777F9C4F829
:104AB000C80021886943FCF7B8FA2179012204F182
:104AC0002C00D4F8C830FBF721FD20886843FCF7A0
:104AD00065F9C4F8CC0021886943FCF7A6FA21796E
:104AE000012204F13400D4F8CC30FBF70FFD20880C
:104AF0007843FCF753F9C4F8D40021887943FCF7D4
:104B000094FAA179012204F14400D4F8D430FBF7DF
:104B1000FDFC607988B320887043FCF73FF9206181
:104B200021887143FCF781FA20887043FCF736F93D
:104B3000C4F8D00021887143FCF777FA617901222B
:104B400004F13C00D4F8D030FBF7E0FC218805FBF1
:104B500006F006464843FCF721F90246C4F8D8009F
:104B6000218810467143FCF760FA6279217904F1DB
:104B70004C00D4F8D830FBF7C9FC208805FB05F6BB
:104B80007043FCF70BF9C4F8DC0021887143FCF793
:104B90004CFA217904F154000A46D4F8DC30FBF7D2
:104BA000B5FC20887043FCF7F9F8C4F8E0002188D0
:104BB0007143FCF73AFA217904F15C000A46D4F813
:104BC000E030FBF7A3FC218807FB05F08046484353
:104BD000FCF7E4F8C4F8E400218801FB08F1FCF7D5
:104BE00024FA2279A17904F16400D4F8E430FBF7C7
:104BF0008DFC208805FB07F800FB08F0FCF7CEF8D9
:104C0000C4F8E800218801FB08F1FCF70EFAA2794C
:104C1000217904F16C00D4F8E830FBF777FC2088A8
:104C20007043FCF7BBF8C4F8EC0021887143FCF733
:104C3000FCF9217904F174000A46D4F8EC30FBF752
:104C400065FC20887043FCF7A9F8C4F8F0002188BF
:104C50007143FCF7EAF9217904F17C000A46D4F8A3
:104C6000F030FBF753FC20887043FCF797F8C4F84A
:104C7000F40021887143FCF7D8F9217904F184000C
:104C80000A46D4F8F430FBF741FC20887F43784390
:104C9000FCF784F8C4F8F80021887943FCF7C5F9DB
:104CA000A17904F18C000A46D4F8F830FBF72EFC09
:104CB000208800FB08F0FCF771F8C4F8FC0021889C
:104CC00001FB08F1FCF7B1F9A279217904F1940014
:104CD000D4F8FC30FBF71AFC218820794143484383
:104CE000FCF75CF8C4F80001228821794A4351435B
:104CF000FCF79BF9217904F19C000A46D4F80031B5
:104D0000FBF704FC2188207941434843FCF746F82F
:104D1000C4F80401228821794A435143FCF785F9FC
:104D2000217904F1A4000A46D4F80431FBF7EEFB24
:104D30002188207941434843FCF730F8C4F8080142
:104D4000228821794A435143FCF76FF9217904F114
:104D5000AC000A46D4F80831FBF7D8FB208821794B
:104D60004843FCF71BF8C4F80C0121882279514311
:104D7000FCF75BF92179012204F1B400D4F80C317D
:104D8000FBF7C4FB208821794843FCF707F8C4F8F7
:104D90001001218822795143FCF747F9217901223A
:104DA00004F1BC00D4F81031FBF7B0FB2088684355
:104DB000FBF7F4FFC4F8340121886943BDE8F041F2
:104DC000FCF733B92DE9F047044694F81401400785
:104DD00056D404F16C0104F164000D460746FBF75C
:104DE00053FF683484F85C0034F8040CA087E08A30
:104DF000E087683C04F1A40204F17C011646884671
:104E00003846FBF71FFE6E3484F85600E08EE087CC
:104E10002088A4F840006E3C04F1AC0217462946F5
:104E20003046FBF70FFE8C3484F83800208820824F
:104E3000608860828C3C04F19C02914604F18C01F4
:104E40003846FBF7DFFA6E3484F856003946484698
:104E5000FBF760FB84F85600E089E0862088208715
:104E6000324629464046FBF7EDFD84F856006E3C7D
:104E700004F1940239463046FBF7E4FD84F8C4009F
:104E8000BDE8F08710B504462288A079E168424366
:104E9000D4F8D400FCF76DF82188A0794143E0688C
:104EA000FCF7C3F86079002808D0228821694243C2
:104EB000D4F8D000BDE81040FCF75BB810BD2DE978
:104EC000F041044694F81401C0062AD434F8940F33
:104ED000208234F82E0C6082943C04F1A402154622
:104EE00004F1640104F19400FBF7ACFD7E3484F816
:104EF0004600E08CE085208820867E3C04F1AC02F0
:104F000004F17C0116460F462846FBF79BFD84F80A
:104F1000C40004F1740231463846FBF731FE84F8D0
:104F2000C400BDE8F0812DE9F041044694F8140175
:104F300080072BD404F15C0104F154000D460746B0
:104F4000FBF7A2FE84F8C40004F17C02164604F1CB
:104F500074013846FBF776FD683484F85C00A08A5B
:104F6000A08734F80A0CE087683C04F1A4021746D5
:104F700029463046FBF766FD84F8C400324604F14A
:104F800084013846FBF73EFA84F8C400BDE8F0819E
:104F900010B504462046FFF775FFD4F8181109B183
:104FA00020468847204600F076F8D4F81C1109B155
:104FB000204688472046FFF7B6FFD4F8201109B1F4
:104FC000204688472046FFF7FDFED4F8241109B19A
:104FD00020468847204600F01EF8D4F8281109B171
:104FE000204688472046FFF76AFFD4F82C1109B104
:104FF00020468847D4F8301109B1204688472288D6
:105000002079D4F8C8104243D4F83401FBF7B1FF3B
:10501000D4F8340110BD2DE9F041044694F8140190
:10502000000736D4B4F86400A4F8B4000125A4F84D
:10503000B65004F1B40204F1340116460F4604F1EF
:105040006400FBF7FFFCA634A07734F8620CE08222
:105050002583A63C04F1BC029046314604F144008D
:10506000FBF78EFD943484F830002088208465841A
:10507000943C3246414604F19400FBF7E3FC84F88B
:10508000C40004F12C0231463846FBF7BBF984F822
:10509000C400BDE8F0812DE9F041044694F8140104
:1050A000C0072AD1627904F12C0104F1540004F103
:1050B000340522B32279A4F8B4200126A4F8B660FE
:1050C00004F1B4021746FBF7BDFC84F8C400207954
:1050D000A4F8B400A4F8B66004F1BC02164604F1CA
:1050E0003C0104F14C00FBF7ADFC04F8C40F2A4668
:1050F00031463846FBF786F92070BDE8F0812A4634
:10510000FBF7A0FC84F8C400F7E70000D1E9002316
:105110008968C0E90523C1619FED040A80ED010A99
:1051200000218160C1600161704700000000000043
:1051300080ED010A0178002907D180ED020A80ED97
:10514000030A80ED040A01210170D0ED030AC0EDCD
:10515000020A90ED041A80ED031AD0ED061A61EEF2
:10516000A00AD0ED051A41EE810A90ED071A41EE32
:10517000000AC0ED040AB0EE600A704710B5FCF7F3
:105180004FFCFCF705FCFCF73BFC00F0C1F9BDE867
:105190001040FCF7E7BA000010B510480E49016056
:1051A0000321416000218160C1604FF4102202613F
:1051B0004FF4001242610176012242768176C17677
:1051C00001774177FCF752FF002803D0BDE810407B
:1051D000FCF7FBBC10BD000000640040DC0B0020AD
:1051E00010B510480E490160032141600021816023
:1051F000C1604FF4102202614FF400124261017647
:10520000012242768176C17601774177FCF72EFF45
:10521000002803D0BDE81040FCF7D7BC10BD00004B
:1052200000680040040C002008B50948016841F4FA
:1052300000110160006800F40010009000220521B8
:105240000C20FDF7F3FBBDE808400C20FDF7E0BBA8
:105250003038024010B596B01C2211490FA8FBF758
:1052600088FE00210FA805F0A9FE0E4C20601C222C
:105270000B491C3108A8FBF77CFE002108A805F0AB
:105280009DFE60601C220649383101A8FBF771FEC3
:10529000002101A805F092FEA06016B010BD00002C
:1052A00020D80008B4020020F0B587B0142102A86D
:1052B000FBF7BBFE3148016841F002010160016863
:1052C00001F002010191016841F0080101600168EB
:1052D00001F008010191016841F0040101600168D9
:1052E00001F004010191016841F0010101600168D0
:1052F00001F001010191016841F080010160016844
:1053000001F080010191016841F020010160006815
:1053100000F0200001901A4F012210213846FDF7BD
:10532000DFFA184E012211463046FDF7D9FA102057
:1053300002900124039404940225059502A938469D
:10534000FDF7E6F9302002904FF404100390049426
:1053500002A90D48FDF7DCF9029403940494059525
:1053600002A93046FDF7D4F9002205211720FDF7E8
:105370005DFB1720FDF74CFB07B0F0BD3038024055
:1053800000000240000402400008024010B510482E
:105390000E4901604FF48271416000218160C1605B
:1053A000016101224261520282611022C2610162E6
:1053B000416281620A21C162FEF786FB002803D0A8
:1053C000BDE81040FCF701BC10BD000000300140FA
:1053D0002C0C002010B588B01C2101A8FBF725FE7D
:1053E000154814490160532141600024846044F64B
:1053F0001F61C16004618461FEF74AFD08B1FCF7DA
:10540000E4FB0D48FEF7B1FF08B1FCF7DEFB6020BE
:105410000190029403940594002201A90648FEF726
:1054200038FF08B1FCF7D1FB0348FEF7EDFE08B0EA
:1054300010BD000000440140CC0C002010B58EB01F
:1054400000240A940B940C940D94089409941C2144
:1054500001A8FBF7EAFD1E481C490160A721416035
:10546000846040F2CF71C16004618461FEF710FD79
:1054700008B1FCF7AAFB4FF480500A900AA914481F
:10548000FEF796FD08B1FCF7A0FB1148FEF76DFF93
:1054900008B1FCF79AFB0894099408A90C48FEF798
:1054A000AFFC08B1FCF791FB6020019002940394DB
:1054B0000594082201A90648FEF7EBFE08B1FCF7A7
:1054C00084FB0348FEF7A0FE0EB010BD00080040AC
:1054D000840C002010B50C480A4901600B4941605A
:1054E00000218160C16001610C2242618161C16162
:1054F000FFF70CF9002803D0BDE81040FCF765BBAE
:1055000010BD000000480040140D0020A0860100DE
:1055100000B585B014216846FBF787FD4FF4805035
:105520000090012001900220029003200390694620
:105530001248FDF7EDF80A20FDF7CAF800221049DD
:10554000104802F071FC08B1FCF73FFB0E490D4812
:1055500002F0B8FE08B1FCF738FB0C49094802F02C
:105560002FF908B1FCF731FB064802F081FF002853
:1055700001D0FCF72AFB05B000BD0000000002408E
:105580003C030020F06E0020F80300208C03002074
:10559000FEE7000070B505460C462846216806F077
:1055A00089F901280BD1064928780978884206D163
:1055B00029462268BDE870400148FBF795BC70BDE4
:1055C0005002002010B504464FF6FF721A21204603
:1055D00005F092FC60831C2221460448FBF784FC02
:1055E000BDE810401C210148FCF75CBA24070020EC
:1055F000FEF77CF8FEE700000148FDF79ABB0000CB
:10560000EC85002070B504462068056C00EB411065
:10561000D0F8081B0C4EB54205D9090403D54FF448
:105620000041C0F8081B2046FDF7F7FEB54208D937
:105630002069012805D104F2C4420121206803F049
:105640002FFB002070BD00000A30544F2DE9F041BF
:1056500005460C462E68306C06EB4411D1F8083B29
:10566000D5F810804FF400474FF0200C05F2C442EB
:10567000B8F1010F08D0DFF8B080404545D11804DB
:105680003AD5C1F8087B4CE0284E5FEA037806D58E
:10569000B04246D9180444D5C1F8087B41E05FEA1E
:1056A000836802D5C1F808CB3BE013F0280F38D14E
:1056B000B04204D9180402D5C1F8087B31E004EBEC
:1056C000C40005EB800000F51F70D1F8101BC36902
:1056D000C1F31201591A016224B983693BB102690D
:1056E00011440161E1B22846FDF705FA19E00121F4
:1056F000286803F0D5FAF5E7980601D5C1F808CB7C
:10570000E1B22846FDF7F7F90BE034B9D5F8940279
:1057100018B90021304603F0C3FAE1B22846FDF77C
:10572000EAF90020BDE8F0810A31544F0A30544FA5
:105730002DE9F84F80460E46D8F8007006EBC600FB
:1057400008EB80043C34A169206A884202D9012018
:10575000BDE8F88F081AE168814200D20846C01CF3
:105760004FEA900A07EB461916E0151AE268AA42BA
:1057700000D21546E81C4FEA900A98F810000090F5
:10578000ABB2F2B23846216903F0C6FD2069284465
:105790002061206A28442062D9F8180980B2504557
:1057A00005D3A269206A904201D2002ADDD1216A84
:1057B000A069884208D806F00F0101208840D7F878
:1057C00034188143C7F834180020C1E70021C160B4
:1057D000016141619FED060A80ED060A80ED070A2E
:1057E00080ED080A80ED090A80ED0A0A7047000082
:1057F00000000000816A21F00042C2F1FF42D20F96
:10580000002A09D14FF07F42B2EB410F01D10121B3
:1058100000E00021012902D1022180F846107047E2
:1058200070B50446154621700648E0640648A06439
:105830002046FFF7CBFFA36C29462046984784F803
:10584000460070BDCD5700084D5800080278002A68
:105850001DD0E1B191ED000A80ED0B0A91ED010A36
:1058600080ED0C0A91ED020A80ED0D0A91ED030A1C
:1058700080ED0E0A91ED040A80ED0F0A91ED050A04
:1058800080ED100A0021A0F844100020704701208C
:105890007047000010B50446903434F8901C14F89A
:1058A0008C0C4143E06FFBF7C0FBE06B90ED000A0E
:1058B000D0ED010A20EE000A00EEA00AD0ED020AA7
:1058C00000EEA00AD0ED030A00EEA00AFCF780F972
:1058D000E06F80ED000AE06BD0ED000A20EE800A58
:1058E00080ED000AE06BE16F90ED010AD1ED000A56
:1058F00020EE200A80ED010AE06BE16F90ED020AD4
:10590000D1ED000A20EE200A80ED020AE06BE16F83
:1059100090ED030AD1ED000A20EE200A80ED030A83
:10592000E06BB6EE000A14ED221AD0ED010AE06C2D
:1059300060EE800A60EE810AC0ED040AE06B14EDAF
:10594000221AD0ED020AE06C60EE800A60EE810A55
:10595000C0ED050AE06BFEEE000A54ED221A90ED50
:10596000001AE06C21EE201A21EE211A80ED0A1AAD
:10597000E06B54ED221A90ED031AE06C21EE001A50
:1059800021EE211A80ED0B1AE06B54ED221A90EDF6
:10599000031AE06C21EE201A21EE211A80ED101A74
:1059A000E06B54ED221A90ED001AE06C21EE201A03
:1059B00021EE211A80ED111AE06B90ED021AE06CD5
:1059C00021EE000A14ED221A20EE010A80ED160ADB
:1059D000E06B90ED010AE06C20EE200A54ED220A03
:1059E00020EE200A80ED170AE06D0F4B903C016F0E
:1059F0009FED0E0A0E4ADFED0F0A994202DD80ED9F
:105A00001C0A03E0914201D9C0ED1C0AD4F8EC0055
:105A1000D0F88C10994202DD80ED230A10BD91422E
:105A2000FCD9C0ED230A10BD00401C4600401C46B6
:105A300000401CC600401CC62DE9F0410446A434B9
:105A40002089208001256580A43C04F1A40204F192
:105A5000AC00164604F1BC010746FAF7F3FFAC347C
:105A60002076258120886081AC3C04F1B401884611
:105A70003846FBF709F984F8C40004F118023146EE
:105A80004046FAF7DFFF84F8C40094ED090AB6EE49
:105A9000001AD4ED080A20EE011AF4EEC10AF1EE64
:105AA00010FA01D284F82950F4EEC00A0020F1EE79
:105AB00010FA30DD94F8291069B3217D29B194F8EA
:105AC0002810491C84F8281001E084F8280094F874
:105AD0002810322907D9F53404F8CC0CE07F20F0E7
