:020000040800F2
:100000006871002029020008ED320008A12E0008C6
:10001000E9320008310400087D49000800000000B2
:100020000000000000000000000000007133000824
:10003000590400080000000001330008953300084F
:10004000430200084302000843020008430200087C
:10005000430200084302000843020008430200086C
:10006000430200084302000843020008430200085C
:100070004D04000843020008430200084302000840
:10008000430200084302000843020008430200083C
:100090003504000843020008430200085D0400081C
:1000A000430200084302000843020008430200081C
:1000B000913400084302000843020008430200088C
:1000C00043020008430200084302000843020008FC
:1000D0004302000843020008430200087937000881
:1000E00043020008430200084302000843020008DC
:1000F00043020008430200084302000843020008CC
:1001000043020008430200084302000843020008BB
:1001100043020008430200084302000843020008AB
:10012000430200084302000843020008430200089B
:10013000430200084302000843020008430200088B
:10014000410400084302000843020008F532000899
:10015000430200084302000843020008430200086B
:10016000430200084302000843020008430200085B
:100170004302000843020008430200080000000098
:10018000430200084302000800F002F800F03CF8C7
:100190000AA090E8000C82448344AAF10107DA45E2
:1001A00001D100F031F8AFF2090EBAE80F0013F0F8
:1001B000010F18BFFB1A43F001031847C85700008E
:1001C000E8570000103A24BF78C878C1FAD852071F
:1001D00024BF30C830C144BF04680C6070470000C1
:1001E0000023002400250026103A28BF78C1FBD840
:1001F000520728BF30C148BF0B6070471FB505F0DC
:100200009DFB1FBD10B510BD00F0DDF81146FFF7D6
:10021000F5FF04F0B5FB00F0FBF803B4FFF7F2FFC5
:1002200003BC00F0FFF80000094880470948004778
:10023000FEE7FEE7FEE7FEE7FEE7FEE7FEE7FEE796
:10024000FEE7FEE704480549054A064B70470000F3
:100250007D34000889010008686B00206871002067
:10026000686D0020686D002053EA020C00F0698080
:100270002DE9F04B4FF00006002B1FBFB3FA83F5BA
:1002800003FA05F424FA05F65E4012BF1643B2FAEB
:1002900082F502FA05F4C5F120051EBF22FA05FC1D
:1002A00044EA0C04203556EA044C4FEA144418BFC3
:1002B000641C4FF000084FF00009904271EB030CF2
:1002C00039D3002919BFB1FA81F701FA07F6B0FA5C
:1002D00080F700FA07F6C7F120071EBF20FA07FCD7
:1002E00046EA0C062037B6FBF4FCA7EB0507103FE7
:1002F00007F01F0BCBF120062CFA06F60CFA0BFBCD
:1003000044BFB3460026202FA4BF5E464FF0000B2B
:100310005BEA060C08BF4FF0010B19EB0B0948EB29
:100320000608ABFB027C06FB02CC0BFB03CCC01B1C
:1003300071EB0C01C1E70B46024641464846BDE859
:10034000F08B13B5084318BF4FF0FF300146AFF3F1
:100350000080BDE81C40704702F0FF0343EA03221F
:1003600042EA024200F002B84FF0000200B5134624
:1003700094469646203922BFA0E80C50A0E80C50C5
:10038000B1F12001BFF4F7AF090728BFA0E80C5076
:1003900048BF0CC05DF804EB890028BF40F8042B6F
:1003A00008BF704748BF20F8022B11F0804F18BFDC
:1003B00000F8012B7047704770477047004870473E
:1003C0001000002070477546FFF7F8FFAE460500A5
:1003D0006946534620F00700854618B020B5FFF760
:1003E00031FFBDE820404FF000064FF000074FF00E
:1003F00000084FF0000BAC46ACE8C009ACE8C009FF
:10040000ACE8C009ACE8C00921F007018D4670478F
:1004100010B50446AFF300802046BDE81040FFF75A
:10042000FCBE000001491820ABBEFEE7260002001A
:10043000FEE7000040F27C00C2F2000000F01AB8B3
:1004400040F2A400C2F2000000F014B840F2CC0068
:10045000C2F2000000F0A2BA70470000202000F0B5
:1004600005BC0000EFF3108072B600BFFEE700008D
:10047000704700002DE9F04F81B0044600684669DE
:10048000D0F804908768D0F80CB0D0F810A0D0F85D
:100490001880F10703D1002530071CD423E0F907A9
:1004A00010D00121BA07816009D4780700F1AA8031
:1004B000380700F1B080204600F010FA02E0204634
:1004C00000F00EFA0025F80500F18480F80300F131
:1004D000AA80300707D51BF0100004D0206845F42F
:1004E00000751021C160700708D51BF0080005D009
:1004F00020680821C160204600F0E6F9B00706D563
:100500002068C068800702D0204600F0DFF970063E
:1005100007D51AF0100004D0206845F4806510213A
:100520000161B00608D51AF0080005D0206808213E
:100530000161204600F0CCF9F00606D5206800697C
:10054000800702D0204600F0C5F9B00308D519F0A5
:10055000100005D0206810214160204600F0BCF951
:10056000F00308D519F0080005D020680821416083
:10057000204600F0BFF9300440F18F805FEA4970F7
:1005800040F1888006F4807008EA102028435FEA72
:100590008871014648BF41F00201B20558BF0146CB
:1005A0005FEA48700D4648BF45F00405700558BF26
:1005B0000D4630056ED518F070006BD0103800096C
:1005C000052862D8DFE800F0035356595C5F45F018
:1005D00008055AE020684FF48071BA0581600AD49A
:1005E000780512D4380519D4204600F07BF9F803B9
:1005F0007FF56FAF17E0204600F076F9F8037FF53E
:1006000068AF10E04FF400655DE705F50055F803AD
:100610007FF55FAF07E04FF4805554E705F580455F
:10062000F8037FF556AF20684FF48031BA0381603C
:100630000AD478030FD4380313D4204600F056F9B7
:1006400030073FF548AF4EE7204600F051F930073C
:100650003FF541AF47E705F5004530073FF53BAFB4
:1006600041E705F5803530073FF535AF3BE745F00D
:1006700010050AE045F0200507E045F0400504E0DC
:1006800045F0800501E045F480752068816921F01E
:10069000700181612068042141604DB1606A40EAC7
:1006A00005012046616201B0BDE8F04FFFF7E0BEF2
:1006B00001B0BDE8F08F0000B0B5C8B1044690F8B5
:1006C000200010B9204600F071F82068016841F060
:1006D0000101016000F0ACFB054600BF20684168E5
:1006E000C90707D100F0A4FB401B0B28F6D312E08A
:1006F0000120B0BD016821F00201016000F098FB0B
:10070000054600BF2068416889070DD500F090FBC1
:10071000401B0B28F6D3606A052140F4003060626C
:10072000012084F82010B0BD217E0268012922F04A
:10073000800208BF80320260617E0268012922F0D7
:10074000400208BF40320260A17E0268012922F007
:10075000200208BF20320260E17E0268012922F0F7
:10076000100218BF10320260217F0268012922F0B6
:10077000080208BF08320260617F0268012922F086
:10078000040208BF04320260D4E901C2D4E903358F
:1007900061691A432A431143ACF101021143C1615B
:1007A00000200121606284F82010B0BD10B586B031
:1007B000006846F60002C4F2000200219042CDE932
:1007C0000411CDE90211019133D046F20041C4F287
:1007D0000001884276D140F27001C2F200010A683D
:1007E00043F64000C4F20200531C0B6052B90021D2
:1007F0000091016841F000710160016801F0007131
:10080000009100990021009150F8101C142441F02F
:10081000080140F8101C50F8100C032100F00800EB
:100820000090009840F20040C4F2020000F5006021
:1008300034E043F64000C4F202000091016841F048
:1008400080610160016801F080610091009940F2CF
:100850007001C2F200010A68531C0B6052B90021FA
:100860000091016841F000710160016801F00071C0
:10087000009100990021009150F8101C402441F093
:10088000020140F8101C50F8100C602100F002002A
:100890000090009840F20040C4F202000191022151
:1008A000029100210391032104910921059101A9DD
:1008B00000F0E8F920460521002200F071FB2046F7
:1008C00000F05EFB06B010BD7047000070470000EE
:1008D000704700007047000070470000704700003C
:1008E000704700007047000070470000704700002C
:1008F000704700007047000070B5866D044600F038
:1009000097FA94F83510022925D105462068216C04
:10091000026822F016020260426922F080024261FF
:1009200009B9A16C19B1016821F0080101600168E1
:1009300021F00101016000BF20680068C0070ED0EF
:1009400000F076FA401B0628F6D3202060650320CD
:1009500084F835000CE080206065012008E0E06D3F
:100960003F2101FA00F0B060012084F8350000203A
:10097000002184F8341070BD90F83510022909D197
:10098000052180F835100068016821F0010101603F
:10099000002070478021416501207047F0B581B08B
:1009A00004460020009040F20000C2F200000268FD
:1009B000D4E9166048F2B51337680821C1F64E3302
:1009C00081403942A2FB03250CD0226813685B07E3
:1009D00008D5136823F004031360B160616D41F022
:1009E0000101616501218140394208D022685269C4
:1009F000120604D5B160616D41F002016165042108
:100A00008140394208D022681268920704D5B1604B
:100A1000616D41F00401616510218140394215D0BA
:100A200020680268120711D5B1600268016852039C
:100A300006D4C90506D4016821F00801016001E06F
:100A400008033ED4216C09B120468847E16D20207F
:100A500000FA01F23A4240D020680368DB063CD538
:100A6000B26094F835300268052B1AD122F01602D4
:100A70000260426922F080024261226C0AB9A26CD3
:100A80001AB1026822F0080202603F208840B0607C
:100A9000012084F83500216D002084F83400D9BB92
:100AA0003FE00168520310D4C90512D4016821F057
:100AB00010010160012084F83500002084F8340022
:100AC00007E0A16C0029BFD1C0E7080301D4616C25
:100AD00000E0E16B09B120468847606D08B3606DA6
:100AE000C00717D0052084F835002068A90A0268DD
:100AF00022F00102026000BF009A01328A42009295
:100B000002D80268D207F7D1012084F8350000200E
:100B100084F83400E16C21B1204601B0BDE8F0401A
:100B2000084701B0F0BD00002DE9F041044600F097
:100B30007FF9C4B10546022084F835000020216801
:100B400084F83400086820F001000860206801681B
:100B5000C9070BD000F06CF9401B0528F6D903211A
:100B6000202203207AE00120BDE8F081016848F2EC
:100B70003F02CFF21002D4E9013501EA020ED4E9B6
:100B8000032143EA0E032B43D4E9056C1A43D4E94D
:100B900007781143314341EA0702616A42EA0802D9
:100BA000042942EA0C0303D1D4E90B273A43134347
:100BB00003604269042922F0070241EA02012DD1B3
:100BC000D4E90A5341EA050143B3BCF5005F08D0FC
:100BD000BCF1000F12D1022D16D0012D07D09DB10E
:100BE00019E0032D17D8DFE805F00B0F0B02A3F176
:100BF000C072B2FA82F252094AB90FE0032D02D252
:100C0000012222B90AE006D1C3F3006232B1012108
:100C10004022012022E00022002AF8D100F0F80250
:100C20004AF6AB23103ACAF6AA23A2FB033745F6CD
:100C30006E1341613909C0F60003595C40F2FF337D
:100C400098435F2A4FF03F0288BF0430C4E9160181
:100C500002FA01F18160002201210020626584F81E
:100C60003510BDE8F08100007047000043F61441E4
:100C7000C4F201010A68024214BF08607047FFF71E
:100C8000F3BF00002DE9F04F82B000F13E4241F683
:100C9000004502F1FF77C4F2020508224FEAB726A9
:100CA000A84208BF0722072E38BF4FEAB7224FF0ED
:100CB000010A002400274FF00009009209E000BF5C
:100CC00009F101090237B9F1100F04F1040400F031
:100CD000A6800A680AFA09FC12EA0C08F0D0D1F8DA
:100CE00004B00BF0030AAAF10102012A12D88268AB
:100CF0000323CE6803FA07FE22EA0E02BE40324307
:100D000082604268CBF3001622EA0C0206FA09F66A
:100D100032434260BAF1030F1DD0C26803238D68CD
:100D200003FA07F6B24305FA07F63243BAF1020FA7
:100D3000C26010D16FF0030202EA59020244D2F8F5
:100D400020C004F01C050F230E69AB402CEA0303FE
:100D5000AE4033431362026803234E68BB409A439C
:100D600006F00303BB401A4316F4403F4FF0010A5C
:100D70000260A5D0002243F644030192C4F20203AC
:100D80001A6843F6004E42F480421A601A68C4F2B0
:100D9000010E02F480420192019A29F003024FF6FB
:100DA000084C7244CFF6FF7C52F80C3004F00C066D
:100DB0000F25B540AB43009D05FA06F6334342F8D4
:100DC0000C30DEF808204B6842EA080643F60C4C6B
:100DD000DD0258BF22EA0806CEF80860C4F2010C12
:100DE000DCF800209D0242EA080658BF22EA080605
:100DF000CCF80060DEF804209D0342EA080658BFE4
:100E000022EA0806CEF80460DEF80020DB0342EA9E
:100E1000080658BF22EA0806CEF8006050E702B084
:100E2000BDE8F08F002A08BF090481617047000007
:100E300046F66000C2F200000068704740F204000D
:100E400046F66001C2F20000C2F2000100780A68B2
:100E5000104408607047000080B543F60040C4F2BB
:100E60000200016841F400710160016841F4806191
:100E70000160016841F480710160032000F0BCF85A
:100E80000F2000F005F800F059F8002080BD0000A8
:100E900070B586B0002543F640010195C4F2020109
:100EA0000A68044642F001020A60096801A801F0DC
:100EB000010101910199694600F08EFE049E002E09
:100EC00018BF012600F0AEFE4DF68361B040C4F2BB
:100ED0001B31A0FB01014FF0FF3000EB914140F2CC
:100EE000E860C2F200004FF0804240F2E733C0E910
:100EF0000021C0E902530561856101F0E5F905466D
:100F0000C0B940F2E860C2F2000001F03BFA0546C9
:100F100080B91C2000F034F80F2C0AD81C20214680
:100F2000002200F03DF840F20800C2F20000046028
:100F300000E00125284606B070BD000082B0002008
:100F400043F640010190C4F202014A6842F4804233
:100F50004A604A6802F480420192019A009008684F
:100F6000002240F08050086008680F2100F0805097
:100F7000009000986FF0010002B000F011B800007E
:100F8000002848BF704700F01F01012202FA01F15A
:100F90004EF200124009CEF2000242F820107047D3
:100FA00010B54EF60C5CCEF2000CDCF80030C3F34A
:100FB000022E8EF00704042C28BF0424BEF1030384
:100FC0004FF0FF3E0EFA04F438BF0023A1439940CE
:100FD0000EFA03F39A43114300F1604200F00F034D
:100FE000090102F56442043B6344002848BF03F151
:100FF0000C02117010BD00004EF60C51CEF2000133
:101000000A684FF6FF031A4060F30A2242F080603C
:1010100040F0FD700860704770470000D0F8080588
:1010200002F09CBC01EBC102D0F8083500EB820055
:10103000C26C184602F0FCBB01EBC102D0F80835C7
:1010400000EB8200D0F88C22184602F04BBC000066
:10105000D0F8080502F084BCB0B54268044601F03F
:101060000F0082423CBF0120B0BD49B2B1F1FF3F49
:1010700009DD00EBC00104EB810202F51F710023C2
:1010800082F87D3208E000EBC00104EB810201230D
:1010900002F13C0182F83D3094F8BC240025012A7D
:1010A0008D70087004BF0220B0BD2068012284F852
:1010B000BC2403F0AFF9284684F8BC54B0BD00004E
:1010C00070B5064648B2B0F1FF3F01F00F0000EBEB
:1010D000C00107DD06EB810404F51F71002584F8CB
:1010E0007D5206E006EB810C01240CF13C018CF8EA
:1010F0003D404D780870002DCA600B7118BF088103
:10110000022B04BF0020487196F8BC04012804BFDC
:10111000022070BD3068012286F8BC2403F07EF8FE
:10112000002086F8BC0470BD80B501F00F0C0CEBFC
:10113000CC0100EB810ECEF894320023CEF89C3225
:101140008EF87D320369CEF88C22012B8EF87CC29A
:1011500008BFCEF8902200680EF51F71DAB2BCF11C
:10116000000F03D003F09CF9002080BD03F0A6F827
:10117000002080BDB0B50446406801F00F058542EF
:1011800084BF0120B0BD48B2B0F1FF3F09DD01EBE3
:10119000C10004EB800000F51F71002280F87D2261
:1011A00008E005EBC50004EB8000012200F13C01E2
:1011B00080F83D2094F8BC04012201288A700D704B
:1011C00004BF0220B0BD206884F8BC2403F04AF9B3
:1011D0002DB92068217C04F2C44203F0EDF8002010
:1011E00084F8BC04B0BD000010B501F00F0C0CEB8E
:1011F000CC0100EB810E714601F83CCF8B610023DE
:101200000B62036901244C70012B0A6108BFCEF800
:1012100050200068DAB2BCF1000F03D003F040F9AF
:10122000002010BD03F04AF8002010BD2DE9F04F5A
:1012300089B005680646284603F08CFA10B109B05B
:10124000BDE8F08F306803F0B3FA0028F7D0D5F886
:101250000808C0F30D213068C6F8FC1403F0A8FAA2
:10126000800704D53068416901F0020141613068AE
:1012700005F50061039103F09BFAC00604953CD587
:101280003068816921F0100181612C6AC4F3434008
:10129000062804F00F0519D0022828D147F6F0706F
:1012A00014EA000823D005EBC50006EB8007D7F849
:1012B0008C124FEA18140498224603F07DFAD7F8EE
:1012C0008C0200EB1810C7F88C0207E0049806F2B5
:1012D000C441082203F070FAC4F30A1405EBC500F8
:1012E00006EB8000D0F89C122144C0F89C123068B4
:1012F000816941F010018161049D3068089603F016
:1013000057FA000340F1F1800898006803F02EFAC4
:10131000002800F0EA80064608984FF4306800F292
:10132000C44000244FF0000B07901BE005EB0800C1
:10133000022181605FEA8A6042BF05EB080020213C
:1013400081605FEA8A4042BF05EB08004FF400511C
:1013500081600BF1010B760808F1200804F12404E8
:1013600000F0C380F007F4D008985FFA8BF90068AA
:10137000494603F015FA8246C0075DD005EB080028
:1013800001218160089F386808EB0001036C8A68BE
:101390003F69012F29D1170735D4970676D412F06B
:1013A000280F49D143F20B07C4F65477BB4202D34E
:1013B00012F4004230D1089F002C07EB0402D2F84F
:1013C000983209696FF3DF41A3EB0101C2F89C1267
:1013D00040F08980D2F89432002B00F07F80D2F860
:1013E0008C020844C2F88C027CE043F20B07C4F67E
:1013F0005477FF37BB4212D110040DD4900644BF7E
:101400002020886014E043F20B00C4F6547083423D
:1014100012D312F400400FD04FF4004037E03CB933
:101420000899D1F8941219B9079A002102F0C4FF63
:1014300008984946FFF700FE5FEA0A702CD505EBD5
:10144000080008218160089843F20B020068C4F686
:101450005472056C40448168571EBD4205D911F491
:1014600000411CBF4FF400418160089800F0DAFA97
:10147000BD42049D10D90898006901280CD1089834
:10148000079A0068012102F097FF05E0202088609C
:101490005FEA0A70D3D400BF5FEACA6042BF05EBBF
:1014A0000800102181605FEA8A707FF543AF6869A8
:1014B000000604D50399486840F4806048600898A5
:1014C000204490F87F1201297FF430AF002180F88A
:1014D0007F120898494600F06FFA27E7079A012122
:1014E00002F06AFF089F3846A3E7DDF820B0DBF87A
:1014F000000003F05DF9400340F1D580DBF8000007
:1015000003F02CF9002800F0CE80824605F510602B
:1015100002900BF2C4400027019005E05FEA5A0AEE
:1015200007F1010700F0BF805FEACA70F6D0DBF870
:101530000000F9B2079103F021F9029E0446C007AA
:1015400026D0039A07F00F00516B012303FA00F035
:1015500021EA0000506306EB47108360DBF81000BF
:10156000012811D107EBC7000BEB8000D0E9121264
:101570001144C16447B9406D30B9DBF80000019AED
:10158000012102F019FF00BF07995846FFF74AFDF5
:10159000200742BF06EB471008218160E00642BFEA
:1015A00006EB471010218160600642BF06EB471032
:1015B00040218160A00715D52846394603F094F8EC
:1015C00007EBC7000BEB800010F83F1F012905D186
:1015D000002101700799584600F0EAF906EB471020
:1015E00002218160200699D507EBC7000BEB800034
:1015F000814659F8541FC84658F8082F91428DD398
:10160000DBF8006083465BF8483F891A994238BF8F
:101610000B46069606EB4711D1F81829033392B210
:10162000B2EB930F28D301F5106100F14C05059141
:10163000D8F80000D9F8001081421DD9DBF800402D
:10164000089A081AA0422968167C38BF0446DDE9CA
:101650000602A3B2009603F073F92868D8F80010C8
:10166000204428600819C8F800000598E11C80692A
:1016700080B2B0EB910FDBD2D9F80000D8F800109F
:10168000DDF820B0049D88423FF648AF069B07F086
:101690000F00D3F83418012202FA00F021EA00000A
:1016A000C3F834083AE7DBF8000003F081F8039C44
:1016B000B0F1FF3F18DC606820F0010060609BF82B
:1016C000F404012807D100208BF8F40458460021C7
:1016D000FFF7A2FC02E0584600F088F9DBF80000B2
:1016E000416901F000414161DBF8000003F060F85E
:1016F00000050BD5A068C00702D0584600F09AF943
:10170000DBF80000416901F400614161DBF8000091
:1017100003F04EF8C00453D56068102120F001009A
:101720006060DBF8000002F0DFFFDBF80400D0B1FE
:1017300005F510614FF67F328A600B68013823F49B
:1017400000130B60C1F80822D1F8003223F4001313
:10175000C1F80032D1F8003243F00063C1F8003222
:1017600001F12001E8D1E06940F00110E061DBF80F
:10177000300040B1D4F8840040F00B00C4F884007D
:1017800004F1440006E0606942F22B010843606105
:1017900004F1100001680BF2C44241F00B0101603A
:1017A000206820F4FE602060DBF800009BF8101039
:1017B00002F002FEDBF80000416901F48051416152
:1017C000DBF8000002F0F4FF80041CD5DBF8000019
:1017D00002F064FDDBF8000002F0AEFFDBF8004031
:1017E000CBF80C0000F018FA9BF80C2001462046BC
:1017F00003F01AF8584600F0E3F8DBF800004169FE
:1018000001F400514161DBF8000002F0D1FF000754
:1018100008D5584600F0EEF8DBF80000416901F009
:1018200008014161DBF8000002F0C2FF000629D583
:101830000499886920F080008861DBF804000228A0
:1018400020D3012440F2A32507E000BFDBF8040009
:101850000134844205F1240514D21BF80500012847
:10186000F4D104F00F0000EBC0000BEB8002200667
:10187000DBF8000002F13C0158BF02F51F7102F0D5
:10188000EFFEE3E7DBF8000002F092FFC0022ED586
:10189000DBF80400022824D304980BF1640500F55A
:1018A00012640126012707E0DBF804000137203429
:1018B000874205F1240514D2206829780129F3D143
:1018C000B0F1FF3FF0DC07F00F0000EBC0000BEBC6
:1018D0008001DBF800003C3105F8016C02F0C0FE2D
:1018E000E2E7DBF80000416901F480114161DBF8B7
:1018F000000002F05DFF800234D5DBF80410049D87
:10190000022929D305F5326001390BF5297201232B
:1019100005E000BF2030013902F124021CD0076825
:101920001678012EF6D1B7F1FF3FF3DCDBF8FC644B
:1019300007F4803706F00106B742EBD102F8013C0C
:10194000AF6947F08007AF616F693F06E2D4039942
:10195000486840F400704860DBF80000416901F419
:1019600000114161DBF8000002F022FF400008D5C1
:101970005846FFF753FBDBF80000416901F0804156
:101980004161DBF8000002F013FF40077FF557AC20
:10199000DBF800004468600702D55846FFF758FBA3
:1019A000DBF8000041682143416009B0BDE8F08FD9
:1019B000D0F8080501F0F6BFD0F8080502F006B827
:1019C00010B50446C06828B1022818BFFEF74AFDCA
:1019D000012100E00021D4F8080502F07BF8D4F8DA
:1019E0000805BDE8104002F02BB80000D0F808054B
:1019F00002F058B8D0F8080502F05EB810B50446F9
:101A000090F8BC04012804BF022010BD012084F816
:101A1000BC0484F83810206802F0F4FE002084F83A
:101A2000BC0410BDD0F8082500F2C441104602F0F5
:101A300067B8000010B50446D0F8080502F0A2F817
:101A40002068D0F8001E41F00101C0F8001E206A95
:101A5000002808BF10BD4EF61050CEF200000168FD
:101A600041F00601016010BD704700002DE9F04112
:101A7000002800F08B8043F60808C4F202080446F0
:101A8000D8F8F8030D4600F00700884207D288F81E
:101A9000F853D8F8F80300F00700A84276D1206880
:101AA000810717D5410705D5D8F8001041F4E0515A
:101AB000C8F80010010705D5D8F8001041F46041BE
:101AC000C8F80010D8F80010A26821F0F001114306
:101AD000C8F80010C0073FD1D8F8F80300F007009D
:101AE000A84207D988F8F853D8F8F80300F007009F
:101AF000A8424BD12068410707D5D8F80010E2680A
:101B000021F4E0511143C8F80010000708D5D8F8B7
:101B10000000216920F4604040EAC100C8F80000DC
:101B200000F0A8F8D8F8001045F65612C1F30311DA
:101B3000C0F60002515C40F2000220FA01F140F2CE
:101B40000800C2F200000068C2F200021160FFF754
:101B50009FF90020BDE8F0816068811E022907D24C
:101B600058F8081C89015CBF0120BDE8F08110E035
:101B7000012807D158F8081C89035CBF0120BDE883
:101B8000F08106E058F8081C890702D40120BDE85E
:101B9000F081D8F8001021F003010843C8F80000D4
:101BA000FFF746F9064641F2883700BFD8F8000033
:101BB000616800F00C00B0EB810F8DD0FFF738F9B1
:101BC000801BB842F2D90320BDE8F0814C20C4F25A
:101BD00047200121016070470F22026043F608028E
:101BE000C4F20202136803F003034360136803F0B6
:101BF000F0038360136803F4E053C360D2F800C0BD
:101C00004FF4E05303EADC030361D2F8F80300F079
:101C1000070008607047000040F20000C2F20000B8
:101C20000068704740F2000043F60801C2F200006D
:101C3000C4F202010068096845F66612C1F3822108
:101C4000C0F60002515CC8407047000040F200003E
:101C500043F60801C2F20000C4F2020100680968FC
:101C600045F66612C1F34231C0F60002515CC8402D
:101C70007047000010B543F60404C4F20204606823
:101C800000F00C0008280AD0042819BF42F20040D6
:101C9000C0F2F40041F60030C0F2B70010BD206879
:101CA00021682368490241F60031C0F2B70100F013
:101CB0003F02C3F388105CBF42F20041C0F2F4015E
:101CC000A1FB00010023FEF7CFFA21680222C1F335
:101CD000014102EB4101B0FBF1F010BD10B543F63C
:101CE0000C04C4F202042068000658BF10BDFFF7C0
:101CF000BBFE8020A07010BD2DE9F04182B000280D
:101D000000F0A1800446007843F60006C007C4F244
:101D1000020643D0B06800F00C00042805D13068FA
:101D200080033BD56068C8BB8DE0B06800F00C0054
:101D3000082802D170684002F1D46568B5F5A02F7B
:101D40000AD0B5F5803F0BD0306820F48030306089
:101D5000306820F4802006E0306840F48020306055
:101D6000306840F480303060FFF762F8002D05469F
:101D700011D000BF3068800310D4FFF759F8401B22
:101D80006428F7D920E100BFFFF752F8401B642810
:101D90004FF0030054D830688003F5D420788007D2
:101DA0001AD5B06810F00C0F09D0B06800F00C0024
:101DB000082840F088807068400200F18480306814
:101DC000800702D5E06801283DD13068216920F004
:101DD000F80040EAC10030602078000737D420784E
:101DE00040074AD4A56955B3B06800F00C00082834
:101DF00040F09C80012D26D07068E16900F48002DB
:101E00008A4220D1216A00F03F028A421BD147F664
:101E1000C071626A0140B1EB821F14D1A16A4FF612
:101E2000FF73C903994300F44032A1F580318A421F
:101E300009D1E16A00F07060B0EB016F03D10020BE
:101E400002B0BDE8F081012002B0BDE8F081606918
:101E5000002840F20000C4F2472056D00121C0F80B
:101E6000801EFEF7E5FF0546706F8007B7D4FEF7CA
:101E7000DFFF401B0228F7D9A6E0306C10F0805835
:101E80000AD100200190306C40F080503064306CFA
:101E900000F080500190019847F20007C4F200075B
:101EA0003868C00524D4386840F480703860FEF784
:101EB000BFFF05463868C0051AD4FEF7B9FF401BBE
:101EC0000228F7D980E0E068002851D00020C4F251
:101ED000472001210160FEF7ABFF0546306880070F
:101EE0003FF573AFFEF7A4FF401B0228F6D96BE065
:101EF000A568052D50D0012D52D0306F20F0010083
:101F00003067306F20F004004DE00021C0F8801EE3
:101F1000FEF78EFF054600BF706F80077FF55FAF4D
:101F2000FEF786FF401B0228F6D94DE00027C4F2D9
:101F3000472700203866FEF77BFF022D05460BD1B0
:101F40003068800158D5FEF773FF401B02284FF020
:101F50000300F5D974E700BF306880017FF56FAFEB
:101F6000FEF766FF401B02284FF00300F4D967E735
:101F70000020C4F2472000210160FEF759FF05460A
:101F8000306880077FF528AFFEF752FF401B02281C
:101F90004FF00300F4D953E7306F40F0040030678E
:101FA000306F40F001003067FEF742FF002D05461C
:101FB00041F2883714D000BF306F800713D4FEF78A
:101FC00037FF401BB842F7D9032002B0BDE8F081CB
:101FD000FEF72EFF401BB8424FF003003FF630AF34
:101FE000306F8007F4D4B8F1000F7FF4FBAE306C93
:101FF00020F080503064F5E604F11C052FCD084335
:1020000040EA8210D9034FF6FF729143A1F5803167
:1020100040EA05600843706001203866FEF708FF5B
:10202000044600BF306880013FF509AFFEF700FFAE
:10203000001B02284FF00300F4D901E7002804BF79
:102040000120704710B50446407920B90020207166
:10205000204600F00DF8022060712068016841F010
:1020600004010160012060710020A06010BD00002B
:1020700081B0006840F60001C5F20601884201D037
:1020800001B070470020009043F63400C4F2020013
:10209000016841F040010160006800F040000090DC
:1020A000009801B07047000070B538B10446406A2E
:1020B00030B10020206104F1140007E0012070BD60
:1020C0006068B0F5827F03D004F11C00002101603C
:1020D0000026A66294F8510020B9204684F850608A
:1020E00000F03CF8022084F8510094E80F0001F45D
:1020F0008271056802F4044225F040050560114430
:1021000003F400622369114403F00202636911447D
:1021100003F00102A369E569114403F4007211445C
:1021200005F03802256A114405F08002A56A1143C2
:1021300005F4005211430160626A042101EA13416F
:1021400002F0100211444160C16921F40061C161D3
:102150000120666584F85100304670BD2DE9F043DA
:1021600087B043F200050068C4F201050026A842CA
:102170000696CDE904660396029602D007B0BDE844
:10218000F08343F630000196C4F20200416902ACCC
:1021900041F48051416141694FF0020801F48051DE
:1021A00001910199019601684FF0030941F0020184
:1021B00001600168052701F0020101910199019672
:1021C000016841F0010101600068214600F0010052
:1021D000019001981820029005F55440CDE903863E
:1021E000CDF814900697FEF74DFD8020CDE902084A
:1021F00005F550402146CDE904690697FEF742FDFA
:1022000007B0BDE8F0830000704700007047000091
:1022100010B590F83C20012A4FF0020252D0012361
:1022200080F83C3080F83D200268D2F804E0D2F813
:1022300008C00C682EF07003234341F2FF74C4F20F
:102240000004A24253600DDC40F2FF73C4F20003AD
:102250009A4215DCB2F1804F29D040F20043C4F21B
:10226000000322E040F2FF33C4F201039A4212DC81
:1022700041F60003C4F200039A4218D0002312E092
:1022800040F60003C4F200039A4210D040F6004327
:10229000C4F2000309E044F20003C4F201039A42CD
:1022A00005D040F20043C4F201039A4204D14968C8
:1022B0002CF08003194391600121002280F83D1029
:1022C00080F83C20104610BD002804BF0120704754
:1022D00010B5044690F83D0028B9002084F83C0071
:1022E000204600F01FF8022084F83D002068211DE0
:1022F00001F0D4F8012084F8460084F83E0084F808
:102300003F0084F8400084F8410084F8420084F8DB
:10231000430084F8440084F8450084F83D00002020
:1023200010BD000082B0006844F20041C4F2010117
:10233000884216D040F60001C4F2000188421FD145
:102340000020019043F64000C4F20200016841F011
:1023500004010160006800F004000190019802B0DF
:1023600070470020009043F64000C4F2020041682C
:1023700041F400314160406800F400300090009862
:1023800002B0704790F83D1001291CBF0120704732
:10239000022180F83D10006841F2FF72C168C4F26A
:1023A0000002904241F00101C1600DDC40F2FF717A
:1023B000C4F20001884215DCB0F1804F29D040F210
:1023C0000041C4F2000122E040F2FF31C4F20101F9
:1023D000884212DC41F60001C4F20001884218D0A4
:1023E000002112E040F60001C4F20001884210D042
:1023F00040F60041C4F2000109E044F20001C4F2D9
:102400000101884205D040F20041C4F20101884236
:1024100006D1816801F00701062904BF002070473A
:10242000016841F0010101600020704780B590F81B
:102430003C20012A4FF0020200F0C280012380F804
:102440003C3080F83D20D0F800C04FF67772DCF8C1
:10245000083023EA0202CCF808200B684F2B28DC56
:102460001F2B43DD202B44D0302B42D0402B40F09B
:10247000A980D1F804E0C968DCF82030DCF820201D
:1024800022F00102CCF82020DCF8182022F0F00223
:1024900042EA011123F00A0242EA0E02CCF81810B7
:1024A000CCF82020DCF8081041F0470121F0300181
:1024B0007DE06F2B25DDB3F5005F46D0B3F5805F7F
:1024C00077D0702B7ED1D1E901E3C968DCF8082010
:1024D00043EA0E0322F47F4243EA01211143CCF880
:1024E0000810DCF8081041F0770160E00BB1102B08
:1024F00068D1DCF8081021F07001194341F00701A0
:1025000055E0502B34D0602B5CD1D1F804E0C96881
:10251000DCF8203023F01003CCF82030DCF8183041
:10252000DCF8202023F4704322F0A00243EA0131BA
:1025300042EA0E12CCF81810CCF82020DCF8081073
:1025400041F0670121F0100131E0D1E901E3C968F0
:10255000DCF8082043EA0E0322F47F4243EA01211B
:102560001143CCF80810DCF8081041F480411EE05B
:10257000D1F804E0C968DCF82030DCF8202022F033
:102580000102CCF82020DCF8182022F0F00242EA08
:10259000011123F00A0242EA0E02CCF81810CCF81E
:1025A0002020DCF8081041F0570121F02001CCF880
:1025B00008100022012180F83D10002180F83C1015
:1025C000104680BD0122F5E77047000010B50446B3
:1025D00000680169890744BFC1685FEA81713FD41F
:1025E00020680169490744BFC1685FEA417143D46B
:1025F00020680169090744BFC1685FEA017148D4D6
:1026000020680169C90644BFC1685FEAC1614CD452
:1026100020680169C9071CBFC1685FEAC17151D157
:1026200020680169090644BFC1685FEA016150D4AE
:1026300020680169490644BFC1685FEA41614FD41F
:1026400021680869800646BFC8685FEA806010BDDF
:102650006FF0200220460A61BDE81040FFF7D6BDAA
:102660006FF00201016101212177806980073ED06E
:102670002046FFF7A9FF40E06FF00401016102214D
:102680002177806910F4407F3AD02046FFF79CFF05
:102690003CE06FF00801016104212177C0698007E7
:1026A00037D02046FFF790FF39E06FF0100101614D
:1026B00008212177C06910F4407F33D02046FFF70E
:1026C00083FF35E06FF001010161204600F0C4F99D
:1026D000A6E76FF0800101612046FFF795FDA7E7AF
:1026E0006FF040010161204600F0BEF9A8E72046E6
:1026F00000F072F8204600F0ADF9002020776FE777
:10270000204600F069F8204600F0A4F90020207768
:102710006EE7204600F060F8204600F09BF90020AC
:1027200020776DE7204600F057F8204600F092F938
:10273000002020776CE7000080B586B0006844F286
:102740000042C4F2010200219042CDE90411CDE91A
:10275000021101911DD040F60001C4F2000188422F
:1027600038D10020009043F63000C4F20200016826
:10277000032241F0080101600068022100F0080016
:102780000090009840F600404FF48043C4F20200ED
:1027900016E043F630000091C4F202000168022204
:1027A00041F0200101600068032100F0200000904A
:1027B000009840F60040C4F2020000F5006040239B
:1027C0000193022302930123059101A9CDE903326C
:1027D000FEF758FA06B080BD704700002DE9F043BF
:1027E00090F83C30012B04BF0220BDE8F0834FEA93
:1027F000B2020123032A80F83C3000F2F580DFE8C2
:1028000002F0023E7DBD036840F200471A6A43F4BD
:10281000806522F001021A621C6A1A46D3F804E0AD
:1028200052F818CF8E6824F00204C4F20107BD42AA
:1028300044EA060405D1CE6824F00C0426F0040610
:1028400034430E68BD4207D1D1E905572EF4407ECE
:1028500045EA0E0545EA070E2CF073073743C3F827
:1028600004E09F614F6809695F631C629F6947F0DC
:1028700008079F619F6927F004079F61B0E0036824
:1028800040F200481A6A43F4806522F010021A628E
:102890001C6A1A46D3F804C052F818EF8F6824F067
:1028A0002004C4F20108454544EA071407D1CF6863
:1028B0006FF0400624F0C00406EA07163443D1F84E
:1028C0000090454506D1D1E905562CF440672E43CA
:1028D00047EA860C2EF4E64747EA0927C3F804C006
:1028E0009F614F6809699F631C629F6947F4006795
:1028F0009F619F6927F480679F6170E0036840F2E1
:1029000000481A6A43F4806522F480721A621C6AD5
:102910001A46D3F804C052F81CEF8F6824F40074F0
:10292000C4F20108454544EA072408D1CF6840F2C3
:10293000FF463F0224F4406427EA06063443D1F8F8
:102940000090454506D1D1E905562CF440572E4359
:1029500047EA061C2EF0730747EA0907C3F804C0CC
:10296000DF614F680969DF631C62DF6947F00807B0
:10297000DF61DF6927F00407DF6131E0036840F2BF
:1029800000451A6A43F4806722F480521A621A469C
:10299000D3F820C05C6852F81CEFD1F800808E6834
:1029A000C4F20105AF4204D14D6924F4804444EAE5
:1029B00085142CF4005747EA06372EF4E64646EA1B
:1029C00008265C60DE614E6809691E641F62DF696B
:1029D00047F40067DF61DF6927F48067DF61090280
:1029E0001368194300231160002180F83C10184639
:1029F000BDE8F083002804BF0120704710B50446ED
:102A000090F83D0028B9002084F83C00204600F0F2
:102A10001FF8022084F83D002068211D00F03EFDD3
:102A2000012084F8460084F83E0084F83F0084F8D2
:102A3000400084F8410084F8420084F8430084F8A0
:102A4000440084F8450084F83D00002010BD0000DB
:102A500070470000704700000068B0F1804F18BF59
:102A60007047FEF7EBB900007047000070470000A8
:102A700070470000B0B582B0044600680168C368C2
:102A8000426901F02F05202D03F0200506D12DB15C
:102A9000204602B0BDE8B04000F098BD5FEA017C7E
:102AA0001EBF02F0010E03F4907212EB0E0253D11E
:102AB000226B012A05D111F0100218BF13F0100289
:102AC00036D10A0622D513F080021FD094F83D10AB
:102AD00021293FD1A168B1F5805F03D12169002987
:102AE00000F03F81216A4A1C226209784160E18C32
:102AF00001390A04E1842DD1C16821F08001C1604F
:102B0000C16841F04001C16002B0B0BD490621D5A5
:102B100013F040011ED0C16821F04001C1602021A6
:102B2000204684F83D1002B0BDE8B04000F0B6B9D0
:102B30000021019101680191416801910199406969
:102B4000400611D4A08DE18DE28D002A18BF884285
:102B500040F0DB8002B0B0BDC80718BF13F480702E
:102B600045D1480749D44FE0A06B016849688AB253
:102B7000002AEFD0A38D9A42ECD2E185C069B0F56E
:102B8000807F30D0206850E8030F216820F48070E7
:102B900041E80302002AF5D1206850E8050F2168BA
:102BA00020F0010041E80502002AF5D1206850E834
:102BB000050F216820F0400041E80502002AF5D108
:102BC000202084F83E000020206300BF206850E8E9
:102BD000030F216820F0100041E80302002AF5D11C
:102BE000A06BFDF789FEA08DE18D401AB2E0206C4C
:102BF00040F001002064480706D5BEF1000F03D065
:102C0000206C40F002002064880706D5BEF1000F5A
:102C100003D0206C40F004002064BCF1000F09D503
:102C200045EA0E00B0FA80F0400903D1206C40F074
:102C300008002064206C00283FF48CAF11F02000C5
:102C400018BF002D02D0204600F0C0FC206840696B
:102C5000216C00F0400001F00801401848D000BF8E
:102C6000206850E8030F216820F4907041E80302C7
:102C7000002AF5D1206850E8050F216820F00100F6
:102C800041E80502002AF5D1206B01280AD100BFD6
:102C9000206850E8030F216820F0100041E803028B
:102CA000002AF5D1202084F83E000020206320680F
:102CB0004069400623D500BF206850E8050F216811
:102CC00020F0400041E80502002AF5D1A06BB0B128
:102CD00043F2C151C0F600010165FDF74DFE002829
:102CE0003FF438AFA06B016D02B0BDE8B0400847BB
:102CF0002046FFF7BDFE0020206402B0B0BD204694
:102D000002B0BDE8B040FFF7B3BE401A216851E8F9
:102D1000031F226821F4907142E80313002BF5D1C0
:102D2000216851E8051F226821F0010142E80513DE
:102D3000002BF5D1202184F83E100021216300BF33
:102D4000216851E8031F226821F0100142E80313B3
:102D5000002BF5D181B2204602B0BDE8B040FFF7AC
:102D600085BE216A31F8022B6FF35F224260216237
:102D7000BDE60000002804BF0120704710B50446DE
:102D800090F83D0028B9002084F83C00204600F06F
:102D900021F8242084F83D002068C16821F4005106
:102DA000C160204600F072FC2068016921F4904166
:102DB0000161416921F02A014161C16841F400517A
:102DC000C16000202021206484F83D1084F83E106A
:102DD00010BD000070B586B0044644F600002168BE
:102DE000C4F20000002681420596CDE903660296F2
:102DF000019601D006B070BD43F630010096C4F2D2
:102E000002010A6900F5E03042F480220A610A6991
:102E100002F480220092009A00960A6842F00402AE
:102E20000A60096801F00401009100994FF44061C3
:102E300001910221CDE90216032104910721059198
:102E400001A9FDF71FFF40F2CC0546F22800C2F2AF
:102E50000005C4F202004FF000614FF4806285E883
:102E600043002846C5E90362C5E90566C5E907666A
:102E70006E62FDF759FE002818BFFDF7F3FA272010
:102E800005210022A563AC63FEF78AF82720FEF730
:102E900077F806B070BD0000704700007047000072
:102EA000FEE7000082B0002001AC019001F092FD2D
:102EB00001902046012101F07FFDF7E780B540F247
:102EC0007C0046F20041C2F20000C4F2000103227D
:102ED000002380E80E0000F10C014FF4102C4FF499
:102EE000001E81E808504FF480710183C0F81A3049
:102EF000FDF7E2FB002808BF80BDBDE88040FDF77C
:102F0000B1BA000080B540F2A40046F60001C2F25A
:102F10000000C4F200010322002380E80E0000F14B
:102F20000C014FF4102C4FF4001E81E808504FF4B0
:102F300080710183C0F81A30FDF7BEFB002808BF7E
:102F400080BDBDE88040FDF78DBA000080B582B03D
:102F50000020019043F63000C4F202000168002214
:102F600041F4001101600068052100F40010019097
:102F700001980C20FEF714F80C2002B0BDE8804048
:102F8000FDF7FEBF80B588B00B4802AF01900AA0E4
:102F900000F1040E9EE80E50806987E80E500790FD
:102FA00001A8002101F01EFD40F27401C2F20001EF
:102FB000086008B080BD00BF76590008A52E000843
:102FC000030000000000000080000000000000007E
:102FD000000000002DE9F04186B0002043F63001EA
:102FE0000590CDE90300CDE901000090C4F2020193
:102FF0000A68002542F002020A600A68C4F202056B
:1030000002F002020092009A00900A68102642F034
:1030100008020A600A68012702F008020092009A7A
:1030200000900A6842F004020A600A6802F0040292
:103030000092009A00900A6842F001020A600A6851
:1030400002F001020092009A00900A6842F08002A9
:103050000A600A6802F080020092009A00900868F4
:10306000012240F0200008600868102100F02000D4
:10307000009000982846FDF7D5FE05F580642046AF
:1030800001210122FDF7CEFECDE9016701AE4FF02F
:103090000208284631460397CDF81080FDF7F2FD6F
:1030A000302001904FF40410CDE9020705F50060CF
:1030B0003146FDF7E7FD20463146CDE90177CDE900
:1030C0000378FDF7DFFD172005210022FDF768FFDB
:1030D0001720FDF755FF06B0BDE8F08180B540F23E
:1030E000386040F60001C2F20000C5F2060101603E
:1030F000FEF7A4FF002808BF80BDBDE88040FDF7B3
:10310000B1B9000010B540F2486043F20001C2F2CC
:103110000000C4F201014FF4827200234FF0010C51
:103120004FF4007E102480E80E000A21C0E903332A
:10313000C0E905CEC461C0E90833C0E90A31FEF731
:10314000B3FF002808BF10BDBDE81040FDF78AB9E5
:1031500080B588B040F2A06044F200420021C2F283
:103160000000C4F20102532344F61F6C0791CDE91D
:103170000511CDE90311CDE90111C0E90023C0E932
:10318000021C01618161FFF79FF8002818BFFDF75D
:1031900069F940F2A060C2F20000FFF72BFC0028A2
:1031A00018BFFDF75FF9602001900020CDE9020013
:1031B000059040F2A060C2F2000001A90022FFF7D2
:1031C0000DFB002818BFFDF74DF940F2A060C2F2D8
:1031D0000000FFF7B1FA08B080BD000010B58EB056
:1031E00040F2307040F600020021C2F20000C4F24A
:1031F0000002A72340F2CF740D91CDE90B11CDE968
:103200000911CDE90711CDE90511CDE90311CDE98A
:103210000111C0E90023C0E9021401618161FFF7D7
:1032200053F8002818BFFDF71DF94FF480500A909D
:1032300040F23070C2F200000AA9FFF7F7F8002848
:1032400018BFFDF70FF940F23070C2F20000FFF72F
:10325000D1FB002818BFFDF705F940F230700024BB
:10326000C2F2000008A9CDE90844FEF7D1FF00280A
:1032700018BFFDF7F7F86020CDE9010440F2307087
:10328000C2F2000001A9082203940594FFF7A6FAF0
:10329000002818BFFDF7E6F840F23070C2F20000D7
:1032A000FFF74AFA0EB010BD80B540F2787044F6D0
:1032B0000001C2F20000C4F2000148F2A062002343
:1032C0004FF00C0CC0F2010280E80E00C0E903339D
:1032D000C0E905C3C361FFF74DFD002808BF80BDED
:1032E000BDE88040FDF7BEB8FEE70000FEF7F6FC43
:1032F000FEE7000040F22C10C2F20000FDF796BF7E
:10330000EFF30980BFF36F8F154B1A681EF0100F93
:1033100008BF20ED108A20E9F04F10602DE9090068
:103320004FF0500080F31188BFF34F8FBFF36F8FC2
:1033300001F0D2FF4FF0000080F31188BDE80900D2
:1033400019680868B0E8F04F1EF0100F08BFB0EC25
:10335000108A80F30988BFF36F8F704700BF00BFEA
:10336000BC0700200000000000000000000000007A
:10337000074B19680868B0E8F04F80F30988BFF37D
:103380006F8F4FF0000080F31188704700BF00BFBF
:10339000BC07002080B54FF0500080F31188BFF3C8
:1033A0006F8FBFF34F8F02F06BF930B14EF60450C0
:1033B000CEF200004FF080510160002080F31188B0
:1033C00080BD000070B592B006AC20463021FCF7FD
:1033D000CBFF002543F640000595CDE90355CDE927
:1033E00001550095C4F202000168022641F08051A7
:1033F0000160006800F080500090009847F20000E3
:103400000095C4F20000016841F480410160006849
:1034100000F4804000900098012006904FF4803026
:1034200007904FF480000D9006200E90A820CDE963
:103430000F060720119020460C96FEF75DFC20B188
:10344000EFF3108072B600BFFEE70F20CDE9010652
:103450004FF4A05004904FF48050059001A805212E
:103460000395FEF703FB20B1EFF3108072B600BFA7
:10347000FEE7FEF7ABFB12B070BD00004EF68850C1
:10348000CEF20000016841F4700101607047000055
:1034900040F2E860C2F20000FFF798B810B540F6BD
:1034A000FF3E0368C4F2000E40F2004C7045C4F2C7
:1034B000010C0FDCB0F1804F19D040F20042C4F291
:1034C0000002904213D040F60002C4F20002904283
:1034D0000DD010E040F60042C4F20002904206D047
:1034E000604504D00022C4F20102904203D14A6830
:1034F00023F07003134341F6FF72C4F200029042BE
:103500000DDC70451FDCB0F1804F41D040F200422D
:10351000C4F2000290423BD040F6000221E043F6A4
:10352000FF72C4F20102904220DC42F20002C4F2B7
:10353000000290422CD00022C4F20102904227D017
:10354000604525D028E040F60042C4F200029042D7
:103550001ED041F60002C4F20002904218D041F69B
:103560000042C4F20002904212D015E044F2000280
:10357000C4F2010290420BD044F60002C4F20102F0
:10358000904205D044F20042C4F20102904203D1BD
:10359000CA6823F44073134323F080024B69D1F8C7
:1035A00000E08C681A430260C46240F48062C0F894
:1035B00028E0624504BF096901630121416110BD32
:1035C000806B0021C185C184FFF752BA81B090F8A9
:1035D0003E1022291DD18268B2F5805F02D10169B7
:1035E000002946D0816AB2F5805F07D00AB9026926
:1035F00022B10268526802F07F0201E0026852685C
:103600000A70816A01318162C18D01390A04C18564
:1036100001D001B070470168CA6822F02002CA6078
:10362000CA6822F48072CA604A6922F001024A61C3
:10363000202180F83E10016B012923D10021016374
:10364000016851E8031F026821F0100142E80313EA
:10365000002BF5D101680A68D20606D50022009237
:103660000A680092496800910099818D01B0FFF7C6
:10367000FDB90168826A49686FF35F2122F8021B75
:103680008262C1E701B0FFF707BC000010B5044635
:103690000068D4E902C22369016921F44051114351
:1036A0000161626943EA0C01E3691143C26819438D
:1036B00049F20C639A431143C1604169A26921F444
:1036C000407141F20043114340F48062C4F20103AF
:1036D0009A42416102D1FEF7B9FA01E0FEF7A2FA7F
:1036E000E16963681922B1F5004FA0FB020121D105
:1036F0005A00DB0FFCF7B8FD48F21F51C5F2EB1181
:10370000A0FB01235A094FF69C73C0F6FF7303F127
:10371000805302FB0300322303EBC000A0FB010136
:103720004FF4F87000EA111000EB0210C1F34211DF
:1037300008441DE09A009B0FFCF796FD48F21F51CC
:10374000C5F2EB11A0FB01235A094FF69C73C0F69A
:10375000FF7302FB0300322303EB0010A0FB010107
:10376000F02000EA511000EB0210C1F343110844AD
:103770002168886010BD000040F27870C2F200003D
:10378000FFF778B980B5D0F8B82252689047002882
:1037900018BF032080BD0000002070470020704744
:1037A00080B513460A46002100F038F9002080BD9C
:1037B00080B513460A46002100F0EEF9002080BDD6
:1037C00080B50521C0F8941200210022002300F0EA
:1037D00025F9002080BD000080B513460A4602216D
:1037E000C0F894120021C0E9063300F0D5F900209A
:1037F00080BD000080B50421C0F894120021002291
:10380000002300F0C9F9002080BD000080B5D0F889
:10381000C802FDF721FC40F20032C100C0F20132C3
:1038200022FA01F1032888BF0321C8B280BD00003D
:10383000B0B5044689B194F89C0203284FD1D4F85E
:10384000B8024269002A4AD00020C4F8D4022046B7
:103850009047002808BF0020B0BDD4F89402022889
:1038600036D1D4E9071081420DD90B1A20461146F2
:103870001A46E361FFF79CFF204600210022002347
:1038800000F0CCF824E00FD1A16981420CD3D4F828
:103890009802814208D22046002100220025FFF72D
:1038A00087FFC4F89852E7E794F89C02032808D1F0
:1038B000D4F8B802C16821B10020C4F8D40220466F
:1038C00088472046802100F04BF92046FFF778FF1B
:1038D00094F8A00200281CBF002084F8A002002059
:1038E000B0BD000010B5044669B194F89C020328ED
:1038F0001DD1D4F8B80282690020CAB1C4F8D4023C
:103900002046904714E0D4F89402032824D1D4E947
:103910005703984210D9C01AC4F85C01984238BFC6
:103920000346204611461A46FFF73AFF14E00020EE
:10393000002808BF002010BD94F89C02032808D17D
:10394000D4F8B802016921B10020C4F8D40220469D
:1039500088472046FFF74EFF002010BD002070472B
:1039600080B5012180F89C12D0F8B81231B14A68B4
:1039700001799047002818BF032080BD002080BD3A
:103980004AB2D0F8C80201F07F0101EBC10100EB9F
:10399000810000F27E21002A48BF00F13E01087834
:1039A0007047000080B5D0F8D42200EB8202D2F834
:1039B000B82242B190F89C32032B02D1126A02B1B4
:1039C0009047002080BD032080BD000080B5D0F866
:1039D000D42200EB8202D2F8B82242B190F89C3295
:1039E000032B02D1526A02B19047002080BD032010
:1039F00080BD000080B59446D0F8C8021A466346E0
:103A0000FDF75EFB40F20032C100C0F2013222FA43
:103A100001F1032888BF0321C8B280BD80B5D0F86A
:103A2000C802FDF781FB40F20032C100C0F2013252
:103A300022FA01F1032888BF0321C8B280BD00002B
:103A4000F0B581B00126002580F89C62C0F8945240
:103A500004464560D0F8B802C4F8A45284F8A052D5
:103A600050B142683AB120460021904705460028EF
:103A700018BF032500E00025204600210022402336
:103A80004027FFF7B7FF2046802100224023A4F8FB
:103A90006461C4F86071FFF7ADFFA6842846276211
:103AA00001B0F0BD90F89C12042904BF90F89D125B
:103AB00080F89C120020704780B590F89C12032972
:103AC00006D1D0F8B81219B1C969002918BF8847C2
:103AD000002080BD024600201174704780B5D0F8E8
:103AE000C802FDF78BFF40F20032C100C0F2013284
:103AF00022FA01F1032888BF0321C8B280BD00006B
:103B0000B0B500F2AA250446284600F057F8012077
:103B1000C4F8940294F8AA02B4F8B02200F01F018D
:103B20000229C4F8982208D001290CD089B920466E
:103B30002946BDE8B04000F055B820462946BDE80A
:103B4000B04000F067BA20462946BDE8B04000F01A
:103B50001DBB00F080012046BDE8B040AFF30080FF
:103B600080B5D0F8C802FDF705FB40F20032C10075
:103B7000C0F2013222FA01F1032888BF0321C8B242
:103B800080BD0000014690F89C02042281F89D024D
:103B9000002081F89C22704780B5D0F8C802FDF75C
:103BA00023FB40F20032C100C0F2013222FA01F1DF
:103BB000032888BF0321C8B280BD00000A780270C4
:103BC0004A7842704A8842808A888280C988C18047
:103BD00070470000D0F8B822002A04BF00207047C8
:103BE0001268104770B582B00D460978044611F08E
:103BF000600110D0402901D020292FD1D4F8D4025F
:103C0000294604EB8000D0F8B8028268204602B052
:103C1000BDE870401047687809283BD8DFE800F01D
:103C2000052A3A443A536B3A839594F89C0201383A
:103C3000022800F2A780E888022840F0F380D4F838
:103C4000A4020322002808BF0122214641F80C2FBC
:103C500020460222FFF7C0FD002508E02046802113
:103C6000FFF77EFF204600210025FFF779FF284659
:103C700002B070BD94F89C020138022800F28C80DA
:103C8000688800250128F2D12046C4F8A452FFF725
:103C9000B1FDECE720468021FFF762FF20460021BE
:103CA0000025FFF75DFFE2E76888022800F0A880A2
:103CB000012840F0AD800120C4F8A4022046FFF79F
:103CC00099FD0025D3E7A888002851D1E88800286D
:103CD0004ED168887F284BD894F89C12032940F075
:103CE000368120468021FFF73BFF2046002100253A
:103CF000FFF736FFBBE768884FF0FF3101EB10217B
:103D000000220629ADF8062000F25681DFE811F006
:103D100007009D00AA0054015401B700C200D4F866
:103D2000B402026841E1E88801283FD194F89C027E
:103D3000411E022980F080800025214641F8085F5D
:103D400020460122FFF748FD91E7688840F2780598
:103D5000C2F2000510F0FE0F287031D020468021FD
:103D6000FFF7FEFE20460021FFF7FAFE03257EE75F
:103D700020468021FFF7F4FE204600210025FFF7B2
:103D8000EFFE74E720468021FFF7EAFE204600217F
:103D90000025FFF7E5FE6AE720468021FFF7E0FEF9
:103DA000204600210025FFF7DBFE60E7204680214A
:103DB000FFF7D6FE204600210025FFF7D1FE56E78B
:103DC00094F89C22C1B2032A00F07380022A40F0CA
:103DD0007980002900F08E8020466160FFF7FAFEAE
:103DE0000546002800F0C68020468021FFF7B8FE77
:103DF00020460021FFF7B4FE022084F89C0236E73B
:103E0000687984F8A0022046FFF7F4FC00252EE72D
:103E100020468021FFF7A4FE204600210025FFF761
:103E20009FFE24E720468021FFF79AFE20460021CE
:103E30000025FFF795FE1AE7032851D1211D2046E2
:103E40000122FFF7C9FC002511E7217CD4F8B80254
:103E500000290CBF816AC16A0DF106008847064639
:103E6000022023E0C0B2052800F2A680DFE800F0BF
:103E700003898D919599D4F8B402426894E0207C2E
:103E8000002840F09980D4F8B802416B0DF106008B
:103E900088478EE0207C002840F08E80D4F8B8025D
:103EA000016B0DF10600884706460720707001205F
:103EB0008CE021B3606888422DD12046FFF79AFC40
:103EC0000025D4E620468021FFF74AFE2046002147
:103ED000FFF746FE29782046FFF754FC0325C6E687
:103EE00020468021FFF73CFE204600210025FFF7F9
:103EF00037FEBCE62046FFF77DFC0025B7E6022032
:103F000084F89C0220466160FFF73CFC2046FFF7E6
:103F100071FC0025ABE6C1B22046FFF733FC2978DF
:103F200020466160FFF756FE054600286ED0204609
:103F30008021FFF715FE20460021FFF711FE2179B1
:103F40002046FFF71FFC022084F89C028FE600F059
:103F50007F052046294684F89E52FFF7BFFD204684
:103F6000FFF748FC002D0CBF0120022084F89C02C2
:103F700000257CE62046FFF73DFC032084F89C02E8
:103F800075E6D4F8B40282680EE0D4F8B402C268D0
:103F90000AE0D4F8B402026906E0D4F8B402426937
:103FA00002E0D4F8B402826932B1207C0DF106013E
:103FB00090470646012009E020468021FFF7D0FD0A
:103FC000204600210026FFF7CBFD002090B1EA88B3
:103FD0006AB1BDF8060078B1904238BF024620466B
:103FE0003146ADF80620FFF7F7FB00253FE62046F7
:103FF000FFF700FC00253AE620468021FFF7B0FDE0
:1040000020460021FFF7ACFD002530E62046FFF7F3
:10401000F1FB2CE670B50E460978357911F0600198
:1040200004460AD0402901D0202920D12046294623
:10403000FFF7B2FB10B3002070BD707858B30128B1
:1040400042D0032871D194F89C02032840D1708893
:1040500040B915F07F0005D0F08818B920462946F0
:10406000FFF77EFD2046FFF7C5FB002070BD204610
:104070008021FFF775FD204600215CE0D4F8B802EE
:1040800082680020002AC4F8D402D4D020463146E9
:10409000BDE87040104794F89C02032823D0022802
:1040A00008BF5FEA456040D105F07F0000EB80006B
:1040B00004EB800000F114012A0658BF00F5AA7134
:1040C0000020086020465CE094F89C02032836D06B
:1040D00002282AD1680628D020462946FFF740FD4D
:1040E0002046802127E005F00F0000EB8000802DA6
:1040F00004EB80002CBF808CB0F86401A8B105F0FF
:104100007F0000EB800004EB800000F11406802D9E
:1041100038BF00F5AA7668062FD020462946FFF75B
:104120002FFC002818BF012028E020468021FFF73F
:1041300017FD20460021FFF713FD002070BD708899
:1041400000287FF478AF680603D020462946FFF7A1
:104150005DFB2046FFF74EFB20462946FFF71CFB80
:1041600000287FF468AFD4F8B80282680020002AE3
:10417000C4F8D4027FF48AAF5DE7002030602046A7
:1041800031460222FFF728FB002070BD70B50D46B6
:104190000978044611F0600118BF402913D194F842
:1041A0009C020138022803D8A88810F0FE0F16D010
:1041B00020468021FFF7D4FC204600210026FFF78F
:1041C000CFFC304670BD2029E9D020468021FFF782
:1041D000C7FC204600210026FFF7C2FC17E0C1B251
:1041E0002046FFF7DBFA08B103260BE0D4F8B8024B
:1041F0008268002AF8D00020C4F8D402204629465C
:1042000090470646E888002808BF002E01D03046B7
:1042100070BD2046FFF7EEFA304670BD10B50A7843
:104220004B78D0F81CE802F00F04012B4FEA421C37
:1042300017D10123A34043EA0E03C0F81C386044A1
:10424000D0F800391B0427D4CB6800F51060097939
:1042500004686FF3DF2343EA814144EA8252114349
:1042600015E04FF48032A24042EA0E02C0F81C284A
:104270006044D0F8002B12040ED4CA6800F53060F8
:1042800009796FF3DF22036842EA8141194341F063
:10429000805141F400410160002010BD0146D0F87A
:1042A000000940F2FF729043C1F80009D1F80408F8
:1042B00040F480720020C1F804287047F0B54B78B4
:1042C00091F800C0012B23D18E6900EB4C1E002514
:1042D0004FF6FF74DEF81079CFF6F875CEF20704CA
:1042E000002E0EF510633FD03D401D611D69254035
:1042F0001D61CD6804F10054AE4288BF8D611D6917
:1043000045F400251D618D691E692C40344333E05E
:1043100000EB4C13D3F8100B6FF31200C3F8100B23
:10432000D3F8100B6FF3DC40C3F8100B8F6903F563
:104330003063002F1CBFCF688F61CF684FF6FF70CE
:10434000CF611E69CEF2070046F400261E6100F11F
:1043500000501E6938403043012A186114D10869A1
:10436000002818BF58610FE03C401C611C6944F4F0
:1043700000241C611C692C40012A1C610BD1486976
:10438000002818BFCEF814094FF0044118680843FC
:1043900018600020F0BDDEF8002942F00442CEF89B
:1043A000002989690029F4D00CF00F01012202FADA
:1043B00001F100F63403E9E7D0F840C043F20B0303
:1043C000C4F654739C4503D3D0F8003B002B1ED495
:1043D0000023C0F8103BD0F8103B012943F4002320
:1043E000C0F8103BD0F8103B43F01803C0F8103B66
:1043F000D0F8103B43F0C043C0F8103B07D1C0F8E1
:10440000142BD0F8001B41F08021C0F8001B0020C5
:10441000704700004A780B78012A4FEA4312104493
:104420000DD1D0F8002922F40012C0F80029097932
:1044300001F0FE01022913D100F510600CE0D0F864
:10444000002B22F40012C0F8002B097901F0FE01C4
:10445000022905D100F53060016841F0805101600A
:10446000002070470A784B785101012B084406D18F
:10447000D0F80019002900F5106106D50AE0D0F83F
:10448000001B002900F5306104D41AB1086820F03F
:1044900080400860086840F4001200200A607047FD
:1044A000F0B54B7891F800C0012B30D1D1F818E06D
:1044B00000EB4C14D4F81059BEF1000F04F5106352
:1044C0004BD06FF312051D611D696FF3DC451D6153
:1044D000CD681F690EEB0506013EB6FBF5F500261B
:1044E000C1F6F87606EAC5453D431D6175461E696D
:1044F0006FF3DF4535431D610D79012D38D11D69FD
:1045000025F0C0451D611D6945F000552FE000EB09
:104510004C13D3F8107B6FF31207C3F8107BD3F85A
:10452000107B6FF3DC47C3F8107B8D69CC68002DDE
:1045300003F5306363D02F19013FB7FBF4F7BEB228
:104540007443CC610026C1F6F8761D6906EAC747B8
:104550002F436FF3DF441F6158E06FF3DC451D61AB
:104560001D6945F400251D611D696FF312051D616C
:10457000012A15D14A69002A18BFC4F814290979FB
:1045800001295BD1D0F80808D4F80019C0054FF014
:10459000805058BF4FF000500843C4F800094DE068
:1045A00000F510634FEA4C141D5945F004451D51A8
:1045B0000D79012D49D1D0F80858E658ED054FF096
:1045C000805558BF4FF000553543E550AAB91FFA42
:1045D0008EF292B10B69032111FA8EF7BE0800F535
:1045E00080504FEA0C310122043B012E88BFBA08EB
:1045F00053F8047F013A0F50FAD10020F0BD1F6933
:104600006FF3DF4427431F614FF400241F69012A21
:1046100047EA04071F6103D10A69002A18BF5A61DB
:10462000097901290AD1D0F808081968C0054FF0A6
:10463000805058BF4FF00050084318604FF00441BD
:104640001868084318600020F0BDBEF1000FD4D0F8
:104650000CF00F01012202FA01F100F63403EFE73A
:1046600081B0002200924A780978012A4FEA41116C
:104670001AD100F510604258B2F1FF3F2DDC0A5804
:1046800042F000620A500A5842F080420A5042F258
:10469000107200BF009B01330093009B93421FD810
:1046A0000B58002BF6D418E000F530604258B2F1F8
:1046B000FF3F12DC0A5842F000620A500A5842F0EA
:1046C00080420A5042F21072009B01330093009B1B
:1046D000934205D80B58002BF6D4002001B0704748
:1046E000012001B07047000081B040F64052C0F296
:1046F00003020023009300BF009B01330093009B43
:10470000934215D80369B3F1FF3FF5DC890100231B
:1047100020310093016100BF00990131009100999F
:10472000914205D801698906F6D4002001B070478E
:10473000032001B070470000D0F8080800F006011F
:1047400080074FF0020058BF0F20002908BF08461D
:1047500070470000406900F001007047D0F8181859
:10476000D0F81C08084080B270470000D0F8181834
:10477000D0F81C080840000C70470000D0F810C8A2
:10478000D0F8343801F00F0223FA02F2D20100EB24
:104790004110D2B2D0F8080942EA0C010840704733
:1047A00000EB4111D1F8081BD0F8140808407047FD
:1047B000416980690840704780B5930802F00302A0
:1047C0000DD004394FF4805C012B98BF012300BF4A
:1047D00050F80CE0013B41F804EFF9D1043172B11B
:1047E0004FF4805350F803C0002300BF2CFA03F0AD
:1047F000013A01F8010B100403F10803F6D1084651
:1048000080BD00000246D0F8000801F07F0120F4CE
:10481000FE60C2F80008D2F8000840EA011100204A
:10482000C2F8001870470000022A02460DD145F276
:104830004030CFF6277043F200530844C0F20C0317
:1048400098420DD24FF4705001E04FF41050D168EF
:1048500021F47051D160D16801430020D1607047CC
:1048600041F64060CFF61B7044F240230844C0F28A
:104870000F03984202D24FF46050E8E7A1F57400AC
:1048800044F68073A0F51050C0F21203984202D291
:104890004FF45050DBE7A1F183704DF22063A0F597
:1048A000E740C0F21303984202D24FF44050CEE7E3
:1048B0004BF26060CFF6E5604EF260330844C0F220
:1048C0001603984202D24FF43050C0E74DF2003048
:1048D000CFF6CE6047F240730844C0F21B03984203
:1048E00002D24FF42050B2E745F6C030CFF6B360A5
:1048F00049F2C0130844C0F22103984202D24FF497
:104900001050A4E7A1F1B77047F22053A0F558501A
:10491000C0F23803984202D24FF4005097E745F2B4
:10492000E040CFF6596049F6E0430144C0F241034C
:104930004FF4C050994238BF4FF4E05087E7000071
:1049400010B5DDF808C0BCF1000F14D19BB103F124
:10495000030C4FEA9C0E00F5805412030123043926
:10496000BEF1010F88BF4FEA9C0300BF51F8040F4E
:10497000013B1051FAD1002010BD0000FEE70000FD
:10498000FCF76AFAFEF71EFDFEF724FBFEF7DEFADF
:10499000FEF7B8FBFEF792FAFEF7B4FAFEF71EFC3C
:1049A000FEF7D6FBFEF780FCFEF798FBFEF7EAFA6F
:1049B00000F00AF8FEE7000080B5002908BF0121D9
:1049C00000F0F0FB002080BD80B500F03DFC002031
:1049D00080BD0000EFF30580002808BF00F040BE56
:1049E00000F044BEB0B584B043698E4693B184698B
:1049F00084B10589D0E9001C026928B2843D18BF42
:104A0000C51CCDE9005360467346029400F0B2FD28
:104A1000039010E00589D0E90013028A28B2843D92
:104A200018BFC51C03AC184673460095019400F0EE
:104A300031FD012802D1039804B0B0BD002004B0BC
:104A4000B0BD0000F0B581B00C4646F6603140F2D2
:104A5000BC76C2F20001C2F200060F683168002283
:104A600081F8522031680546081D00F043FA10B164
:104A7000681C0FD01AE0306846F67402C06AC2F2B1
:104A800000020121136801FA00F023EA000010601F
:104A9000681C0BD154B13068011D46F63830C2F2A3
:104AA000000001B0BDE8F04000F072BA30687C1937
:104AB00044600BD340F2C870C2F200000068316855
:104AC000043101B0BDE8F04000F044BA40F2C070DB
:104AD000C2F2000000683168043100F03BFA46F68B
:104AE0000430C2F2000001688C4238BF046001B09B
:104AF000F0BD00002DE9F047044600F061FA46F6EB
:104B00006400C2F20000016840F2BC77013101602C
:104B1000C2F20007396846F62C3A40F2CC76C2F26F
:104B2000000AC2F2000651B1DAF8000000283DD1B7
:104B30003868E16AC06A884298BF3C6036E03C60F1
:104B40000068012832D10025701900F0F3F91435FE
:104B50008C2DF9D146F67C08C2F20008404600F0E0
:104B6000E9F946F69009C2F20009484600F0E2F978
:104B700046F61830C2F2000000F0DCF946F64C3080
:104B8000C2F2000000F0D6F946F63830C2F200005A
:104B900000F0D0F940F2C070C2F20000C0F800800E
:104BA00040F2C870C2F20000C0F8009046F67000F3
:104BB000C2F20000016846F6740201310160E06A49
:104BC000C2F20002012113688140194300EB80000A
:104BD000116006EB8000211D00F0DAF900F014FAF4
:104BE000DAF8000088B13868E16AC06A884228BFF4
:104BF000BDE8F0874EF60450CEF200004FF0805131
:104C00000160BFF34F8FBFF36F8FBDE8F0870000E7
:104C100046F6680540F2CC7A4EF6045846F64C3714
:104C200046F66406C2F20005C2F2000ACEF200089F
:104C30004FF08059C2F20007C2F2000603E000BF45
:104C4000204600F0F9F92868C8B100F0B9F9F86811
:104C5000C468201D00F04EF93068013830602868C3
:104C60000138286000F0D0F994F851000228EAD009
:104C70000128E5D070B9206B00F0DEF9E0E7DAF842
:104C800000000228DFD3C8F80090BFF34F8FBFF3B6
:104C90006F8FD8E74FF0500080F31188BFF36F8F0C
:104CA000BFF34F8FFEE7000008480068006880F3FC
:104CB00008884FF0000080F3148862B661B6BFF335
:104CC0004F8FBFF36F8F00DF00BF000008ED00E0E3
:104CD00081B00020009040F20C00C2F20000006899
:104CE0004FF0500181F31188BFF36F8FBFF34F8FE7
:104CF000013001D0FEE700BF00980028FCD001B0D1
:104D000070470000F0B581B0044600F0DDFA40F2D3
:104D1000C471C2F20001086846F67807C2F20007C3
:104D200080BB40F65802C2F20002D61D26F00706EC
:104D300012F00703A2EB060518BF324646F63036DE
:104D4000C2F200060020C6E900204FF4C046002B46
:104D500018BF05F5C046931923F00703A3F1080611
:104D60000E6043E90200B01AC2E9006046F6003264
:104D7000C2F20002106046F6A402C2F20002106005
:104D8000012038703878002818BF4FF000402042CA
:104D90000DD0002400F034FD600712D04FF0500019
:104DA00080F31188BFF36F8FBFF34F8FFEE75CB1C5
:104DB00060071ABF24F0070000F1100304F1080394
:104DC00003E0204601B0F0BD0023002B4FF00004AB
:104DD000E0D046F6A40CC2F2000CDCF800008342DE
:104DE000D8D846F63034C2F20004266875689D4271
:104DF0000FD232684AB100BF5568344616469D420C
:104E000007D23268002AF7D103E046F63034C2F206
:104E1000000408688642BCD0D4F800E03068EA1A82
:104E2000112A20602FD3F418600708D04FF05000EB
:104E300080F31188BFF36F8FBFF34F8FFEE746F605
:104E40003035C2F200056260736000BF2B462D68EA
:104E5000A542FBD35A689818A04203D160681C464B
:104E6000104458606268A018A84201D0294606E0A4
:104E700009688D4203D0D5E9001010446060A34258
:104E8000216018BF1C6046F600317068DCF8002015
:104E9000C2F200010B68121A9A42CCF8002038BF07
:104EA0000A603878716800284FF0000018BF41F0A0
:104EB0000041306046F60C30C2F2000002680EF18C
:104EC00008047160511C016064E70000034644F669
:104ED000D140C0F600004FF0807C21F0010103E9D1
:104EE00003106FF0020043F8240CA3F1440043F8D0
:104EF000202C7047D0E9013201699A60D1F804C0D2
:104F000082688445536008BF4A60002202610868D5
:104F1000013808600868704746F6AC23C2F2000307
:104F2000036046F6A800C2F200000860802010600E
:104F3000704700004FF0FF31024642F8081F002181
:104F40004260C0E903220160704700000021016156
:104F50007047000080B5D1F800C01CF1010207D0F5
:104F600000F108039E465B681A686245FAD901E0C1
:104F7000D0F810E0DEF8042008614A609160C1F8C2
:104F800008E0CEF8041001680131016080BD000026
:104F9000D0F800C0436808619A684B608A609A68DC
:104FA000996051600CF1010101607047DFF80C005D
:104FB000016841F4700101607047000088ED00E075
:104FC0004FF0500080F31188BFF36F8FBFF34F8F06
:104FD00040F20C00C2F2000001684A1C026001B1FC
:104FE00070474EF60450CEF200000068000608BF7D
:104FF00070474FF0500080F31188BFF36F8FBFF3FD
:105000004F8F00BFFEE7000040F20C00C2F200002C
:10501000016839B10139016018BF7047002080F381
:10502000118870474FF0500080F31188BFF36F8FE5
:10503000BFF34F8FFEE70000B0B5002808BFB0BD3A
:10504000044646F67800C2F20000007854F8041CCA
:10505000002818BF4FF0004008420CD0A4F108050A
:105060002A6892B14FF0500080F31188BFF36F8F20
:10507000BFF34F8FFEE74FF0500080F31188BFF36E
:105080006F8FBFF34F8F00BFFEE721EA000044F8A7
:10509000040C00F019F946F6A401C2F2000154F81C
:1050A000040C0A681044086046F63031C2F2000170
:1050B00008460968A942FBD342688318AB4204D171
:1050C00054F8043C05461A4442606A68AB188B42A7
:1050D00001D00B460AE040F2C473C2F200031B6821
:1050E000994203D0D1E90034A1186960A8422B602D
:1050F00018BF056046F61030C2F2000001680131A9
:105100000160BDE8B04000F07BBB00004EF2100033
:10511000CEF2000000210160816040F20001C2F285
:105120000001096844F6D352C1F26202A1FB0212E7
:105130004FF0FF3101EB9211416007210160704790
:10514000EFF30580102814D34EF2F031CEF20001B7
:10515000405C46F65801C2F200010978884208D244
:105160004FF0500080F31188BFF36F8FBFF34F8F64
:10517000FEE74EF60C50CEF2000046F65C010068E9
:10518000C2F20001096800F4E060884298BF7047ED
:105190004FF0500080F31188BFF36F8FBFF34F8F34
:1051A000FEE7000080B580B1C9B146F66C02C2F2DC
:1051B00000021368EBB14FF0500080F31188BFF389
:1051C0006F8FBFF34F8F00BFFEE74FF0500080F3AB
:1051D0001188BFF36F8FBFF34F8F00BFFEE74FF013
:1051E000500080F31188BFF36F8FBFF34F8F00BF64
:1051F000FEE713680133136046F66032C2F2000224
:10520000126803689A42194402D2994202D309E013
:10521000994201D3914205D90160881A0021FFF714
:1052200011FC00E0016000F0EBFA002818BF80BD1F
:105230004EF60450CEF200004FF080510160BFF3F3
:105240004F8FBFF36F8F80BD10B586B0002405A8C7
:1052500004A903AACDE90444FFF75EFEDDE90320BB
:1052600005990023CDE9010144F61140C0F6000084
:1052700013A1009400F07EF946F6A821C2F20001C5
:105280000860D8B14FF0500080F31188BFF36F8FE2
:10529000BFF34F8F46F60430C2F200004FF0FF31EB
:1052A000016046F62C30C2F200000121016046F692
:1052B0006030C2F20000046000F052F806B010BD89
:1052C00049444C450000000046F66C00C2F2000064
:1052D000016801310160704746F66C00C2F20000BF
:1052E000006830B146F66430C2F20000012101606E
:1052F000704746F66430C2F200000021016046F6B5
:105300007400C2F200000068B0FA80F0C0B2C0F1D0
:105310001F0040F2CC7100EB8000C2F2000151F896
:10532000202092B101EB800050F8041F4968021D53
:105330009142016001D149680160006840F2BC718E
:10534000C068C2F20001086070474FF0500080F35F
:105350001188BFF36F8FBFF34F8F00BFFEE70000D0
:10536000B0B584B04EF20040CEF200004CF2702195
:10537000C4F20F11D0F800294B1C9A4209D14FF00A
:10538000500080F31188BFF36F8FBFF34F8F00BFC2
:10539000FEE7D0F800298A4209D14FF0500080F38F
:1053A0001188BFF36F8FBFF34F8F00BFFEE7017807
:1053B00046F658020291FF2101700178C2F2000204
:1053C0008DF807109DF8071001F05001117046F696
:1053D0005C01C2F2000107220A609DF90720B2F1C8
:1053E000FF3F0CDC062200BF0A609DF80730013A3F
:1053F0005B008DF807309DF90730002BF4D40A6864
:10540000032A3DD14FF4E06303EA02220A600299C5
:105410000170D0F8201941F47001C0F82019D0F8BB
:10542000201941F07041C0F82019FFF76FFE40F2DB
:105430000C04C2F2000400252560FFF7B7FD4EF60C
:105440003470CEF20000016841F040410160FFF786
:105450002BFCFFF741FF039520684FF0500181F3CB
:105460001188BFF36F8FBFF34F8F013002D000BFA1
:10547000FEE700BF03980028FCD0002004B0B0BDB8
:105480004FF0500080F31188BFF36F8FBFF34F8F41
:10549000FEE700002DE9F04F81B0950081462846D7
:1054A000984692460F46FFF72DFC78B104465420EB
:1054B000FFF728FC38B10646046356B94FF0FF30B9
:1054C00001B0BDE8F08F2046FFF7B6FD0026002EA4
:1054D000F4D0306B4C46DDF828B04FF00009294677
:1054E000A52286F85190FAF737FF306B00EB8A005F
:1054F000A0F1040020F0070A77B106F13400002182
:105500007A5C42547A5C1AB10F2901F10101F7D19A
:10551000002086F8430001E086F834900025301D15
:10552000BBF1060F28BF4FF0060BC6F82CB0C6E93A
:1055300011B5FFF70BFD06F11800FFF707FD8BF023
:105540000700B06150462146424636617662F564F6
:1055500086F8505086F85250FFF7B8FC0B9930602F
:105560003046002918BF0E60FFF7C4FA012001B0D1
:10557000BDE8F08F2DE9F04381B01746099A2AB3B0
:105580000A9D65B38146542000900098542830D17C
:10559000009802200C46089E2A6385F85100B90045
:1055A0001046A5229846FAF7D7FE286B5CB305F1A2
:1055B00034010022A35C8B54A35C1BB10F2A02F1BF
:1055C0000102F7D1002185F843101FE04FF0500091
:1055D00080F31188BFF36F8FBFF34F8FFEE74FF05B
:1055E000500080F31188BFF36F8FBFF34F8F00BF60
:1055F000FEE74FF0500080F31188BFF36F8FBFF3C9
:105600004F8F00BFFEE7002185F8341000EB8700C4
:10561000043820F007040027281D062E28BF062680
:10562000EE62C5E91167FFF791FC05F11800FFF77D
:105630008DFC86F00700A8612046494642462D6150
:105640006D62EF6485F8507085F85270FFF73EFC8C
:1056500028602846FFF74EFA284601B0BDE8F083DF
:1056600046F66030C2F200000068704780B5FFF770
:1056700067FD46F66030C2F20000006880BD0000A1
:105680002DE9F04F81B046F66C00C2F200000068D0
:1056900040B146F61430C2F2000001680024013126
:1056A0000160A9E046F66030C2F2000001684E1CBD
:1056B00006602ED340F2C070C2F200000168096893
:1056C00049B14FF0500080F31188BFF36F8FBFF3E3
:1056D0004F8F00BFFEE740F2C872C2F200020168BD
:1056E00013680360116046F60831C2F200010A68CF
:1056F00001320A600168096821B10068C068C068A9
:10570000406801E04FF0FF3046F60431C2F200017C
:10571000086046F60431C2F20001086840F2BC7A23
:105720008642C2F2000A01D200244FE040F2C07B60
:10573000C2F2000BDBF8000000240068E0B346F67C
:1057400074090127C2F2000920E000BFD8F82C003C
:10575000D9F8001007FA00F21143C9F8001040F21E
:10576000CC7100EB8000C2F2000101EB8000294601
:10577000FFF70EFCD8F82C00DAF80010C96ADBF845
:1057800000208842106828BF3C46C0B1DBF800000A
:10579000C068D0F80C80454655F8040F864210D3F7
:1057A0002846FFF7A7FBD8F828000028CED008F13C
:1057B0001800FFF79FFBC9E74FF0FF3005E04FF0FF
:1057C000FF3046F60431C2F200010860DAF800004A
:1057D00040F2CC71C06AC2F2000100EB800051F8C7
:1057E0002000012846F66430C2F2000088BF012480
:1057F0000068002818BF0124204601B0BDE8F08FE2
:105800002DE9F04F81B046F66C04C2F20004206826
:1058100068B1FFF7D5FB206801382060206880B1AF
:105820000024FFF7F1FB204601B0BDE8F08F4FF0F8
:10583000500080F31188BFF36F8FBFF34F8F00BF0D
:10584000FEE746F66400C2F200000068002848D077
:1058500046F61836C2F20006306846F6643800286C
:10586000C2F2000846D046F6740540F2CC7940F208
:10587000BC7A4FF0010BC2F20005C2F20009C2F27D
:10588000000A00BFF068C76807F11800FFF732FB95
:105890003C1D2046FFF72EFBF86A29680BFA00F240
:1058A000114300EB8000296009EB80002146FFF7DF
:1058B0006FFBF86ADAF80010C96A884228BFC8F896
:1058C00000B030680028DDD1A7B140F2C070C2F24C
:1058D00000000168096831B10068C068C0684068AC
:1058E00003E000249DE74FF0FF3046F60431C2F29A
:1058F0000001086046F61434C2F2000425685DB168
:10590000012600BFFFF7BCFE002818BFC8F80060E2
:10591000013DF7D100202060D8F8000060B14EF6BC
:105920000450CEF200004FF080510160BFF34F8F62
:105930000124BFF36F8F74E7002472E7F1EE100AC1
:105940004FF6FF71C0F2C03120EA010040F0407014
:10595000E1EE100A704700000000000000000102A4
:105960000304060708090000000001020304000602
:105970001016000610165374617274494E53546128
:10598000736B0000A8590008000000201000000000
:10599000C4010008B8590008100000205871000028
:1059A000E0010008000000000024F40001000000F5
:0859B00010000000AAAAAAAA37
:040000050800018965
:00000001FF
