:020000040800F2
:10000000508900202902000899360008E1310008D3
:1000100095360008310400089559000800000000DA
:100020000000000000000000000000002137000870
:10003000AD04000800000000B13600084537000894
:10004000430200084302000843020008430200087C
:10005000430200084302000843020008430200086C
:10006000430200084302000843020008430200085C
:10007000A1040008430200084302000843020008EC
:10008000430200084302000843020008430200083C
:10009000350400084302000843020008B1040008C8
:1000A000430200084302000843020008430200081C
:1000B00041380008430200084302000843020008D8
:1000C00043020008430200084302000843020008FC
:1000D000430200084302000843020008293B0008CD
:1000E00043020008430200084302000843020008DC
:1000F00043020008430200084302000843020008CC
:1001000043020008430200084302000843020008BB
:1001100043020008430200084302000843020008AB
:10012000430200084302000843020008430200089B
:10013000430200084302000843020008430200088B
:10014000410400084302000843020008A1360008E9
:10015000430200084302000843020008430200086B
:10016000430200084302000843020008430200085B
:100170004302000843020008430200080000000098
:10018000430200084302000800F002F800F03CF8C7
:100190000AA090E8000C82448344AAF10107DA45E2
:1001A00001D100F031F8AFF2090EBAE80F0013F0F8
:1001B000010F18BFFB1A43F001031847F86600004F
:1001C00018670000103A24BF78C878C1FAD85207DF
:1001D00024BF30C830C144BF04680C6070470000C1
:1001E0000023002400250026103A28BF78C1FBD840
:1001F000520728BF30C148BF0B6070471FB506F0DB
:1002000035FB1FBD10B510BD00F0DCF81146FFF73F
:10021000F5FF05F0C1FB00F0FAF803B4FFF7F2FFB9
:1002200003BC00F0FDF8000009488047094800477A
:10023000FEE7FEE7FEE7FEE7FEE7FEE7FEE7FEE796
:10024000FEE7FEE704480549054A064B70470000F3
:100250002D380008890100085083002050890020B3
:10026000508500205085002053EA020C00F0698080
:100270002DE9F04B4FF00006002B1FBFB3FA83F5BA
:1002800003FA05F424FA05F65E4012BF1643B2FAEB
:1002900082F502FA05F4C5F120051EBF22FA05FC1D
:1002A00044EA0C04203556EA044C4FEA144418BFC3
:1002B000641C4FF000084FF00009904271EB030CF2
:1002C00039D3002919BFB1FA81F701FA07F6B0FA5C
:1002D00080F700FA07F6C7F120071EBF20FA07FCD7
:1002E00046EA0C062037B6FBF4FCA7EB0507103FE7
:1002F00007F01F0BCBF120062CFA06F60CFA0BFBCD
:1003000044BFB3460026202FA4BF5E464FF0000B2B
:100310005BEA060C08BF4FF0010B19EB0B0948EB29
:100320000608ABFB027C06FB02CC0BFB03CCC01B1C
:1003300071EB0C01C1E70B46024641464846BDE859
:10034000F08B13B5084318BF4FF0FF300146AFF3F1
:100350000080BDE81C40704702F0FF0343EA03221F
:1003600042EA024200F002B84FF0000200B5134624
:1003700094469646203922BFA0E80C50A0E80C50C5
:10038000B1F12001BFF4F7AF090728BFA0E80C5076
:1003900048BF0CC05DF804EB890028BF40F8042B6F
:1003A00008BF704748BF20F8022B11F0804F18BFDC
:1003B00000F8012B7047704770477047004870473E
:1003C000F80000207546FFF7F9FFAE4605006946C4
:1003D000534620F00700854618B020B5FFF732FFDE
:1003E000BDE820404FF000064FF000074FF0000836
:1003F0004FF0000BAC46ACE8C009ACE8C009ACE873
:10040000C009ACE8C00921F007018D46704710B55E
:100410000446AFF300802046BDE81040FFF7FDBE64
:1004200001491820ABBEFEE726000200704700001D
:10043000FEE7000041F66000C2F2000000F044B8A0
:1004400041F68800C2F2000000F03EB8002070477C
:100450000020704710B541F28454C2F2000440F607
:100460008451C2F200012046002203F02DFD40F22B
:100470008451C2F20001204603F018FD002010BD97
:1004800010B541F28454C2F200040146204603F044
:100490000DFD204603F0E4FC002010BD0020704755
:1004A00041F6B000C2F2000000F0A2BA70470000AE
:1004B000202000F019BC0000EFF3108072B600BFDE
:1004C000FEE70000704700002DE9F04F81B00446C0
:1004D00000684669D0F804908768D0F80CB0D0F86E
:1004E00010A0D0F81880F10703D1002530071CD4E4
:1004F00023E0F90710D00121BA07816009D47807F9
:1005000000F1AA80380700F1B080204600F010FA10
:1005100002E0204600F00EFA0025F80500F1848084
:10052000F80300F1AA80300707D51BF0100004D0B3
:10053000206845F400751021C160700708D51BF0D4
:10054000080005D020680821C160204600F0E6F9C7
:10055000B00706D52068C068800702D0204600F0AA
:10056000DFF9700607D51AF0100004D0206845F4B2
:10057000806510210161B00608D51AF0080005D089
:10058000206808210161204600F0CCF9F00606D56C
:1005900020680069800702D0204600F0C5F9B0034A
:1005A00008D519F0100005D02068102141602046C0
:1005B00000F0BCF9F00308D519F0080005D0206858
:1005C00008214160204600F0BFF9300440F18F80DF
:1005D0005FEA497040F1888006F4807008EA1020D4
:1005E00028435FEA8871014648BF41F00201B20525
:1005F00058BF01465FEA48700D4648BF45F0040504
:10060000700558BF0D4630056ED518F070006BD0E0
:1006100010380009052862D8DFE800F00353565966
:100620005C5F45F008055AE020684FF48071BA0518
:1006300081600AD4780512D4380519D4204600F018
:100640007BF9F8037FF56FAF17E0204600F076F9ED
:10065000F8037FF568AF10E04FF400655DE705F53E
:100660000055F8037FF55FAF07E04FF4805554E77E
:1006700005F58045F8037FF556AF20684FF48031CB
:10068000BA0381600AD478030FD4380313D4204608
:1006900000F056F930073FF548AF4EE7204600F02E
:1006A00051F930073FF541AF47E705F50045300701
:1006B0003FF53BAF41E705F5803530073FF535AFF6
:1006C0003BE745F010050AE045F0200507E045F05E
:1006D000400504E045F0800501E045F480752068A0
:1006E000816921F0700181612068042141604DB170
:1006F000606A40EA05012046616201B0BDE8F04F42
:10070000FFF7E0BE01B0BDE8F08F0000B0B5C8B1A2
:10071000044690F8200010B9204600F071F82068D7
:10072000016841F00101016000F0C0FB054600BF17
:1007300020684168C90707D100F0B8FB401B0B28AF
:10074000F6D312E00120B0BD016821F00201016082
:1007500000F0ACFB054600BF2068416889070DD555
:1007600000F0A4FB401B0B28F6D3606A052140F47F
:1007700000306062012084F82010B0BD217E026844
:10078000012922F0800208BF80320260617E026887
:10079000012922F0400208BF40320260A17E0268B7
:1007A000012922F0200208BF20320260E17E0268A7
:1007B000012922F0100218BF10320260217F026866
:1007C000012922F0080208BF08320260617F026836
:1007D000012922F0040208BF04320260D4E901C2F8
:1007E000D4E9033561691A432A431143ACF101028C
:1007F0001143C16100200121606284F82010B0BD66
:1008000010B586B0006846F60002C4F2000200216E
:100810009042CDE90411CDE90211019133D046F2A5
:100820000041C4F20001884276D140F25811C2F270
:1008300000010A6843F64000C4F20200531C0B603A
:1008400052B900210091016841F000710160016816
:1008500001F00071009100990021009150F8101CE6
:10086000142441F0080140F8101C50F8100C03212A
:1008700000F008000090009840F20040C4F202002E
:1008800000F5006034E043F64000C4F2020000913D
:10089000016841F080610160016801F080610091B0
:1008A000009940F25811C2F200010A68531C0B6013
:1008B00052B900210091016841F0007101600168A6
:1008C00001F00071009100990021009150F8101C76
:1008D000402441F0020140F8101C50F8100C602137
:1008E00000F002000090009840F20040C4F20200C4
:1008F0000191022102910021039103210491092118
:10090000059101A900F0FCF920460521002200F024
:1009100085FB204600F072FB06B010BD704700005A
:1009200070470000704700007047000070470000EB
:1009300070470000704700007047000070470000DB
:1009400070470000704700007047000070B5866D6A
:10095000044600F0ABFA94F83510022925D105467B
:100960002068216C026822F016020260426922F0BF
:100970008002426109B9A16C19B1016821F0080136
:100980000160016821F00101016000BF206800687A
:10099000C0070ED000F08AFA401B0628F6D32020AC
:1009A0006065032084F835000CE08020606501203C
:1009B00008E0E06D3F2101FA00F0B060012084F80A
:1009C00035000020002184F8341070BD90F83510F7
:1009D000022909D1052180F835100068016821F04D
:1009E00001010160002070478021416501207047AE
:1009F000F0B581B004460020009040F21C00C2F225
:100A000000000268D4E9166048F2B513376808217F
:100A1000C1F64E3381403942A2FB03250CD0226837
:100A200013685B0708D5136823F004031360B160F3
:100A3000616D41F00101616501218140394208D0B9
:100A400022685269120604D5B160616D41F002015D
:100A5000616504218140394208D0226812689207FA
:100A600004D5B160616D41F00401616510218140E0
:100A7000394215D020680268120711D5B1600268AA
:100A80000168520306D4C90506D4016821F00801A3
:100A9000016001E008033ED4216C09B1204688477B
:100AA000E16D202000FA01F23A4240D0206803684C
:100AB000DB063CD5B26094F835300268052B1AD1BC
:100AC00022F016020260426922F080024261226C2A
:100AD0000AB9A26C1AB1026822F0080202603F2033
:100AE0008840B060012084F83500216D002084F832
:100AF0003400D9BB3FE00168520310D4C90512D4B9
:100B0000016821F010010160012084F83500002007
:100B100084F8340007E0A16C0029BFD1C0E70803C6
:100B200001D4616C00E0E16B09B120468847606D3B
:100B300008B3606DC00717D0052084F83500206821
:100B4000A90A026822F00102026000BF009A013285
:100B50008A42009202D80268D207F7D1012084F8B5
:100B60003500002084F83400E16C21B1204601B04A
:100B7000BDE8F040084701B0F0BD00002DE9F041AC
:100B8000044600F093F9C4B10546022084F835000C
:100B90000020216884F83400086820F00100086013
:100BA00020680168C9070BD000F080F9401B0528B8
:100BB000F6D90321202203207AE00120BDE8F0814C
:100BC000016848F23F02CFF21002D4E9013501EA90
:100BD000020ED4E9032143EA0E032B43D4E9056C4A
:100BE0001A43D4E907781143314341EA0702616AA5
:100BF00042EA0802042942EA0C0303D1D4E90B2794
:100C00003A43134303604269042922F0070241EA90
:100C100002012DD1D4E90A5341EA050143B3BCF5E1
:100C2000005F08D0BCF1000F12D1022D16D0012DAB
:100C300007D09DB119E0032D17D8DFE805F00B0FA1
:100C40000B02A3F1C072B2FA82F252094AB90FE064
:100C5000032D02D2012222B90AE006D1C3F30062B9
:100C600032B101214022012022E00022002AF8D1E5
:100C700000F0F8024AF6AB23103ACAF6AA23A2FB08
:100C8000033746F69E0341613909C0F60003595CFB
:100C900040F2FF3398435F2A4FF03F0288BF043091
:100CA000C4E9160102FA01F181600022012100204D
:100CB000626584F83510BDE8F0810000B0B50446E7
:100CC00000F0F4F8054640F2EE00C2F200000078B1
:100CD000611C18BF044400BF00F0E8F8401BA042AC
:100CE000FAD3B0BD7047000043F61441C4F20101CD
:100CF0000A68024214BF08607047FFF7F3BF0000A4
:100D00002DE9F04F82B000F13E4241F6004502F17C
:100D1000FF77C4F2020508224FEAB726A84208BFAF
:100D20000722072E38BF4FEAB7224FF0010A0024EE
:100D300000274FF00009009209E000BF09F1010906
:100D40000237B9F1100F04F1040400F0A6800A681C
:100D50000AFA09FC12EA0C08F0D0D1F804B00BF042
:100D6000030AAAF10102012A12D882680323CE687D
:100D700003FA07FE22EA0E02BE4032438260426856
:100D8000CBF3001622EA0C0206FA09F6324342605F
:100D9000BAF1030F1DD0C26803238D6803FA07F66A
:100DA000B24305FA07F63243BAF1020FC26010D11E
:100DB0006FF0030202EA59020244D2F820C004F0A4
:100DC0001C050F230E69AB402CEA0303AE403343EE
:100DD0001362026803234E68BB409A4306F0030384
:100DE000BB401A4316F4403F4FF0010A0260A5D001
:100DF000002243F644030192C4F202031A6843F648
:100E0000004E42F480421A601A68C4F2010E02F4E5
:100E100080420192019A29F003024FF6084C724475
:100E2000CFF6FF7C52F80C3004F00C060F25B540CD
:100E3000AB43009D05FA06F6334342F80C30DEF86A
:100E400008204B6842EA080643F60C4CDD0258BF06
:100E500022EA0806CEF80860C4F2010CDCF8002093
:100E60009D0242EA080658BF22EA0806CCF8006054
:100E7000DEF804209D0342EA080658BF22EA08066D
:100E8000CEF80460DEF80020DB0342EA080658BF13
:100E900022EA0806CEF8006050E702B0BDE8F08F05
:100EA000002A08BF090481617047000048F244002D
:100EB000C2F200000068704740F2EE0048F24401C0
:100EC000C2F20000C2F2000100780A681044086013
:100ED0007047000080B543F60040C4F2020001688C
:100EE00041F400710160016841F4806101600168B2
:100EF00041F480710160032000F0BCF80F2000F085
:100F000005F800F059F8002080BD000070B586B0EB
:100F1000002543F640010195C4F202010A68044627
:100F200042F001020A60096801A801F00101019183
:100F30000199694600F0F0FF049E002E18BF0126BB
:100F400001F010F84DF68361B040C4F21B31A0FBF4
:100F500001014FF0FF3000EB914141F6CC60C2F24D
:100F600000004FF0804240F2E733C0E90021C0E9C1
:100F700002530561856101F047FB0546C0B941F6A2
:100F8000CC60C2F2000001F09DFB054680B91C2038
:100F900000F034F80F2C0AD81C202146002200F063
:100FA0003DF840F2F000C2F20000046000E00125CC
:100FB000284606B070BD000082B0002043F6400114
:100FC0000190C4F202014A6842F480424A604A68D1
:100FD00002F480420192019A00900868002240F0D9
:100FE0008050086008680F2100F080500090009841
:100FF0006FF0010002B000F011B80000002848BFF7
:10100000704700F01F01012202FA01F14EF20012B6
:101010004009CEF2000242F82010704710B54EF69B
:101020000C5CCEF2000CDCF80030C3F3022E8EF024
:101030000704042C28BF0424BEF103034FF0FF3E35
:101040000EFA04F438BF0023A14399400EFA03F3CB
:101050009A43114300F1604200F00F03090102F5C9
:101060006442043B6344002848BF03F10C02117042
:1010700010BD00004EF60C51CEF200010A684FF68A
:10108000FF031A4060F30A2242F0806040F0FD70D6
:101090000860704770470000026800205162704786
:1010A000B0B5D0F800E0DEF82400D1B1DEF8283089
:1010B000B1F1010C00EB13430BD05FFA8CF10EF58C
:1010C0008070002450F8045F01348C4203EB154318
:1010D000F8D343EA02400EEB8C01C1F80401002072
:1010E000B0BD40EA0240CEF828000020B0BD0000AC
:1010F000D0F8080503F0AEB901EBC102D0F808350D
:1011000000EB8200C26C184603F00EB901EBC1027D
:10111000D0F8083500EB8200D0F88C22184603F096
:101120005DB90000D0F8080503F096B910B5044683
:1011300048B2B0F1FF3F01F00F0000EBC00104EB3B
:10114000810205DD02F51F71002382F87D3204E083
:10115000012302F13C0182F83D3094F8BC24087070
:10116000012A04BF022010BD2068012284F8BC249B
:1011700003F01AFF002084F8BC0410BDB0B542682B
:10118000044601F00F0082423CBF0120B0BD49B2CD
:10119000B1F1FF3F09DD00EBC00104EB810202F574
:1011A0001F71002382F87D3208E000EBC00104EBE0
:1011B0008102012302F13C0182F83D3094F8BC2405
:1011C0000025012A8D70087004BF0220B0BD206880
:1011D000012284F8BC2404F0EFF8284684F8BC54BB
:1011E000B0BD000001F00F0101EBC10100EB810077
:1011F000D0F89C027047000070B5064648B2B0F1C6
:10120000FF3F01F00F0000EBC00107DD06EB81049A
:1012100004F51F71002584F87D5206E006EB810C71
:1012200001240CF13C018CF83D404D780870002DF4
:10123000CA600B7118BF0881022B04BF00204871DF
:1012400096F8BC04012804BF022070BD306801225A
:1012500086F8BC2403F0D8FD002086F8BC0470BDDD
:1012600080B501F00F0C0CEBCC0100EB810ECEF839
:1012700094320023CEF89C328EF87D320369CEF88A
:101280008C22012B8EF87CC208BFCEF89022006819
:101290000EF51F71DAB2BCF1000F03D004F0D2F8E2
:1012A000002080BD03F0DCFF002080BDB0B5044607
:1012B000406801F00F05854284BF0120B0BD48B2EF
:1012C000B0F1FF3F09DD01EBC10004EB800000F548
:1012D0001F71002280F87D2208E005EBC50004EBB9
:1012E0008000012200F13C0180F83D2094F8BC040C
:1012F000012201288A700D7004BF0220B0BD206851
:1013000084F8BC2404F080F82DB92068217C04F214
:10131000C44204F023F8002084F8BC04B0BD0000EF
:1013200010B501F00F0C0CEBCC0100EB810E7146F7
:1013300001F83CCF8B6100230B62036901244C70E0
:10134000012B0A6108BFCEF850200068DAB2BCF168
:10135000000F03D004F076F8002010BD03F080FFEA
:10136000002010BD2DE9F04F89B0056806462846DB
:1013700004F0CAF910B109B0BDE8F08F306804F08C
:10138000F1F90028F7D0D5F80808C0F30D2130682E
:10139000C6F8FC1404F0E6F9800704D5306841690A
:1013A00001F002014161306805F50061039104F02C
:1013B000D9F9C00604953CD53068816921F0100147
:1013C00081612C6AC4F34340062804F00F0519D04C
:1013D000022828D147F6F07014EA000823D005EB64
:1013E000C50006EB8007D7F88C124FEA1814049852
:1013F000224604F0BBF9D7F88C0200EB1810C7F8AE
:101400008C0207E0049806F2C441082204F0AEF909
:10141000C4F30A1405EBC50006EB8000D0F89C125B
:101420002144C0F89C123068816941F0100181614B
:10143000049D3068089604F095F9000340F1F180AE
:101440000898006804F06CF9002800F0EA8006466D
:1014500008984FF4306800F2C44000244FF0000BAD
:1014600007901BE005EB0800022181605FEA8A60BB
:1014700042BF05EB0800202181605FEA8A4042BF3D
:1014800005EB08004FF4005181600BF1010B760869
:1014900008F1200804F1240400F0C380F007F4D020
:1014A00008985FFA8BF90068494604F053F98246C0
:1014B000C0075DD005EB080001218160089F3868F6
:1014C00008EB0001036C8A683F69012F29D11707D7
:1014D00035D4970676D412F0280F49D143F20B0782
:1014E000C4F65477BB4202D312F4004230D1089FB5
:1014F000002C07EB0402D2F8983209696FF3DF4140
:10150000A3EB0101C2F89C1240F08980D2F894321A
:10151000002B00F07F80D2F88C020844C2F88C02C5
:101520007CE043F20B07C4F65477FF37BB4212D17D
:1015300010040DD4900644BF2020886014E043F2CC
:101540000B00C4F65470834212D312F400400FD043
:101550004FF4004037E03CB90899D1F8941219B91A
:10156000079A002103F0FAFE08984946FFF7CEFDDE
:101570005FEA0A702CD505EB080008218160089805
:1015800043F20B020068C4F65472056C4044816853
:10159000571EBD4205D911F400411CBF4FF4004154
:1015A0008160089800F0BEFBBD42049D10D90898E8
:1015B000006901280CD10898079A0068012103F0FE
:1015C000CDFE05E0202088605FEA0A70D3D400BF1A
:1015D0005FEACA6042BF05EB0800102181605FEA44
:1015E0008A707FF543AF6869000604D5039948689F
:1015F00040F4806048600898204490F87F120129E8
:101600007FF430AF002180F87F120898494600F03F
:101610006FFA27E7079A012103F0A0FE089F3846DA
:10162000A3E7DDF820B0DBF8000004F09BF84003EE
:1016300040F1D580DBF8000004F06AF8002800F0E3
:10164000CE80824605F5106002900BF2C440002760
:10165000019005E05FEA5A0A07F1010700F0BF8038
:101660005FEACA70F6D0DBF80000F9B2079104F027
:101670005FF8029E0446C00726D0039A07F00F00C9
:10168000516B012303FA00F021EA0000506306EBDE
:1016900047108360DBF81000012811D107EBC70069
:1016A0000BEB8000D0E912121144C16447B9406DC0
:1016B00030B9DBF80000019A012103F04FFE00BFB2
:1016C00007995846FFF718FD200742BF06EB471061
:1016D00008218160E00642BF06EB471010218160BF
:1016E000600642BF06EB471040218160A00715D578
:1016F0002846394603F0D2FF07EBC7000BEB80000A
:1017000010F83F1F012905D10021017007995846A3
:1017100000F0EAF906EB471002218160200699D516
:1017200007EBC7000BEB8000814659F8541FC846F1
:1017300058F8082F91428DD3DBF8006083465BF8A0
:10174000483F891A994238BF0B46069606EB471167
:10175000D1F81829033392B2B2EB930F28D301F5D5
:10176000106100F14C050591D8F80000D9F800107F
:1017700081421DD9DBF80040089A081AA042296866
:10178000167C38BF0446DDE90602A3B2009604F0D9
:10179000E3F82868D8F80010204428600819C8F831
:1017A00000000598E11C806980B2B0EB910FDBD29C
:1017B000D9F80000D8F80010DDF820B0049D884268
:1017C0003FF648AF069B07F00F00D3F8341801220C
:1017D00002FA00F021EA0000C3F834083AE7DBF827
:1017E000000003F0BFFF039CB0F1FF3F18DC60680E
:1017F00020F0010060609BF8F404012807D100206C
:101800008BF8F40458460021FFF744FC02E05846E8
:1018100000F06CFADBF80000416901F00041416121
:10182000DBF8000003F09EFF00050BD5A068C007A1
:1018300002D0584600F09EFADBF80000416901F43E
:1018400000614161DBF8000003F08CFFC00453D558
:101850006068102120F001006060DBF8000003F0F8
:101860001DFFDBF80400D0B105F510614FF67F32A3
:101870008A600B68013823F400130B60C1F808225A
:10188000D1F8003223F40013C1F80032D1F800324D
:1018900043F00063C1F8003201F12001E8D1E069B2
:1018A00040F00110E061DBF8300040B1D4F8840072
:1018B00040F00B00C4F8840004F1440006E06069C5
:1018C00042F22B010843606104F1100001680BF241
:1018D000C44241F00B010160206820F4FE602060EA
:1018E000DBF800009BF8101003F038FDDBF8000077
:1018F000416901F480514161DBF8000003F032FFDF
:1019000080041CD5DBF8000003F0BEFADBF8000011
:1019100003F0ECFEDBF80040CBF80C0000F01CFB01
:101920009BF80C200146204603F08AFF584600F041
:10193000C7F9DBF80000416901F400514161DBF8AF
:10194000000003F00FFF000708D5584600F0D2F959
:10195000DBF80000416901F008014161DBF800009B
:1019600003F000FF000629D50499886920F0800063
:101970008861DBF80400022820D3012440F2A3256B
:1019800007E000BFDBF804000134844205F12405C0
:1019900014D21BF805000128F4D104F00F0000EB6D
:1019A000C0000BEB80022006DBF8000002F13C01D6
:1019B00058BF02F51F7103F025FEE3E7DBF80000D6
:1019C00003F0D0FEC0022ED5DBF80400022824D399
:1019D00004980BF1640500F512640126012707E065
:1019E000DBF8040001372034874205F1240514D2C6
:1019F000206829780129F3D1B0F1FF3FF0DC07F02E
:101A00000F0000EBC0000BEB8001DBF800003C3165
:101A100005F8016C03F0F6FDE2E7DBF80000416930
:101A200001F480114161DBF8000003F09BFE8002AD
:101A300034D5DBF80410049D022929D305F5326062
:101A400001390BF52972012305E000BF203001396F
:101A500002F124021CD007681678012EF6D1B7F1E6
:101A6000FF3FF3DCDBF8FC6407F4803706F0010687
:101A7000B742EBD102F8013CAF6947F08007AF6194
:101A80006F693F06E2D40399486840F400704860EB
:101A9000DBF80000416901F400114161DBF800004E
:101AA00003F060FE400008D55846FFF721FBDBF845
:101AB0000000416901F080414161DBF8000003F062
:101AC00051FE40077FF557ACDBF800004468600723
:101AD00002D55846FFF726FBDBF80000416821439A
:101AE000416009B0BDE8F08FD0F8080502F012BDE2
:101AF000D0F8080502F022BD2DE9F04F8BB098B365
:101B00000446056890F8BD0428B9002084F8BC0498
:101B1000204600F091F8032084F8BD04E86BC0056E
:101B20005CBF00202061206803F092FB206804F174
:101B30001C0A0A90D4E90C5004F1040E9AE8C0077C
:101B40009EE80E58CDE9085003A880E8C0030A9823
:101B50008DE80058CDF81CA003F0A6F930B10220A2
:101B600084F8BD04012562E0012560E020680021C1
:101B7000002503F021FE616861B3012000230022EB
:101B800003EBC30304EB830787F83C20D3B2013295
:101B9000A7F84430D3B2994287F83D0087F8405007
:101BA000C7E912557D65EBD800200023002200BF55
:101BB00003EBC30304EB830787F87C220132D3B223
:101BC000994287F87D0287F88002C7E9A200C7F82A
:101BD0009402EDD8A06822680A90D4E90C5004F170
:101BE000140E04F1240AD4E903379EE840589AE819
:101BF0000007CDE9085002A880E8005810460A9A6C
:101C0000CDE90076CDE90589CDF81CA003F02EFAC8
:101C100020B1022084F8BD04012508E00025012040
:101C200084F8385084F8BD04206803F00FFA284681
:101C30000BB0BDE8F08F0000B0B586B0006800249E
:101C4000B0F1A04F0594CDE903440294019401D072
:101C500006B0B0BD43F630050094C4F20205286812
:101C600001A940F001002860286800F00100009000
:101C700000984FF4C05001900220CDE902040320E7
:101C800004900A2005900020C4F20200FFF738F803
:101C90006868052140F0800068600094686900224F
:101CA00040F480406861686900F4804000900098CA
:101CB0004320FFF7B3F94320FFF7A0F906B0B0BD0A
:101CC00010B50446C06828B1022818BFFEF7F4FB1F
:101CD000012100E00021D4F8080502F0B3FCD4F89B
:101CE0000805BDE8104002F063BC0000D0F808050C
:101CF00002F090BCD0F8080502F096BC10B504467E
:101D000090F8BC04012804BF022010BD012084F813
:101D1000BC0484F83810206803F080FD002084F8AB
:101D2000BC0410BDD0F8082500F2C441104602F0F2
:101D30009FBC000010B5044690F8BC04012804BF05
:101D4000022010BDA16A20680122012984F8BC2468
:101D500006D1A169012903D0816B41F480318163EF
:101D600003F094FC206803F061F9002084F8BC04BF
:101D700010BD000010B50446D0F8080502F0CCFCF8
:101D80002068D0F8001E41F00101C0F8001E206A52
:101D9000002808BF10BD4EF61050CEF200000168BA
:101DA00041F00601016010BD704700002DE9F041CF
:101DB000002800F08B8043F60808C4F202080446AD
:101DC000D8F8F8030D4600F00700884207D288F8DB
:101DD000F853D8F8F80300F00700A84276D120683D
:101DE000810717D5410705D5D8F8001041F4E05117
:101DF000C8F80010010705D5D8F8001041F460417B
:101E0000C8F80010D8F80010A26821F0F0011143C2
:101E1000C8F80010C0073FD1D8F8F80300F0070059
:101E2000A84207D988F8F853D8F8F80300F007005B
:101E3000A8424BD12068410707D5D8F80010E268C6
:101E400021F4E0511143C8F80010000708D5D8F874
:101E50000000216920F4604040EAC100C8F8000099
:101E600000F0A8F8D8F8001046F68602C1F3031176
:101E7000C0F60002515C40F21C0220FA01F140F26F
:101E8000F000C2F200000068C2F200021160FFF729
:101E90003DF80020BDE8F0816068811E022907D26C
:101EA00058F8081C89015CBF0120BDE8F08110E0F2
:101EB000012807D158F8081C89035CBF0120BDE840
:101EC000F08106E058F8081C890702D40120BDE81B
:101ED000F081D8F8001021F003010843C8F8000091
:101EE000FEF7E4FF064641F2883700BFD8F800004D
:101EF000616800F00C00B0EB810F8DD0FEF7D6FFCB
:101F0000801BB842F2D90320BDE8F0814C20C4F216
:101F100047200121016070470F22026043F608024A
:101F2000C4F20202136803F003034360136803F072
:101F3000F0038360136803F4E053C360D2F800C079
:101F40004FF4E05303EADC030361D2F8F80300F036
:101F5000070008607047000040F21C00C2F2000059
:101F60000068704740F21C0043F60801C2F200000E
:101F7000C4F202010068096846F69602C1F38221A4
:101F8000C0F60002515CC8407047000040F21C00DF
:101F900043F60801C2F20000C4F2020100680968B9
:101FA00046F69602C1F34231C0F60002515CC840C9
:101FB0007047000010B543F60404C4F202046068E0
:101FC00000F00C0008280AD0042819BF42F2004093
:101FD000C0F2F40041F60030C0F2B70010BD206836
:101FE00021682368490241F60031C0F2B70100F0D0
:101FF0003F02C3F388105CBF42F20041C0F2F4011B
:10200000A1FB00010023FEF72FF921680222C1F392
:10201000014102EB4101B0FBF1F010BD10B543F6F8
:102020000C04C4F202042068000658BF10BDFFF77C
:10203000BBFE8020A07010BD2DE9F04182B00028C9
:1020400000F0A1800446007843F60006C007C4F201
:10205000020643D0B06800F00C00042805D13068B7
:1020600080033BD56068C8BB8DE0B06800F00C0011
:10207000082802D170684002F1D46568B5F5A02F38
:102080000AD0B5F5803F0BD0306820F48030306046
:10209000306820F4802006E0306840F48020306012
:1020A000306840F480303060FEF700FF002D0546B8
:1020B00011D000BF3068800310D4FEF7F7FE401B3C
:1020C0006428F7D920E100BFFEF7F0FE401B64282A
:1020D0004FF0030054D830688003F5D4207880078F
:1020E0001AD5B06810F00C0F09D0B06800F00C00E1
:1020F000082840F088807068400200F184803068D1
:10210000800702D5E06801283DD13068216920F0C0
:10211000F80040EAC10030602078000737D420780A
:1021200040074AD4A56955B3B06800F00C000828F0
:1021300040F09C80012D26D07068E16900F4800297
:102140008A4220D1216A00F03F028A421BD147F621
:10215000C071626A0140B1EB821F14D1A16A4FF6CF
:10216000FF73C903994300F44032A1F580318A42DC
:1021700009D1E16A00F07060B0EB016F03D100207B
:1021800002B0BDE8F081012002B0BDE8F0816069D5
:10219000002840F20000C4F2472056D00121C0F8C8
:1021A000801EFEF783FE0546706F8007B7D4FEF7EA
:1021B0007DFE401B0228F7D9A6E0306C10F0805855
:1021C0000AD100200190306C40F080503064306CB7
:1021D00000F080500190019847F20007C4F2000718
:1021E0003868C00524D4386840F480703860FEF741
:1021F0005DFE05463868C0051AD4FEF757FE401B41
:102200000228F7D980E0E068002851D00020C4F20D
:10221000472001210160FEF749FE0546306880072E
:102220003FF573AFFEF742FE401B0228F6D96BE084
:10223000A568052D50D0012D52D0306F20F001003F
:102240003067306F20F004004DE00021C0F8801EA0
:10225000FEF72CFE054600BF706F80077FF55FAF6D
:10226000FEF724FE401B0228F6D94DE00027C4F2F9
:10227000472700203866FEF719FE022D05460BD1D0
:102280003068800158D5FEF711FE401B02284FF040
:102290000300F5D974E700BF306880017FF56FAFA8
:1022A000FEF704FE401B02284FF00300F4D967E755
:1022B0000020C4F2472000210160FEF7F7FD05462B
:1022C000306880077FF528AFFEF7F0FD401B02283D
:1022D0004FF00300F4D953E7306F40F0040030674B
:1022E000306F40F001003067FEF7E0FD002D05463D
:1022F00041F2883714D000BF306F800713D4FEF747
:10230000D5FD401BB842F7D9032002B0BDE8F081EB
:10231000FEF7CCFD401BB8424FF003003FF630AF54
:10232000306F8007F4D4B8F1000F7FF4FBAE306C4F
:1023300020F080503064F5E604F11C052FCD0843F1
:1023400040EA8210D9034FF6FF729143A1F5803124
:1023500040EA05600843706001203866FEF7A6FD7C
:10236000044600BF306880013FF509AFFEF79EFDCF
:10237000001B02284FF00300F4D901E7002804BF36
:102380000120704710B50446407920B90020207123
:10239000204600F00DF8022060712068016841F0CD
:1023A00004010160012060710020A06010BD0000E8
:1023B00081B0006840F60001C5F20601884201D0F4
:1023C00001B070470020009043F63400C4F20200D0
:1023D000016841F040010160006800F04000009099
:1023E000009801B07047000070B538B10446406AEB
:1023F00030B10020206104F1140007E0012070BD1D
:102400006068B0F5827F03D004F11C0000210160F8
:102410000026A66294F8510020B9204684F8506046
:1024200000F03CF8022084F8510094E80F0001F419
:102430008271056802F4044225F0400505601144EC
:1024400003F400622369114403F00202636911443A
:1024500003F00102A369E569114403F40072114419
:1024600005F03802256A114405F08002A56A11437F
:1024700005F4005211430160626A042101EA13412C
:1024800002F0100211444160C16921F40061C16190
:102490000120666584F85100304670BD2DE9F04397
:1024A00087B043F200050068C4F201050026A84287
:1024B0000696CDE904660396029602D007B0BDE801
:1024C000F08343F630000196C4F20200416902AC89
:1024D00041F48051416141694FF0020801F480519B
:1024E00001910199019601684FF0030941F0020141
:1024F00001600168052701F002010191019901962F
:10250000016841F0010101600068214600F001000E
:10251000019001981820029005F55440CDE90386FA
:10252000CDF814900697FEF7EBFB8020CDE902086A
:1025300005F550402146CDE904690697FEF7E0FB1A
:1025400007B0BDE8F083000070470000704700004E
:1025500010B590F83C20012A4FF0020252D001231E
:1025600080F83C3080F83D200268D2F804E0D2F8D0
:1025700008C00C682EF07003234341F2FF74C4F2CC
:102580000004A24253600DDC40F2FF73C4F200036A
:102590009A4215DCB2F1804F29D040F20043C4F2D8
:1025A000000322E040F2FF33C4F201039A4212DC3E
:1025B00041F60003C4F200039A4218D0002312E04F
:1025C00040F60003C4F200039A4210D040F60043E4
:1025D000C4F2000309E044F20003C4F201039A428A
:1025E00005D040F20043C4F201039A4204D1496885
:1025F0002CF08003194391600121002280F83D10E6
:1026000080F83C20104610BD002804BF0120704710
:1026100010B5044690F83D0028B9002084F83C002D
:10262000204600F01FF8022084F83D002068211D9C
:1026300001F00CF9012084F8460084F83E0084F88B
:102640003F0084F8400084F8410084F8420084F898
:10265000430084F8440084F8450084F83D000020DD
:1026600010BD000082B0006844F20041C4F20101D4
:10267000884216D040F60001C4F2000188421FD102
:102680000020019043F64000C4F20200016841F0CE
:1026900004010160006800F004000190019802B09C
:1026A00070470020009043F64000C4F202004168E9
:1026B00041F400314160406800F40030009000981F
:1026C00002B0704790F83D1001291CBF01207047EF
:1026D000022180F83D10006841F2FF72C168C4F227
:1026E0000002904241F00101C1600DDC40F2FF7137
:1026F000C4F20001884215DCB0F1804F29D040F2CD
:102700000041C4F2000122E040F2FF31C4F20101B5
:10271000884212DC41F60001C4F20001884218D060
:10272000002112E040F60001C4F20001884210D0FE
:1027300040F60041C4F2000109E044F20001C4F295
:102740000101884205D040F20041C4F201018842F3
:1027500006D1816801F00701062904BF00207047F7
:10276000016841F0010101600020704780B590F8D8
:102770003C20012A4FF0020200F0C280012380F8C1
:102780003C3080F83D20D0F800C04FF67772DCF87E
:10279000083023EA0202CCF808200B684F2B28DC13
:1027A0001F2B43DD202B44D0302B42D0402B40F058
:1027B000A980D1F804E0C968DCF82030DCF82020DA
:1027C00022F00102CCF82020DCF8182022F0F002E0
:1027D00042EA011123F00A0242EA0E02CCF8181074
:1027E000CCF82020DCF8081041F0470121F030013E
:1027F0007DE06F2B25DDB3F5005F46D0B3F5805F3C
:1028000077D0702B7ED1D1E901E3C968DCF80820CC
:1028100043EA0E0322F47F4243EA01211143CCF83C
:102820000810DCF8081041F0770160E00BB1102BC4
:1028300068D1DCF8081021F07001194341F007015C
:1028400055E0502B34D0602B5CD1D1F804E0C9683E
:10285000DCF8203023F01003CCF82030DCF81830FE
:10286000DCF8202023F4704322F0A00243EA013177
:1028700042EA0E12CCF81810CCF82020DCF8081030
:1028800041F0670121F0100131E0D1E901E3C968AD
:10289000DCF8082043EA0E0322F47F4243EA0121D8
:1028A0001143CCF80810DCF8081041F480411EE018
:1028B000D1F804E0C968DCF82030DCF8202022F0F0
:1028C0000102CCF82020DCF8182022F0F00242EAC5
:1028D000011123F00A0242EA0E02CCF81810CCF8DB
:1028E0002020DCF8081041F0570121F02001CCF83D
:1028F00008100022012180F83D10002180F83C10D2
:10290000104680BD0122F5E77047000010B504466F
:1029100000680169890744BFC1685FEA81713FD4DB
:1029200020680169490744BFC1685FEA417143D427
:1029300020680169090744BFC1685FEA017148D492
:1029400020680169C90644BFC1685FEAC1614CD40F
:1029500020680169C9071CBFC1685FEAC17151D114
:1029600020680169090644BFC1685FEA016150D46B
:1029700020680169490644BFC1685FEA41614FD4DC
:1029800021680869800646BFC8685FEA806010BD9C
:102990006FF0200220460A61BDE81040FFF7D6BD67
:1029A0006FF00201016101212177806980073ED02B
:1029B0002046FFF7A9FF40E06FF00401016102210A
:1029C0002177806910F4407F3AD02046FFF79CFFC2
:1029D0003CE06FF00801016104212177C0698007A4
:1029E00037D02046FFF790FF39E06FF0100101610A
:1029F00008212177C06910F4407F33D02046FFF7CB
:102A000083FF35E06FF001010161204600F0C4F959
:102A1000A6E76FF0800101612046FFF795FDA7E76B
:102A20006FF040010161204600F0BEF9A8E72046A2
:102A300000F072F8204600F0ADF9002020776FE733
:102A4000204600F069F8204600F0A4F90020207725
:102A50006EE7204600F060F8204600F09BF9002069
:102A600020776DE7204600F057F8204600F092F9F5
:102A7000002020776CE7000080B586B0006844F243
:102A80000042C4F2010200219042CDE90411CDE9D7
:102A9000021101911DD040F60001C4F200018842EC
:102AA00038D10020009043F63000C4F202000168E3
:102AB000032241F0080101600068022100F00800D3
:102AC0000090009840F600404FF48043C4F20200AA
:102AD00016E043F630000091C4F2020001680222C1
:102AE00041F0200101600068032100F02000009007
:102AF000009840F60040C4F2020000F50060402358
:102B00000193022302930123059101A9CDE9033228
:102B1000FEF7F6F806B080BD704700002DE9F043DF
:102B200090F83C30012B04BF0220BDE8F0834FEA4F
:102B3000B2020123032A80F83C3000F2F580DFE87E
:102B400002F0023E7DBD036840F200471A6A43F47A
:102B5000806522F001021A621C6A1A46D3F804E06A
:102B600052F818CF8E6824F00204C4F20107BD4267
:102B700044EA060405D1CE6824F00C0426F00406CD
:102B800034430E68BD4207D1D1E905572EF4407E8B
:102B900045EA0E0545EA070E2CF073073743C3F8E4
:102BA00004E09F614F6809695F631C629F6947F099
:102BB00008079F619F6927F004079F61B0E00368E1
:102BC00040F200481A6A43F4806522F010021A624B
:102BD0001C6A1A46D3F804C052F818EF8F6824F024
:102BE0002004C4F20108454544EA071407D1CF6820
:102BF0006FF0400624F0C00406EA07163443D1F80B
:102C00000090454506D1D1E905562CF440672E4386
:102C100047EA860C2EF4E64747EA0927C3F804C0C2
:102C20009F614F6809699F631C629F6947F4006751
:102C30009F619F6927F480679F6170E0036840F29D
:102C400000481A6A43F4806522F480721A621C6A92
:102C50001A46D3F804C052F81CEF8F6824F40074AD
:102C6000C4F20108454544EA072408D1CF6840F280
:102C7000FF463F0224F4406427EA06063443D1F8B5
:102C80000090454506D1D1E905562CF440572E4316
:102C900047EA061C2EF0730747EA0907C3F804C089
:102CA000DF614F680969DF631C62DF6947F008076D
:102CB000DF61DF6927F00407DF6131E0036840F27C
:102CC00000451A6A43F4806722F480521A621A4659
:102CD000D3F820C05C6852F81CEFD1F800808E68F1
:102CE000C4F20105AF4204D14D6924F4804444EAA2
:102CF00085142CF4005747EA06372EF4E64646EAD8
:102D000008265C60DE614E6809691E641F62DF6927
:102D100047F40067DF61DF6927F48067DF6109023C
:102D20001368194300231160002180F83C101846F5
:102D3000BDE8F083002804BF0120704710B50446A9
:102D400090F83D0028B9002084F83C00204600F0AF
:102D50001FF8022084F83D002068211D00F076FD58
:102D6000012084F8460084F83E0084F83F0084F88F
:102D7000400084F8410084F8420084F8430084F85D
:102D8000440084F8450084F83D00002010BD000098
:102D900070470000704700000068B0F1804F18BF16
:102DA0007047FEF789B800007047000070470000C8
:102DB00070470000B0B582B0044600680168C3687F
:102DC000426901F02F05202D03F0200506D12DB119
:102DD000204602B0BDE8B04000F0D0BD5FEA017C03
:102DE0001EBF02F0010E03F4907212EB0E0253D1DB
:102DF000226B012A05D111F0100218BF13F0100246
:102E000036D10A0622D513F080021FD094F83D1067
:102E100021293FD1A168B1F5805F03D12169002943
:102E200000F03F81216A4A1C226209784160E18CEE
:102E300001390A04E1842DD1C16821F08001C1600B
:102E4000C16841F04001C16002B0B0BD490621D562
:102E500013F040011ED0C16821F04001C160202163
:102E6000204684F83D1002B0BDE8B04000F0B6B98D
:102E70000021019101680191416801910199406926
:102E8000400611D4A08DE18DE28D002A18BF884242
:102E900040F0DB8002B0B0BDC80718BF13F48070EB
:102EA00045D1480749D44FE0A06B016849688AB210
:102EB000002AEFD0A38D9A42ECD2E185C069B0F52B
:102EC000807F30D0206850E8030F216820F48070A4
:102ED00041E80302002AF5D1206850E8050F216877
:102EE00020F0010041E80502002AF5D1206850E8F1
:102EF000050F216820F0400041E80502002AF5D1C5
:102F0000202084F83E000020206300BF206850E8A5
:102F1000030F216820F0100041E80302002AF5D1D8
:102F2000A06BFDF713FDA08DE18D401AB2E0206C7F
:102F300040F001002064480706D5BEF1000F03D021
:102F4000206C40F002002064880706D5BEF1000F17
:102F500003D0206C40F004002064BCF1000F09D5C0
:102F600045EA0E00B0FA80F0400903D1206C40F031
:102F700008002064206C00283FF48CAF11F0200082
:102F800018BF002D02D0204600F0F8FC20684069F0
:102F9000216C00F0400001F00801401848D000BF4B
:102FA000206850E8030F216820F4907041E8030284
:102FB000002AF5D1206850E8050F216820F00100B3
:102FC00041E80502002AF5D1206B01280AD100BF93
:102FD000206850E8030F216820F0100041E8030248
:102FE000002AF5D1202084F83E00002020632068CC
:102FF0004069400623D500BF206850E8050F2168CE
:1030000020F0400041E80502002AF5D1A06BB0B1E4
:1030100043F67111C0F600010165FDF7D7FC0028E9
:103020003FF438AFA06B016D02B0BDE8B040084777
:103030002046FFF7BDFE0020206402B0B0BD204650
:1030400002B0BDE8B040FFF7B3BE401A216851E8B6
:10305000031F226821F4907142E80313002BF5D17D
:10306000216851E8051F226821F0010142E805139B
:10307000002BF5D1202184F83E100021216300BFF0
:10308000216851E8031F226821F0100142E8031370
:10309000002BF5D181B2204602B0BDE8B040FFF769
:1030A00085BE216A31F8022B6FF35F2242602162F4
:1030B000BDE60000002804BF0120704710B504469B
:1030C00090F83D0028B9002084F83C00204600F02C
:1030D00021F8242084F83D002068C16821F40051C3
:1030E000C160204600F0AAFC2068016921F49041EB
:1030F0000161416921F02A014161C16841F4005137
:10310000C16000202021206484F83D1084F83E1026
:1031100010BD000070B586B0044644F6000021687A
:10312000C4F20000002681420596CDE903660296AE
:10313000019601D006B070BD43F630010096C4F28E
:1031400002010A6900F5E03042F480220A610A694E
:1031500002F480220092009A00960A6842F004026B
:103160000A60096801F00401009100994FF4406180
:1031700001910221CDE90216032104910721059155
:1031800001A9FDF7BDFD41F6B00546F22800C2F2E7
:103190000005C4F202004FF000614FF4806285E840
:1031A00043002846C5E90362C5E90566C5E9076627
:1031B0006E62FDF7E3FC002818BFFDF77DF92720BC
:1031C00005210022A563AC63FDF728FF2720FDF74A
:1031D00015FF06B070BD000070470000704700008A
:1031E000FEE7000080B500F01BFA00BF012002F0EE
:1031F000EFFBFBE780B541F6600046F20041C2F20A
:103200000000C4F200010322002380E80E0000F158
:103210000C014FF4102C4FF4001E81E808504FF4BD
:1032200080710183C0F81A30FDF770FA002808BFDA
:1032300080BDBDE88040FDF73FB9000080B541F694
:10324000880046F60001C2F20000C4F20001032229
:10325000002380E80E0000F10C014FF4102C4FF415
:10326000001E81E808504FF480710183C0F81A30C5
:10327000FDF74CFA002808BF80BDBDE88040FDF78F
:103280001BB9000080B582B00020019043F63000E9
:10329000C4F202000168002241F4001101600068DC
:1032A000052100F40010019001980C20FDF7B6FEF6
:1032B0000C2002B0BDE88040FDF7A0BE80B588B00C
:1032C0000B4802AF01900AA000F1040E9EE80E50D8
:1032D000806987E80E50079001A8002102F086FB64
:1032E00040F25C11C2F20001086008B080BD00BF6E
:1032F000A6680008E5310008030000000000000097
:103300008000000000000000000000002DE9F041F6
:1033100086B0002043F630010590CDE90300CDE9E9
:1033200001000090C4F202010A68002542F0020286
:103330000A600A68C4F2020502F002020092009AD2
:1033400000900A68102642F008020A600A68012705
:1033500002F008020092009A00900A6842F004020B
:103360000A600A6802F004020092009A00900A685B
:1033700042F001020A600A6802F001020092009A1B
:1033800000900A6842F080020A600A6802F0800237
:103390000092009A00900868012240F02000086026
:1033A0000868102100F02000009000982846FDF7E2
:1033B00077FD05F58064204601210122FDF770FDAF
:1033C000CDE9016701AE4FF0020828463146039768
:1033D000CDF81080FDF794FC302001904FF40410DC
:1033E000CDE9020705F500603146FDF789FC20466E
:1033F0003146CDE90177CDE90378FDF781FC17204F
:1034000005210022FDF70AFE1720FDF7F7FD06B0A3
:10341000BDE8F08180B541F61C6040F60001C2F2C3
:103420000000C5F206010160FEF7A8FF002808BFF2
:1034300080BDBDE88040FDF73FB8000010B541F603
:103440002C6043F20001C2F20000C4F201014FF40B
:10345000827200234FF0010C4FF4007E102480E8AC
:103460000E000A21C0E90333C0E905CEC461C0E9FA
:103470000833C0E90A31FEF7B7FF002808BF10BDC6
:10348000BDE81040FDF718B880B588B041F68460FB
:1034900044F200420021C2F20000C4F201025323B0
:1034A00040F2CF7C0791CDE90511CDE90311CDE9BB
:1034B0000111C0E90023C0E9021C01618161FFF72D
:1034C000A3F8002818BFFCF7F7FF41F68460C2F2AA
:1034D0000000FFF72FFC002818BFFCF7EDFF60206D
:1034E00001900020CDE90200059041F68460C2F20F
:1034F000000001A90022FFF711FB002818BFFCF70C
:10350000DBFF41F68460C2F20000FFF7B5FA08B0B5
:1035100080BD000010B58EB041F6147040F6000278
:103520000021C2F20000C4F20002A72340F2CF74CF
:103530000D91CDE90B11CDE90911CDE90711CDE9C7
:103540000511CDE90311CDE90111C0E90023C0E95E
:10355000021401618161FFF757F8002818BFFCF7DA
:10356000ABFF4FF480500A9041F61470C2F2000095
:103570000AA9FFF7FBF8002818BFFCF79DFF41F6EA
:103580001470C2F20000FFF7D5FB002818BFFCF74B
:1035900093FF41F614700024C2F2000008A9CDE99F
:1035A0000844FEF7D5FF002818BFFCF785FF602010
:1035B000CDE9010441F61470C2F2000001A908220D
:1035C00003940594FFF7AAFA002818BFFCF774FFCC
:1035D00041F61470C2F20000FFF74EFA0EB010BDB3
:1035E00080B541F65C7044F60001C2F20000C4F2FE
:1035F000000148F2A06200234FF00C0CC0F201025F
:1036000080E80E00C0E90333C0E905C3C361FFF7DA
:1036100051FD002808BF80BDBDE88040FCF74CBFCD
:1036200080B541F2845040F20001C2F20000C2F2C3
:103630000001002200F03EFE002818BFFCF73CFF0E
:1036400041F2845040F22001C2F20000C2F20001B7
:1036500001F08AF8002818BFFCF72EFF41F28450D1
:1036600040F2BC01C2F20000C2F2000100F012FC04
:10367000002818BFFCF720FF41F28450C2F200007E
:1036800001F09CF8002808BF80BDBDE88040FCF731
:1036900013BF0000FEE70000FEF7C0FCFEE70000DD
:1036A00041F61010C2F20000FDF75CBE0000000001
:1036B000EFF30980BFF36F8F154B1A681EF0100FE0
:1036C00008BF20ED108A20E9F04F10602DE90900B5
:1036D0004FF0500080F31188BFF34F8FBFF36F8F0F
:1036E00002F0A2FD4FF0000080F31188BDE8090050
:1036F00019680868B0E8F04F1EF0100F08BFB0EC72
:10370000108A80F30988BFF36F8F704700BF00BF36
:10371000A01F0020000000000000000000000000CA
:10372000074B19680868B0E8F04F80F30988BFF3C9
:103730006F8F4FF0000080F31188704700BF00BF0B
:10374000A01F002080B54FF0500080F31188BFF318
:103750006F8FBFF34F8F02F02BFF30B14EF6045046
:10376000CEF200004FF080510160002080F31188FC
:1037700080BD000070B592B006AC20463021FCF749
:10378000F3FD002543F640000595CDE90355CDE94D
:1037900001550095C4F202000168022641F08051F3
:1037A0000160006800F080500090009847F200002F
:1037B0000095C4F20000016841F480410160006896
:1037C00000F4804000900098012006904FF4803073
:1037D00007904FF480000D9006200E90A820CDE9B0
:1037E0000F060720119020460C96FEF725FC20B10D
:1037F000EFF3108072B600BFFEE70F20CDE901069F
:103800004FF4A05004904FF48050059001A805217A
:103810000395FEF7CBFA20B1EFF3108072B600BF2C
:10382000FEE7FEF773FB12B070BD00004EF6885045
:10383000CEF20000016841F47001016070470000A1
:1038400041F6CC60C2F20000FFF760B810B540F658
:10385000FF3E0368C4F2000E40F2004C7045C4F213
:10386000010C0FDCB0F1804F19D040F20042C4F2DD
:103870000002904213D040F60002C4F200029042CF
:103880000DD010E040F60042C4F20002904206D093
:10389000604504D00022C4F20102904203D14A687C
:1038A00023F07003134341F6FF72C4F2000290420A
:1038B0000DDC70451FDCB0F1804F41D040F200427A
:1038C000C4F2000290423BD040F6000221E043F6F1
:1038D000FF72C4F20102904220DC42F20002C4F204
:1038E000000290422CD00022C4F20102904227D064
:1038F000604525D028E040F60042C4F20002904224
:103900001ED041F60002C4F20002904218D041F6E7
:103910000042C4F20002904212D015E044F20002CC
:10392000C4F2010290420BD044F60002C4F201023C
:10393000904205D044F20042C4F20102904203D109
:10394000CA6823F44073134323F080024B69D1F813
:1039500000E08C681A430260C46240F48062C0F8E0
:1039600028E0624504BF096901630121416110BD7E
:10397000806B0021C185C184FFF71ABA81B090F82D
:103980003E1022291DD18268B2F5805F02D1016903
:10399000002946D0816AB2F5805F07D00AB9026972
:1039A00022B10268526802F07F0201E002685268A8
:1039B0000A70816A01318162C18D01390A04C185B1
:1039C00001D001B070470168CA6822F02002CA60C5
:1039D000CA6822F48072CA604A6922F001024A6110
:1039E000202180F83E10016B012923D100210163C1
:1039F000016851E8031F026821F0100142E8031337
:103A0000002BF5D101680A68D20606D50022009283
:103A10000A680092496800910099818D01B0FFF712
:103A2000C5B90168826A49686FF35F2122F8021BF9
:103A30008262C1E701B0FFF7CFBB000010B50446BA
:103A40000068D4E902C22369016921F4405111439D
:103A50000161626943EA0C01E3691143C2681943D9
:103A600049F20C639A431143C1604169A26921F490
:103A7000407141F20043114340F48062C4F20103FB
:103A80009A42416102D1FEF781FA01E0FEF76AFA3B
:103A9000E16963681922B1F5004FA0FB020121D151
:103AA0005A00DB0FFCF7E0FB48F21F51C5F2EB11A7
:103AB000A0FB01235A094FF69C73C0F6FF7303F174
:103AC000805302FB0300322303EBC000A0FB010183
:103AD0004FF4F87000EA111000EB0210C1F342112C
:103AE00008441DE09A009B0FFCF7BEFB48F21F51F3
:103AF000C5F2EB11A0FB01235A094FF69C73C0F6E7
:103B0000FF7302FB0300322303EB0010A0FB010153
:103B1000F02000EA511000EB0210C1F343110844F9
:103B20002168886010BD000041F65C70C2F20000A0
:103B3000FFF740B9B0B5D0F8D42200EB8202D2F83A
:103B4000C03233B301F00F058C4605EB850100EB65
:103B5000810151F8184F64B1D0F8C8E205EBC505F2
:103B60000EEB8505D5F848E0B4FBFEF505FB1E45D8
:103B70008DB10024C3F81442D2F8C402056935B1EE
:103B8000D3F8080203F504716246A84700242046D2
:103B9000B0BD0320B0BD00240C60614600220023AC
:103BA00000F0C4FD2046B0BDB0B50446D0F8D40244
:103BB00004EB8000D0F8C05295B1204600F05CFCC8
:103BC000D4F8D412C5F80C0204EB8101D1F8C41268
:103BD000D5F80402CA6805F5037190470020B0BD0E
:103BE0000320B0BD70B58121044600F08BFB002599
:103BF00020460121258700F085FB20468221A4F87C
:103C0000785100F07FFBD4F8D402E56404EB800027
:103C1000D0F8C01289B1D0F8C40240688047D4F807
:103C2000D40204F5307656F8200001F0E5F8D4F817
:103C3000D40246F82050C4F8BC52002070BD0000E9
:103C400010B5D0F8D41200EB8100D0F8C04284B196
:103C5000D0F8C41279B194F80002FF280BD08B6819
:103C600094F8012221469847FF2084F800020020A2
:103C700010BD032010BD002010BD0000014640F221
:103C80009C000A22C2F200000A807047F0B581B0A1
:103C900040F25807C2F2000704463846822100F07D
:103CA000B9FA06463846012100F0B4FA054638460E
:103CB000812100F0AFFA002E1CBF1021B171002D40
:103CC0001CBF4021A98000281CBF402181804321C6
:103CD00040F25800C2F20000218001B0F0BD0000A7
:103CE000F0B581B040F25807C2F2000704463846EA
:103CF000822100F08FFA06463846012100F08AFA48
:103D000005463846812100F085FA002E1CBF10219F
:103D1000B171002D1CBF4FF40071A98000281CBF99
:103D20004FF400718180432140F25800C2F200003C
:103D3000218001B0F0BD0000F0B581B040F258071D
:103D4000C2F2000704463846822100F063FA0646B4
:103D50003846012100F05EFA05463846812100F020
:103D600059FA002E1CBF1021B171002D1CBF40213B
:103D7000A98000281CBF40218180432140F25800C7
:103D8000C2F20000218001B0F0BD00002DE9F04139
:103D900004464FF4077001F031F800284DD04FF47D
:103DA00007710546FCF7E0FAD4F8D402402704EB8B
:103DB0008000C0F8C052207CC4F8BC52002808BF64
:103DC0004FF400772046812102223B46022600F074
:103DD000C9FB4FF001082046012102223B46A4F80E
:103DE000388000F0BFFB1020A4F84E00204682214E
:103DF00003220823A4F8788100F0B4FBD4F8D4029D
:103E00000027C5F8047204EB8000D0F8C402A4F8BF
:103E10004C8000688047C5F81472C5F81872D5F850
:103E200004223AB1207C90B120460121402300F0C9
:103E3000ADFB00263046BDE8F081D4F8D402002165
:103E400004EB8000C0F8C0120220BDE8F0812046DB
:103E500001214FF4007300F099FB0020BDE8F081D0
:103E600080B5D0F8D41200EB8101D1F8C01271B145
:103E700090F810C0D1F8042240230121BCF1000FBA
:103E800008BF4FF4007300F081FB002080BD0320C9
:103E900080BD000000290FBF0320D0F8D42200EB22
:103EA0008200C0F8C41218BF00207047D0F8D42296
:103EB00000EB8200D0F8C00200280EBF0320C0F83B
:103EC0000412002070470000D0F8D43200EB8300C9
:103ED000D0F8C00200280FBF0320C0F80812C0F8B5
:103EE000102200207047000070B582B00446D0F860
:103EF000D4020D4604EB8000D0F8C06200218DF89A
:103F00000710ADF80410D6B1297811F0600218D06E
:103F1000202A2DD1EA88002A30D049B2B1F1FF3FE2
:103F200035DD6878314686F800022046402A28BFF1
:103F3000402286F8012200F091F8002660E0032676
:103F40005EE068780B2844D80026DFE800F00659C8
:103F50004242424242424242303C94F89C02032890
:103F60003DD101A92046022200F092F8002647E048
:103F70002046294600F066F8032641E0D0F8C40246
:103F800029468368687800220026984738E0D0F8F0
:103F9000C4023146836868789847EA8820463146EB
:103FA000072A28BF072200F073F8002628E094F8BB
:103FB0009C02032819D10DF107012046012200F0CF
:103FC00067F800261CE094F89C02032813D1002611
:103FD00016E02046294600F035F8032610E020467A
:103FE000294600F02FF803260AE02046294600F073
:103FF00029F8032604E02046294600F023F803268A
:10400000304602B070BD000080B5D0F8B8225268CA
:104010009047002818BF032080BD00000020704793
:104020000020704780B513460A46002100F0AEFA22
:10403000002080BD80B513460A46002100F076FBC3
:10404000002080BD10B58021044600F041FB2046D1
:104050000021BDE8104000F03BBB000080B51346D6
:104060000A460321C0F894120021C0E9563300F03B
:104070008DFA002080BD000080B50521C0F89412A3
:1040800000210022002300F081FA002080BD000002
:1040900080B513460A460221C0F894120021C0E9F7
:1040A000063300F043FB002080BD000080B50421F2
:1040B000C0F8941200210022002300F037FB0020FA
:1040C00080BD000010B540F26414C2F200040A463C
:1040D00002A0214600F0B6F8204610BD434443201C
:1040E000436F6E666967000040F2A8001222C2F2B8
:1040F00000000A807047000010B540F26414C2F25C
:1041000000040A4602A0214600F09CF8204610BD9B
:1041100043444320496E7465726661636500000024
:1041200040F2D0000422C2F200000A807047000072
:1041300010B540F26414C2F200040A4602A02146FF
:1041400000F080F8204610BD53544D6963726F65CE
:104150006C656374726F6E696373000010B540F232
:104160006414C2F200040A4602A0214600F06AF874
:10417000204610BD53544D33322056697274756118
:104180006C20436F6D506F727400000070B547F67D
:104190001020C1F6FF70026883684FF01A0CD21825
:1041A000A1F800C031D0406840F2D40C6FF001019A
:1041B000C2F2000C4FF0370E002300BF0CEB0105DC
:1041C0000EEB1276B2F1204F01F102014FEA1274A8
:1041D00038BF04F1300612010E292E716B71EDD13A
:1041E0000CF1100104224FF0370C00230CEB10757A
:1041F000B0F1204F4FEA107638BF06F1300501F8D4
:10420000025F0001013A4B70F0D140F2D400C2F2DB
:10421000000070BD80B5B0F802C003789C459CBF1B
:10422000002080BD90F800E070444278052A03D158
:1042300082788A4208BF80BD73449AB26245F1D346
:10424000002080BD80B5A0B303786BB1431E4FF052
:10425000000C00BF93F802E00CF1010CBEF1000F5E
:1042600003F10103F6D101E04FF0000C5FFA8CFC82
:10427000022303EB4C03138003220B704A7090F867
:1042800000E0BEF1000F08BF80BD013802234FF0EF
:10429000000C00BFDAB201F802E042F0010201F8BE
:1042A00002C090F802E00233BEF1000F00F10100FD
:1042B000F0D180BD002804BF032070470023C0F860
:1042C000B832C0F8C4320029C0F8D03218BFC0F8E4
:1042D000B412012180F89C12027000F0D1B80000E5
:1042E00080B5D0F8C802FCF749FF40F20032C100A7
:1042F000C0F2013222FA01F1032888BF0321C8B2BB
:1043000080BD000080B5D0F8C802FCF70FFF40F276
:104310000032C100C0F2013222FA01F1032888BF45
:104320000321C8B280BD0000B0B5044689B194F83D
:104330009C0203284FD1D4F8B8024269002A4AD01F
:104340000020C4F8D40220469047002808BF00206F
:10435000B0BDD4F89402022836D1D4E907108142C6
:104360000DD90B1A204611461A46E361FFF762FE8B
:10437000204600210022002300F008F924E00FD19C
:10438000A16981420CD3D4F89802814208D2204618
:10439000002100220025FFF74DFEC4F89852E7E700
:1043A00094F89C02032808D1D4F8B802C16821B15E
:1043B0000020C4F8D402204688472046802100F01F
:1043C00087F92046FFF758FE94F8A00200281CBF8A
:1043D000002084F8A0020020B0BD000010B5044603
:1043E00069B194F89C0203281DD1D4F8B8028269FF
:1043F0000020CAB1C4F8D4022046904714E0D4F893
:104400009402032824D1D4E95703984210D9C01A42
:10441000C4F85C01984238BF0346204611461A464C
:10442000FFF700FE14E00020002808BF002010BDA8
:1044300094F89C02032808D1D4F8B802016921B18C
:104440000020C4F8D402204688472046FFF72EFEFD
:10445000002010BD0020704780B5012180F89C121B
:10446000D0F8B81231B14A6801799047002818BFD6
:10447000032080BD002080BDD0F8C802FCF7B2BE8A
:1044800010B5017809B1002010BD41F61011C2F23B
:104490000001C1F80805C0F8C8124FF0A04004227E
:1044A000C1E9000202200022C1E90302C1E90602BB
:1044B0000846C1E90822C1E90B22FDF71DFB0028CF
:1044C00018BFFBF7F9FF41F61014C2F200042046B2
:1044D0008021FCF7E1FD204600214022FCF7E0FDB1
:1044E000204601218022FCF7DBFD002010BD0000EA
:1044F0004AB2D0F8C80201F07F0101EBC10100EB24
:10450000810000F27E21002A48BF00F13E010878B8
:104510007047000080B5D0F8D42200EB8202D2F8B8
:10452000B82242B190F89C32032B02D1126A02B138
:104530009047002080BD032080BD000080B5D0F8EA
:10454000D42200EB8202D2F8B82242B190F89C3219
:10455000032B02D1526A02B19047002080BD032094
:1045600080BD000080B59446D0F8C8021A46634664
:10457000FCF742FE40F20032C100C0F2013222FAE2
:1045800001F1032888BF0321C8B280BD80B5D0F8EF
:10459000C802FCF765FE40F20032C100C0F20132F1
:1045A00022FA01F1032888BF0321C8B280BD0000B0
:1045B000F0B581B00126002580F89C62C0F89452C5
:1045C00004464560D0F8B802C4F8A45284F8A0525A
:1045D00050B142683AB12046002190470546002874
:1045E00018BF032500E000252046002100224023BB
:1045F0004027FFF7B7FF2046802100224023A4F880
:104600006461C4F86071FFF7ADFFA6842846276295
:1046100001B0F0BD90F89C12042904BF90F89D12DF
:1046200080F89C120020704780B590F89C120329F6
:1046300006D1D0F8B81219B1C969002918BF884746
:10464000002080BD024600201174704780B5D0F86C
:10465000C802FDF753FB40F20032C100C0F2013244
:1046600022FA01F1032888BF0321C8B280BD0000EF
:10467000B0B500F2AA250446284600F069F80120EA
:10468000C4F8940294F8AA02B4F8B02200F01F0112
:104690000229C4F8982208D001290CD089B92046F3
:1046A0002946BDE8B04000F08BB820462946BDE859
:1046B000B04000F09DBA20462946BDE8B04000F069
:1046C00053BB00F080012046BDE8B040AFF300804E
:1046D00080B5D0F8C802FCF7E9FD40F20032C10015
:1046E000C0F2013222FA01F1032888BF0321C8B2C7
:1046F00080BD000080B5D0F8C802FDF71BFB40F27A
:104700000032C100C0F2013222FA01F1032888BF51
:104710000321C8B280BD0000014690F89C0204222B
:1047200081F89D02002081F89C22704780B5D0F866
:10473000C802FCF7F5FD40F20032C100C0F20132C0
:1047400022FA01F1032888BF0321C8B280BD00000E
:104750000A7802704A7842704A8842808A88828049
:10476000C988C1807047000010B582B0044600209F
:10477000ADF80600B1B1D4F8D42204F52E70C4F817
:10478000B81250F82200C16A21B10DF10600884725
:10479000C4F8D002D4F8D8020130C4F8D8020020FE
:1047A00002B010BD032002B010BD0000D0F8B82246
:1047B000002A04BF0020704712681047FFF79ABF15
:1047C00070B582B00D460978044611F0600110D032
:1047D000402901D020292FD1D4F8D402294604EB56
:1047E0008000D0F8B8028268204602B0BDE8704070
:1047F0001047687809283BD8DFE800F0052A3A44DA
:104800003A536B3A839594F89C020138022800F2DF
:10481000A780E888022840F0F380D4F8A40203229D
:10482000002808BF0122214641F80C2F2046022211
:10483000FFF72EFC002508E020468021FFF748FF07
:10484000204600210025FFF743FF284602B070BD37
:1048500094F89C020138022800F28C8068880025B8
:104860000128F2D12046C4F8A452FFF71FFCECE760
:1048700020468021FFF72CFF204600210025FFF76E
:1048800027FFE2E76888022800F0A880012840F0AE
:10489000AD800120C4F8A4022046FFF707FC0025E4
:1048A000D3E7A888002851D1E88800284ED168882D
:1048B0007F284BD894F89C12032940F0368120467B
:1048C0008021FFF705FF204600210025FFF700FFAC
:1048D000BBE768884FF0FF3101EB10210022062969
:1048E000ADF8062000F25681DFE811F007009D00C8
:1048F000AA0054015401B700C200D4F8B4020268FF
:1049000041E1E88801283FD194F89C02411E022928
:1049100080F080800025214641F8085F2046012272
:10492000FFF7B6FB91E7688840F26015C2F2000518
:1049300010F0FE0F287031D020468021FFF7C8FE0E
:1049400020460021FFF7C4FE03257EE72046802194
:10495000FFF7BEFE204600210025FFF7B9FE74E7F1
:1049600020468021FFF7B4FE204600210025FFF7F6
:10497000AFFE6AE720468021FFF7AAFE204600210D
:104980000025FFF7A5FE60E720468021FFF7A0FE87
:10499000204600210025FFF79BFE56E794F89C2255
:1049A000C1B2032A00F07380022A40F07980002906
:1049B00000F08E8020466160FFF7F8FE0546002873
:1049C00000F0C68020468021FFF782FE20460021AD
:1049D000FFF77EFE022084F89C0236E7687984F8AF
:1049E000A0022046FFF762FB00252EE7204680212B
:1049F000FFF76EFE204600210025FFF769FE24E741
:104A000020468021FFF764FE204600210025FFF7A5
:104A10005FFE1AE7032851D1211D20460122FFF72E
:104A200037FB002511E7217CD4F8B80200290CBF20
:104A3000816AC16A0DF1060088470646022023E01C
:104A4000C0B2052800F2A680DFE800F003898D914E
:104A50009599D4F8B402426894E0207C002840F094
:104A60009980D4F8B802416B0DF1060088478EE0BA
:104A7000207C002840F08E80D4F8B802016B0DF144
:104A80000600884706460720707001208CE021B39D
:104A9000606888422DD12046FFF708FB0025D4E648
:104AA00020468021FFF714FE20460021FFF710FE6C
:104AB00029782046FFF7A8FA0325C6E6204680217C
:104AC000FFF706FE204600210025FFF701FEBCE6A9
:104AD0002046FFF7EBFA0025B7E6022084F89C0297
:104AE00020466160FFF790FA2046FFF7DFFA0025C5
:104AF000ABE6C1B22046FFF787FA2978204661600D
:104B0000FFF754FE054600286ED020468021FFF7AF
:104B1000DFFD20460021FFF7DBFD21792046FFF76E
:104B200073FA022084F89C028FE600F07F0520468D
:104B3000294684F89E52FFF789FD2046FFF7B6FA12
:104B4000002D0CBF0120022084F89C0200257CE689
:104B50002046FFF7ABFA032084F89C0275E6D4F8F0
:104B6000B40282680EE0D4F8B402C2680AE0D4F855
:104B7000B402026906E0D4F8B402426902E0D4F853
:104B8000B402826932B1207C0DF1060190470646DD
:104B9000012009E020468021FFF79AFD20460021F0
:104BA0000026FFF795FD002090B1EA886AB1BDF8B4
:104BB000060078B1904238BF024620463146ADF833
:104BC0000620FFF765FA00253FE62046FFF76EFA5C
:104BD00000253AE620468021FFF77AFD2046002195
:104BE000FFF776FD002530E62046FFF75FFA2CE65A
:104BF00070B50E460978357911F0600104460AD087
:104C0000402901D0202920D120462946FFF706FA65
:104C100010B3002070BD707858B3012842D003282B
:104C200071D194F89C02032840D1708840B915F0E6
:104C30007F0005D0F08818B920462946FFF748FDC7
:104C40002046FFF733FA002070BD20468021FFF791
:104C50003FFD204600215CE0D4F8B80282680020C5
:104C6000002AC4F8D402D4D020463146BDE87040B2
:104C7000104794F89C02032823D0022808BF5FEA5B
:104C8000456040D105F07F0000EB800004EB800020
:104C900000F114012A0658BF00F5AA71002008602F
:104CA00020465CE094F89C02032836D002282AD1E2
:104CB000680628D020462946FFF70AFD20468021B5
:104CC00027E005F00F0000EB8000802D04EB800052
:104CD0002CBF808CB0F86401A8B105F07F0000EB18
:104CE000800004EB800000F11406802D38BF00F531
:104CF000AA7668062FD020462946FFF7F9FB002840
:104D000018BF012028E020468021FFF7E1FC204663
:104D10000021FFF7DDFC002070BD708800287FF4C3
:104D200078AF680603D020462946FFF7D9FA204617
:104D3000FFF7BCF920462946FFF770F900287FF4F9
:104D400068AFD4F8B80282680020002AC4F8D40200
:104D50007FF48AAF5DE700203060204631460222B2
:104D6000FFF796F9002070BD70B50D46097804462E
:104D700011F0600118BF402913D194F89C0201384A
:104D8000022803D8A88810F0FE0F16D020468021F4
:104D9000FFF79EFC204600210026FFF799FC3046D5
:104DA00070BD2029E9D020468021FFF791FC2046E4
:104DB00000210026FFF78CFC17E0C1B22046FFF768
:104DC0002FF908B103260BE0D4F8B8028268002A54
:104DD000F8D00020C4F8D402204629469047064661
:104DE000E888002808BF002E01D0304670BD20465C
:104DF000FFF75CF9304670BD7047000040F2643048
:104E0000C2F200007047000010B50A784B78D0F865
:104E10001CE802F00F04012B4FEA421C17D10123BA
:104E2000A34043EA0E03C0F81C386044D0F80039B0
:104E30001B0427D4CB6800F51060097904686FF370
:104E4000DF2343EA814144EA8252114315E04FF4E3
:104E50008032A24042EA0E02C0F81C286044D0F81A
:104E6000002B12040ED4CA6800F5306009796FF384
:104E7000DF22036842EA8141194341F0805141F445
:104E800000410160002010BD0146D0F8000940F249
:104E9000FF729043C1F80009D1F8040840F4807211
:104EA0000020C1F80428704782B00499DDF808C0DA
:104EB000012940F64051C0F2030135D1826B4FF613
:104EC000BF7322F480328263C268CFF6BD731A408A
:104ED000C260C2680B9B22F44012012BC26003D156
:104EE000C26842F48012C26000220092009A01322D
:104EF0000092009A8A423AD80269B2F1FF3FF5DC8B
:104F000000220092026942F001020261009A01321D
:104F10000092009A8A422AD80269D207F6D100216B
:104F2000BCF1010F3CD133E0C268089B42F0400263
:104F3000C2600022019200BF019A01320192019ADF
:104F40008A4219D80269B2F1FF3FF5DC00220192D2
:104F5000026942F001020261019A01320192019A52
:104F60008A4209D80269D207F6D1002105E003215F
:104F7000BCF1010F14D10BE00321826B002B14BF95
:104F800022F4803242F480328263BCF1010F07D1F7
:104F9000826842F006028260826842F020028260EB
:104FA000084602B07047000080B54A780978012AA7
:104FB0004FEA411229D10244D2F8003947F6000CD9
:104FC000CEF6334C02F51062002B4FF0010E07D5E0
:104FD000136843F000631360136843F08043136069
:104FE00001F00F01D0F83C380EFA01F18B43C0F804
:104FF0003C38D0F81C3823EA0101C0F81C181068AE
:1050000000EA0C010020116080BD831803F53062B6
:10501000D3F800EB47F60003CEF6334303F1707C80
:10502000BEF1FF3F4FF4803EDADCD1E70146D0F815
:10503000000E20F00300C1F8000ED1F8040820F0A3
:1050400002020020C1F80428704700000146D0F891
:10505000000E20F00300C1F8000ED1F8040840F063
:1050600002020020C1F80428704700002DE9F04F2B
:1050700082B0DDF84880DDE90D4CDDF82CE000F56C
:1050800080720F25002600BF013D42F8046FFBD15E
:10509000B8F1000F07D0826B22F400128263826B9A
:1050A00042F4002210E0D0F8042842F00202C0F8D6
:1050B0000428826B42F400128263826B22F4002285
:1050C0008263826B22F4802282630022C0F8002E69
:1050D000D0F80028012CC0F8002806D1D0F800280C
:1050E000002B18BF42F0010203E0D0F8002842F084
:1050F000030240F64055C0F20305C0F80028002224
:10510000009200BF009A01320092009AAA4216D87B
:105110000269B2F1FF3FF5DC002200924FF4846295
:10512000026100BF009A002301320092009AAA4255
:1051300088BF012304D802699206F3D400E001235A
:1051400000220192019A01320192019AAA4214D8D6
:105150000269B2F1FF3FF5DC0022019210220261E8
:10516000019A002401320192019AAA4288BF0124C7
:1051700004D80269D206F3D400E001244FF00009FC
:10518000C0F81098C0F81498C0F81C9889B300F5BE
:1051900010664FF67F3A002235684FF09047002A9C
:1051A00008BF4FF0006707EAE57501323560C6F8C1
:1051B0001090C6F808A0914206F12006ECD100F547
:1051C00030664FF0000A4FF67F3B002537684FF0FE
:1051D0009042002D08BF4FF0006202EAE7720135ED
:1051E0003260C6F810A0C6F808B0A94206F1200641
:1051F000ECD1D0F81018BEF1000F21F48071C0F886
:1052000010186FF08041C0F81890416103D1816996
:1052100041F010018161816943F60002C8F23C024D
:105220001143BCF1000F816103D0816941F0080195
:105230008161B8F1010F05D1816941F0804141F0F0
:105240000401816143EA040002B0BDE8F08F000070
:105250000146806820F0010200208A60704700004B
:10526000F0B54B7891F800C0012B23D18E6900EB8B
:105270004C1E00254FF6FF74DEF81079CFF6F87556
:10528000CEF20704002E0EF510633FD03D401D61A5
:105290001D6925401D61CD6804F10054AE4288BFF0
:1052A0008D611D6945F400251D618D691E692C40C5
:1052B000344333E000EB4C13D3F8100B6FF31200C0
:1052C000C3F8100BD3F8100B6FF3DC40C3F8100BCE
:1052D0008F6903F53063002F1CBFCF688F61CF68E3
:1052E0004FF6FF70CF611E69CEF2070046F400262C
:1052F0001E6100F100501E6938403043012A1861D8
:1053000014D10869002818BF58610FE03C401C61A7
:105310001C6944F400241C611C692C40012A1C6196
:105320000BD14869002818BFCEF814094FF004418A
:105330001868084318600020F0BDDEF8002942F02C
:105340000442CEF8002989690029F4D00CF00F013D
:10535000012202FA01F100F63403E9E7D0F840C077
:1053600043F20B03C4F654739C4503D3D0F8003BBF
:10537000002B1ED40023C0F8103BD0F8103B0129AD
:1053800043F40023C0F8103BD0F8103B43F018035F
:10539000C0F8103BD0F8103B43F0C043C0F8103BBE
:1053A00007D1C0F8142BD0F8001B41F08021C0F8C1
:1053B000001B0020704700004A780B78012A4FEA52
:1053C000431210440DD1D0F8002922F40012C0F885
:1053D0000029097901F0FE01022913D100F51060BE
:1053E0000CE0D0F8002B22F40012C0F8002B097951
:1053F00001F0FE01022905D100F53060016841F09D
:1054000080510160002070470A784B785101012BD0
:10541000084406D1D0F80019002900F5106106D51E
:105420000AE0D0F8001B002900F5306104D41AB15D
:10543000086820F080400860086840F400120020EE
:105440000A607047F0B54B7891F800C0012B30D15D
:10545000D1F818E000EB4C14D4F81059BEF1000F4D
:1054600004F510634BD06FF312051D611D696FF3D6
:10547000DC451D61CD681F690EEB0506013EB6FBDC
:10548000F5F50026C1F6F87606EAC5453D431D61EF
:1054900075461E696FF3DF4535431D610D79012D9A
:1054A00038D11D6925F0C0451D611D6945F00055C5
:1054B0002FE000EB4C13D3F8107B6FF31207C3F807
:1054C000107BD3F8107B6FF3DC47C3F8107B8D693A
:1054D000CC68002D03F5306363D02F19013FB7FB73
:1054E000F4F7BEB27443CC610026C1F6F8761D69AC
:1054F00006EAC7472F436FF3DF441F6158E06FF39D
:10550000DC451D611D6945F400251D611D696FF3B2
:1055100012051D61012A15D14A69002A18BFC4F875
:105520001429097901295BD1D0F80808D4F80019A9
:10553000C0054FF0805058BF4FF000500843C4F8EA
:1055400000094DE000F510634FEA4C141D5945F079
:1055500004451D510D79012D49D1D0F80858E65860
:10556000ED054FF0805558BF4FF000553543E550DD
:10557000AAB91FFA8EF292B10B69032111FA8EF7C4
:10558000BE0800F580504FEA0C310122043B012E89
:1055900088BFBA0853F8047F013A0F50FAD10020AF
:1055A000F0BD1F696FF3DF4427431F614FF40024F0
:1055B0001F69012A47EA04071F6103D10A69002A0B
:1055C00018BF5A61097901290AD1D0F80808196869
:1055D000C0054FF0805058BF4FF00050084318608E
:1055E0004FF004411868084318600020F0BDBEF178
:1055F000000FD4D00CF00F01012202FA01F100F6E5
:105600003403EFE781B0002200924A780978012A3A
:105610004FEA41111AD100F510604258B2F1FF3F34
:105620002DDC0A5842F000620A500A5842F08042CB
:105630000A5042F2107200BF009B01330093009B9E
:1056400093421FD80B58002BF6D418E000F53060B9
:105650004258B2F1FF3F12DC0A5842F000620A5091
:105660000A5842F080420A5042F21072009B013305
:105670000093009B934205D80B58002BF6D40020D2
:1056800001B07047012001B07047000001468068FA
:1056900040F0010200208A607047000081B040F6AF
:1056A0004052C0F203020023009300BF009B01336D
:1056B0000093009B934215D80369B3F1FF3FF5DCDB
:1056C0008901002320310093016100BF009901315D
:1056D00000910099914205D801698906F6D400200D
:1056E00001B07047032001B070470000D0F80808EF
:1056F00000F0060180074FF0020058BF0F2000297C
:1057000008BF084670470000406900F0010070477C
:10571000D0F81818D0F81C08084080B27047000074
:10572000D0F81818D0F81C080840000C704700008A
:10573000D0F810C8D0F8343801F00F0223FA02F282
:10574000D20100EB4110D2B2D0F8080942EA0C01B4
:105750000840704700EB4111D1F8081BD0F814083D
:1057600008407047416980690840704780B59308D8
:1057700002F003020DD004394FF4805C012B98BF76
:10578000012300BF50F80CE0013B41F804EFF9D1D0
:10579000043172B14FF4805350F803C0002300BFAE
:1057A0002CFA03F0013A01F8010B100403F108038D
:1057B000F6D1084680BD0000B0B50446C06820F0B0
:1057C000C040E06091B1012926D1E068002540F099
:1057D0000050E0600120FBF771FA6069C00705F135
:1057E000010014D1312D0546F4D310E0E068002506
:1057F00040F08040E06000BF0120FBF75FFA606985
:10580000C00705F1010002D0312D0546F4D332382E
:10581000B0FA80F04009B0BD0120B0BD0246D0F81A
:10582000000801F07F0120F4FE60C2F80008D2F801
:10583000000840EA01110020C2F80018704700007B
:10584000022A02460DD145F24030CFF6277043F2CE
:1058500000530844C0F20C0398420DD24FF470502C
:1058600001E04FF41050D16821F47051D160D1683B
:1058700001430020D160704741F64060CFF61B70B5
:1058800044F240230844C0F20F03984202D24FF47E
:105890006050E8E7A1F5740044F68073A0F510505D
:1058A000C0F21203984202D24FF45050DBE7A1F14C
:1058B00083704DF22063A0F5E740C0F213039842D5
:1058C00002D24FF44050CEE74BF26060CFF6E56075
:1058D0004EF260330844C0F21603984202D24FF4ED
:1058E0003050C0E74DF20030CFF6CE6047F2407343
:1058F0000844C0F21B03984202D24FF42050B2E792
:1059000045F6C030CFF6B36049F2C0130844C0F288
:105910002103984202D24FF41050A4E7A1F1B770CE
:1059200047F22053A0F55850C0F23803984202D2F3
:105930004FF4005097E745F2E040CFF6596049F642
:10594000E0430144C0F241034FF4C050994238BFD4
:105950004FF4E05087E7000010B5DDF808C0BCF157
:10596000000F14D19BB103F1030C4FEA9C0E00F51C
:105970008054120301230439BEF1010F88BF4FEA9E
:105980009C0300BF51F8040F013B1051FAD10020D5
:1059900010BD0000FEE70000FBF79CFAFDF7EAFEF1
:1059A000FDF7B4FCFDF76EFCFDF748FDFDF722FCAA
:1059B000FDF744FCFDF7AEFDFDF766FDFDF710FEBB
:1059C000FDF728FDFDF77AFC00F00AF8FEE700007D
:1059D00080B5002808BF012000F0B6FB002080BD84
:1059E00080B500F0D9FB002080BD0000B0B584B0C8
:1059F00043698E4693B1846984B10589D0E9001C5E
:105A0000026928B2843D18BFC51CCDE90053604629
:105A10007346029400F056FD039010E00589D0E92A
:105A20000013028A28B2843D18BFC51C03AC184677
:105A300073460095019400F0D5FC012802D103982B
:105A400004B0B0BD002004B0B0BD0000F0B581B01E
:105A50000C4648F2443141F6A076C2F20001C2F28F
:105A600000060F683168002281F85220316805462F
:105A7000081D00F043FA10B1681C0FD01AE030681E
:105A800048F25802C06AC2F200020121136801FA0A
:105A900000F023EA00001060681C0BD154B130689C
:105AA000011D48F21C30C2F2000001B0BDE8F04018
:105AB00000F072BA30687C1944600BD341F6AC70C8
:105AC000C2F2000000683168043101B0BDE8F04066
:105AD00000F044BA41F6A470C2F2000000683168D8
