:020000040800F2
:1000000010B9002031030008FF4600080F3B00082C
:10001000FD46000821180008215B000800000000D0
:100020000000000000000000000000007102000855
:10003000ED18000800000000CD020008B1530008D0
:100040004B0300084B0300084B0300084B03000858
:100050004B0300084B0300084B0300084B03000848
:100060004B0300084B0300084B0300084B03000838
:100070003D1800084B0300084B0300084B03000821
:100080004B0300084B0300084B0300084B03000818
:10009000251800084B0300084B0300081B19000833
:1000A0004B0300084B0300084B0300084B030008F8
:1000B000855400084B0300084B0300084B0300085D
:1000C0004B0300084B0300084B0300084B030008D8
:1000D0004B0300084B0300084B030008355A000887
:1000E0004B0300084B0300084B0300084B030008B8
:1000F0004B0300084B0300084B0300084B030008A8
:100100004B0300084B0300084B0300084B03000897
:100110004B0300084B0300084B0300084B03000887
:100120004B0300084B0300084B0300084B03000877
:100130004B0300084B0300084B0300084B03000867
:10014000311800084B0300084B0300084B0300085C
:100150004B0300084B0300084B0300084B03000847
:100160004B0300084B0300084B0300084B03000837
:100170004B0300084B0300084B030008000000007D
:100180004B0300084B03000800F002F800F060F891
:100190000AA090E8000C82448344AAF10107DA45E2
:1001A00001D100F055F8AFF2090EBAE80F0013F0D4
:1001B000010F18BFFB1A43F001031847646C0000DD
:1001C000846C00000A444FF0000C10F8013B13F05F
:1001D000070408BF10F8014B1D1108BF10F8015BA0
:1001E000641E05D010F8016B641E01F8016BF9D193
:1001F00013F0080F1EBF10F8014BAD1C0C1B09D1EA
:100200006D1E58BF01F801CBFAD505E014F8016B5B
:1002100001F8016B6D1EF9D59142D6D370470000ED
:100220000023002400250026103A28BF78C1FBD8FF
:10023000520728BF30C148BF0B6070471FB506F09A
:10024000C3FD9DE8030000F0A7FE1FBD10B510BD63
:1002500000F034FF1146FFF7F1FF05F071FF00F0E9
:1002600052FF03B4FFF7F2FF03BC00F083FF00006E
:100270002C4B19680868B0E8F04F80F30988BFF389
:100280006F8F4FF0000080F311887047000000006E
:1002900008480068006880F308884FF0000080F389
:1002A000148862B661B6BFF34F8FBFF36F8F00DF64
:1002B00000BF00BF08ED00E0DFF80C00016841F46A
:1002C00070010160704700BF88ED00E0EFF3098026
:1002D000BFF36F8F134B1A681EF0100F08BF20ED8D
:1002E000108A20E9F04F106009B44FF0500080F3FD
:1002F0001188BFF34F8FBFF36F8F06F07FFB4FF076
:10030000000080F3118809BC19680868B0E8F04F54
:100310001EF0100F08BFB0EC108A80F30988BFF3FD
:100320006F8F70477C010020EFF30580704700005D
:100330000948804709480047FEE7FEE7FEE7FEE779
:10034000FEE7FEE7FEE7FEE7FEE7FEE704480549B5
:10035000054A064B704700007554000889010008E3
:100360001079002010B90020109900201099002069
:1003700070B405880E884468D1F804C05368B5424B
:1003800008D140884988884201BF11888D42518830
:10039000884203D070BC6FF00200704705FB00F18B
:1003A000880827D094ED001ADCED000A94ED010ACC
:1003B000DCED011A31EE201AD4ED020A70EE211A9A
:1003C0009CED020A83ED001AC3ED011A94ED031AA5
:1003D000DCED031A30EE800A401E71EE210A83ED37
:1003E000020A04F11004C3ED030A03F110030CF137
:1003F000100CD7D111F0030030D0B0F1004F30D243
:1004000000282BDD211F1B1FACF1040210F0010F8F
:100410000AD091ED010AD2ED010A091D121D30EE3C
:10042000200A83ED010A1B1D400817D091ED010A37
:10043000D2ED010A401E30EE200A83ED010A91ED53
:10044000020AD2ED020A01F1080102F1080230EEBF
:10045000200A83ED020A03F10803E7D170BC0020F3
:100460007047B4EC010A401EFCEC010A30EE200A91
:10047000A3EC010AF5D1F1E70180428043607047A7
:100480002DE9F34F84B004984068009048680190CB
:100490000498B0F800E04588DFEDFE0A00200290E5
:1004A000B0EE600AAE4506D108884988884204BF8C
:1004B0007146864504D06FF0020006B0BDE8F08FAB
:1004C00001985FEA010C18BFB7EE001A3DD000BFDB
:1004D000BEEB0C0117D0B1F1004F80F01F82002954
:1004E00011DD021F11F0010F1CBFC2ED010A121D28
:1004F0004B1006D0C2ED010AC2ED020A08325B1EA3
:10050000F8D100EB8100BCF10102A0EC011A19D076
:10051000B2F1004F80F00882002A13DD031F12F0B1
:10052000010F1CBFC3ED010A1B1D511008D000BFF5
:10053000C3ED010AC3ED020A491E03F10803F7D116
:1005400000EB8200BCF1010CC2D14FF00008039512
:10055000002D14BFB0EE602A002000F0BF8100BF64
:10056000009908FB05F001EB800B0199DBED002AF7
:1005700001EB80000346F0EE421AC64552D9AEEBBD
:100580000802ABEB850112F0010F17D001EB8501DA
:1005900091ED000AB5EEC00AF1EE10FA07DDB4EEF7
:1005A000E10AF1EE10FA09DDF0EE401A06E0B1EED4
:1005B000400AF4EEC01AF1EE10FAF5D3521031D021
:1005C00001EB850C9CED000AB5EEC00AF1EE10FAC5
:1005D00005DDB4EEE10AF1EE10FA09DD06E0B1EE58
:1005E000400AF4EEC01AF1EE10FA01D2F0EE401A11
:1005F00001EBC50191ED000AB5EEC00AF1EE10FA6B
:1006000005DDB4EEE10AF1EE10FA09DD06E0B1EE27
:10061000400AF4EEC01AF1EE10FA01D2F0EE401AE0
:10062000521ECDD1F5EEC01AF1EE10FA00F0738132
:10063000F5EEC02A0126F1EE10FA0099D4BFB1EE12
:10064000620AB0EE620AB4EE610AF1EE10FA1CBF63
:10065000AEEB0802B2F1010C47D005FB08F201EB4A
:10066000820292ED001A00BFB0EE410A05FB06F4CB
:10067000B5EEC00A00EB8404F1EE10FACCBFF0EE48
:10068000400AF1EE400AF4EE610AF1EE10FA28D1C8
:10069000B5EB080C11D0BCF1004F7DD2BCF1000FBE
:1006A0000BDD00BF92ED000AD1ED000ABCF1010C98
:1006B000E2EC010AA1EC010AF4D129000ED0B1F15B
:1006C000004F6AD2002909DD94ED000AD0ED000A3E
:1006D000491EE4EC010AA0EC010AF5D101200290C8
:1006E0000BE0761CBCF1010CBED10298012804D0AD
:1006F000F5EEC02AF1EE10FA7ED09BED000AB5EBC4
:1007000008009A465946064622D0B0F1004F74D2EE
:1007100000281DDD091F10F0010F06D0F0EE400A81
:1007200080EEA01A81ED011A091D401010D000BF03
:10073000D1ED010A401E80EE801A81ED011A91ED83
:10074000021AC1EE000AC1ED020A01F10801EFD15F
:10075000280026D0B0F1004F7ED2002821DDAAF17A
:10076000040110F0010F06D0D1ED010A80EE801ACD
:1007700081ED011A091D401013D000BFD1ED010A0F
:10078000401E80EE801A81ED011AD1ED020A80EE42
:10079000801A81ED021A01E0CBE0D6E001F10801F8
:1007A000ECD1DDE900124FF000095FEA0E0773D0CB
:1007B000C14504BF01EB860102EB850274D091EDC7
:1007C000000ADC465046331E35D01C46B6F1004FB9
:1007D0007ED2002C2FDD0B1FABF1040C16F0010FA5
:1007E0000FD0F0EE400ADCED011AB0EE601A00EE18
:1007F000E11A83ED011A01E08DE0B1E01B1D0CF15F
:10080000040C741015D000BFD3ED010A9CED011A41
:1008100040EE410AC3ED010AD3ED020A9CED021A33
:100820000CF1080C40EE410AC3ED020A0833641EC5
:10083000EAD101EB86012B0036D0B3F1004F72D222
:10084000002B31DDA2F1040CAAF1040013F0010F1A
:100850000CD0DCED010A00E08BE090ED011A001DE8
:1008600040EE410ACCED010A0CF1040C5C1019D0E9
:10087000DCED010A90ED011A40EE410ACCED010ACF
:10088000DCED020A90ED021A083040EE410ACCED90
:10089000020A03E0000000000DE005E0641E0CF118
:1008A000080CE5D102EB830201EB88017F1E09F100
:1008B00001097FF47DAF009808F10108001D009048
:1008C0000398401E03907FF44BAE0299012900E08B
:1008D00058E004BF06B0BDE8F08F00BFB5EEC00A17
:1008E000F1EE10FA7FF4E9AD04990EFB05F3002B4D
:1008F0004A684FF000010BD902EB810C9CED000A15
:10090000B5EEC00AF1EE10FA02D1491C8B42F3D8C1
:100910008B427FF4D2AD6FF00400CEE5E0EC010A2B
:10092000491EFBD1EFE538E0E0EC010A521EFBD195
:1009300008E692ED000AD1ED000ABCF1010CE2ECF0
:10094000010AA1EC010AF4D1B7E694ED000AD0ED5A
:10095000000A491EE4EC010AA0EC010AF5D1BDE64B
:10096000D1ED000A401E80EE801AA1EC011AF7D1E9
:10097000EEE6D3ED000A401E80EE801AA3EC011AC9
:10098000F7D10EE7BCEC011AD1ED000A5B1E40EE78
:10099000410AE1EC010AF5D14DE7B0EC011AD2EDC4
:1009A000000A5B1E40EE410AE2EC010AF5D17BE74A
:1009B0002DE9F04F82B04668536801930588478857
:1009C0004B88002000900888874201BFB2F800C021
:1009D0006545528893421EBF6FF0020002B0BDE829
:1009E000F08F9FED412A4FEA970EC7F3400B00BFEF
:1009F000DDE9000202EB800A4A6898464FF00009E0
:100A0000B0EE420AB4465FEA0E0025D092ED001A1D
:100A1000DCED001A02EB8302DCED010A01EE810A33
:100A200092ED001A02EB8302401ED2ED001A02EB97
:100A3000830200EE810A9CED021ADCED030A000439
:100A40000CF1100C000C01EE210A92ED001A02EBE1
:100A5000830200EE810AD9D117F0030026D0ACF151
:100A60000404A2EB830210F0010F08D002EB830212
:100A7000D4ED010A92ED001A241D00EE810A5FEA0E
:100A80000B0013D002EB830CD4ED010A9CED001A8D
:100A900002EBC302401E00EE810AD4ED020A92ED81
:100AA000001A04F1080400EE810AEBD109F10100FB
:100AB000AAEC010A1FFA80F9486800EB8902A8F144
:100AC00001001FFA80F8B8F1000F99D1009806EBE9
:100AD0008706184480B20090681E05042D0C87D14B
:100AE00002B00020BDE8F08F0000000070B405885F
:100AF0000E884468D1F804C05368B54208D14088D4
:100B00004988884201BF11888D425188884203D0AC
:100B100070BC6FF00200704705FB00F1880827D019
:100B200094ED001ADCED000A94ED010ADCED011AE7
:100B300031EE601AD4ED020A70EE611A9CED020AE1
:100B400083ED001AC3ED011A94ED031ADCED031ACC
:100B500030EEC00A401E71EE610A83ED020A04F114
:100B60001004C3ED030A03F110030CF1100CD7D1EC
:100B700011F0030030D0B0F1004F30D200282BDD4F
:100B8000211F1B1FACF1040210F0010F0AD091EDE0
:100B9000010AD2ED010A091D121D30EE600A83ED33
:100BA000010A1B1D400817D091ED010AD2ED010A80
:100BB000401E30EE600A83ED010A91ED020AD2ED8B
:100BC000020A01F1080102F1080230EE600A83ED29
:100BD000020A03F10803E7D170BC00207047B4ECAF
:100BE000010A401EFCEC010A30EE600AA3EC010A87
:100BF000F5D1F1E72DE9F04F02884768B0F802809F
:100C00004888D1F8049082B04FF0000A164682421C
:100C100007BF098888456FF0020002B018BFBDE821
:100C2000F08F4FEA980B02EB42000190C8F34000AE
:100C3000CDF8000009EB8A01BBF1000F33D0019819
:100C400001EB820C01EB80043B46E64601EBC2055A
:100C50004FEA0B0093ED000A401E81ED000A93ED70
:100C6000010A01EB02118CED000A93ED020A0CEB74
:100C7000021C85ED000A93ED030A05EB021584EDD5
:100C8000000A04EB021403F11003E3D10EEB82001F
:100C900000EB820000EB8201ABF10100504307EB57
:100CA0000B1701EB001118F0030C21D03B1FA1EB37
:100CB00082011CF0010F06D093ED010A01EB8201C5
:100CC0001B1D81ED000A009880B100BF93ED010A61
:100CD00001EB820401EBC20184ED000A93ED020AEC
:100CE000401E81ED000A03F10803EFD107EB8C07EA
:100CF0000AF101001FFA80FA701E0604360C99D121
:100D000002B00020BDE8F08F70B5064600F028F96B
:100D1000056806F10B0020F00704B4429CBF0020D8
:100D200070BD2B466A68BAB11068A04210D304F1B6
:100D3000080188423CBF5068586007D351681019B9
:100D400041601168091B016058601460101D70BD7E
:100D500013465268002AE7D12146284600F008F9D8
:100D60000028DED170BD53EA020C00F069802DE945
:100D7000F04B4FF00006002B1FBFB3FA83F503FAC8
:100D800005F424FA05F65E4012BF1643B2FA82F566
:100D900002FA05F4C5F120051EBF22FA05FC44EA5B
:100DA0000C04203556EA044C4FEA144418BF641C66
:100DB0004FF000084FF00009904271EB030C39D35B
:100DC000002919BFB1FA81F701FA07F6B0FA80F7E6
:100DD00000FA07F6C7F120071EBF20FA07FC46EA13
:100DE0000C062037B6FBF4FCA7EB0507103F07F015
:100DF0001F0BCBF120060CFA0BFB2CFA06F644BFB6
:100E0000B3460026202FA4BF5E464FF0000B5BEADE
:100E1000060C08BF4FF0010B19EB0B09ABFB027C72
:100E200048EB0608C01B06FB02CC0BFB03CC71EBA6
:100E30000C01C1E70B46024641464846BDE8F08B2F
:100E400013B54FF000004FF00001AFF30080BDE894
:100E50001C40704710B5203AC0F00B80B1E8185024
:100E6000203AA0E81850B1E81850A0E81850BFF494
:100E7000F5AF5FEA027C24BFB1E81850A0E8185033
:100E800044BF18C918C0BDE810405FEA827C24BF87
:100E900051F8043B40F8043B08BF7047D20728BF15
:100EA00031F8023B48BF11F8012B28BF20F8023B64
:100EB00048BF00F8012B704702F0FF0343EA03220A
:100EC00042EA024200F002B84FF000020429C0F0EA
:100ED000128010F0030C00F01B80CCF1040CBCF16C
:100EE000020F18BF00F8012BA8BF20F8022BA1EBBE
:100EF0000C0100F00DB85FEAC17C24BF00F8012BA3
:100F000000F8012B48BF00F8012B70474FF000029A
:100F100000B5134694469646203922BFA0E80C50EF
:100F2000A0E80C50B1F12001BFF4F7AF090728BFCA
:100F3000A0E80C5048BF0CC05DF804EB890028BF46
:100F400040F8042B08BF704748BF20F8022B11F06F
:100F5000804F18BF00F8012B7047704770477047EB
:100F600000487047B478002070477047704770475A
:100F700038B504460A4600206946AFF300800028D1
:100F800008BF38BD02460099204600F075F80120E0
:100F900038BD012000F08AB8F8B5AFF300800546EF
:100FA00000200C46102000BF0646A819A0420DD90B
:100FB000324669460020AFF30080070008BF00F00A
:100FC00075F80098A04218BF0546C419FFF7C8FF7E
:100FD00005600746F01D20F007004619284600F07E
:100FE0000AF8B44208BFF8BDA21B31463868BDE814
:100FF000F84000F041B800210160C0E901107047DD
:101000001020704770B50446051FFFF7A9FF006860
:10101000002C14BF446870BD002C18BFAC423CBF0C
:1010200020466468F8D301680A18AA4218BF4560D0
:1010300003D12A6805461144016028684119A1427C
:101040001CBF6C6070BD61686960216808442860DD
:1010500070BD10B500F00CF8006810BD10B5044666
:1010600000F006F8046010BD00487047AC7800201E
:1010700000487047AC780020034640688C46002842
:1010800018BF88423CBF03464068F8D3186818442C
:10109000884207D00CF1030020F00700001D411A20
:1010A000521A0146081D0A60FFF7ACBF10B500F0E8
:1010B00039F8BDE8104000F02FB870477546FFF7CB
:1010C000D3FFAE4605006946534620F0070085462B
:1010D00018B020B5FFF73AF9BDE820404FF0000600
:1010E0004FF000074FF000084FF0000B21F0070110
:1010F000AC46ACE8C009ACE8C009ACE8C009ACE853
:10110000C0098D46704710B50446AFF300802046F5
:10111000BDE81040FFF7A5B8002801D000F02AB8BC
:101120007047000010B5012805D0002103A000F091
:1011300027F8012010BD09A1F8E7000053494752E4
:10114000544D454D3A204F7574206F662068656197
:1011500070206D656D6F7279000000003A2048655F
:101160006170206D656D6F727920636F727275703A
:101170007465640001491820ABBEFEE7260002003A
:1011800070B505460C460A2000E06D1C00F011F811
:1011900035B128780028F8D102E0641C00F009F885
:1011A00014B120780028F8D1BDE870400A20AFF3D0
:1011B000008008B569468DF800000320ABBE08BD6D
:1011C00001221021014801F0F7B90000000002409F
:1011D00000221021014801F0EFB900000000024098
:1011E0002DE9F041FFF7F4FF802000F07BFA552055
:1011F00000F078FA552000F075FAFFF7E1FF96202D
:1012000000F080FBFFF7E4FF802000F06BFA552030
:1012100000F068FA552000F065FAFFF7D1FF96203C
:1012200000F070FBFFF7D4FFB6217E2000F0A0FA9B
:10123000FFF7C6FF502000F05AFBFFF7C9FF8020E0
:1012400000F050FA552000F04DFA552000F04AFA0F
:10125000FFF7B6FF962000F055FBFFF7B9FF80209F
:1012600000F040FA552000F03DFA552000F03AFA1F
:101270000446FFF7A5FF962000F044FB1E2C02D089
:10128000FF20BDE8F0810024174FFFF7A1FF04EB1A
:101290004405EE19785D717800F06AFAFFF790FF67
:1012A000962000F02FFBFFF793FF785D40F0800061
:1012B00000F018FA552000F015FA552000F012FA47
:1012C0000546FFF77DFF962000F01CFB7078A842D2
:1012D00004D004EB440038448078D2E7641CE4B2C4
:1012E000062CD2D30020CCE74C010020012211466D
:1012F000014801F061B90000000402400022012110
:10130000014801F059B9000000040240F8B500207E
:101310000090FFF7F3FF6946002000F0D7F9FFF7D0
:10132000E5FF962000F0EEFAFFF7E8FF694600209F
:1013300000F0CCF9FFF7DAFF962000F0E3FAFFF7B0
:10134000DDFFB621142000F013FAFFF7CFFF502085
:1013500000F0CDFAFFF7D2FF6946002000F0B6F9A1
:10136000FFF7C4FF962000F0CDFAFFF7C7FF6946EC
:10137000002000F0ABF9FFF7B9FF962000F0C2FAA9
:101380009DF800000F2801D0FF20F8BD0024154F64
:10139000FFF7B4FF04EB4405EE19785D717800F0B7
:1013A000E7F9FFF7A3FF962000F0ACFAFFF7A6FFDE
:1013B000785D694600F08AF9FFF798FF962000F003
:1013C000A1FA70789DF80010884204D004EB440024
:1013D00038448078F8BD641CE4B2062CD8D30020D1
:1013E000F8BD00005E0100207CB50446002000909E
:1013F0000190FFF7EDFE922000F074F90622694695
:10140000122000F051F9FFF7DBFE9DF800009DF877
:10141000011040EA012000B220849DF802109DF8DE
:10142000032041EA022109B261849DF804209DF85D
:10143000053042EA032212B2A28400EE100A454DA2
:10144000F8EEC00A95ED000A60EE800AC4ED010ACC
:1014500000EE901AF8EEE00A60EE800AC4ED020A8F
:1014600000EE902AF8EEE00A20EE800A84ED030AEE
:10147000FFF7AEFEA22000F035F9022269462220D5
:1014800000F012F9FFF79CFE9DF800009DF8011096
:10149000C00040EA5110A085B0F5806F02DBA0F5D6
:1014A0000060A085B4F92C00B4EE001A00EE100A1A
:1014B000F8EEC00AB3EE070A00EE810A84ED070ACF
:1014C000FFF71CFF08226946002000F0EDF8FFF747
:1014D0000DFF9DF800000F2814D19DF802009DF823
:1014E000031040EA0120E0849DF804009DF80510F7
:1014F00040EA012020859DF806009DF8071040EA8B
:1015000001206085B4F92600D4ED0C0A00EE100A23
:10151000B8EEC01A95ED010A50EE010AC4ED040AB6
:10152000B4F92800D4ED0D0A01EE100AB8EEC11A84
:1015300050EE010AC4ED050AB4F92A00D4ED0E0AF2
:1015400001EE100AB8EEC11A50EE010AC4ED060A07
:101550007CBD00004401002070B50024FFF740FE70
:1015600040EA0405FFF7D2FE40EA0504022000F03D
:10157000BEF9002CF2D1BDE87040014800F002B87D
:10158000A80400207CB504460020009001900025AE
:1015900041F28836FFF71CFE922000F0A3F80622E5
:1015A0006946122000F080F8FFF70AFE9DF801005E
:1015B0009DF8001041EA002020849DF803009DF86A
:1015C000021041EA002060849DF805009DF8041097
:1015D00041EA0020A084FFF791FE0822694600201E
:1015E00000F062F8FFF782FE9DF800000F2838D166
:1015F0009DF80300000201B29DF802000143E1845E
:101600009DF805009DF80420000200B210432085DB
:101610009DF807209DF80630120212B21A43628527
:1016200000EE101A1E49D4ED0C0AB8EEC01A91ED66
:10163000010A40EE010AC4ED0C0A00EE900A94ED96
:101640000D1AF8EEE00A00EE201A84ED0D1A00EEF5
:10165000902A94ED0E1AF8EEE00A00EE201A84EDBE
:101660000E1A012000F043F96D1CADB2B54291D3C2
:10167000D4ED0C0A9FED0B0A80EE801A84ED0C1A53
:10168000D4ED0D0A80EE801A84ED0D1AD4ED0E0A09
:1016900080EE801A84ED0E1A012020707CBD0000BF
:1016A0004401002000409C4570B50D46144640F0B2
:1016B000800000F017F806E0552000F013F805F858
:1016C000010B641EE4B2002CF6D170BD10B50C46BF
:1016D00040F0800000F006F8552000F003F820707C
:1016E00010BD000001B582B0002001904FF47A7067
:1016F0000090012301AA02A9024801F0F3FB9DF822
:1017000004000EBDE815002010B5F0EE400A9FED74
:10171000130A134804F03EFC1148124A90ED0A0ADD
:1017200010EE101A914204DD9FED0F0A80ED0A0AB7
:1017300008E0B5EEC00AF1EE10FA03D29FED0B0AF5
:1017400080ED0A0A90ED0A0ABDE81040BCEEC00A1E
:1017500010EE100A80B202F0DBB900000000204257
:101760008C0200200000FA440000FA44000000004F
:1017700010B50C46FFF7B6FF2046BDE81040FFF756
:10178000B1BF000000B58BB0282101A8FFF7BEFB58
:101790000121099100200790089101900290039087
:1017A0000490069005900A9001A9104800F0E2F814
:1017B00008B100F0B5F80D4800F029FC02210B48F3
:1017C00000F0C6F80E2006900A9001A9084800F023
:1017D000D1F808B100F0A4F8054800F018FC022187
:1017E000034800F0B5F80BB000BD000098150020CC
:1017F000C015002008B5242000900448044B01685F
:10180000A3F12402091D04F01BF908BDD016002025
:10181000200500200021014801F034BF8816002077
:10182000FEE70000014800F0B1B900009815002063
:10183000014800F0ABB90000C0150020014800F0DD
:1018400073BC0000141700200168CAB2103A1823B4
:10185000B2FBF3F2064B9B5CC3656FF30901032AED
:1018600002D9091D816500E08165806D7047000027
:10187000086E000810B5014600208A6A8B694FF097
:10188000C074002B0ED0B3F5005F1AD062B3012AEA
:101890002AD0022A28D0032A03D1C96AC90100D557
:1018A000012010BD1AB1012A06D0022AF9D1C96A55
:1018B000C901F6D5012010BDC96AA142FBD10120A2
:1018C00010BD52B1012A0AD0022A06D0032AF7D14C
:1018D000C96AA142F4D1012010BD012010BDC96A1E
:1018E000C901FBD5012010BD012010BD704770B5A6
:1018F000054600F069FE044600F066FE001BA842A3
:10190000FAD370BD70B5054602F0F4F8044602F053
:10191000F1F8001BA842FAD370BD202000F058BD9A
:1019200072B6FEE7F6EE000A60EE200A10EE100A2C
:101930000649A1EB600000EE100A20EE801AF7EED7
:10194000080A41EE400A20EE800A7047865A375F47
:1019500090F82020012A07D0022A05D0416A41F4DC
:101960008021416201207047006842690A43426158
:101970000020704710B590F82020012A07D0022AD5
:1019800005D0416A41F480214162012010BD3C48EC
:1019900000F50070026842F001020260026822F461
:1019A0007C52026002684B6A42EA032202600A7DAE
:1019B00002F01F0301229A40C3699343C361A0F55B
:1019C0000070CB69B3B9D0F80C329343C0F80C3235
:1019D0008C894B6864F31F434C6900EBC404C4F862
:1019E00040320C890B6864F31F434C6900EBC4045C
:1019F000C4F84432CB69012B16D1D0F80C32134312
:101A0000C0F80C320C884B6864F31F434C6900EB40
:101A1000C404C4F840320C89CB6864F31F434C699A
:101A200000EBC404C4F844328B697BB1D0F80432B3
:101A30001343C0F804320B6973B1D0F81432134366
:101A4000C0F81432096A01290CD010E0D0F8043231
:101A50009343C0F80432EEE7D0F814329343C0F851
:101A60001432EFE7D0F81C121143C0F81C12D0F862
:101A7000001221F00101C0F80012002010BD00008A
:101A800000640040704730B590F82040012C07D02A
:101A9000022C05D0416A41F480214162012030BD11
:101AA00021B104682469A4075FD003E00468E468F6
:101AB000A40754D04FF4D874056804EB01142D59D1
:101AC00005F004059560F5B305682D59ED085560DE
:101AD00005682C5904F00204D4604FF4DA740568E8
:101AE00004EB01142D5905F00F05156105682D59FA
:101AF000C5F30725956105682C59240C54614FF4F2
:101B0000DC72046802EB0112A4581C700468A4582B
:101B1000240A5C700468A458240C9C700468A258C1
:101B2000120EDA704FF4DE72046802EB0112A45850
:101B30001C710468A458240A5C710468A458240C1D
:101B40009C71046800E016E0A258120EDA71B9B177
:101B50000068016941F020010161002030BD416A47
:101B600041F400114162012030BD416A41F400118D
:101B70004162012030BD05682D596D0D1560A7E744
:101B80000068C16841F02001C160E6E72DE9F05F1F
:101B90000546002428684669D0F804908768D0F884
:101BA0000CA0D0F810B0D0F81880F10748D0F90791
:101BB00014D001218160B80703D5284600F054FAFB
:101BC0000CE0780702D54FF4006407E0380702D52F
:101BD0004FF4805402E0284600F045FAF80516D587
:101BE00029684FF480708860B80503D5284600F056
:101BF0003DFA0CE0780502D544F4005407E03805BE
:101C000002D544F4804402E0284600F02EFAF8039E
:101C100016D529684FF480308860B80303D528466C
:101C200000F026FA0CE0780302D544F4004407E003
:101C3000380302D544F4803402E0284600F017FA55
:101C4000300707D55FEACA6004D544F400742968F8
:101C50001020C86070074FF0080707D55FEA0A70C8
:101C600004D52868C760284600F0B8F9B00706D543
:101C70002868C068800702D0284600F0B1F97006D5
:101C800007D55FEACB6004D544F48064296810204E
:101C90000861B00607D55FEA0B7004D528680761B4
:101CA000284600F0B1F9F00606D5286800698007DB
:101CB00002D0284600F0A9F9B00308D55FEAC96050
:101CC00005D5296810204860284600F09FF9F003E8
:101CD00007D55FEA097004D528684760284600F0F8
:101CE000C8F9300446D55FEA497040D5F00504D5FF
:101CF0005FEAC87001D044F00104B00504D55FEA82
:101D0000887001D544F00204700504D55FEA48707C
:101D100001D544F00404300529D518F0700F26D001
:101D200008F07000402815D006DC102809D02028C3
:101D30000AD0302816D10AE050280ED0602811D1E0
:101D40000EE044F008040DE044F010040AE044F012
:101D5000200407E044F0400404E044F0800401E083
:101D600044F480742868816921F0700181612968D8
:101D700004204860002C05D0686A20436862284629
:101D8000FFF780FEBDE8F09F70B50446002C03D03D
:101D900094F8200010B104E0012070BD204600F04E
:101DA0009DF82068016841F00101016000F00CFC21
:101DB000054605260CE000F007FC401B0A2807D961
:101DC000606A40F40030606284F82060012070BDD9
:101DD00020684068C007EED02068016821F0020149
:101DE000016000F0F1FB05460CE000F0EDFB401B4C
:101DF0000A2807D9606A40F40030606284F82060E5
:101E0000012070BD206840688007EED4207E012844
:101E10003FD02068016821F080010160607E0128C8
:101E20003DD02068016821F040010160A07E0128BA
:101E30003BD02068016821F020010160E07E01288C
:101E400039D02068016841F010010160207F01282D
:101E500037D02068016821F008010160607F012807
:101E600035D02068016821F004010160D4E9020145
:101E70000843D4E90412114308436168491E08432A
:101E80002168C86100206062012084F820000020E1
:101E900070BD2068016841F080010160BEE72068E4
:101EA000016841F040010160C0E72068016841F02D
:101EB00020010160C2E72068016821F01001016083
:101EC000C4E72068016841F008010160C6E72068A6
:101ED000016841F004010160C8E700002DE9F0410C
:101EE00086B00446142101A8FFF710F8364B374A94
:101EF000DFF8D08018682168344C03260227401C84
:101F0000103200254FF0090C414527D118600128F7
:101F100007D1106840F000701060106800F0007089
:101F20000090206840F008002060206800F0080061
:101F300000900196029703950496CDF814C001A96C
:101F4000234800F051FA00220521142000F0DAFBAA
:101F5000142000F0C9FB06B0BDE8F081DFF8748002
:101F60004145F8D1116841F080611160116801F0BC
:101F7000806100911860012807D1106840F000705E
:101F80001060106800F000700090206840F00200BF
:101F90002060206800F0020000906020019002970D
:101FA00003950496CDF814C001A90B4800F01CFA63
:101FB00000220521402000F0A5FB402000F094FB0A
:101FC000C9E700000064004074010020303802407E
:101FD000000C02400068004000040240704700000E
:101FE00070B5084B0021A3F120041D46221DFFF708
:101FF0004AFD20682A46211D0068BDE8704003F0B4
:1020000053BD0000A004002070477047704770B5B2
:10201000044694F82000012805D0606A40F40020AE
:102020006062012070BD022084F8200020680168F1
:1020300021F00101016000F0C7FA05460DE000F053
:10204000C3FA401B0A2808D9606A40F40030606275
:10205000052084F82000012070BD20684068C0077A
:10206000EDD1606270BD7047704770477047704730
:10207000704770472DE9F0410446A76D00F0A4FABF
:10208000054694F835000026022806D080206065B9
:1020900084F834600120BDE8F0812068016821F0F7
:1020A000160101602068416921F080014161206CC6
:1020B00008B9A06C20B12068016821F00801016016
:1020C0002068016821F0010101600BE000F07CFA5A
:1020D000401B052806D9202034342062032060707C
:1020E0002670D8E720680068C007EFD134343F205D
:1020F00094F828108840B860012060702670002095
:10210000C9E790F83510022903D0802141650120EC
:102110007047052180F835100068016821F0010141
:1021200001600020704700002DE9F84304464FF09D
:102130000009CDF800906F484FF416510068B0FBCD
:10214000F1F7A56D2E6894F85C00082202FA00F100
:10215000314210D02068016849070CD5016821F090
:102160000401016094F85C0002FA00F1A960606D5E
:1021700040F00100606594F85C104FF0010808FA27
:1021800001F0304208D021684969090604D5A860E9
:10219000606D40F00200606594F85C100420884097
:1021A000304208D021680968890704D5A860606DAD
:1021B00040F00400606594F85C10102088403042C4
:1021C00020D02168096809071CD5A860206801682B
:1021D00049030CD50068000304D4216C91B120465A
:1021E00088470FE0A16C69B1204688470AE0016882
:1021F000C90503D4016821F008010160216C09B10F
:102200002046884794F85C102020884030424CD00B
:1022100021680968C90648D5A86094F835000528E2
:102220000BD020680168490330D50068000328D42A
:10223000616C51B32046884737E02068016821F07F
:10224000160101602068416921F080014161206C24
:1022500008B9A06C20B12068016821F00801016074
:1022600094F85C103F208840A86084F8358084F89A
:102270003490216D00293BD001B02046BDE8F043E9
:102280000847E16B09B1204688470EE00168C9059F
:1022900007D4016821F01001016084F8358084F8CA
:1022A0003490E16B09B120468847606D00281FD04B
:1022B000606DC00714D0052084F8350020680168DF
:1022C00021F0010101600098401C0090B84203D841
:1022D00020680068C007F6D184F8358084F834900F
:1022E000E16C002904D001B02046BDE8F043084766
:1022F000BDE8F883780100202DE9F041044600F0A4
:1023000063F905465CB1022084F83500002684F8A4
:1023100034602068016821F0010101600DE00120B6
:10232000BDE8F08100F050F9401B052805D92020B8
:102330006065032084F83500F2E720680068C00774
:10234000F0D121680A6820480240D4E9010318430B
:10235000D4E903352B43184363691843A369184331
:10236000E3691843236A18431043626A042A03D1BD
:10237000D4E90B231A43104308602068406920F019
:102380000700656A29460543012704290DD1A06A83
:102390000543E06A48B12046FFF76CFA28B14020B7
:1023A000606584F835700120BAE7206845612046F1
:1023B000FFF74AFA94F85C203F21914081606665FE
:1023C00084F835700020ABE73F8010F070470000C4
:1023D00010B504490A68024202D00860FFF7F6FF10
:1023E00010BD0000143C01402DE9F84F0022DFF839
:1023F0009C914FF0010803274FF00F0C09F1040ADC
:10240000A9F1040B08FA02F50B682B40AB426ED120
:102410000C7904F00304012C01D0022C15D186683C
:10242000540007FA04FE26EA0E06D1F80CE00EFA74
:1024300004FE4EEA060EC0F808E04468AC430D798D
:10244000C5F300159540254345600C79E443A40786
:1024500008D0C568540007FA04F6B5438E68A64054
:102460002E43C6600C7904F00304022C11D1D40869
:1024700000EB8406356A5407E40E0CFA04FE25EAE4
:102480000E05D1F810E00EFA04FE4EEA050EC6F86D
:1024900020E00568540007FA04F6B5430E7906F00B
:1024A0000306A6402E4306604C6814F4403F67D0F4
:1024B000374C256845F480452560246804F4804441
:1024C0000094344C22F003052E19D6F808589407CE
:1024D0004FEA147E0CFA0EF4A5432F4CA04201D112
:1024E000002424E02D4CA04202D101241FE047E04B
:1024F0002B4CA04201D1022419E02A4CA04201D168
:10250000032414E0284CA04201D104240FE0274CFE
:10251000A04201D105240AE0254CA04201D10624A5
:1025200005E0244CA04201D1072400E0082404FA6D
:102530000EF42C43C6F80848D9F800409C434D6877
:10254000ED0200D51C43C9F80040DAF800409C4376
:102550004D68AD0200D51C43CAF80040DBF80040CE
:102560009C434D68AD0300D51C43CBF80040074D9C
:10257000083D2C689C434E68F60300D51C432C6034
:10258000521C102AFFF43EAFBDE8F88F083C014012
:102590004438024000300140000002400004024084
:1025A00000080240000C02400010024000140240EB
:1025B00000180240001C0240002A01D081617047CF
:1025C000090481617047000001488068704700007D
:1025D000E40100200248816802781144816070475C
:1025E000E401002010B50B48016841F4007101605E
:1025F000016841F480610160016841F4807101600B
:10260000032000F09FF80F2000F006F800F050F8CB
:10261000002010BD003C024030B587B005460024C4
:102620001F48016841F001010160006800F00100ED
:10263000009001A902A800F045F90598B0B100F09A
:1026400065F940001749B0FBF1F1491E16484FF0FB
:102650008042026040F2E732C260416004618460FF
:10266000846100F07BFD04461CB115E000F04EF9DA
:10267000E8E70D4800F0BCFD04466CB91C2000F0F2
:1026800033F8102D07D2002229461C2000F03AF81A
:102690000648056000E0012407B0204630BD000078
:1026A0004038024040420F0074170020E80100202B
:1026B00082B00C48016841F480410160006800F478
:1026C000804001900748001F016841F0805101607F
:1026D000006800F08050019000220F21901E02B08F
:1026E00000F010B844380240002809DB00F01F0257
:1026F000012191404009800000F1E020C0F8001164
:1027000070470000F0B40D460D4B1B68C3F3022365
:10271000C3F10704042C00D90424191D072901D290
:10272000002300E0DB1E012606FA04F1491E2940C1
:1027300099409E40761E16403143F0BC03F018BA13
:102740000CED00E000F00701054A10684FF6FF03AA
:10275000184040EA01200349084310607047000018
:102760000CED00E00000FA05704700002DE9F0478D
:1027700004460D46002C13D0DFF82891D9F800004C
:10278000EFB200F00700A8420CD289F80070D9F827
:10279000000000F00700A84204D00120BDE8F08747
:1027A0000120FBE72068404E810712D5400703D582
:1027B000306840F4E05030602078000703D530687E
:1027C00040F4604030603068A16820F0F0000843B9
:1027D00030602078C00731D033496068083901285B
:1027E00008D002280BD0032809D0096889070BD428
:1027F0000120D3E70968890306D40120CEE70968E0
:10280000890101D40120C9E7316821F003010143A6
:102810003160FFF7D9FE804641F2883A07E0FFF7C2
:10282000D3FEA0EB0800504501D90320B6E730687D
:10283000616800F00C00B0EB810FF0D1D9F8000016
:1028400000F00700A84209D989F80070D9F8000003
:1028500000F00700A84201D001209FE72078400740
:1028600005D53068E16820F4E050084330602078F6
:10287000000706D53068216920F4604040EAC100B5
:10288000306000F063F83168084AC1F30311515C0D
:10289000C8400749086007480068FFF7BDFE0020F0
:1028A0007CE70000003C024008380240F06D000860
:1028B00078010020E801002001490120C864704728
:1028C000000047420F2202600B4A136803F0030323
:1028D0004360136803F0F0038360136803F4E0536C
:1028E000C360126802F46042D208026103480068C3
:1028F00000F007000860704708380240003C0240C2
:1029000001480068704700007801002000B5FFF71B
:10291000F7FF04490968044AC1F38221515CC840A9
:1029200000BD000008380240006E000800B5FFF747
:10293000E7FF04490968044AC1F34231515CC840C9
:1029400000BD000008380240006E000810B51748AE
:10295000006810F00C01164816D0164B042912D04E
:10296000082911D1114C241F216801F03F02216870
:1029700049020AD52068C0F38810A0FB0301002398
:10298000FEF7F1F909E0184610BD21680023C1F3F4
:102990008811A1FB0001FEF7E6F92168C1F30141AE
:1029A000491C4900B0FBF1F010BD0000083802409E
:1029B0000024F400001BB70010B5054800680006AD
:1029C00005D5FFF7D1FE02498020891C087010BD93
:1029D0000C3802402DE9F84F0446002C13D0207823
:1029E000DFF8A083C007A8F1040556D008F1040061
:1029F0000168C1F3810101290CD00068C0F3810096
:102A0000022803D00DE00120BDE8F88FD8F80000BF
:102A1000400206D5286880033FD5606870BB01205E
:102A2000F2E76068B0F5803F10D0B0F5A02F12D06B
:102A3000286820F480302860286820F480202860EE
:102A40006068E0B1FFF7C0FD064614E0286840F476
:102A500080302860F4E7286840F4802028602868E7
:102A600040F480302860EBE7FFF7AEFD801B642860
:102A700001D90320C8E728688003F5D50DE0FFF7EA
:102A8000A3FD064606E0FFF79FFD801B642801D9E1
:102A90000320B9E728688003F5D42078BA4F80076F
:102AA0004FF0000948D5B748001D016811F00C0F20
:102AB00008D00068C0F38100022813D1D8F80000C4
:102AC00040020FD42868800704D5E068012801D0AF
:102AD000012099E72868216920F0F80040EAC10048
:102AE000286029E0E068B8B101203860FFF76CFD8C
:102AF000064606E0FFF768FD801B022801D9032087
:102B000082E728688007F5D52868216920F0F80059
:102B100040EAC10028600FE0C7F80090FFF754FDBD
:102B2000064606E0FFF750FD801B022801D903206E
:102B30006AE728688007F5D42078000729D5DFF8F0
:102B400044A2924861690AF1700A89B101210160C9
:102B5000FFF73AFD064606E0FFF736FD801B022828
:102B600001D9032050E7DAF800008007F4D510E01F
:102B7000C0F80090FFF728FD064606E0FFF724FDA9
:102B8000801B022801D903203EE7DAF80000800705
:102B9000F4D42078400778D54FF0000A79483C30CB
:102BA0000068C0000BD477483C30016841F0805188
:102BB0000160006800F0805000904FF0010ADFF8DB
:102BC000D0B1DBF80000C00514D4DBF8000040F4FD
:102BD0008070CBF80000FFF7F7FC064606E0FFF731
:102BE000F3FC801B022801D903200DE7DBF800006D
:102BF000C005F4D5634EA0686C3601280FD00528B7
:102C000012D0306820F001003060306820F00400FD
:102C10003060A068F8B1FFF7D7FC834617E0306852
:102C200040F001003060F4E7306840F004003060AC
:102C3000306840F001003060EBE7FFF7C5FCA0EB27
:102C40000B0141F28830814201D90320DCE6306873
:102C50008007F2D510E0FFF7B7FC834609E0FFF7E5
:102C6000B3FCA0EB0B0141F28830814201D9032073
:102C7000CAE630688007F2D4BAF1010F05D14148A5
:102C80003C30016821F080510160A069C0B33D492A
:102C9000091D09684FF0FF36C1F38101022946D0B2
:102CA000022805D0C7F86090FFF78EFC04463AE092
:102CB000C7F86090FFF788FC814607E0FFF784FCC7
:102CC000A0EB0900022801D903209DE628688001B5
:102CD000F4D4D4E907010843616AA26A890106EBCA
:102CE000520241EA0241084394F82C1040EA016084
:102CF000C8F8000001203866FFF766FC044607E0CC
:102D00003DE0FFF761FC001B022801D903207BE6B0
:102D100028688001F5D532E0FFF756FC001B022839
:102D200001D9032070E628688001F5D427E0012846
:102D300023D0D8F80000E26900F4800191421AD152
:102D4000226A00F03F01914215D147F6C071626AD4
:102D50000140B1EB821F0ED1A26A00F4403106EBB4
:102D60005202B1EB024F06D194F82C1000F07060C3
:102D7000B0EB016F03D0012046E6012044E60020BD
:102D800042E600000438024000004742800E4742FD
:102D90000070004070B50446002C09D0606A002520
:102DA00040B125616561A56294F8510040B10CE025
:102DB000012070BD6068B0F5827FF4D0E561F2E774
:102DC00084F85050204600F045F8022084F8510065
:102DD0002068016821F040010160A088218900F489
:102DE000827001F404410843A18901F400610843A1
:102DF000217C01F002010843217D01F0010108431B
:102E0000218B01F400710843217F01F03801084350
:102E100094F8201001F080010843218D01F4005145
:102E2000084321680860A069042101EA104094F871
:102E3000241001F010010843216848602068C1692E
:102E400021F40061C1616565012084F85100002012
:102E500070BD0000F0B587B00446142102A8FEF74B
:102E600055F81C492068884232D100271A48016869
:102E700041F480510160006800F4805001901648D0
:102E80001438016841F002010160016801F002019B
:102E90000191016841F001010160006800F001004A
:102EA00001901820029002260396049703250595A9
:102EB0000524069402A90948FFF796FA802002909B
:102EC000039604970595069402A90548FFF78CFA26
:102ED00007B0F0BD00300140443802400004024019
:102EE000000002402DE9F84F04460A9E8A469346A8
:102EF0001F4601254FF0000894F8500001280ED01D
:102F0000012084F85000FFF75FFB814694F85100E0
:102F1000616801280DD0B1F5827F07D102E002205F
:102F2000BDE8F88FA16809B9042802D04FF0020863
:102F3000C3E0BAF1000F28D0BBF1000F25D0380054
:102F400023D094F85100042802D0052084F85100C1
:102F500000206065C4F838B0E787A787C4F830A0C0
:102F6000E786A7862064606420680168490603D468
:102F7000016841F040010160E068B0F5006F07D0E2
:102F80006068E8B3012F48D07DE04FF0010894E07D
:102F9000606808B1012F39D1206B21680088C860B2
:102FA000206B801C2063E08E401EE0862EE02068AF
:102FB000816889070DD5E18E59B1012D09D1216BA9
:102FC0000988C160206B801C2063E08E401EE08673
:102FD000002520688168C9070BD0E18F49B1C0681E
:102FE000A16B0880A06B801CA063E08F401EE0876F
:102FF0000125FFF7E9FAA0EB0900B04206D300E093
:103000000BE0701C02D04FF0030856E0E08E002861
:10301000CDD1E08F0028CAD13BE0206B2168007839
:103020000873206B401C2063E08E401EE0862AE07F
:103030002068816889070DD5E18E59B1012D09D12C
:10304000216B09780173206B401C2063E08E401EC9
:10305000E086002520688168C9070BD0E18F49B15F
:10306000C068A16B0870A06B401CA063E08F401E7D
:10307000E0870125FFF7A8FAA0EB0900B04201D3D1
:10308000701C11D186B1E08E0028D1D1E08F0028CC
:10309000CED14A463146204602F0FEF838B14FF014
:1030A00001082020606508E04FF0030805E0A068F3
:1030B00018B92068C16880680090012050346070A1
:1030C0000020207040462BE77047704770B590F89D
:1030D0003C20012A31D0012680F83C60022280F891
:1030E0003D2002685468936824F070050C682C43F6
:1030F0005460134C0268A24214D0B2F1804F11D038
:10310000104CA2420ED0104CA2420BD00F4CA24247
:1031100008D00F4CA24205D00E4CA24202D00E4C59
:10312000A24204D123F080034968194391603C30E6
:10313000467000210170002070BD022070BD0000AB
:10314000000001400004004000080040000C004066
:1031500000040140004001400018004010B5044642
:10316000002C03D094F83D0010B107E0012010BD01
:10317000002084F83C00204600F016F8022084F875
:103180003D00211D206802F083F901203D3460726A
:103190006070A070E07020716071A071E0712072A9
:1031A0002070002010BD000008B500680D4988425D
:1031B00009D10D48016841F004010160006800F088
:1031C0000400009008BD09498842FBD10648001D53
:1031D000016841F400310160006800F400300090A3
:1031E00008BD000000080040403802400044014093
:1031F00090F83D10012901D001207047022180F88C
:103200003D100168CA6842F00102CA6000681449B2
:10321000884214D0B0F1804F11D0124988420ED0AC
:10322000114988420BD01149884208D01049884280
:1032300005D01049884202D00F49884209D18168DF
:1032400001F00701062908D0016841F00101016081
:1032500003E0016841F001010160002070470000B7
:10326000000001400004004000080040000C004045
:1032700000040140004001400018004070B50446C1
:10328000002594F83C00012817D0012684F83C6002
:10329000022084F83D002068826822F0770222F440
:1032A0007F4282600868502838D00DDC202853D037
:1032B00005DC90B3102811D14EE0022070BD3028FB
:1032C0004AD040280AD13DE0602831D070280CD087
:1032D000B0F5805F03D0B0F5005F12D001253C341B
:1032E000667000202070284670BDCB68D1E90121AE
:1032F000206802F040F92068816841F07701816020
:10330000EDE7CB68D1E90121206802F034F92068AB
:10331000816841F480418160E1E71DE0CA68496845
:10332000206802F00BFA5021206802F02EF9D6E74F
:10333000CA684968206802F012FA6021206802F029
:1033400024F9CCE7CA684968206802F0F7F94021FF
:10335000206802F01AF9C2E722680146104602F01E
:1033600014F9BCE7704770B50446206801694FF056
:103370000005C943890716D4C168C943890712D417
:10338000E91E01610120207720688069800703D051
:103390002046FFF7E7FF05E0204600F0DFF8204673
:1033A00000F06FF9257720680169C943490718D4EF
:1033B000C168C943490714D46FF0040101610220B8
:1033C00020772068806910F4407F03D02046FFF703
:1033D000C9FF05E0204600F0C1F8204600F051F991
:1033E000257720680169C943090717D4C168C94313
:1033F000090713D46FF008010161042020772068C9
:10340000C069800703D02046FFF7ACFF05E02046E7
:1034100000F0A4F8204600F034F92577206801690F
:10342000C943C90618D4C168C943C90614D46FF08A
:1034300010010161082020772068C06910F4407FE6
:1034400003D02046FFF78EFF05E0204600F086F807
:10345000204600F016F9257720680169C943C9079D
:1034600008D1C168C943C90704D1891E016120463A
:1034700000F076F920680169C943090609D4C168DA
:10348000C943090605D46FF0800101612046FFF7AA
:103490001BFE20680169C943490609D4C168C943B4
:1034A000490605D46FF040010161204600F05FF944
:1034B00020680169C94389060BD4C168C9438906DC
:1034C00007D46FF0200101612046BDE87040FFF78E
:1034D000FCBD70BD30B587B00446142102A8FDF7CD
:1034E00015FD194D20681949022201230324A84221
:1034F00013D1086840F008000860086800F0080070
:10350000019050030290039204930594069202A93D
:103510000F48FEF769FF07B030BD0E4DA842FAD143
:10352000086840F020000860086800F02000019062
:1035300040200290039204930592069402A9064843
:10354000FEF752FFE7E70000000800403038024075
:10355000000C02400044014000140240704770B566
:1035600004460D46002694F83C0001280FD00120A7
:1035700084F83C006AB1042A1FD0082A32D00C2AF1
:1035800044D00126002084F83C00304670BD022063
:1035900070BD2946206802F001F82068816941F079
:1035A000080181612068816921F00401816120683E
:1035B00081692A6911438161E4E72946206802F0A4
:1035C00021F82068816941F4006181612068816986
:1035D00021F480618161206881692A6941EA0221C0
:1035E0008161CFE72946206802F046F82068C1696A
:1035F00041F00801C1612068C16921F00401C16185
:103600002068C1692A691143C161BBE72946206866
:1036100002F06AF82068C16941F40061C161206864
:10362000C16921F48061C1612068C1692A6941EAE8
:103630000221C161A6E710B50446002C03D094F81E
:103640003D0010B107E0012010BD002084F83C00CF
:10365000204600F015F8022084F83D00211D206866
:1036600001F016FF01203D3460726070A070E070C0
:1036700020716071A071E07120722070002010BD77
:103680007047704710B50446002909D004290AD0B4
:1036900008290BD094F8410001280AD0012010BD60
:1036A00094F83E00F8E794F83F00F5E794F84000FE
:1036B000F2E70220A9B3042937D0082938D084F8CA
:1036C00041000122206801F049FF1E4920681E4A7E
:1036D000884201D0904203D1436C43F400434364D9
:1036E0002068884213D0B0F1804F10D0174988422B
:1036F0000DD0174988420AD01649884207D0904217
:1037000005D01549884202D01449884213D18168F6
:1037100001F00701062912D0016841F001010160A2
:103720000DE0FFE784F83E00CBE784F83F00C8E7F0
:1037300084F84000C5E7016841F001010160002004
:1037400010BD0000000001400004014000040040E2
:1037500000080040000C00400040014000180040FC
:103760000068B0F1804F01D1FEF734BF7047704759
:1037700010B504460C482268824202D1204602F06D
:1037800097F9012020632068C16841F01001C160F1
:103790002068416941F040014161A06B0068016807
:1037A00041F00101016010BD004800407047000079
:1037B000F8B5044622681068D168536900F00F0616
:1037C000002E08D1850606D58D0604D52046BDE815
:1037D000F84002F012B80025002E66D003F0010672
:1037E00001F49077374360D0C20705D0CA0503D5EE
:1037F000226C42F001022264420705D5DA0703D0A9
:10380000226C42F002022264820705D5DA0703D057
:10381000226C42F004022264020707D501F0200264
:10382000324303D0226C42F008022264226C002A48
:1038300031D0800604D5880602D5204601F0DDFF90
:1038400020684069C0F38010216C090700D438B3A8
:10385000204601F09EFF2068406940061CD5206884
:10386000143050E8001F21F0400140E80012002A07
:10387000F5D1A06B60B157490165A06BFEF741FC23
:10388000002808D0A06B016D01B0BDE8F0400847EA
:103890002046FFF78BFFF8BD2046FFF787FFF8BDF6
:1038A0002046FFF783FF2564F8BD236B012B7ED1F3
:1038B000C3067CD5CB067AD5106850680090506955
:1038C0004FF02003400643D5A16B0868406880B2E2
:1038D0000028E9D0A28D8242E6D9E085C869B0F51A
:1038E000807F2DD020680C3050E8001F21F48071BB
:1038F00040E80012002AF5D12068143050E8001F7B
:1039000021F0010140E80012002AF5D120681430AE
:1039100050E8001F21F0400140E80012002AF5D1D4
:1039200084F83E30256320680C3050E8001F21F0F9
:10393000100140E80012002AF5D1A06BFEF79AFBB7
:10394000A08DE18D401A81B22046FFF711FFF8BD2E
:10395000A08DE18D401A81B2E08D0028F7D00029BA
:10396000F5D020680C3050E8002F22F4907240E827
:103970000026002EF5D12068143050E8002F22F0E8
:10398000010240E80026002EF5D184F83E30256380
:1039900020680C3050E8002F22F0100240E800238D
:1039A000002BF5D12046FFF7E3FEF8BDFFE7020646
:1039B00006D50A0604D52046BDE8F84002F00AB84C
:1039C0004006F2D54806F0D52046BDE8F84001F0A3
:1039D00007BF00008357000870B50446002C04D0D0
:1039E00094F83D00002510B106E0012070BD84F878
:1039F0003C50204600F022F8242084F83D00206846
:103A0000C16821F40051C160204601F059FF2068CF
:103A1000016921F4904101612068416921F02A0186
:103A200041612068C16841F40051C16025642020D3
:103A300084F83D0084F83E00002070BD70B586B06B
:103A40000646142101A8FDF761FA2449306888422E
:103A500041D100252248016841F4802101600068BD
:103A600000F4802000901E481038016841F00401E5
:103A70000160006800F0040000904FF44060019085
:103A8000022002900395032004900720059001A9CD
:103A90001448FEF7A9FC154C134820604FF0006055
:103AA0006060A560E560401420616561A5618010DB
:103AB000E061256265622046FEF71EFC08B1FDF755
:103AC0002FFFB463A663002205212720FEF71AFE0C
:103AD0002720FEF709FE06B070BD00000048004038
:103AE00040380240000802402860024014170020BD
:103AF0007047704710B5FEF767FD4FF08041496A87
:103B000000EB4002C2EBC01001EBC00010BDFEE7AD
:103B100002460021014802F004B800008816002087
:103B200010B51249124800F0FFFB11480F49203030
:103B300000F0FAFB0E480D49403000F0F5FB0C4850
:103B40000C4A0221603000F007FE0A4A0848903A09
:103B5000BDE81040A2F190019FED071ADFED070AC2
:103B6000B2EE040AB03001F013B8000000000020EB
:103B70002C0200202C010020002474496F12833A8B
:103B80002DED028B82B000200190FFF7C9FF364C6B
:103B9000374D04F13C0808F1200708F14008DFED3B
:103BA000338A04F1280905F1100A04F1EC069FEDAF
:103BB000318A02F0F3FA01902D48FDF715FC2A48EE
:103BC00095ED010A3C3000F0C1FB84ED0A0A95ED49
:103BD000020A384600F0BAFB84ED0B0A95ED030AA1
:103BE000404600F0B3FB84ED0C0AD5E905122869C4
:103BF000C4E90812E0611C48B0EE680A4A46514622
:103C0000EC3001F023F896ED680A20EE080A84ED06
:103C1000000A96ED660A20EE080A84ED010A96ED88
:103C2000670A20EE080A84ED030A94ED070A20EEE5
:103C3000080A84ED040A94ED090A20EE080A84EDCE
:103C4000050A94ED080A20EE080A84ED060A019898
:103C5000400003D195ED070AFDF756FD012101A8AB
:103C600002F08FFAA5E70000F00100206F12833AFE
:103C7000A8040020E12E65422DE9F04104460D46DE
:103C800016461F460420208008206080002D00D0AA
:103C900017B9FE2084F8C40025716671A771002051
:103CA0002062012204F12003114604F11800FCF700
:103CB000E3FB20887843FDF727F8E060218879430B
:103CC000FDF724F920886843FDF71EF8C4F8C80002
:103CD00021886943FDF71AF92179012204F12C00AA
:103CE000D4F8C830FCF7C8FB20886843FDF70CF80F
:103CF000C4F8CC0021886943FDF708F92179012235
:103D000004F13400D4F8CC30FCF7B6FB20887843BB
:103D1000FCF7FAFFC4F8D40021887943FDF7F6F8E0
:103D2000A179012204F14400D4F8D430FCF7A4FBBB
:103D3000607988B320887043FCF7E6FF2061218812
:103D40007143FDF7E3F820887043FCF7DDFFC4F80A
:103D5000D00021887143FDF7D9F86179012204F17F
:103D60003C00D4F8D030FCF787FB218805FB06F037
:103D700006464843FCF7C8FF0246C4F8D80021882D
:103D800010467143FDF7C2F86279217904F14C00C5
:103D9000D4F8D830FCF770FB208805FB05F670439B
:103DA000FCF7B2FFC4F8DC0021887143FDF7AEF8E0
:103DB000217904F154000A46D4F8DC30FCF75CFBAE
:103DC00020887043FCF7A0FFC4F8E000218871430D
:103DD000FDF79CF8217904F15C000A46D4F8E03044
:103DE000FCF74AFB218807FB05F080464843FCF7B7
:103DF0008BFFC4F8E400218801FB08F1FDF786F889
:103E00002279A17904F16400D4F8E430FCF734FBA2
:103E1000208805FB07F800FB08F0FCF775FFC4F8E5
:103E2000E800218801FB08F1FDF770F8A2792179FB
:103E300004F16C00D4F8E830FCF71EFB20887043D6
:103E4000FCF762FFC4F8EC0021887143FDF75EF8CF
:103E5000217904F174000A46D4F8EC30FCF70CFB2D
:103E600020887043FCF750FFC4F8F00021887143AC
:103E7000FDF74CF8217904F17C000A46D4F8F030C3
:103E8000FCF7FAFA20887043FCF73EFFC4F8F40010
:103E900021887143FDF73AF8217904F184000A463C
:103EA000D4F8F430FCF7E8FA20887F437843FCF735
:103EB0002BFFC4F8F80021887943FDF727F8A17992
:103EC00004F18C000A46D4F8F830FCF7D5FA2088C3
:103ED00000FB08F0FCF718FFC4F8FC00218801FB88
:103EE00008F1FDF713F8A279217904F19400D4F8D0
:103EF000FC30FCF7C1FA2188207941434843FCF7A4
:103F000003FFC4F80001228821794A435143FCF79A
:103F1000FDFF217904F19C000A46D4F80031FCF73A
:103F2000ABFA2188207941434843FCF7EDFEC4F801
:103F30000401228821794A435143FCF7E7FF2179A4
:103F400004F1A4000A46D4F80431FCF795FA21885C
:103F5000207941434843FCF7D7FEC4F80801228882
:103F600021794A435143FCF7D1FF217904F1AC0098
:103F70000A46D4F80831FCF77FFA208821794843B3
:103F8000FCF7C2FEC4F80C01218822795143FCF7EA
:103F9000BDFF2179012204F1B400D4F80C31FCF703
:103FA0006BFA208821794843FCF7AEFEC4F8100173
:103FB000218822795143FCF7A9FF2179012204F1DC
:103FC000BC00D4F81031FCF757FA20886843FCF79E
:103FD0009BFEC4F8340121886943BDE8F041FCF739
:103FE00095BF2DE9F047044694F81401400756D4D4
:103FF00004F16C0104F164000D460746FCF7FAFD7C
:10400000683484F85C0034F8040CA087E08AE08708
:10401000683C04F1A40204F17C0116468846384647
:10402000FCF7C6FC6E3484F85600E08EE0872088EA
:10403000A4F840006E3C04F1AC0217462946304615
:10404000FCF7B6FC8C3484F8380020882082608825
:1040500060828C3C04F19C02914604F18C0138464C
:10406000FCF786F96E3484F8560039464846FCF76A
:1040700007FA84F85600E089E086208820873246D7
:1040800029464046FCF794FC84F856006E3C04F147
:10409000940239463046FCF78BFC84F8C400BDE836
:1040A000F08710B504462288A079E1684243D4F82D
:1040B000D400FCF7CFFE2188A0794143E068FCF7EB
:1040C00025FF6079002808D0228821694243D4F86E
:1040D000D000BDE81040FCF7BDBE10BD2DE9F04199
:1040E000044694F81401C0062AD434F8940F2082B0
:1040F00034F82E0C6082943C04F1A402154604F1BD
:10410000640104F19400FCF753FC7E3484F846000B
:10411000E08CE085208820867E3C04F1AC0204F12E
:104120007C0116460F462846FCF742FC84F8C40082
:1041300004F1740231463846FCF7D8FC84F8C40018
:10414000BDE8F0812DE9F041044694F814018007A0
:104150002BD404F15C0104F154000D460746FCF732
:1041600049FD84F8C40004F17C02164604F1740190
:104170003846FCF71DFC683484F85C00A08AA087F0
:1041800034F80A0CE087683C04F1A402174629467B
:104190003046FCF70DFC84F8C400324604F184017B
:1041A0003846FCF7E5F884F8C400BDE8F08110B5A6
:1041B00004462046FFF775FFD4F8181109B12046D0
:1041C0008847204600F076F8D4F81C1109B1204643
:1041D00088472046FFF7B6FFD4F8201109B12046E2
:1041E00088472046FFF7FDFED4F8241109B1204688
:1041F0008847204600F01EF8D4F8281109B120465F
:1042000088472046FFF76AFFD4F82C1109B12046F1
:104210008847D4F8301109B1204688472288207990
:10422000D4F8C8104243D4F83401FCF713FED4F894
:10423000340110BD2DE9F041044694F81401000743
:1042400036D4B4F86400A4F8B4000125A4F8B6503C
:1042500004F1B40204F1340116460F4604F164007F
:10426000FCF7A6FBA634A07734F8620CE082258325
:10427000A63C04F1BC029046314604F14400FCF730
:1042800035FC943484F83000208820846584943C84
:104290003246414604F19400FCF78AFB84F8C400DE
:1042A00004F12C0231463846FCF762F884F8C40069
:1042B000BDE8F0812DE9F041044694F81401C007EF
:1042C0002AD1627904F12C0104F1540004F134057F
:1042D00022B32279A4F8B4200126A4F8B66004F130
:1042E000B4021746FCF764FB84F8C4002079A4F8F4
:1042F000B400A4F8B66004F1BC02164604F13C0117
:1043000004F14C00FCF754FB04F8C40F2A46314674
:104310003846FCF72DF82070BDE8F0812A46FCF7FE
:1043200047FB84F8C400F7E7D1E900238968C0E9B6
:104330000523C1619FED040A80ED010A002181601F
:10434000C1600161704700000000000080ED010ABB
:104350000178002907D180ED020A80ED030A80ED83
:10436000040A01210170D0ED030AC0ED020A90EDAC
:10437000041A80ED031AD0ED061A61EEA00AD0ED02
:10438000051A41EE810A90ED071A41EE000AC0EDD0
:10439000040AB0EE600A704710B5FDF73BFAFDF76E
:1043A000F1F9FDF727FABDE81040FDF7D5B8000098
:1043B00010B510480E490160032141600021816061
:1043C000C1604FF4102202614FF400124261017685
:1043D000012242768176C17601774177FDF7D4FCE0
:1043E000002803D0BDE81040FDF79ABA10BD0000C8
:1043F000006400409815002010B510480E49016077
:104400000321416000218160C1604FF410220261EC
:104410004FF4001242610176012242768176C17624
:1044200001774177FDF7B0FC002803D0BDE81040CC
:10443000FDF776BA10BD000000680040C0150020EE
:1044400008B50948016841F400110160006800F4F2
:1044500000100090002205210C20FEF753F9BDE862
:1044600008400C20FEF740B93038024000B587B054
:104470001C2206496846FCF7EDFC0021684601F065
:1044800099FE0349086007B000BD0000D46D000824
:1044900070010020F0B587B0142102A8FCF736FDAA
:1044A0003148016841F002010160016801F0020138
:1044B0000191016841F008010160016801F0080103
:1044C0000191016841F004010160016801F00401FB
:1044D0000191016841F080010160016801F08001F3
:1044E0000191016841F020010160016801F02001A3
:1044F0000191016841F001010160006800F00100D4
:1045000001901A4F012210213846FEF755F8184E37
:10451000012211463046FEF74FF810200290012488
:10452000039404940225059502A93846FDF75CFF23
:10453000302002904FF404100390049402A90D4817
:10454000FDF752FF029403940494059502A93046A6
:10455000FDF74AFF002205211720FEF7D3F81720A8
:10456000FEF7C2F807B0F0BD30380240000002404C
:10457000000402400008024010B510480E490160D6
:104580004FF48271416000218160C16001610122AC
:104590004261520282611022C26101624162816203
:1045A0000A21C162FEF7F6FB002803D0BDE81040E7
:1045B000FDF7B6B910BD000000300140E81500203D
:1045C00010B588B01C2101A8FCF7A0FC15481449BF
:1045D0000160532141600024846044F61F61C16082
:1045E00004618461FEF7BAFD08B1FDF799F90D4841
:1045F000FFF721F808B1FDF793F9602001900294CC
:1046000003940594002201A90648FEF7A8FF08B10B
:10461000FDF786F90348FEF75DFF08B010BD000006
:10462000004401408816002010B58EB000240A9482
:104630000B940C940D94089409941C2101A8FCF788
:1046400065FC1E481C490160A7214160846040F25E
:10465000CF71C16004618461FEF780FD08B1FDF790
:104660005FF94FF480500A900AA91448FEF706FE3D
:1046700008B1FDF755F91148FEF7DDFF08B1FDF768
:104680004FF90894099408A90C48FEF71FFD08B1DA
:10469000FDF746F9602001900294039405940822E6
:1046A00001A90648FEF75BFF08B1FDF739F9034899
:1046B000FEF710FF0EB010BD0008004040160020AD
:1046C00010B50C480A4901600B4941600021816026
:1046D000C16001610C2242618161C161FFF77CF917
:1046E000002803D0BDE81040FDF71AB910BD000046
:1046F00000480040D0160020A0860100FEE7FEF72B
:104700005BF9FEE70021C160016141619FED060A8E
:1047100080ED060A80ED070A80ED080A80ED090A9F
:1047200080ED0A0A7047000000000000816A21F055
:104730000042C2F1FF42D20F002A09D14FF07F425E
:10474000B2EB410F01D1012100E00021012902D18A
:10475000022180F84610704770B504461546217056
:104760000648E0640648A0642046FFF7CBFFA36C30
:1047700029462046984784F8460070BD0547000842
:10478000854700080278002A1DD0E1B191ED000AAA
:1047900080ED0B0A91ED010A80ED0C0A91ED020A01
:1047A00080ED0D0A91ED030A80ED0E0A91ED040AE9
:1047B00080ED0F0A91ED050A80ED100A0021A0F8A6
:1047C00044100020704701207047000010B50446D7
:1047D000903434F8901C14F88C0C4143E06FFCF7D3
:1047E00095FBE06B90ED000AD0ED010A20EE000A87
:1047F00000EEA00AD0ED020A00EEA00AD0ED030AF6
:1048000000EEA00AFDF78EF8E06F80ED000AE06B85
:10481000D0ED000A20EE800A80ED000AE06BE16F27
:1048200090ED010AD1ED000A20EE200A80ED010A88
:10483000E06BE16F90ED020AD1ED000A20EE200A54
:1048400080ED020AE06BE16F90ED030AD1ED000A02
:1048500020EE200A80ED030AE06BB6EE000A14EDAC
:10486000221AD0ED010AE06C60EE800A60EE810A47
:10487000C0ED040AE06B14ED221AD0ED020AE06CE0
:1048800060EE800A60EE810AC0ED050AE06BFEEE84
:10489000000A54ED221A90ED001AE06C21EE201A65
:1048A00021EE211A80ED0A1AE06B54ED221A90EDE8
:1048B000031AE06C21EE001A21EE211A80ED0B1A8A
:1048C000E06B54ED221A90ED031AE06C21EE201AF1
:1048D00021EE211A80ED101AE06B54ED221A90EDB2
:1048E000001AE06C21EE201A21EE211A80ED111A37
:1048F000E06B90ED021AE06C21EE000A14ED221A32
:1049000020EE010A80ED160AE06B90ED010AE06CE2
:1049100020EE200A54ED220A20EE200A80ED170A2C
:10492000E06D0F4B903C016F9FED0E0A0E4ADFEDDC
:104930000F0A994202DD80ED1C0A03E0914201D981
:10494000C0ED1C0AD4F8EC00D0F88C10994202DDBE
:1049500080ED230A10BD9142FCD9C0ED230A10BDA1
:1049600000401C4600401C4600401CC600401CC6BF
:104970002DE9F0410446A43420892080012565807A
:10498000A43C04F1A40204F1AC00164604F1BC01FD
:104990000746FCF70DF8AC3420762581208860812D
:1049A000AC3C04F1B40188463846FCF723F984F89E
:1049B000C40004F1180231464046FBF7F9FF84F8C1
:1049C000C40094ED090AB6EE001AD4ED080A20EEF0
:1049D000011AF4EEC10AF1EE10FA01D284F829505E
:1049E000F4EEC00A0020F1EE10FA30DD94F8291040
:1049F00069B3217D29B194F82810491C84F8281046
:104A000001E084F8280094F82810322907D9F534F9
:104A100004F8CC0CE07F20F01000E0773DE0228825
:104A200020794243D4E93201FCF714FA2288207934
:104A300042434243D4E93B01FCF70CFA94F81401D9
:104A400040F0100084F814010120BDE8F0819FEDD2
:104A5000141A20EE011AF4EEC10AF1EE10FA0FDD7D
:104A600094F8291061B19FED0F1A70EE600AD4F826
:104A70000C1120EE010A80EE801A81ED001A05E08B
:104A8000D4F80C11B7EE000A81ED000AF53404F8F1
:104A9000CD0CE07F20F01000E0770020D5E700008B
:104AA000CDCCCC3D6666663F10B50446683434F81C
:104AB000681C14F8620C414314F8640C4143E06F25
:104AC000FCF724FA606EF8EE000A90ED020AE06F3F
:104AD00020EE200A80ED000A606EB0EE000A90ED34
:104AE000031AE06F21EE001A80ED011A606E90ED5E
:104AF000001AE06F21EE201A80ED021A606E90ED30
:104B0000011AE06F21EE001A80ED031A606E90ED3D
:104B1000011AE06F21EE001A80ED061A606E90ED2A
:104B2000001AE06F21EE001A80ED071A606E90ED1A
:104B3000031AE06F21EE001A80ED081A606E90ED06
:104B4000021AE06F21EE001A80ED091A606E90EDF6
:104B5000001AE06F21EE001A80ED0C1A606E90EDE5
:104B6000011AE06F21EE201A80ED0D1A606E90EDB3
:104B7000021AE06F61EE200AC0ED0E0A606ED0ED01
:104B8000030AE06F20EE800A80ED0F0A10BD0000DE
:104B900010B5044684ED080AC4ED090A84ED0A1A2A
:104BA000E162226303230022062104F13400FFF7AF
:104BB00063F80020DC3404F8940C04F87F0C9FEDBB
:104BC0001E0A04ED210A04F8800C206AB7EE000AE0
:104BD00080ED000A206A9FED190A80ED010A206A23
:104BE00080ED020A206A80ED030A154860671548C7
:104BF000A0671548E06794F86C0040F0040040F0AE
:104C0000080084F86C0034F8A82C14F8A40C54F8AC
:104C1000B01C42434243606BFCF71CF934F8A82CEB
:104C200014F8A40C54F8AC1C42434243606CBDE839
:104C30001040FCF70FB9000077CC2B3200000000C9
:104C4000CD470008A94A0008894F000870B50446FE
:104C50002DED028B1546F83404ED2F0A91ED000A74
:104C600054ED390A30EE600A84ED200AD1ED010AD4
:104C700014ED381A70EEC10AC4ED210A91ED021A42
:104C800054ED371A31EE611A84ED221A20EE000A33
:104C900000EEA00A01EE010AFCF744FE84ED240AAE
:104CA00094ED200AF6EE000A20EE201A14ED2F0AE9
:104CB00021EE001A84ED251A94ED211A21EE201A16
:104CC00021EE001A84ED261A94ED221A61EE200AD4
:104CD00020EE800A84ED270A34F8C42C14F8C00CA6
:104CE00054F8CC1C42434243A069FCF7B3F894ED5E
:104CF000250AA069B1EE400A80ED010A94ED260A6A
:104D0000A069B1EE400A80ED020A94ED270AA0697D
:104D1000B1EE400A80ED030AA06994ED250A80ED0A
:104D2000060AA06994ED270A80ED080A94ED260A88
:104D3000A069B1EE400A80ED090AA06994ED260A47
:104D400080ED0C0A94ED270AA069B1EE400A80EDCF
:104D50000D0AA06994ED250A80ED0F0AA06994ED73
:104D6000270A80ED120AA06994ED260A80ED130A45
:104D700094ED250AA069B1EE400A80ED140A07CD32
:104D8000C4E91E12606794ED1D0AD4ED1E0A20EEE0
:104D9000000A00EEA00AD4ED1F0A00EEA00AFCF7FC
:104DA000C1FD84ED230AD4ED1D0A54F8B80C20EEA1
:104DB000800A80ED000A94ED1E0AD4ED230A54F80F
:104DC000B80C20EE200A80ED010A94ED1F0AD4ED04
:104DD000230A54F8B80C20EE200A80ED020AD4ED24
:104DE000240AF7EE008A644988EEA00AF83C10EE27
:104DF000100A88420EDAD4ED610A604988EEA00AF2
:104E000010EE100A08445E49884203D2012084F85B
:104E1000480002E0002084F84800B03414ED240A71
:104E200054ED1D0AA06F20EE200A80ED000A14ED5B
:104E3000240A54ED1D0AA06F20EE200A80ED070A17
:104E400014ED240A54ED1D0AA06F20EE200A80ED17
:104E50000E0A14ED240A54ED1D0AA06F20EE200A5C
:104E600080ED150A14ED230A54ED1D0AA06F20EE03
:104E7000200A80ED1C0A14ED230A54ED1D0AA06FD0
:104E800020EE200A80ED230AE06F14ED220A80ED67
:104E9000000AE06F14ED220A80ED040AE06F14EDC1
:104EA000220AB03C80ED080A04F13400FFF77FF9D4
:104EB000D4F8680190ED001A84ED011A90ED010A12
:104EC00084ED020AD0ED021AC4ED031A90ED032A14
:104ED00084ED042AD0ED040AC4ED050AD0ED050ADC
:104EE000C4ED060ADFED270AC4ED070A61EE012AC8
:104EF00021EE021AB0EE008AF0EE680A40EE002AB7
:104F000000EE211A52EE880A21EE080A00F0D6FEC1
:104F100084ED660A94ED020AD4ED040A94ED031AB6
:104F200020EE200AD4ED010A00EEC10AF8EE000AD4
:104F300020EE200A00F02CFE84ED670A94ED010AB1
:104F400094ED041AF0EE680A60EE001A41EE011AC0
:104F500051EE880AD4ED021A20EE210AD4ED031A8C
:104F600001EE810A20EE080A00F0A8FE84ED680A2E
:104F7000BDEC028B70BD00009A99993E3233EBBEB6
:104F8000FFFF0F00000000002DE9F05F044604F170
:104F90006C0104F164008B460546FBF72BFE683478
:104FA00084F85C0034F8040CA087E08AE087683C51
:104FB00004F1A40204F17C01924689462846FBF7DD
:104FC000F7FC6E3484F85600E08EE0872088A4F861
:104FD00040006E3C04F1AC02164659465046FBF7C1
:104FE000E7FC8C3484F83800208820826088608256
:104FF0008C3C04F19C02154604F18C013046FBF711
:10500000B7F9A834207731462846FBF739FA2077DC
:1050100034F8440CA0810125E581606A90ED010A15
:10502000D0ED030A90ED021A60EE200A90ED000A1E
:10503000606E40EE410AB0EE000A60EE800AC0EDFC
:10504000000A606AD0ED000A90ED011AD0ED031A53
:1050500060EE810A90ED021A606E41EE210A20EEA8
:10506000800A80ED010A606A90ED000A60EE000A95
:1050700090ED010A40EE400A90ED020A40EE400A2F
:1050800090ED030A606E40EE000AC0ED020A34F8AB
:10509000640CA082E582A83C04F1BC0204F1B401D6
:1050A0001746884604F14400FBF720FD84F8C4004D
:1050B0002046FFF75DFC00287DD16E34E089E08654
:1050C00020882087524659464846FBF771FC84F8F1
:1050D00056006E3C04F19402914631465046FBF76F
:1050E00067FC84F8C40000200FE0D4F8FC10D4F86A
:1050F0000C2101EB800191ED000AD2ED000A20EEB7
:10510000200A81ED000A401CC0B2B4F89610B4F831
:10511000942051438142E8DC34F8940F2084658464
:10512000424639464846FBF743FC84F8300014F801
:105130006B0C943C58B3D4ED020A9FED232AD4F8AB
:105140000C01DFED221A20EE821A90ED040AB4EE73
:10515000C10AF1EE10FA02DD80ED041A08E060EEFB
:10516000A10AB4EEE00AF1EE10FA01D2C0ED040A91
:10517000D4ED020AD4F80C0120EE821A90ED050A53
:10518000B4EEC10AF1EE10FA02DD80ED051A08E076
:1051900060EEA10AB4EEE00AF1EE10FA01D2C0ED21
:1051A000050AD4F80C019FED0A0A80ED030A04F108
:1051B0002C02414600E005E004F13400FBF7D8F88A
:1051C00084F8C400BDE8F09F0AD7233C0AD723BC6B
:1051D00000000000F0B500285DD000295BD0027807
:1051E000437842EA0322C2F30A020A8043788478B1
:1051F000DB0843EA4413C3F30A034B808478C57881
:10520000A40944EA8504057944EA8524C4F30A061E
:105210008E8004794579640844EAC514C4F30A040D
:10522000CC80057C477C45EA0725C5F30A050D813E
:105230004779C7F301178F724779BF09CF72877912
:1052400090F807C047EA0C278F81077A90F809C0C9
:1052500047EA0C27CF81877A90F80BC047EA0C27E2
:105260000F82077B8F74477BCF74877BC07B47EAB5
:1052700000208882A2F580620A80A3F580634B80BB
:10528000A6F580668E80A4F58064CC80A5F5806547
:105290000D81FA20C875F0BD7CB504461348144D45
:1052A0000068B0FBF5F04FF47A75684301906068D0
:1052B000B0F5827F0DD10B4600920022802120465E
:1052C00000F018F878B1606D40F0200060650320B0
:1052D0007CBD019838B10198401E0190206880681B
:1052E000C0430006F5D500207CBD000078010020F9
:1052F00000366E012DE9F84304460F4691461E46DE
:10530000089DFDF761F9401B351AFDF75DF98046F0
:1053100026480068C0F3CB30684300903AE0701C28
:1053200038D0FDF751F9A0EB0800A84203D215B11F
:10533000009858B32BE02068416821F0E0014160FB
:105340006068B0F5827F0BD1A068B0F5004F02D045
:10535000B0F5806F04D12068016821F04001016040
:10536000A06AB0F5005F09D12068016821F40051FE
:1053700001602068016841F400510160012050344F
:105380006070002020700320BDE8F883002500989D
:10539000401E00902068806837EA000004D000209A
:1053A0004845BCD10020EFE70120F9E77801002053
:1053B00010B5502080F31188BFF34F8FBFF36F8F6C
:1053C00001F034FC18B104494FF08050086000200F
:1053D00080F3118810BD000004ED00E030B593B0FB
:1053E000302107A8FBF792FD142102A8FBF78EFDE0
:1053F00000251E48016841F080510160006800F0FE
:10540000805001901A48016841F4804101600068B1
:1054100000F48040019001200790000408900224CD
:105420000D9480010E9006200F90A82010901194EA
:105430000720129007A8FDF7CDFA08B1FCF770FA23
:105440000F200290039404954FF4A05005904FF460
:1054500080500690052102A8FDF788F908B1FCF7F5
:105460005FFAFDF729FA13B030BD00004038024062
:10547000007000400248016841F47001016070470B
:1054800088ED00E00148FDF76EBF000074170020B2
:105490002DE9F0410268264D264E274FDFF89CC0CB
:1054A000274B4FF08048A84209D0404507D0B04272
:1054B00005D0B84203D0604501D0984203D122F014
:1054C00070044A682243A8421BD0404519D0B0421C
:1054D00017D0B84215D0604513D0984211D0194C5E
:1054E000A0420ED0184CA0420BD0184CA04208D0BD
:1054F000174CA04205D0174CA04202D0164CA04237
:1055000003D122F44074CA6822434C6922F080021D
:10551000224302608A68C2620A688262A84201D09D
:10552000984201D10969016301214161BDE8F0811F
:10553000000001400004004000080040000C004052
:105540000004014000400140004401400048014087
:1055500000180040001C00400020004010B501F081
:105560001F0101238B40046A9C430462036A8A4042
:105570001343036210BD10B5846824F47F4442EAEB
:1055800003220A432243826010BD826822F0700227
:105590000A4342F00701816070470000F0B5026ADB
:1055A00022F001020262026A4368846924F07004F6
:1055B00024F003050C682C4322F002058A682A4374
:1055C0000E4E0F4FB04201D0B84205D122F008056F
:1055D000CA682A4322F00402B04201D0B84207D17F
:1055E00023F4807323F400734D691D438B692B43AF
:1055F00043608461496841630262F0BD000001407C
:1056000000040140F0B5026A22F010020262036A4F
:105610004268846924F4E04424F440740D6844EA48
:10562000052423F020038D6843EA0513104D114E25
:10563000A84201D0B04206D123F08003CF6843EAEC
:10564000071323F04003A84201D0B04209D122F44D
:10565000806222F400624D6942EA85028D6942EA65
:10566000850242608461496881630362F0BD000085
:105670000000014000040140F0B5026A22F480728B
:105680000262026A4368C46924F0700424F00305CE
:105690000C682C4322F400728D6842EA0522104DFA
:1056A000104EA84201D0B04206D122F40062CF6869
:1056B00042EA072222F48062A84201D0B04209D116
:1056C00023F4805323F400534D6943EA05138D6995
:1056D00043EA05134360C4614968C1630262F0BDD7
:1056E000000001400004014030B5026A22F48052FB
:1056F0000262046A4268C36923F4E04323F44073FE
:105700000D6843EA052324F400548D6844EA053407
:10571000084DA84202D0084DA84204D122F480428C
:105720004D6942EA85124260C361496801640462BE
:1057300030BD0000000001400004014010B5036AC4
:10574000046A24F001040462846924F0F00444EA49
:10575000021423F00A020A438461026210BD10B5EC
:10576000036A23F0100303628469036A24F470441B
:1057700044EA023223F0A00343EA0111826101628C
:1057800010BD10B5806B0021C185C184FEF70EF8F5
:1057900010BD01680C3151E8002F22F4907241E8ED
:1057A0000023002BF5D10168143151E8002F22F0BD
:1057B000010241E80023002BF5D1016B012909D139
:1057C00001680C3151E8002F22F0100241E800235B
:1057D000002BF5D1202180F83E1000210163704795
:1057E00010B50168CA6822F04002CA60202180F822
:1057F0003D10FEF77EF9002010BD08B590F83E1070
:10580000222901D0022008BD82684FF480539A42B9
:1058100001D1016921B1816A9A421DD052B10BE0D8
:10582000816A02685268C2F308020A80816A891C90
:10583000816209E002697AB10268526802F07F026F
:105840000A70816A491C8162C18D491E0904090CD4
:10585000C18505D0002008BD026852680A70F0E7D3
:105860000168CA6822F02002CA600168CA6822F48E
:105870008072CA6001684A6922F001024A612021EF
:1058800080F83E10016B012903D0FEF731F90020AA
:1058900008BD0021016301680C3151E8002F22F09E
:1058A000100241E80023002BF5D101680A68D206F6
:1058B00002D50A6849680091818DFDF759FFE6E736
:1058C0002DE9F041044620680169E26821F4405165
:1058D00011430161A1682069E269014360691043D5
:1058E00001432068C26849F20C639A430A43C260CC
:1058F00020684169A26921F4407111434161334933
:105900002068884202D03249884202D1FDF70EF861
:1059100001E0FCF7FBFFE16900231927642532262B
:10592000B1F5004F28D061688B0F8A00A0FB0701FA
:10593000FBF719FA0146B0FBF5F07A42504301EB50
:10594000800006EB0010B0FBF5F000F0F002B1FBB8
:10595000F5F002EB0012B1FBF5F07B42584301EB8E
:10596000800006EB0010B0FBF5F0216800F00F009E
:1059700010448860BDE8F08161684A18A0FB070107
:105980005B41FBF7F0F90146B0FBF5F00201B1FB1A
:10599000F5F06FF01803584301EB800006EBC000F0
:1059A000B0FBF5F000F0F80002EB4002B1FBF5F0BF
:1059B000584301EB800006EBC000B0FBF5F0216816
:1059C00000F0070010448860D4E700000010014098
:1059D0000014014090F83D10212901D002207047A9
:1059E0008168B1F5805F01D1016961B1016A4A1C2A
:1059F0000262026809785160C18C491E0904090CD1
:105A0000C1840AD013E0016A02680988C1F3080161
:105A10005160016A891C0162EEE70168CA6822F0E0
:105A20008002CA600068C16841F04001C160002086
:105A3000704700000148FDF7BBBE0000D0160020F3
:105A400070B5049E01240463242484850468656978
:105A500045F0400565610468E56845F01005E560BE
:105A6000846B2468256825F001052560846B246813
:105A70002468E407F4D1846B2468A160816B096811
:105A8000CA60816B09680B61816B09684E60816B2C
:105A900009680A6842F480220A60806B0068016825
:105AA00041F00101016070BD004970470064004091
:105AB00030B4826B126813681C034FF0240313D4B4
:105AC000146824F001041460826B1268146844F4B2
:105AD00000241460806B00684360122919D130BC27
